:06000000000013EF00F008
:10000800FFFF0182FACF03F0FBCF04F001EC03F00D
:1000180004C0FBFF03C0FAFF01921100FFFFA5EF28
:0200280003F0E3
:100600000000FFFF9DA207EF03F00AEF03F0FFFFDA
:100610002EEF03F0FFFF9EA210EF03F013EF03F0A5
:10062000FFFF2EEF03F0FFFF9E920C500D10D8B489
:100630001CEF03F01FEF03F0FFFF2EEF03F0FFFFAF
:1006400002D82EEF03F0FFFF0500FA6E0C50FD6E8E
:100650000D50FE6EFF6AFA501200FFFFFFFF1200FE
:10066000FFFFFFFF40EF03F0FFFF000E5CEF03F022
:10067000FFFF010E5CEF03F0FFFF020E5CEF03F0E3
:10068000FFFF05C007F006C008F00850000AD8B404
:100690004CEF03F03CEF03F0FFFF0750010AD8B422
:1006A00034EF03F0050AD8B438EF03F0140AD8B4D5
:1006B0003CEF03F03CEF03F0FFFF1200FFFFFFFFF2
:1006C00009C005F00AC006F031EC03F00B6E010E14
:1006D0000B16CA500B18FE0B0B18CA6E09C005F09A
:1006E0000AC006F031EC03F00B6ED8900B32010E0D
:1006F0000B160B46CA500B18FD0B0B18CA6ECB68B5
:10070000CC6A1200FFFFFFFFB4EC03F00A6A100E80
:10071000096E5FEC03F0760E056E070E066EADEC0B
:1007200003F0C2EC03F0C7EC03F0F28CF28EFFFF93
:1007300097EF03F013EF00F0FFFF026EF00E81164B
:1007400002500F0B81121200FFFF0E6A01900192FE
:10075000000EF86E000183EF03F0FFFF05C00CF000
:1007600006C00DF01200FFFFFFFFF00E9316F00E13
:1007700081161200FFFFFFFF0E2A0E509CEC03F0C3
:100780001200FFFFFFFF9E929D821200FFFFFFFFFE
:08079000CA841200FFFFFFFF05
:020000040030CA
:0E000000FF220F0EFF0181FF0FC00FE00F4027
:00000001FF
