:060000000000FEEF1FF0FE
:10060000003031323334353637383941424344458E
:1006100046005253343835206563686F2065786131
:100620006D706C65207265616479005253343835A1
:0D063000207278203D203078000D0A000077
:10063E00FFFF000E506E000E516E000E526E000E39
:10064E00536E4C504D104E104F10D8B431EF03F086
:10065E0034EF03F0FFFF73EF03F0FFFF010E546E54
:10066E0040EF03F0FFFFD8904C364D364E364F36E6
:10067E00542AFFFF4FAE46EF03F049EF03F0FFFFA2
:10068E0039EF03F0FFFFFFFFD89050365136523648
:10069E0053364C50485C4D5049584E504A584F5066
:1006AE004B58D8A05DEF03F060EF03F0FFFF6AEF49
:1006BE0003F0FFFF4C50485E4D50495A4E504A5A77
:1006CE004F504B5A5080FFFFD8904F324E324D3222
:1006DE004C32542E4AEF03F0FFFF50C048F051C089
:1006EE0049F052C04AF053C04BF01200FFFFFFFF1B
:1006FE005550561057105810D8A488EF03F08BEFB2
:10070E0003F0FFFF94EF03F0FFFF800E556E250EF2
:10071E00566E000E576E000E586EFFFFAC98AC84EE
:10072E00000E486E120E496E7A0E4A6E000E4B6E19
:10073E0055C059F056C05AF057C05BF058C05CF027
:10074E00040EFFFFD89059365A365B365C36E82ECB
:10075E00A8EF03F059C04CF05AC04DF05BC04EF0FC
:10076E005CC04FF01FEC03F0FF0E48245D6EFF0ED1
:10077E0049205E6EFF0E4A205F6EFF0E4B20606EAC
:10078E005DC0AFFFAB8EAC8AAB88466A456A12007D
:10079E00FFFFFFFF800E556E250E566E000E576E34
:1007AE00000E586E7EEC03F0810E4E6E0F0E4F6EE5
:1007BE00930E506E0F0E516E020E526E42EC05F0FD
:1007CE00B8EC05F0120E496E4FEC04F0390E496E7E
:1007DE004FEC04F0FFFF6EEC05F00009D8B4FAEF11
:1007EE0003F0FDEF03F0FFFF17EF04F0FFFFCAEC7D
:1007FE0005F0616E2B0E496E4FEC04F0615021EC4A
:10080E0004F03B0E496E4FEC04F0390E496E4FEC7E
:10081E0004F0ADEC05F06150C3EC05F0B8EC05F05A
:10082E00FFFF496A0A0E486ED9EC04F0F1EF03F0AF
:10083E00FEEF1FF0FFFF5B6E010EF66E20EE4AF02C
:10084E00100E0900FFFFF5CFDEFFE806FAE2300ECC
:10085E0081EC05F0780E81EC05F05BC049F0493A69
:10086E000F0E49160F0E491649504A0FD96EDA6A05
:10087E00DF5081EC05F05BC049F00F0E4916495070
:10088E004A0FD96EDA6ADF5081EC05F01200FFFFD5
:10089E00FFFF4950D8A456EF04F059EF04F0FFFFC4
:1008AE0065EF04F0FFFF74EF04F0FFFF49C0F6FFA1
:1008BE000800FFFFF55081EC05F0492AFFFF49C003
:1008CE00F6FF0800FFFFF5500009D8A471EF04F001
:1008DE0074EF04F0FFFF5CEF04F0FFFF1200FFFF68
:1008EE00FFFF59EC05F04A0E486E9BEC04F0000930
:1008FE00D8B484EF04F087EF04F0FFFF8BEF04F021
:10090E00FFFF4A5098EF04F0FFFF9EAA91EF04F00C
:10091E0094EF04F0FFFF8BEF04F0FFFF91EC05F076
:10092E00AE50FFFF1200FFFFFFFF45504618D8A440
:10093E00A3EF04F0A6EF04F0FFFFAAEF04F0FFFF11
:10094E00000EB8EF04F0FFFF4550010FD96EDA6AC2
:10095E004850E16EE26ADFCFE7FF45283F0B456E58
:10096E00010EFFFF1200FFFFFFFF486E46283F0BF0
:10097E00496E45504918D8A4C7EF04F0CAEF04F0E9
:10098E00FFFFCDEF04F0FFFFD6EF04F0FFFF465060
:10099E00010FD96EDA6A48C0DFFF49C046F0FFFF8B
:1009AE001200FFFFFFFFE9EF04F0FFFF020E4A6E99
:1009BE00F20EFFFFE82EFDD74A2EFBD700D04806D9
:1009CE00D8A04906FFFF48504910D8A4F1EF04F013
:1009DE00F4EF04F0FFFFDCEF04F0FFFF1200FFFF67
:1009EE00FFFF4AC04BF0010E4C6E4B2A02EF05F092
:1009FE00FFFFD8904C36FFFF4B2EFFEF04F04C500C
:100A0E00FF0A4D6E48C0D9FF49C0DAFF4D50DF16C0
:100A1E001200FFFFFFFF4AC04BF0010E4C6E4B2A37
:100A2E001CEF05F0FFFFD8904C36FFFF4B2E19EF51
:100A3E0005F04C50FF0A4D6E48C0D9FF49C0DAFF91
:100A4E004D50DF161200FFFFFFFF4AC04BF0010EA4
:100A5E004C6E4B2A36EF05F0FFFFD8904C36FFFF59
:100A6E004B2E33EF05F048C0D9FF49C0DAFF4C508A
:100A7E00DF121200FFFFFFFF4EC043F04FC044F0E5
:100A8E0050C041F051C042F052C047F041C048F052
:100A9E0042C049F047C04AF011EC05F0B8EC05F041
:100AAE001200FFFFFFFF91EC05F062EF05F0FFFF74
:100ABE00AE50BBEC04F0FFFF9EBA68EF05F06BEF93
:100ACE0005F0FFFF5EEF05F0FFFF1200FFFFFFFFD7
:100ADE0059EC05F045504618D8A478EF05F07CEF98
:100AEE0005F0FFFF010E7EEF05F0FFFF000EFFFF8A
:100AFE001200FFFFFFFF486EFFFF9EA889EF05F073
:100B0E008CEF05F0FFFF83EF05F0FFFF48C0ADFF50
:100B1E001200FFFFFFFFABA297EF05F09AEF05F073
:100B2E00FFFF9DEF05F0FFFFAB98AB88FFFF1200B4
:100B3E00FFFF00EE01F0470EEE6AE806FDE1000E43
:100B4E00F86E060EF76E0001D0EF03F0FFFF43C004
:100B5E0048F044C049F047C04AF02BEC05F01200B3
:100B6E00FFFFFFFF43C048F044C049F047C04AF0C2
:100B7E00F7EC04F01200FFFFFFFF496E495081ECC5
:100B8E0005F01200FFFFFFFF77EC04F01200FFFFED
:020B9E00FFFF57
:043FFC00A0EF05F03D
:020000040030CA
:0E000000FF220F0EFF0181FF0FC00FE00F4027
:00000001FF
