:060000000000FEEF1FF0FE
:1032F800FFFF00EE01F0430EEE6AE806FDE1000E66
:10330800F86E000166EF1EF0FFFFD2EC19F0C580E1
:10331800FFFFC5B092EF19F095EF19F0FFFF8CEFA2
:1033280019F0FFFF1200FFFFFFFFD2EC19F0C58470
:10333800FFFFC5B4A2EF19F0A5EF19F0FFFF9CEF4E
:1033480019F0FFFF1200FFFFFFFF446EFFFF9EA86A
:10335800B0EF19F0B3EF19F0FFFFAAEF19F0FFFF74
:1033680044C0ADFF1200FFFFFFFF466E88EC19F066
:10337800465046240AEC1AF0476E98EC19F047506C
:10338800D8B4C9EF19F0CDEF19F0FFFF010ECFEF58
:1033980019F0FFFF000EFFFF1200FFFFFFFFFFFF06
:1033A800C5CF44F01F0E4416D8A4DDEF19F0E0EFA6
:1033B80019F0FFFFD3EF19F0FFFFFFFFC7B4E7EFE6
:1033C80019F0EAEF19F0FFFFE1EF19F0FFFF120023
:1033D800FFFFFFFFFCEF19F0FFFF030E466E6F0EB5
:1033E800FFFFE82EFDD7462EFBD74406D8A045069A
:1033F800FFFF44504510D8A404EF1AF007EF1AF065
:10340800FFFFF0EF19F0FFFF1200FFFFFFFF456E0F
:10341800D2EC19F09E9645C0C9FFFFFF9EA617EF94
:103428001AF01AEF1AF0FFFF11EF1AF0FFFFC5BCF0
:1034380020EF1AF024EF1AF0FFFF010E26EF1AF022
:10344800FFFF000EFFFF1200FFFFFFFF270E486E71
:10345800200E71EC1AF04B6E4B50D8B436EF1AF0C0
:1034680039EF1AF0FFFF3EEF1AF0FFFFFFFF4B5056
:1034780047EF1AF0FFFF3F0E486E380E71EC1AF056
:103488004B6E3AEF1AF0FFFF1200FFFFFFFF54BE2A
:1034980053EF1AF050EF1AF0FFFF67EF1AF0FFFF33
:1034A8002D0EA8EC19F053C055F054C056F0551E17
:1034B800561E554A562A55C04BF056C04CF0ECECF7
:1034C8001CF06EEF1AF0FFFF53C04BF054C04CF0E5
:1034D800ECEC1CF0FFFF1200FFFFFFFF496E49C034
:1034E8004AF08AEF1AF0FFFF4A50B8EC19F00009C9
:1034F800D8B481EF1AF084EF1AF0FFFF88EF1AF0C2
:10350800FFFF4A5097EF1AF0FFFF4A2AFFFF4A5081
:10351800485CD8B092EF1AF095EF1AF0FFFF77EFFA
:103528001AF0FFFF000EFFFF1200FFFFFFFF4550DC
:103538004610D8A4A2EF1AF0A5EF1AF0FFFFB4EFD7
:103548001AF0FFFFC5EF1AF0FFFF45C0F6FF46C0AF
:10355800F7FF0800FFFFF550A8EC19F0454A462A86
:10356800FFFF45C0F6FF46C0F7FF0800FFFFF55014
:103578000009D8A4C2EF1AF0C5EF1AF0FFFFA8EFB0
:103588001AF0FFFF1200FFFFFFFF576E010EF66EE5
:10359800400EF76E20EE46F0100E0900FFFFF5CF43
:1035A800DEFFE806FAE2300EA8EC19F0780EA8EC77
:1035B80019F057C045F0453A0F0E45160F0E45163F
:1035C8004550460FD96EDA6ADF50A8EC19F057C09B
:1035D80045F00F0E45164550460FD96EDA6ADF5092
:1035E800A8EC19F01200FFFFFFFF5A6E5A505A2438
:1035F800586ED8805A34596E930E456E410E466EF9
:103608009AEC1AF05A50C8EC1AF0760E456E410E34
:10361800466E9AEC1AF05850C8EC1AF0850E456EB2
:10362800410E466E9AEC1AF05950C8EC1AF0A60EE4
:10363800456E410E466E9AEC1AF0A40E456E410E88
:10364800466E9AEC1AF01200FFFFFFFF466ED2ECAE
:1036580019F0C586FFFFC5B634EF1BF037EF1BF036
:10366800FFFF2EEF1BF0FFFFC9CF47F0D2EC19F098
:103678004650D8B442EF1BF047EF1BF0FFFF456AF6
:10368800452A49EF1BF0FFFF456AFFFF453A4546CB
:10369800C5504518DF0B4518C56EC588FFFFC5B86E
:1036A80058EF1BF05BEF1BF0FFFF52EF1BF0FFFF23
:1036B80047501200FFFFFFFF496E070E4A6EFFFFDB
:1036C8004AC047F0010E486E472A6EEF1BF0FFFF15
:1036D800D8904836FFFF472E6BEF1BF0485049142F
:1036E8000009D8B47AEF1BF07DEF1BF0FFFF86EFDF
:1036F8001BF0FFFFA90E456E410E466E9AEC1AF0BC
:103708008DEF1BF0FFFFA70E456E410E466E9AEC3B
:103718001AF0FFFF4A064ABE97EF1BF094EF1BF022
:10372800FFFF63EF1BF0FFFF1200FFFFFFFF435097
:10373800D8B4A1EF1BF0A4EF1BF0FFFFAEEF1BF016
:10374800FFFF4850D8A4ABEF1BF0AEEF1BF0FFFF14
:10375800B2EF1BF0FFFF010ED3EF1BF0FFFF88EC69
:1037680019F0D88043340AEC1AF0496E4950D8B49D
:10377800C0EF1BF0C3EF1BF0FFFFC8EF1BF0FFFF0C
:1037880098EC19F0AEEF1BF0FFFF4850D96EDA6ADB
:10379800000E29EC1BF0DF6E98EC19F0000EFFFF0D
:1037A8001200FFFFFFFF466E4350D8A4DEEF1BF068
:1037B800E1EF1BF0FFFFE6EF1BF0FFFFFFFF010E3D
:1037C80012EF1CF0FFFF88EC19F0435043240AEC79
:1037D8001AF0476E4750D8B4F4EF1BF0F7EF1BF020
:1037E800FFFFFDEF1BF0FFFFFFFF98EC19F0E2EF82
:1037F8001BF0FFFF46500AEC1AF0476E4750D8B44A
:1038080008EF1CF00BEF1CF0FFFF0EEF1CF0FFFFA2
:10381800F8EF1BF0FFFF98EC19F0000EFFFF120005
:10382800FFFFFFFF46504710D8B41DEF1CF020EFF4
:103838001CF0FFFF4DEF1CF0FFFF010E486E2AEF52
:103848001CF0FFFFD89046364736482AFFFF47AEA0
:1038580030EF1CF033EF1CF0FFFF25EF1CF0FFFFEB
:10386800FFFF4650445C47504558D8A03EEF1CF037
:1038780041EF1CF0FFFF46EF1CF0FFFF4650445E8F
:103888004750455AFFFFD89047324632482E34EF0A
:103898001CF0FFFF44C044F045C045F01200FFFF94
:1038A800FFFF496A000E486E46504710D8B45FEFD4
:1038B8001CF062EF1CF0FFFF93EF1CF0FFFF010EFE
:1038C8004A6E6CEF1CF0FFFFD890463647364A2AFE
:1038D800FFFF47AE72EF1CF075EF1CF0FFFF67EFBC
:1038E8001CF0FFFFFFFFD890483649364650445C2D
:1038F80047504558D8A083EF1CF086EF1CF0FFFF17
:103908008CEF1CF0FFFF4650445E4750455A4880F4
:10391800FFFFD890473246324A2E76EF1CF0FFFF61
:1039280048C044F049C045F01200FFFFFFFF515066
:10393800521053105410D8A4A4EF1CF0A7EF1CF099
:10394800FFFFB0EF1CF0FFFF800E516E250E526E88
:10395800000E536E000E546EFFFFAC98AC84800EC0
:10396800446E960E456E980E466E000E476E51C018
:1039780055F052C056F053C057F054C058F0040EDA
:10398800FFFFD8905536563657365836E82EC4EFCE
:103998001CF055C048F056C049F057C04AF058C00E
:1039A8004BF09FEC1DF0FF0E4424596EFF0E45208E
:1039B8005A6EFF0E46205B6EFF0E47205C6E59C0A4
:1039C800AFFFAB8EAC8AAB88426A416A1200FFFF38
:1039D800FFFF526A4B504C10D8A4F5EF1CF0F8EFDB
:1039E8001CF0FFFF1DEF1DF0FFFF300EA8EC19F0D3
:1039F8003EEF1DF0FFFF52504D0FD96EDA6A4BC0F3
:103A080044F04CC045F0476A0A0E466E15EC1CF0AF
:103A18004450300FDF6E522A4BC044F04CC045F082
:103A2800476A0A0E466E54EC1CF044C04BF045C081
:103A38004CF0FFFF4B504C10D8A425EF1DF028EF99
:103A48001DF0FFFFFEEF1CF0FFFF34EF1DF0FFFF3E
:103A5800520652504D0FD96EDA6ADF50A8EC19F0B1
:103A6800FFFF5250D8A43BEF1DF03EEF1DF0FFFFC3
:103A78002BEF1DF0FFFF1200FFFFFFFF5B6AA60E92
:103A8800456E410E466E9AEC1AF0A40E456E410E34
:103A9800466E9AEC1AF0A80E456E400E466E9AECE9
:103AA8001AF0A40E456E410E466E9AEC1AF0030EFB
:103AB8005C6EFFFF5C50B8EC19F00009D8B467EFF2
:103AC8001DF06AEF1DF0FFFF75EF1DF0FFFF7E0E82
:103AD800456E410E466E9AEC1AF05C50F8EC1AF0FE
:103AE8005B2AFFFF456A020E446EEDEC19F05C2A72
:103AF800770E5C6482EF1DF085EF1DF0FFFF5DEF30
:103B08001DF0FFFF470E456E410E466E9AEC1AF007
:103B18005BC053F0546A4AEC1AF0A60E456E410E8B
:103B2800466E9AEC1AF0A40E456E410E466E9AEC5B
:103B38001AF01200FFFFFFFF000E4C6E000E4D6ED4
:103B4800000E4E6E000E4F6E485049104A104B1032
:103B5800D8B4B1EF1DF0B4EF1DF0FFFFF3EF1DF087
:103B6800FFFF010E506EC0EF1DF0FFFFD8904836E2
:103B780049364A364B36502AFFFF4BAEC6EF1DF08A
:103B8800C9EF1DF0FFFFB9EF1DF0FFFFFFFFD89051
:103B98004C364D364E364F364850445C49504558A1
:103BA8004A5046584B504758D8A0DDEF1DF0E0EF7B
:103BB8001DF0FFFFEAEF1DF0FFFF4850445E49503B
:103BC800455A4A50465A4B50475A4C80FFFFD890A6
:103BD8004B324A3249324832502ECAEF1DF0FFFFAD
:103BE8004CC044F04DC045F04EC046F04FC047F0C1
:103BF8001200FFFFFFFF5150521053105410D8A469
:103C080008EF1EF00BEF1EF0FFFF14EF1EF0FFFF92
:103C1800A00E516E860E526E010E536E000E546E3B
:103C2800FFFF94869488280EC66EC56A800EC76EFC
:103C3800800E446E960E456E980E466E000E476EC8
:103C480051C055F052C056F053C057F054C058F008
:103C5800020EFFFFD8905536563657365836E82E9E
:103C68002DEF1EF055C048F056C049F057C04AF035
:103C780058C04BF09FEC1DF0FF0E4424596EFF0E08
:103C880045205A6EFF0E46205B6EFF0E47205C6E85
:103C98005C505B1009E15A04D8A055EF1EF058EFAC
:103CA8001EF0FFFF61EF1EF0FFFFFF0E596E000EC2
:103CB8005A6E000E5B6E000E5C6EFFFF59C0C8FFA7
:103CC8001200FFFFFFFF800E516E250E526E000E90
:103CD800536E000E546E9AEC1CF0100E516E270EA7
:103CE800526E000E536E000E546EFEEC1DF0A60EC2
:103CF800456E410E466E9AEC1AF0A40E456E410EC2
:103D0800466E9AEC1AF0E00E456E400E466E9AEC3E
:103D18001AF0A40E456E410E466E9AEC1AF08B0E00
:103D2800456E400E466E9AEC1AF0A40E456E410E92
:103D3800466E9AEC1AF08C0E456E410E466E9AEC61
:103D48001AF0270E546E100E536E4AEC1AF0A00E9D
:103D5800456E410E466E9AEC1AF0A40E456E410E61
:103D6800466E9AEC1AF0660E456E400E466E9AEC58
:103D78001AF0A40E456E410E466E9AEC1AF0400EEB
:103D8800456E400E466E9AEC1AF0A40E456E410E32
:103D9800466E9AEC1AF041EC1DF029EC1AF0436ECD
:103DA800A60E456E410E466E9AEC1AF0A40E456EAC
:103DB800410E466E9AEC1AF04350D8A4E6EF1EF076
:103DC800E9EF1EF0FFFF0BEF1FF0FFFF260E456E19
:103DD800410E466E9AEC1AF0A40E456E410E466EE0
:103DE8009AEC1AF0120E456E400E466E9AEC1AF0D6
:103DF800A40E456E410E466E9AEC1AF0FFFF030EB4
:103E0800456EE80E446EEDEC19F002EF1FF0FFFF6F
:103E1800140E456E410E466E9AEC1AF04350C8ECEB
:103E28001AF0A60E456E410E466E9AEC1AF0A40ED4
:103E3800456E410E466E9AEC1AF0FF0ED6EC1BF05A
:103E48000009D8B42AEF1FF02DEF1FF0FFFF3CEF59
:103E58001FF0FFFFC40E456E400E466E9AEC1AF036
:103E6800A40E456E410E466E9AEC1AF049EF1FF00B
:103E7800FFFFFB0E456E400E466E9AEC1AF0A40E3C
:103E8800456E410E466E9AEC1AF0FFFF616AFFFF1D
:103E9800070E616452EF1FF055EF1FF0FFFF58EF58
:103EA8001FF0FFFFF0EF1FF0FFFF61C05DF0010E94
:103EB8005E6E5D2A63EF1FF0FFFFD8905E36FFFF4E
:103EC8005D2E60EF1FF05E50FF0A5F6E380E456E84
:103ED800410E466E9AEC1AF05F50C8EC1AF06C0E60
:103EE800456E410E466E9AEC1AF061C053F0546A62
:103EF8004AEC1AF0A60E456E410E466E9AEC1AF080
:103F0800A40E456E410E466E9AEC1AF05F50D6EC40
:103F18001BF00009D8B493EF1FF096EF1FF0FFFFD6
:103F2800A3EF1FF0FFFFD40E456E400E466E9AECCD
:103F38001AF0A40E456E410E466E9AEC1AF0FFFF79
:103F4800010E456E2C0E446EEDEC19F0606A600EA1
:103F5800486E9AEC1BF00009D8A4B5EF1FF0B8EF33
:103F68001FF0FFFFD9EF1FF0FFFF550E456E410E02
:103F7800466E9AEC1AF06050C8EC1AF09A0E456E2C
:103F8800410E466E9AEC1AF060505FEC1BF0A60EDC
:103F9800456E410E466E9AEC1AF0A40E456E410E1F
:103FA800466E9AEC1AF0E6EF1FF0FFFF610E456EC1
:103FB800410E466E9AEC1AF0A40E456E410E466EFE
:103FC8009AEC1AF0FFFF010E456E2C0E446EEDECD4
:103FD80019F0612A4BEF1FF0FFFFFF0ED6EC1BF024
:103FE800010E456EF40E446EEDEC19F049EF1FF02A
:103FF800FEEF1FF07DEF19F00030313233343536E3
:1040080037383941424344454600436865636B206D
:104018005643432C20474E442C2053434C2C2053CA
:1040280044412C2070756C6C2D7570732C204130B8
:104038002F41312F41322E004578706563746564D5
:1040480020504346383537344120616464726573C3
:10405800733A20307833382E2E307833460045783E
:104068007065637465642050434638353734206181
:104078006464726573733A20307832302E2E30784B
:1040880032370053434C3D5243332F70696E3138F9
:104098002C205344413D5243342F70696E32330013
:1040A8005363616E6E696E6720493243206275738F
:1040B80020307830332E2E3078373700504346384A
:1040C80035373420494E495449414C2057524954B8
:1040D80045204552524F52005049433138463435F5
:1040E80032205043463835373420493243207465EE
:1040F8007374005043463835373420494E49544983
:10410800414C205752495445204F4B0050434638A4
:1041180035373420464F554E4420415420005043F3
:104128004638353734204E4F5420464F554E4400BC
:104138005752495445207061747465726E3D00543D
:104148006F74616C20666F756E643A200052454149
:10415800442076616C75653D0052454144204552C6
:10416800524F5200206163746976652050002077B1
:10417800726974653D00464F554E442000207265B3
:1041880061643D0053706565643D00372D62697454
:104198003D002062696E3D0020487A000D0A00301B
:0441A80000310000E2
:020000040030CA
:0E000000FF220F0EFF0181FF0FC00FE00F4027
:00000001FF
