:06000000000013EF00F008
:10000800FFFF0182FACF51F0FBCF52F04CEC05F024
:1000180052C0FBFF51C0FAFF01921100FFFF21EF10
:0200280006F0E0
:10060000003031323334353637383941424344458E
:1006100046005369676E616C3A2070756C73652093
:1006200067656E657261746F7220302E2E355620AC
:100630007371756172652077617665005843382063
:1006400043435020636170747572652064726976EB
:100650006572206578616D706C6520737461727469
:10066000656400496E7075743A205243322F4343DB
:1006700050310043435020636170747572653D00D2
:0B06800020544D52313D000D0A0000D7
:10068C00FFFF000E5B6E000E5C6E000E5D6E000ECA
:10069C005E6E5750581059105A10D8B458EF03F0DA
:1006AC005BEF03F0FFFF9AEF03F0FFFF010E5F6EAD
:1006BC0067EF03F0FFFFD8905736583659365A3645
:1006CC005F2AFFFF5AAE6DEF03F070EF03F0FFFFF0
:1006DC0060EF03F0FFFFFFFFD8905B365C365D36B2
:1006EC005E365750535C58505458595055585A50C0
:1006FC005658D8A084EF03F087EF03F0FFFF91EF7B
:10070C0003F0FFFF5750535E5850545A5950555AE6
:10071C005A50565A5B80FFFFD8905A325932583291
:10072C0057325F2E71EF03F0FFFF5BC053F05CC0DC
:10073C0054F05DC055F05EC056F01200FFFFFFFF95
:10074C00616A5A505B10D8A4AEEF03F0B1EF03F01E
:10075C00FFFFD6EF03F0FFFF300E11EC06F0F7EFC2
:10076C0003F0FFFF61505C0FD96EDA6A5AC053F088
:10077C005BC054F0566A0A0E556ED7EC04F0535019
:10078C00300FDF6E612A5AC053F05BC054F0566ACA
:10079C000A0E556E4CEC04F053C05AF054C05BF08A
:1007AC00FFFF5A505B10D8A4DEEF03F0E1EF03F02B
:1007BC00FFFFB7EF03F0FFFFEDEF03F0FFFF610664
:1007CC0061505C0FD96EDA6ADF5011EC06F0FFFF56
:1007DC006150D8A4F4EF03F0F7EF03F0FFFFE4EF60
:1007EC0003F0FFFF1200FFFFFFFF6050611062106B
:1007FC006310D8A404EF04F007EF04F0FFFF10EF30
:10080C0004F0FFFF800E606E250E616E000E626EAE
:10081C00000E636EFFFFAC98AC84000E536E120E8C
:10082C00546E7A0E556E000E566E60C064F061C048
:10083C0065F062C066F063C067F0040EFFFFD890ED
:10084C006436653666366736E82E24EF04F064C0ED
:10085C0057F065C058F066C059F067C05AF046ECC6
:10086C0003F0FF0E5324686EFF0E5420696EFF0ECA
:10087C0055206A6EFF0E56206B6E68C0AFFFAB8EB4
:10088C00AC8AAB88496A486A1200FFFFFFFF586ABE
:10089C00000E576E55505610D8B457EF04F05AEF5F
:1008AC0004F0FFFF8BEF04F0FFFF010E596E64EFB5
:1008BC0004F0FFFFD89055365636592AFFFF56AE36
:1008CC006AEF04F06DEF04F0FFFF5FEF04F0FFFF41
:1008DC00FFFFD890573658365550535C56505458E5
:1008EC00D8A07BEF04F07EEF04F0FFFF84EF04F060
:1008FC00FFFF5550535E5650545A5780FFFFD89007
:10090C0056325532592E6EEF04F0FFFF57C053F09C
:10091C0058C054F01200FFFFFFFF9484800E606EED
:10092C00250E616E000E626E000E636EFAEC03F023
:10093C00F6EC05F03BEC06F0000E2EEC06F09E0EED
:10094C00536E0C0E546E58EC06F05FEC06F0F28C05
:10095C00F28EFFFF4A50D8B4B6EF04F0B9EF04F0B2
:10096C00FFFFAFEF04F0FFFF4A6A445046180AE15C
:10097C0045504718D8B4C5EF04F0C8EF04F0FFFF9A
:10098C00AFEF04F0FFFF46C044F047C045F046C04F
:10099C0066F047C067F0D0EC05F0AFEF04F013EF52
:1009AC0000F0FFFF55505610D8B4DFEF04F0E2EF23
:1009BC0004F0FFFF0FEF05F0FFFF010E576EECEF99
:1009CC0004F0FFFFD89055365636572AFFFF56AE27
:1009DC00F2EF04F0F5EF04F0FFFFE7EF04F0FFFF98
:1009EC00FFFF5550535C56505458D8A000EF05F0FB
:1009FC0003EF05F0FFFF08EF05F0FFFF5550535EC6
:100A0C005650545AFFFFD89056325532572EF6EFA7
:100A1C0004F0FFFF53C053F054C054F01200FFFF1A
:100A2C00FFFF556E2AEF05F0FFFF050E49EF05F0AD
:100A3C00FFFF040E49EF05F0FFFF060E49EF05F02E
:100A4C00FFFF070E49EF05F0FFFF5550536E546A38
:100A5C005450000AD8B435EF05F01AEF05F0FFFF3B
:100A6C005350000AD8B41AEF05F0010AD8B41EEF9F
:100A7C0005F0030AD8B422EF05F0010AD8B426EF2A
:100A8C0005F01AEF05F0FFFF1200FFFFFFFF9EA419
:100A9C0052EF05F055EF05F0FFFF7AEF05F0FFFF81
:100AAC0046EC06F04BC04FF04CC050F09E944250B8
:100ABC004310D8B464EF05F067EF05F0FFFF7AEF51
:100ACC0005F0FFFF4FC04BF050C04CF002D87AEF4E
:100ADC0005F0FFFF0500FA6E4250FD6E4350FE6EAE
:100AEC00FF6AFA501200FFFFFFFF1200FFFFFFFF2B
:100AFC005450D8A484EF05F087EF05F0FFFF95EF75
:100B0C0005F0FFFFA6EF05F0FFFF54C0F6FF060E41
:100B1C00F76E0800FFFFF55011EC06F0542AFFFFAA
:100B2C0054C0F6FF060EF76E0800FFFFF5500009E3
:100B3C00D8A4A3EF05F0A6EF05F0FFFF8AEF05F0B0
:100B4C00FFFF1200FFFFFFFF63BEB2EF05F0AFEF38
:100B5C0005F0FFFFC6EF05F0FFFF2D0E11EC06F0C0
:100B6C0062C064F063C065F0641E651E644A652A49
:100B7C0064C05AF065C05BF0A5EC03F0CDEF05F056
:100B8C00FFFF62C05AF063C05BF0A5EC03F0FFFFFF
:100B9C001200FFFFFFFF730E546E7DEC05F066C074
:100BAC0062F067C063F0A9EC05F0800E546E7DEC2A
:100BBC0005F0CE50CFCF68F0696A68C069F0686AFA
:100BCC006810626E6950636EA9EC05F0890E546E64
:100BDC007DEC05F0870E546E7DEC05F01200FFFFE6
:100BEC00FFFF3C0E546E7DEC05F0870E546E7DECD1
:100BFC0005F0630E546E7DEC05F0870E546E7DECA3
:100C0C0005F0120E546E7DEC05F0870E546E7DECE3
:100C1C0005F01200FFFFFFFF536EFFFF9EA819EFB8
:100C2C0006F01CEF06F0FFFF13EF06F0FFFF53C0BA
:100C3C00ADFF1200FFFF00EE02F0490EEE6AE8066F
:100C4C00FDE101900192000EF86E000192EF04F0AC
:100C5C00FFFF576E575016EC05F0566EBD50F00B5B
:100C6C005610BD6E9E941200FFFFFFFFCD90CD92EB
:100C7C00CD98CD9ACF6ACE6A9E90CD801200FFFFA0
:100C8C00FFFFBF504D6EBE504B6E4DC04CF012006E
:100C9C00FFFFFFFF4BC046F04CC047F0010E4A6E01
:100CAC001200FFFFFFFF53C042F054C043F012008C
:0C0CBC00FFFFFFFF9D841200FFFFFFFF01
:020000040030CA
:0E000000FF220F0EFF0181FF0FC00FE00F4027
:00000001FF
