:060000000000FEEF1FF0FE
:10060000003031323334353637383941424344458E
:03061000460000A1
:10061400FFFF476E1EEF03F0FFFF050E3DEF03F0F3
:10062400FFFF040E3DEF03F0FFFF060E3DEF03F066
:10063400FFFF070E3DEF03F0FFFF4750456E466A8C
:100644004650000AD8B429EF03F00EEF03F0FFFF81
:100654004550000AD8B40EEF03F0010AD8B412EFE3
:1006640003F0030AD8B416EF03F0010AD8B41AEF62
:1006740003F00EEF03F0FFFF1200FFFFFFFF000E79
:1006840051EC03F0000E456E000E466E69EC03F06B
:1006940070EC03F0FFFF4CEF03F0FEEF1FF0FFFFE1
:1006A400496E49500AEC03F0486EBD50F00B4810F7
:1006B400BD6E9E941200FFFF00EE01F0440EEE6A40
:1006C400E806FDE1000EF86E000140EF03F0FFFFC5
:1006D40045C04AF046C04BF01200FFFFFFFF9D8467
:0606E4001200FFFFFFFF02
:043FFC005EEF03F081
:020000040030CA
:0E000000FF220F0EFF0181FF0FC00FE00F4027
:00000001FF
