:060000000000FEEF1FF0FE
:100600000000FFFFFDEC03F0930E016E0F0E026E73
:10061000000E036E84EC03F0930E016E0F0E026E5B
:10062000010E036ECCEC03F0FFFF810E016E0F0E86
:10063000026E000E036EB5EC03F0810E016E0F0E1C
:10064000026E010E036EE3EC03F00009D8B42BEF49
:1006500003F02EEF03F0FFFF39EF03F0FFFF810EF1
:10066000016E0F0E026E000E036E9EEC03F042EF61
:1006700003F0FFFF810E016E0F0E026E000E036E7F
:100680006AEC03F0FFFF026A640E016E4CEC03F0AB
:1006900014EF03F0FEEF1FF0FFFF5CEF03F0FFFF2E
:1006A000020E036EF20EFFFFE82EFDD7032EFBD7DE
:1006B00000D00106D8A00206FFFF01500210D8A406
:1006C00064EF03F067EF03F0FFFF4FEF03F0FFFF6E
:1006D0001200FFFFFFFF03C004F0010E056E042AA5
:1006E00075EF03F0FFFFD8900536FFFF042E72EF81
:1006F00003F00550FF0A066E01C0D9FF02C0DAFF01
:100700000650DF161200FFFFFFFF03C004F0010ECA
:10071000056E042A8FEF03F0FFFFD8900536FFFF28
:10072000042E8CEF03F00550FF0A066E01C0D9FFBE
:1007300002C0DAFF0650DF161200FFFFFFFF03C002
:1007400004F0010E056E042AA9EF03F0FFFFD89014
:100750000536FFFF042EA6EF03F001C0D9FF02C04B
:10076000DAFF0550DF121200FFFFFFFF03C004F0A5
:10077000010E056E042AC0EF03F0FFFFD890053686
:10078000FFFF042EBDEF03F001C0D9FF02C0DAFF66
:100790000550DF1A1200FFFFFFFF03C004F0010E37
:1007A000056E042AD7EF03F0FFFFD8900536FFFF50
:1007B000042ED4EF03F001C0D9FF02C0DAFF0550C8
:1007C000DF121200FFFFFFFF03C004F001C0D9FFDA
:1007D00002C0DAFFDF50056E042AF2EF03F0FFFFDC
:1007E000D8900532FFFF042EEFEF03F00550010B08
:1007F0001200FFFF000101EF03F0FFFF1200FFFFF7
:02080000FFFFF8
:043FFC00FAEF03F0E5
:020000040030CA
:0E000000FF220F0EFF0181FF0FC00FE00F4027
:00000001FF
