:060000000000FEEF1FF0FE
:10060000003031323334353637383941424344458E
:03061000460000A1
:10061400FFFF5050511052105310D8A414EF03F0A0
:1006240017EF03F0FFFF20EF03F0FFFFE80E506E1B
:10063400030E516E000E526E000E536EFFFF000E3D
:10064400436E120E446E7A0E456E000E466E50C016
:1006540055F051C056F052C057F053C058F0020E36
:10066400FFFFD8905536563657365836E82E32EFB7
:1006740003F055C047F056C048F057C049F058C081
:100684004AF065EC04F0FF0E4324596EFF0E44203B
:100694005A6EFF0E45205B6EFF0E46205C6E5C506A
:1006A4005B1006E15A04D8B05AEF03F05DEF03F093
:1006B400FFFF66EF03F0FFFF5450D96EDA6A59C0AA
:1006C400DFFF000EF9EF03F0FFFF000E436E120E82
:1006D400446E7A0E456E000E466E50C055F051C001
:1006E40056F052C057F053C058F0040EFFFFD89094
:1006F4005536563657365836E82E78EF03F055C03F
:1007040047F056C048F057C049F058C04AF065EC6D
:1007140004F0FF0E4324596EFF0E44205A6EFF0E60
:1007240045205B6EFF0E46205C6E5C505B1006E15C
:100734005A04D8B0A0EF03F0A3EF03F0FFFFACEF2F
:1007440003F0FFFF5450D96EDA6A59C0DFFF010E7F
:10075400F9EF03F0FFFF000E436E120E446E7A0EA3
:10076400456E000E466E50C055F051C056F052C052
:1007740057F053C058F0060EFFFFD8905536563642
:1007840057365836E82EBEEF03F055C047F056C032
:1007940048F057C049F058C04AF065EC04F0FF0E29
:1007A4004324596EFF0E44205A6EFF0E45205B6EA3
:1007B400FF0E46205C6E5C505B1009E15A04D8A021
:1007C400E6EF03F0E9EF03F0FFFFF2EF03F0FFFFC2
:1007D400FF0E596E000E5A6E000E5B6E000E5C6EBC
:1007E400FFFF5450D96EDA6A59C0DFFF020EFFFFD3
:1007F4001200FFFFFFFF476E040E445CD8A005EF14
:1008040004F008EF04F0FFFF0CEF04F0FFFF030E09
:10081400446E4368FFFF4750D8A413EF04F016EF6B
:1008240004F0FFFF3DEF04F0FFFF43C045F044C078
:1008340046F0D89046324532D8904632453245503B
:10084400BE6E43C045F0010E4516453ABD504518ED
:10085400EF0B4518BD6ED8904430466E4330456E5C
:10086400010E4516453A4546BD504518DF0B45185F
:10087400BD6E62EF04F0FFFF43C045F044C046F094
:10088400D89046324532D890463245324550BB6EF8
:1008940043C045F0010E4516453ABA504518EF0BD2
:1008A4004518BA6ED8904430466E4330456E010EFA
:1008B4004516453A4546BA504518DF0B4518BA6EF9
:1008C400FFFF1200FFFFFFFF000E4B6E000E4C6E89
:1008D400000E4D6E000E4E6E4750481049104A10DF
:1008E400D8B477EF04F07AEF04F0FFFFB9EF04F027
:1008F400FFFF010E4F6E86EF04F0FFFFD8904736DE
:10090400483649364A364F2AFFFF4AAE8CEF04F088
:100914008FEF04F0FFFF7FEF04F0FFFFFFFFD8909D
:100924004B364C364D364E364750435C485044584F
:10093400495045584A504658D8A0A3EF04F0A6EFB2
:1009440004F0FFFFB0EF04F0FFFF4750435E485050
:10095400445A4950455A4A50465A4B80FFFFD89052
:100964004A324932483247324F2E90EF04F0FFFFAB
:100974004BC043F04CC044F04DC045F04EC046F06F
:100984001200FFFFFFFF5DC050F05EC051F05FC07A
:1009940052F060C053F0620E546E0AEC03F0656EC0
:1009A40062C0CBFF65C061F0010E6116CA506118C8
:1009B400FE0B6118CA6E65C061F0D8906132010EF9
:1009C40061166146CA506118FD0B6118CA6ECA846B
:1009D4000C0EBD6E0C0EBA6E446A000E436E000E11
:1009E400FCEC03F0446A000E436E010EFCEC03F0D1
:1009F4001200FFFFFFFF646A000E636EE80E5D6E77
:100A0400030E5E6E000E5F6E000E606EC4EC04F0AA
:100A1400000E4FEC05F0FFFF63C043F064C044F0E8
:100A2400000EFCEC03F0800E6326000E6422040E1C
:100A3400645CD8A020EF05F023EF05F0FFFF27EF5B
:100A440005F0FFFF646A000E636EFFFF446AC80E80
:100A5400436E31EC05F00DEF05F0FEEF1FF0FFFFE4
:100A640041EF05F0FFFF020E456EF20EFFFFE82E88
:100A7400FDD7452EFBD700D04306D8A04406FFFF80
:100A840043504410D8A449EF05F04CEF05F0FFFFA4
:100A940034EF05F0FFFF1200FFFFFFFF436E4350EA
:100AA400D8A457EF05F05AEF05F0FFFF61EF05F00A
:100AB400FFFFBD50F00B0C09BD6E66EF05F0FFFFA4
:100AC400BA50F00B0C09BA6EFFFF1200FFFF00EEE4
:100AD40001F0420EEE6AE806FDE1000EF86E060E25
:0A0AE400F76E0001FCEF04F0FFFFC5
:043FFC0069EF05F074
:020000040030CA
:0E000000FF220F0EFF0181FF0FC00FE00F4027
:00000001FF
