:060000000000FEEF1FF0FE
:10060000003F065B4F666D7D077F6F8C0F950F0077
:100610008C0F950F018C0F950F028C0F950F038C8B
:100620000F950F048C0F950F058C0F950F068C0FEF
:10063000950F07013B0100000000018B0F940F0094
:0106400000B9
:10064200FFFF1250D8B428EF03F02BEF03F0FFFFA7
:100652006DEF03F0FFFF1350D8B432EF03F035EF24
:1006620003F0FFFF6DEF03F0FFFF13C014F0290E3C
:10067200142614C0F6FF0800FFFFF5500009D8B495
:1006820045EF03F048EF03F0FFFF6DEF03F0FFFFCC
:1006920013C014F02A0E142614C0F6FF0800FFFF40
:1006A200F5500009D8B458EF03F05BEF03F0FFFFF9
:1006B2006DEF03F0FFFF13C014F02A0E142614C0CE
:1006C200F6FF080E0800FFFFF5646AEF03F06DEF16
:1006D20003F0FFFF71EF03F0FFFF000ED8EF04F00D
:1006E200FFFF13C0F6FF1250D96EDA6A2F0E09000F
:1006F200FFFFF5CFDEFFE806FAE21250D96EDA6AA2
:10070200300ED926010EDF6E1250D96EDA6A310E22
:10071200D926DF6A1250D96EDA6A320ED926640EF1
:10072200DF6E1250D96EDA6A330ED926DF6A1250A2
:10073200D96EDA6A3C0ED926DF6A1250D96EDA6AAD
:100742003D0ED926DE6ADD6A1250D96EDA6A3F0E94
:10075200D926F40EDE6E010EDD6E1250D96EDA6A03
:10076200410ED926DE6ADE6ADE6ADD6A1250D96E71
:10077200DA6A450ED926DF6A1250D96EDA6A460E57
:10078200D926010EDF6E1250D96EDA6A020ED92610
:10079200DECF01F0DDCF02F01250D96EDA6A040E1C
:1007A200D926DF50036E3EEC0BF01250D96EDA6A96
:1007B200070ED926DECF01F0DDCF02F01250D96E3E
:1007C200DA6A090ED926DF50036E3EEC0BF01250A6
:1007D200D96EDA6A0C0ED926DECF01F0DDCF02F037
:1007E2001250D96EDA6A0E0ED926DF50036E3EEC35
:1007F2000BF01250D96EDA6A110ED926DECF01F053
:10080200DDCF02F01250D96EDA6A130ED926DF500C
:10081200036E3EEC0BF01250D96EDA6A160ED92630
:10082200DECF01F0DDCF02F01250D96EDA6A180E77
:10083200D926DF50036E3EEC0BF01250D96EDA6A05
:100842001B0ED926DECF01F0DDCF02F01250D96E99
:10085200DA6A1D0ED926DF50036E3EEC0BF0125001
:10086200D96EDA6A200ED926DECF01F0DDCF02F092
:100872001250D96EDA6A220ED926DF50036E3EEC90
:100882000BF01250D96EDA6A280ED926DF50D8B48E
:100892004DEF04F050EF04F0FFFF63EF04F0FFFFB1
:1008A2001250D96EDA6A250ED926DECF01F0DDCFDD
:1008B20002F01250D96EDA6A270ED926DF50036E83
:1008C2003EEC0BF0FFFF166A9AEF04F0FFFF1650A2
:1008D200050D1250D96EDA6A290ED926DF50F3249B
:1008E200146E020E142614C0F6FF0900FFFFF5CFA6
:1008F20001F00A00FFFFF5CF02F01650050D12506D
:10090200D96EDA6A290ED926DF50F324156E040E49
:10091200152615C0F6FF0800FFFFF5CF03F03EECE9
:100922000BF012501624D96EDA6A340ED926DF6A19
:10093200162AFFFF1250D96EDA6A2A0ED926DE5025
:10094200165CD8A0A7EF04F0AAEF04F0FFFF67EF50
:1009520004F0FFFF1250D96EDA6A2A0ED926DF5050
:10096200166EFFFF070E1664B9EF04F0BCEF04F039
:10097200FFFFBFEF04F0FFFFCAEF04F0FFFF1250CA
:100982001624D96EDA6A340ED926DF6A162AB2EF35
:1009920004F0FFFF12C00FF0B8EC0AF012C00DF025
:1009A200000E0E6E000E0F6E10EC06F0010EFFFF31
:1009B2001200FFFFFFFF1250D8B4E2EF04F0E5EFA0
:1009C20004F0FFFF0DEF06F0FFFF1250D96EDA6A56
:1009D200300ED926DF50D8A4F1EF04F0F4EF04F082
:1009E200FFFFF7EF04F0FFFF0DEF06F0FFFF12C06D
:1009F20001F058EC0BF00009D8A402EF05F005EF66
:100A020005F0FFFF08EF05F0FFFF0DEF06F0FFFF17
:100A12001250D96EDA6A310ED926DF50196E125091
:100A2200D96EDA6A2A0ED926DE50195CD8A01CEFDC
:100A320005F01FEF05F0FFFF21EF05F0FFFF196A38
:100A4200FFFF12C00FF0B8EC0AF012C00DF0000E5A
:100A52000E6E000E0F6E10EC06F01250D96EDA6AAE
:100A6200330ED926620EDF6439EF05F03CEF05F054
:100A7200FFFF45EF05F0FFFF1250D96EDA6A330E21
:100A8200D926DF6A4CEF05F0FFFF1250D96EDA6A01
:100A9200330ED926DF2AFFFF19C013F0010E146EA0
:100AA200000E156E132A5AEF05F0FFFFD890143688
:100AB2001536FFFF132E56EF05F014C016F015C0C1
:100AC20017F01250D96EDA6A320ED926DF50D8B436
:100AD2006DEF05F070EF05F0FFFFF2EF05F0FFFF9D
:100AE2001250D96EDA6A320ED9261250E16EE26ADB
:100AF200330EE126DE50E65CD8B082EF05F085EFDA
:100B020005F0FFFFF2EF05F0FFFF1250D96EDA6A2F
:100B1200450ED926DF50D8B491EF05F094EF05F0D9
:100B2200FFFFBBEF05F0FFFF1250D96EDA6A460EE7
:100B3200D926DF50D8A4A0EF05F0A3EF05F0FFFF00
:100B4200BBEF05F0FFFF1250D96EDA6A3D0ED926CF
:100B5200DECF13F0DDCF14F0165013161750141613
:100B620013501410D8A4B8EF05F0BBEF05F0FFFF47
:100B7200F2EF05F0FFFF19C013F01250D96EDA6AD6
:100B82003C0ED926DF50146E132ACBEF05F0FFFF7F
:100B9200D8901432FFFF132EC8EF05F014B0D4EF33
:100BA20005F0D8EF05F0FFFF010EDAEF05F0FFFFC9
:100BB200000EFFFF186E12C00DF012501924D96EEC
:100BC200DA6A340ED926DF500E6E18C00FF010EC20
:100BD20006F012C007F019C008F0010E096EDFEC32
:100BE20006F0FFFF192A1250D96EDA6A2A0ED926A8
:100BF200DE50195CD8A000EF06F003EF06F0FFFF0D
:100C020005EF06F0FFFF196AFFFF1250D96EDA6A8C
:100C1200310ED92619C0DFFFFFFF1200FFFFFFFFD1
:100C22000DC007F00EB018EF06F01CEF06F0FFFF44
:100C3200010E1EEF06F0FFFF000EFFFF086E0D50C3
:100C4200D96EDA6A2F0ED926DF50096E33EC08F01E
:100C52000D50050F076E0EB231EF06F035EF06F0BC
:100C6200FFFF010E37EF06F0FFFF000EFFFF086ED9
:100C72000D50D96EDA6A2F0ED926DF50096E33EC89
:100C820008F00D500A0F076E0EB44AEF06F04EEF51
:100C920006F0FFFF010E50EF06F0FFFF000EFFFF10
:100CA200086E0D50D96EDA6A2F0ED926DF50096E02
:100CB20033EC08F00D500F0F076E0EB663EF06F01F
:100CC20067EF06F0FFFF010E69EF06F0FFFF000E6F
:100CD200FFFF086E0D50D96EDA6A2F0ED926DF504B
:100CE200096E33EC08F00D50140F076E0EB87CEF4E
:100CF20006F080EF06F0FFFF010E82EF06F0FFFF25
:100D0200000EFFFF086E0D50D96EDA6A2F0ED9263B
:100D1200DF50096E33EC08F00D50190F076E0EBA52
:100D220095EF06F099EF06F0FFFF010E9BEF06F03C
:100D3200FFFF000EFFFF086E0D50D96EDA6A2F0E0C
:100D4200D926DF50096E33EC08F00D501E0F076EE6
:100D52000EBCAEEF06F0B2EF06F0FFFF010EB4EFED
:100D620006F0FFFF000EFFFF086E0D50D96EDA6A23
:100D72002F0ED926DF50096E33EC08F00D50D96ED4
:100D8200DA6A280ED926DF50D8B4CAEF06F0CDEFC2
:100D920006F0FFFFDCEF06F0FFFF0D50230F076E9A
:100DA2000FC008F00D50D96EDA6A2F0ED926DF5027
:100DB200096E33EC08F0FFFF1200FFFFFFFF075040
:100DC200D8B4E6EF06F0E9EF06F0FFFF97EF07F081
:100DD200FFFF0750D96EDA6A290ED926DF50D8B440
:100DE200F5EF06F0F8EF06F0FFFF97EF07F0FFFFD1
:100DF2000750D96EDA6A2A0ED926DE50085CD8A0CE
:100E020005EF07F008EF07F0FFFF0BEF07F0FFFF1A
:100E120097EF07F0FFFF0950D8A412EF07F015EF84
:100E220007F0FFFF2CEF07F0FFFF0750D96EDA6AD9
:100E32002B0ED926DF50D8B421EF07F025EF07F0AB
:100E4200FFFF010E27EF07F0FFFF000EFFFF0C6E02
:100E52000D6A37EF07F0FFFF0750D96EDA6A2B0EE3
:100E6200D926DF500A6E0A500C6E0D6AFFFF0CC0C5
:100E72000EF00E50D8B440EF07F043EF07F0FFFF3B
:100E82006EEF07F0FFFF0850050D0750D96EDA6AC2
:100E9200290ED926DF50F3240A6E0AC0F6FF090094
:100EA200FFFFF5CF01F00A00FFFFF5CF02F0085077
:100EB200050D0750D96EDA6A290ED926DF50F324C0
:100EC2000B6E040E0B260BC0F6FF0800FFFFF5CFDA
:100ED20003F070EC0BF097EF07F0FFFF0850050DE1
:100EE2000750D96EDA6A290ED926DF50F3240A6E2A
:100EF2000AC0F6FF0900FFFFF5CF01F00A00FFFF6D
:100F0200F5CF02F00850050D0750D96EDA6A290EA6
:100F1200D926DF50F3240B6E040E0B260BC0F6FF0E
:100F22000800FFFFF5CF03F024EC0BF0FFFF1200E7
:100F3200FFFFFFFF1D6A000E1C6E1F6A000E1E6E71
:100F4200226A236A0A0E216E050E206EF29EF29C20
:100F5200070EC16E9698C6EC0BF08D908C6A8B8052
:100F6200956A9490240E126E0B0E136E21EC03F010
:100F72001B6E1B50D8A4C0EF07F0C3EF07F0FFFFB2
:100F8200C6EF07F0FFFFAFEC0BF0FFFF240E176E6A
:100F9200000E186EA4EC0BF0240E0C6E000E0D6EFB
:100FA20099EC0BF0240E016E21C002F056EC0AF00F
:100FB200FFFF240E1A6EBFEC0BF0026A010E016EE7
:100FC20007EC0BF01C4A1D2A1E4A1F2AF40E1C5C59
:100FD200010E1D58D8A0F0EF07F0F3EF07F0FFFF66
:100FE20016EF08F0FFFF1D6A000E1C6E225087EC00
:100FF2000BF0226E2350D8B401EF08F005EF08F091
:10100200FFFF010E07EF08F0FFFF000EFFFF236E48
:10101200240E176E22C018F0A4EC0BF0240E0C6EF6
:1010220023C00DF099EC0BF08D72FFFF1F500AE107
:101032001E0E1E5CD8A020EF08F023EF08F0FFFF81
:10104200D9EF07F0FFFF1F6A000E1E6E240E036E1B
:10105200210E046E200E056EFEEC09F0D9EF07F0AA
:10106200FEEF1FF0FFFF0750D8B43AEF08F03DEF54
:1010720008F0FFFFA7EF08F0FFFF0750D96EDA6A0A
:10108200DE50DE10D8B448EF08F04BEF08F0FFFF57
:10109200A7EF08F0FFFF0750D96EDA6A020ED926D1
:1010A200DE50DE10D8A458EF08F05BEF08F0FFFF27
:1010B2005EEF08F0FFFFA7EF08F0FFFF08C00CF09B
:1010C2000904D8A467EF08F06AEF08F0FFFF79EF90
:1010D20008F0FFFF0850D8B471EF08F075EF08F080
:1010E200FFFF010E77EF08F0FFFF000EFFFF0C6E0F
:1010F200FFFF0C50D8B480EF08F083EF08F0FFFF39
:1011020096EF08F0FFFF0750D96EDA6ADECF01F0E2
:10111200DDCF02F00750D96EDA6A040ED926DF500D
:10112200036E70EC0BF0A7EF08F0FFFF0750D96ECB
:10113200DA6ADECF01F0DDCF02F00750D96EDA6A4B
:10114200040ED926DF50036E24EC0BF0FFFF1200D1
:10115200FFFFFFFF0A0E0260B1EF08F0B4EF08F0E4
:10116200FFFFBFEF08F0FFFF0250010F036E03C045
:10117200F6FF0800FFFFF5501CEF09F0FFFFFE0E1F
:101182000218D8A4C7EF08F0CAEF08F0FFFFCEEFAD
:1011920008F0FFFF400E1CEF09F0FFFF0228D8A461
:1011A200D5EF08F0D8EF08F0FFFFDDEF08F0FFFF02
:1011B200FFFF000E1CEF09F0FFFF090E0264E4EFCF
:1011C20008F0E7EF08F0FFFFD9EF08F0FFFF01504A
:1011D200D96EDA6A2C0ED926DE50DE10D8B4F4EFBE
:1011E20008F0F7EF08F0FFFFD9EF08F0FFFF025019
:1011F200F60F056E0150D96EDA6A2E0ED926DE5030
:10120200055CD8B007EF09F00AEF09F0FFFFD9EF4C
:1012120008F0FFFF0150D96EDA6A2C0ED926DECF14
:1012220003F0DDCF04F005500324D96E000E042034
:10123200DA6EDF507F0BFFFF1200FFFFFFFF065049
:10124200D8B426EF09F029EF09F0FFFF8DEF09F07E
:10125200FFFF0650D96EDA6A300ED926DF50D8B4B5
:1012620035EF09F038EF09F0FFFF8DEF09F0FFFFCE
:101272000650D96EDA6A2A0ED926DE50075CD8A04B
:1012820045EF09F048EF09F0FFFF4BEF09F0FFFFD0
:101292008DEF09F0FFFF0650D96EDA6A3C0ED926AF
:1012A200DF500B6E0850D8B459EF09F05CEF09F02B
:1012B200FFFF70EF09F0FFFF07C009F0010E0A6E91
:1012C200092A67EF09F0FFFFD8900A36FFFF092EBF
:1012D20064EF09F00A500B100B6E83EF09F0FFFF69
:1012E20007C009F0010E0A6E092A7BEF09F0FFFF21
:1012F200D8900A36FFFF092E78EF09F00A50FF0A4C
:101302000B140B6EFFFF06C001F00650340F026E85
:101312000BC003F08AEC0AF0FFFF1200FFFFFFFF91
:101322000650D8B497EF09F09AEF09F0FFFFFBEFF0
:1013320009F0FFFF0650D96EDA6A300ED926DF5067
:10134200D8B4A6EF09F0A9EF09F0FFFFFBEF09F00F
:10135200FFFF0650D96EDA6A2A0ED926DE50075CE4
:10136200D8A0B6EF09F0B9EF09F0FFFFBCEF09F022
:10137200FFFFFBEF09F0FFFF136ACEEF09F0FFFF5B
:1013820006501324D96EDA6A340ED92613500A0F86
:10139200E16EE26ADFCFE7FF132AFFFF0650D96E44
:1013A200DA6A2A0ED926DE50135CD8A0DBEF09F0E8
:1013B200DEEF09F0FFFFC0EF09F0FFFF0650D96E24
:1013C200DA6A3C0ED926DF50126E06C001F008C060
:1013D20002F0AAEC08F0096E07500A0FD96EDA6A19
:1013E20009C0DFFF06C001F00A0E026E12C003F050
:1013F2008AEC0AF0FFFF1200FFFFFFFF0550D96ED3
:10140200DA6ADF50066E0450D96EDA6ADF50076E70
:1014120007500624086EE86AD8B0E82A06BEE80635
:10142200096E09BE1EEF0AF009500AE1640E085C5B
:10143200D8A01EEF0AF021EF0AF0FFFF2CEF0AF00E
:10144200FFFF096A640E086E0550D96EDA6AFB0E58
:10145200DF6E45EF0AF0FFFF09BE3CEF0AF00950CC
:1014620007E10B0E085CD8B039EF0AF03CEF0AF046
:10147200FFFF45EF0AF0FFFF096A0A0E086E0550EA
:10148200D96EDA6A050EDF6EFFFF0450D96EDA6A92
:1014920008C0DFFF03C001F00450D96EDA6ADF50E2
:1014A200026E56EC0AF01200FFFFFFFF0150D8B4A3
:1014B2005DEF0AF060EF0AF0FFFF87EF0AF0FFFF2F
:1014C2000150D96EDA6A300ED926DF50D8A46CEFFB
:1014D2000AF06FEF0AF0FFFF72EF0AF0FFFF87EFEB
:1014E2000AF0FFFF640E026479EF0AF07CEF0AF063
:1014F200FFFF7FEF0AF0FFFF640E026EFFFF015055
:10150200D96EDA6A320ED92602C0DFFFFFFF12005F
:10151200FFFFFFFFF29E056A9DEF0AF0FFFF0250F8
:101522000524D96EDA6A01500524E16EE26A340EAE
:10153200E126DFCFE7FF052AFFFF0150D96EDA6A05
:101542002A0ED926DE50055CD8A0AAEF0AF0ADEF2C
:101552000AF0FFFF8FEF0AF0FFFF0150D96EDA6A3F
:101562003C0ED92603C0DFFFF28E1200FFFFFFFF01
:101572000F50D8A4BFEF0AF0C2EF0AF0FFFFC5EF89
:101582000AF0FFFFE3EF0AF0FFFF116AD3EF0AF060
:10159200FFFF0FC007F011C008F0000E096EDFEC6C
:1015A20006F0112AFFFF0F50D96EDA6A2A0ED926E9
:1015B200DE50115CD8A0E0EF0AF0E3EF0AF0FFFF83
:1015C200C9EF0AF0FFFF1200FFFFFFFF090E1664CA
:1015D200EDEF0AF0F0EF0AF0FFFFFBEF0AF0FFFF7A
:1015E20014C006F015C007F0FF0E086E90EC09F06B
:1015F20004EF0BF0FFFF14C006F015C007F016C091
:1016020008F090EC09F0FFFF1200FFFFFFFF16EF5A
:101612000BF0FFFF030E036E6F0EFFFFE82EFDD7E8
:10162200032EFBD70106D8A00206FFFF01500210CD
:10163200D8A41EEF0BF021EF0BF0FFFF0AEF0BF027
:10164200FFFF1200FFFFFFFF03C004F0010E056E53
:10165200042A2FEF0BF0FFFFD8900536FFFF042E70
:101662002CEF0BF00550FF0A066E01C0D9FF02C035
:10167200DAFF0650DF161200FFFFFFFF03C004F07F
:10168200010E056E042A49EF0BF0FFFFD8900536D4
:10169200FFFF042E46EF0BF00550FF0A066E01C055
:1016A200D9FF02C0DAFF0650DF161200FFFFFFFF6C
:1016B2000150D8A45FEF0BF062EF0BF0FFFF66EF73
:1016C2000BF0FFFF000E6DEF0BF0FFFF0150D96E24
:1016D200DA6A2A0ED926DF50FFFF1200FFFFFFFF52
:1016E20003C004F0010E056E042A7BEF0BF0FFFF2E
:1016F200D8900536FFFF042E78EF0BF001C0D9FF1A
:1017020002C0DAFF0550DF121200FFFFFFFF016E79
:10171200012A090E016490EF0BF093EF0BF0FFFF2B
:1017220095EF0BF0FFFF016AFFFF01501200FFFF70
:10173200FFFF0CC006F0000E076E0DC008F01FEC94
:1017420009F01200FFFFFFFF17C014F0000E156E24
:1017520018C016F0E6EC0AF01200FFFFFFFFCDEC16
:101762000BF08D80FFFFB3EF0BF01200FFFF000EB6
:10177200F86E060EF76E00019AEF07F0FFFF1AC02F
:1017820012F0DBEC04F01200FFFFFFFF8D908D9250
:10179200969096921200FFFFFFFF8B808C6A1200D8
:0417A200FFFFFFFF47
:043FFC00B8EF0BF01F
:020000040030CA
:0E000000FF220F0EFF0181FF0FC00FE00F4027
:00000001FF
