:06000000000013EF00F008
:10000800FFFF0182FACF04F0FBCF05F05CEC39F07A
:1000180005C0FBFF04C0FAFF01921100FFFF2EEF9D
:1000280038F0FFFF2C502D10D8B41DEF00F020EF52
:1000380000F0FFFF72EF00F0FFFF2E502F10D8B432
:1000480028EF00F02BEF00F0FFFF72EF00F0FFFF4A
:10005800310E2E24306E000E2F20316E30C0F6FF88
:1000680031C0F7FFF86A0900F5500900F510D8B457
:1000780040EF00F043EF00F0FFFF72EF00F0FFFFEA
:10008800330E2E24306E000E2F20316E30C0F6FF56
:1000980031C0F7FFF86A0800FFFFF5500009D8B42F
:1000A80058EF00F05BEF00F0FFFF72EF00F0FFFF8A
:1000B800330E2E24306E000E2F20316E30C0F6FF26
:1000C80031C0F7FFF86A080E0800FFFFF5646FEF0C
:1000D80000F072EF00F0FFFF8AEF00F0FFFF2C50F6
:1000E8002D10D8B47AEF00F07DEF00F0FFFF86EF17
:1000F80000F0FFFF20EE65F02C50D9262D50DA22B3
:10010800010EDF6EFFFF000E2DEF03F0FFFF2EC084
:10011800F6FF2FC0F7FFF86A2CC0D9FF2DC0DAFF11
:100128003C0E0900FFFFF5CFDEFFE806FAE220EEFD
:100138003DF02C50D9262D50DA22DF6A20EE3EF011
:100148002C50D9262D50DA22DF6A20EE3FF02C50B1
:10015800D9262D50DA22640EDF6E20EE40F02C50A6
:10016800D9262D50DA22DF6A20EE49F02C50D92604
:100178002D50DA22DF6A20EE4AF02C50D9262D5075
:10018800DA22DE6ADD6A20EE4CF02C50D9262D509A
:10019800DA22F40EDE6E010EDD6E20EE4EF02C50EB
:1001A800D9262D50DA22DE6ADE6ADE6ADD6A20EEA2
:1001B80052F02C50D9262D50DA22DF6A20EE53F067
:1001C8002C50D9262D50DA22010EDF6E20EE54F085
:1001D8002C50D9262D50DA22DF6A20EE55F02C500B
:1001E800D9262D50DA22DE6ADD6A20EE57F02C502F
:1001F800D9262D50DA22DE6ADD6A20EE59F02C501D
:10020800D9262D50DA22DE6ADE6ADE6ADD6A20EE41
:100218005DF02C50D9262D50DA22DE6ADE6ADE6ABD
:10022800DD6A20EE61F02C50D9262D50DA22DE6AE4
:10023800DE6ADE6ADD6A20EE65F02C50D9262D5084
:10024800DA22DF6A20EE02F02C50D9262D50DA226D
:10025800DECF13F0DECF14F0DDCF15F020EE05F081
:100268002C50D9262D50DA22DF50166EB3EC37F019
:1002780020EE08F02C50D9262D50DA22DECF13F0CC
:10028800DECF14F0DDCF15F020EE0BF02C50D92680
:100298002D50DA22DF50166EB3EC37F020EE0EF058
:1002A8002C50D9262D50DA22DECF13F0DECF14F0F1
:1002B800DDCF15F020EE11F02C50D9262D50DA2282
:1002C800DF50166EB3EC37F020EE14F02C50D92620
:1002D8002D50DA22DECF13F0DECF14F0DDCF15F08B
:1002E80020EE17F02C50D9262D50DA22DF50166E4A
:1002F800B3EC37F020EE1AF02C50D9262D50DA2224
:10030800DECF13F0DECF14F0DDCF15F020EE1DF0B8
:100318002C50D9262D50DA22DF50166EB3EC37F068
:1003280020EE20F02C50D9262D50DA22DECF13F003
:10033800DECF14F0DDCF15F020EE23F02C50D926B7
:100348002D50DA22DF50166EB3EC37F020EE26F08F
:100358002C50D9262D50DA22DECF13F0DECF14F040
:10036800DDCF15F020EE29F02C50D9262D50DA22B9
:10037800DF50166EB3EC37F020EE30F02C50D92653
:100388002D50DA22DF50D8B4CCEF01F0CFEF01F0D6
:10039800FFFFE6EF01F0FFFF20EE2CF02C50D926EE
:1003A8002D50DA22DECF13F0DECF14F0DDCF15F0BA
:1003B80020EE2FF02C50D9262D50DA22DF50166E61
:1003C800B3EC37F0FFFF3D6A49EF02F0FFFF3D5005
:1003D800060DF3CF30F0F4CF31F020EE31F02C5091
:1003E800D9262D50DA22DECF32F0DDCF33F030506F
:1003F8003224346E31503320356E020E3426000E0E
:10040800352234C0F6FF35C0F7FFF86A0900FFFF50
:10041800F5CF13F00900FFFFF5CF14F00A00FFFF36
:10042800F5CF15F03D50060DF3CF36F0F4CF37F089
:1004380020EE31F02C50D9262D50DA22DECF38F0BC
:10044800DDCF39F0365038243A6E375039203B6EBC
:10045800050E3A26000E3B223AC0F6FF3BC0F7FFD6
:10046800F86A0800FFFFF5CF16F0B3EC37F03D50FF
:100478002C24306E000E2D20316E410E3024D96EA2
:10048800000E3120DA6EDF6A3D2AFFFF20EE33F0DE
:100498002C50D9262D50DA22DE503D5CD8A057EFDB
:1004A80002F05AEF02F0FFFFEAEF01F0FFFF20EE43
:1004B80033F02C50D9262D50DA22DF503D6EFFFF45
:1004C800070E3D646AEF02F06DEF02F0FFFF70EF78
:1004D80002F0FFFF81EF02F0FFFF3D502C24306E49
:1004E800000E2D20316E410E3024D96E000E3120C1
:1004F800DA6EDF6A3D2A63EF02F0FFFF2CC028F0B6
:100508002DC029F0BCEC39F02CC01CF02DC01DF01A
:10051800000E1E6E000E1F6E5AEC14F0390E2E24BB
:10052800306E000E2F20316E30C0F6FF31C0F7FF5D
:10053800F86A0800FFFFF5CF3CF0010E3C64A7EF16
:1005480002F0AAEF02F0FFFFB2EF02F0FFFF20EE89
:1005580039F02C50D9262D50DA22DF6AFFFF20EE21
:1005680039F02C50D9262D50DA22DE04D8A4BFEF5A
:1005780002F0C2EF02F0FFFF1CEF03F0FFFF20EED6
:100588003AF02C50D9262D50DA22DF50D8B4CFEFCC
:1005980002F0D2EF02F0FFFFF3EF02F0FFFF20EED0
:1005A8003BF02C50D9262D50DA22DE50DE10D8B47C
:1005B800E0EF02F0E3EF02F0FFFFF3EF02F0FFFFDE
:1005C8002CC006F02DC007F01AEC17F00009D8A4CB
:1005D800F0EF02F0F3EF02F0FFFF13EF03F0FFFF7D
:1005E8002CC006F02DC007F0C1EC1DF02CC028F07F
:1005F8002DC029F0BCEC39F02CC01CF02DC01DF02A
:10060800000E1E6E000E1F6E5AEC14F020EE3DF028
:100618002C50D9262D50DA22DF6A86EF00F0FFFF32
:1006280020EE54F02C50D9262D50DA22010EDF6E20
:10063800FFFF20EE3DF02C50D9262D50DA22010E76
:10064800DF6E20EE65F02C50D9262D50DA22DF6AB5
:10065800010EFFFF1200FFFFFFFF1C501D10D8B452
:1006680038EF03F03BEF03F0FFFF6BEF05F0FFFF00
:1006780020EE33F01C50D9261D50DA22DF50D8B4B2
:1006880048EF03F04BEF03F0FFFF6BEF05F0FFFFC0
:1006980020EE31F01C50D9261D50DA22DE50DE1033
:1006A800D8A459EF03F05CEF03F0FFFF5FEF03F00E
:1006B800FFFF6BEF05F0FFFF20EE3FF01C50D9263F
:1006C8001D50DA22DF50D8B46CEF03F06FEF03F05F
:1006D800FFFF6BEF05F0FFFF20EE3FF01C50D9261F
:1006E8001D50DA2210EE40F01C50E1261D50E22287
:1006F800DE50E65CD8A083EF03F086EF03F0FFFF3F
:1007080089EF03F0FFFF6BEF05F0FFFF20EE3EF0EF
:100718001C50D9261D50DA22DF502D6E2D50D8A43A
:1007280098EF03F09BEF03F0FFFFA8EF03F0FFFF44
:1007380020EE33F01C50D9261D50DA22DF501E6EF1
:100748001E042D6EAAEF03F0FFFF2D06FFFF2D50AC
:100758001C241E6E000E1D201F6E410E1E24D96E15
:10076800000E1F20DA6EDF502C6E2DC01EF020EE1A
:1007780049F01C50D9261D50DA22DF501F6E1E2A60
:10078800C9EF03F0FFFFD8901F32FFFF1E2EC6EF00
:1007980003F01FB0D2EF03F0D6EF03F0FFFF010E16
:1007A800D8EF03F0FFFF000EFFFF2A6E1CC015F004
:1007B8001DC016F02CB0E3EF03F0E7EF03F0FFFFE6
:1007C800010EE9EF03F0FFFF000EFFFF176E20EEAA
:1007D80038F01C50D9261D50DA22DF50186EDBEC99
:1007E8001BF0060E1C24156E000E1D20166E2CB272
:1007F80000EF04F004EF04F0FFFF010E06EF04F031
:10080800FFFF000EFFFF176E20EE38F01C50D926B0
:100818001D50DA22DF50186EDBEC1BF00C0E1C2486
:10082800156E000E1D20166E2CB41DEF04F021EF7E
:1008380004F0FFFF010E23EF04F0FFFF000EFFFF9F
:10084800176E20EE38F01C50D9261D50DA22DF50E2
:10085800186EDBEC1BF0120E1C24156E000E1D200A
:10086800166E2CB63AEF04F03EEF04F0FFFF010ECF
:1008780040EF04F0FFFF000EFFFF176E20EE38F088
:100888001C50D9261D50DA22DF50186EDBEC1BF005
:10089800180E1C24156E000E1D20166E2CB857EF6E
:1008A80004F05BEF04F0FFFF010E5DEF04F0FFFFC3
:1008B800000EFFFF176E20EE38F01C50D9261D5091
:1008C800DA22DF50186EDBEC1BF01E0E1C24156EAE
:1008D800000E1D20166E2CBA74EF04F078EF04F0A9
:1008E800FFFF010E7AEF04F0FFFF000EFFFF176E07
:1008F80020EE38F01C50D9261D50DA22DF50186E31
:10090800DBEC1BF0240E1C24156E000E1D20166E49
:100918002CBC91EF04F095EF04F0FFFF010E97EF68
:1009280004F0FFFF000EFFFF176E20EE38F01C509A
:10093800D9261D50DA22DF50186EDBEC1BF020EEB2
:1009480030F01C50D9261D50DA22DF50D8B4AFEF52
:1009580004F0B2EF04F0FFFFC5EF04F0FFFF2A0E2A
:100968001C24156E000E1D20166E2AC017F020EEEE
:1009780038F01C50D9261D50DA22DF50186EDBECF7
:100988001BF0FFFF20EE34F01C50D9261D50DA2250
:10099800DF502B6E2B50D8B4D4EF04F0D7EF04F00F
:1009A800FFFF22EF05F0FFFF2D50060DF3CF1EF0DD
:1009B800F4CF1FF020EE31F01C50D9261D50DA225A
:1009C800DECF20F0DDCF21F01E502024226E1F50F4
:1009D8002120236E22C0F6FF23C0F7FFF86A090022
:1009E800FFFFF5CF12F00A00FFFFF5CF13F02D50EF
:1009F800060DF3CF24F0F4CF25F020EE31F01C5093
:100A0800D9261D50DA22DECF26F0DDCF27F024507C
:100A18002624286E25502720296E050E2826000E2C
:100A2800292228C0F6FF29C0F7FFF86A0800FFFF4F
:100A3800F5CF14F09DEC37F06BEF05F0FFFF2D506C
:100A4800060DF3CF1EF0F4CF1FF020EE31F01C504E
:100A5800D9261D50DA22DECF20F0DDCF21F01E503E
:100A68002024226E1F502120236E22C0F6FF23C0AF
:100A7800F7FFF86A0900FFFFF5CF12F00A00FFFF41
:100A8800F5CF13F02D50060DF3CF24F0F4CF25F059
:100A980020EE31F01C50D9261D50DA22DECF26F088
:100AA800DDCF27F024502624286E25502720296ED4
:100AB800050E2826000E292228C0F6FF29C0F7FFB8
:100AC800F86A0800FFFFF5CF14F0A8EC37F0FFFF35
:100AD8001200FFFFFFFF0C500D10D8A476EF05F0B1
:100AE80079EF05F0FFFF7CEF05F0FFFFA4EF07F0BB
:100AF800FFFF87EC37F006C017F007C018F008C0F2
:100B080019F009C01AF00CC006F00DC007F058EC37
:100B18003EF0166E20EE09F00C50D9260D50DA2260
:100B28001650DE18D8B49BEF05F09EEF05F0FFFFD6
:100B3800B5EF05F0FFFF20EE09F00C50D9260D5057
:100B4800DA2216C0DFFF20EE0AF00C50D9260D502D
:100B5800DA2217C0DEFF18C0DEFF19C0DEFF1AC098
:100B6800DEFFFFFF20EE0AF00C50D9260D50DA22E6
:100B7800DECF0EF0DECF0FF0DECF10F0DECF11F0BB
:100B88000E50175C126E0F501858136E10501958EB
:100B9800146E11501A58156E1550141013100AE1DE
:100BA8001E0E125CD8A0DBEF05F0DEEF05F0FFFFAC
:100BB800F0EF06F0FFFF20EE08F00C50D9260D509C
:100BC800DA221650DE18D8B4ECEF05F0EFEF05F096
:100BD800FFFFF0EF06F0FFFF20EE08F00C50D926DB
:100BE8000D50DA2216C0DFFF20EE08F00C50D9268F
:100BF8000D50DA22DF50D8A404EF06F007EF06F014
:100C0800FFFF3CEF06F0FFFF20EE1AF00C50D9264C
:100C18000D50DA22010EDF6E20EE0EF00C50D926B0
:100C28000D50DA2217C0DEFF18C0DEFF19C0DEFF44
:100C38001AC0DEFF20EE1EF00C50D9260D50DA2225
:100C4800DF6A20EE1FF00C50D9260D50DA22DF6A39
:100C580020EE16F00C50D9260D50DA2217C0DEFF10
:100C680018C0DEFF19C0DEFF1AC0DEFFF0EF06F085
:100C7800FFFF20EE1BF00C50D9260D50DA22010E92
:100C8800DF6E20EE0EF00C50D9260D50DA22DECFA2
:100C98000EF0DECF0FF0DECF10F0DECF11F00E50E9
:100CA800175C126E0F501858136E10501958146EA6
:100CB80011501A58156E1550141009E1BC0E125C2B
:100CC800020E1358D8B06BEF06F06EEF06F0FFFF78
:100CD800E5EF06F0FFFF20EE1CF00C50D9260D5072
:100CE800DA22010EDF6E20EE20F00C50D9260D50CE
:100CF800DA22DE28D8B483EF06F086EF06F0FFFF8D
:100D08008EEF06F0FFFF20EE20F00C50D9260D5094
:100D1800DA22DF2AFFFF20EE12F00C50D9260D5000
:100D2800DA22DE50DE10DE10DE10D8B49EEF06F0B8
:100D3800A1EF06F0FFFFD4EF06F0FFFF20EE12F060
:100D48000C50D9260D50DA22DECF0EF0DECF0FF090
:100D5800DECF10F0DECF11F00E50175C126E0F5080
:100D68001858136E10501958146E11501A58156EE1
:100D78001550141009E1910E125C010E1358D8B0E9
:100D8800C8EF06F0CBEF06F0FFFFD4EF06F0FFFF49
:100D980020EE1DF00C50D9260D50DA22010EDF6E20
:100DA800FFFF20EE12F00C50D9260D50DA2217C0A2
:100DB800DEFF18C0DEFF19C0DEFF1AC0DEFFF0EF4D
:100DC80006F0FFFF20EE12F00C50D9260D50DA2263
:100DD800DE6ADE6ADE6ADD6AFFFF20EE08F00C508C
:100DE800D9260D50DA22DF50D8A4FDEF06F000EF27
:100DF80007F0FFFFA4EF07F0FFFF20EE1EF00C50F6
:100E0800D9260D50DA22DF50D8A40DEF07F010EFE5
:100E180007F0FFFF53EF07F0FFFF20EE0EF00C5036
:100E2800D9260D50DA22DECF0EF0DECF0FF0DECF5E
:100E380010F0DECF11F00E50175C126E0F501858DC
:100E4800136E10501958146E11501A58156E15500B
:100E580014100CE1BC0E125C020E1358D8A037EF28
:100E680007F03AEF07F0FFFF53EF07F0FFFF20EE20
:100E78001EF00C50D9260D50DA22010EDF6E20EE3E
:100E880016F00C50D9260D50DA2217C0DEFF18C014
:100E9800DEFF19C0DEFF1AC0DEFFA4EF07F0FFFF78
:100EA80020EE1EF00C50D9260D50DA22DF50D8B4AF
:100EB80060EF07F063EF07F0FFFFA4EF07F0FFFF15
:100EC80020EE16F00C50D9260D50DA22DECF0EF0A7
:100ED800DECF0FF0DECF10F0DECF11F00E50175C32
:100EE800126E0F501858136E10501958146E115076
:100EF8001A58156E155014100CE12C0E125C010EC8
:100F08001358D8A08AEF07F08DEF07F0FFFFA4EF82
:100F180007F0FFFF20EE1FF00C50D9260D50DA2203
:100F2800010EDF6E20EE16F00C50D9260D50DA2295
:100F380017C0DEFF18C0DEFF19C0DEFF1AC0DEFFD3
:100F4800FFFF1200FFFFFFFF040E0001F36FD20E38
:100F5800F26F030EF96FEF69F86BF06BF16B000E2F
:100F6800E56F000EE66F000EE76F000EE86F000EEB
:100F7800E96F000EEA6F000EEB6F000EEC6FF29E49
:100F8800F29CD09E070EC16E96988C6A956A8B80EB
:100F98008B828B848B869490949294949496800EF2
:100FA800136E250E146E000E156E000E166E06ECEE
:100FB8003EF0FD0E076E7F0E086E8CEC39F0FB0ECE
:100FC800076E7F0E086E8CEC39F0AA0E076E7E0E47
:100FD800086E8CEC39F0FB0E076E7F0E086E8CECF9
:100FE80039F0CD0E076E7E0E086E8CEC39F0FB0ED4
:100FF800076E7F0E086E8CEC39F0ED0E076E7E0ED4
:10100800086E8CEC39F0FB0E076E7F0E086E8CECC8
:1010180039F0400E2C6E010E2D6E420E2E6E7E0E95
:101028002F6E15EC00F00001ED6FED51D8A41FEF05
:1010380008F022EF08F0FFFF48EF08F0FFFF0B0E63
:10104800076E7F0E086E8CEC39F0400E066E010EAE
:10105800076E45EC38F00001E16FE1511A6E1B6A2A
:10106800BAEC38F0FD0E076E7F0E086E8CEC39F086
:10107800FB0E076E7F0E086E8CEC39F0C10E096E00
:101088007F0E0A6E8BEC3AF0FFFF400E066E010EE3
:10109800076E460E086EC2EC3AF0400E066E010E60
:1010A800076E020E096EBC0E086E34EC3BF0F2C0FF
:1010B8005CF0F3C05DF0F9C05EF04FEC1DF0AD0ED2
:1010C8000D6E0E6A010E0F6EF2EC3BF08C0E0D6E7B
:1010D8000E6A010E0F6EF2EC3BF0A60E0D6E010EBD
:1010E8000E6E010E0F6EF2EC3BF0CE0E066EA30EE6
:1010F800076E7E0E086EEEEC0BF00001EE6FEE51FF
:10110800D8A489EF08F08CEF08F0FFFF93EF08F000
:10111800FFFF930E096E7F0E0A6E8BEC3AF0FFFF0D
:1011280096EC38F09E90F28CF28EF00E076E7F0EE1
:10113800086E8CEC39F0FB0E076E7F0E086E8CEC97
:1011480039F0FFFF400E376E010E386E7EEC37F037
:10115800CE0E376EDBEC09F0076A010E066E79ECED
:1011680038F087EC37F006C0F4F007C0F5F008C097
:10117800F6F009C0F7F0400E1A6E010E1B6EF4C0AF
:101188001CF0F5C01DF0F6C01EF0F7C01FF0AFEC64
:101198003BF0CE0E066EE1EC38F0070B0001FA6F5B
:1011A800EF51FA19D8B4DBEF08F0DEEF08F0FFFFD3
:1011B80003EF09F0FFFFFAC0EFF0F60E076E7F0E9F
:1011C800086E8CEC39F0FAC01AF01B6ABAEC38F0E9
:1011D800DE0E076E7F0E086E8CEC39F0F8C01AF040
:1011E8001B6ABAEC38F0FD0E076E7F0E086E8CECA9
:1011F80039F0FB0E076E7F0E086E8CEC39F0FFFF9E
:101208000001FA51D8B40BEF09F00EEF09F0FFFF17
:1012180018EF09F0FFFFF851FA11F86F010EF06F9F
:10122800FFFFF16B79EF09F0FFFFF051D8B41FEF22
:1012380009F022EF09F0FFFF79EF09F0FFFFF15104
:10124800D8A429EF09F02CEF09F0FFFF39EF09F0D6
:10125800FFFF010EF16FF4C0E5F0F5C0E6F0F6C04F
:10126800E7F0F7C0E8F079EF09F0FFFFE551F45D2A
:10127800E16FE651F559E26FE751F659E36FE8512E
:10128800F759E46FE451E311E2110AE1320EE15D2E
:10129800D8A051EF09F054EF09F0FFFF79EF09F0FA
:1012A800FFFF550E076E7F0E086E8CEC39F0F8C004
:1012B8001AF01B6ABAEC38F0FD0E076E7F0E086E46
:1012C8008CEC39F0FB0E076E7F0E086E8CEC39F053
:1012D800F20E696EF90E6A6E0001F8514BEC11F0CE
:1012E8000001F86BF06B14EF09F0FFFFE951F45DB2
:1012F800E16FEA51F559E26FEB51F659E36FEC51A2
:10130800F759E46FE451E3110CE1E80EE15D030ED7
:10131800E259D8A092EF09F095EF09F0FFFFA5EF89
:1013280008F0FFFFF4C0E9F0F5C0EAF0F6C0EBF012
:10133800F7C0ECF0B40E076E7F0E086E8CEC39F037
:10134800F2C01AF0F3C01BF0BAEC38F08B0E076E3F
:101358007F0E086E8CEC39F0F9C01AF01B6ABAECF3
:1013680038F0EA0E076E7F0E086E8CEC39F0FAC082
:101378001AF01B6ABAEC38F0E40E076E7F0E086E9E
:101388008CEC39F0F8C01AF01B6ABAEC38F0FD0E94
:10139800076E7F0E086E8CEC39F0FB0E076E7F0E21
:1013A800086E8CEC39F0A5EF08F013EF00F0FFFFA2
:1013B8003750D8B4E2EF09F0E5EF09F0FFFFEBEFA3
:1013C8000BF0FFFF3750D96EDA6A070ED926DF50C7
:1013D800D8A4F1EF09F0F4EF09F0FFFFF7EF09F0F7
:1013E800FFFFEBEF0BF0FFFF37C02EF025EC1AF0F4
:1013F8004A6E3750D96EDA6A080ED9264AC0DFFF1E
:101408003750D96EDA6A090ED926DF6A3750D96E95
:10141800DA6A120ED926DF6A496A47684C6A50EFC1
:101428000AF0FFFF4C50040DF3CF38F0F4CF39F039
:101438003750D96EDA6A020ED926DECF3AF0DECFFF
:101448003BF0DECF3CF038503A243D6E39503B201B
:101458003E6E000E3C203F6E3DC0F6FF3EC0F7FFDB
:101468003F50E8BE05D0F86E0800FFFFF55005D0E4
:10147800F6CFE9FFF7CFEAFFEF504A18D8A447EFB5
:101488000AF04AEF0AF0FFFF4EEF0AF0FFFF492A81
:101498004CC047F0FFFF4C2AFFFF3750D96EDA6A7D
:1014A800050ED926DE504C5CD8A05DEF0AF060EF3F
:1014B8000AF0FFFF15EF0AF0FFFF4A50D8B467EFB4
:1014C8000AF06AEF0AF0FFFF7CEF0AF0FFFF490419
:1014D800D8B471EF0AF074EF0AF0FFFF7CEF0AF05E
:1014E800FFFF3750D96EDA6A090ED926010EDF6E72
:1014F800FFFF4C6ADBEF0BF0FFFF486A4904D8A4F2
:1015080088EF0AF08BEF0AF0FFFF99EF0AF0FFFF70
:101518004C504718D8A493EF0AF096EF0AF0FFFF53
:1015280099EF0AF0FFFF010E486EFFFF48C04BF02D
:1015380037504C24D96EDA6A0A0ED9264BC0DFFF21
:101548004B50D8B4AAEF0AF0ADEF0AF0FFFFFBEF5B
:101558000AF0FFFF3750D96EDA6A120ED926DF502B
:10156800D8A4B9EF0AF0BCEF0AF0FFFFFBEF0AF0CE
:10157800FFFF3750D96EDA6A120ED926010E386E7F
:10158800000E396E4C50040DF3CF3AF0F4CF3BF017
:101598003750E16EE26A020EE126E6CF3CF0E6CF74
:1015A8003DF0E6CF3EF03A503C243F6E3B503D20A4
:1015B800406E000E3E20416E38503F24426E395036
:1015C8004020436E000E4120446E42C0F6FF43C0E7
:1015D800F7FF4450E8BE05D0F86E0800FFFFF5504D
:1015E80005D0F6CFE9FFF7CFEAFFEF50DF6EFFFF38
:1015F800020E386E000E396E4C50040DF3CF3AF0DF
:10160800F4CF3BF03750D96EDA6A020ED926DECF16
:101618003CF0DECF3DF0DECF3EF03A503C243F6E4A
:101628003B503D20406E000E3E20416E38503F2416
:10163800426E39504020436E000E4120446E42C035
:10164800F6FF43C0F7FF4450E8BE0AD0F86E090021
:10165800FFFFF5CF45F00900FFFFF5CF46F008D0B2
:10166800F6CFE9FFF7CFEAFFEECF45F0EECF46F031
:1016780045504610D8B443EF0BF046EF0BF0FFFF90
:10168800D9EF0BF0FFFF020E386E000E396E4C508A
:10169800040DF3CF3AF0F4CF3BF03750D96EDA6A45
:1016A800020ED926DECF3CF0DECF3DF0DECF3EF095
:1016B8003A503C243F6E3B503D20406E000E3E2089
:1016C800416E38503F24426E39504020436E000E20
:1016D8004120446E42C0F6FF43C0F7FF4450E8BEC5
:1016E8000AD0F86E0900FFFFF5CF06F00900FFFFEA
:1016F800F5CF07F008D0F6CFE9FFF7CFEAFFEECF36
:1017080006F0EECF07F04B50D8B48DEF0BF091EF09
:101718000BF0FFFF010E93EF0BF0FFFF000EFFFF32
:10172800086E65EC3DF0020E386E000E396E4C50B6
:10173800040DF3CF3AF0F4CF3BF03750D96EDA6AA4
:10174800020ED926DECF3CF0DECF3DF0DECF3EF0F4
:101758003A503C243F6E3B503D20406E000E3E20E8
:10176800416E38503F24426E39504020436E000E7F
:101778004120446E42C0F6FF43C0F7FF4450E8BE24
:101788000AD0F86E0900FFFFF5CF0CF00900FFFF43
:10179800F5CF0DF008D0F6CFE9FFF7CFEAFFEECF8F
:1017A8000CF0EECF0DF06EEC05F0FFFF4C2AFFFFBA
:1017B8003750D96EDA6A050ED926DE504C5CD8A0AF
:1017C800E8EF0BF0EBEF0BF0FFFF80EF0AF0FFFF05
:1017D8001200FFFFFFFF0650D8B4F5EF0BF0F8EF4B
:1017E8000BF0FFFF5EEF0CF0FFFF07500810D8B4B6
:1017F80000EF0CF003EF0CF0FFFF5EEF0CF0FFFFC3
:1018080007C0F6FF08C0F7FFF86A0900F55009009D
:10181800F510D8B412EF0CF015EF0CF0FFFF5EEFE7
:101828000CF0FFFF020E0724096E000E08200A6E56
:1018380009C0F6FF0AC0F7FFF86A0900F550090069
:10184800F5100900F510D8B42CEF0CF02FEF0CF0C0
:10185800FFFF5EEF0CF0FFFF050E0724096E000E78
:1018680008200A6E09C0F6FF0AC0F7FFF86A0800E8
:10187800FFFFF5500009D8B444EF0CF047EF0CF027
:10188800FFFF5EEF0CF0FFFF050E0724096E000E48
:1018980008200A6E09C0F6FF0AC0F7FFF86A080EAA
:1018A8000800FFFFF5645BEF0CF05EEF0CF0FFFF44
:1018B80062EF0CF0FFFF000EFBEF0DF0FFFF1F6A59
:1018C800A5EF0DF0FFFF1F50040DF3CF09F0F4CF83
:1018D8000AF0020E07240B6E000E08200C6E0BC0D7
:1018E800F6FF0CC0F7FFF86A0900FFFFF5CF0DF00F
:1018F8000900FFFFF5CF0EF00900FFFFF5CF0FF04D
:1019080009500D24106E0A500E20116E000E0F2083
:10191800126E10C0F6FF11C0F7FF1250E8BE05D0D6
:10192800F86E0800FFFFF55005D0F6CFE9FFF7CFB6
:10193800EAFFEF500009D8B4A4EF0CF0A7EF0CF0C1
:10194800FFFF5EEF0CF0FFFF1F50040DF3CF09F00F
:10195800F4CF0AF0020E07240B6E000E08200C6E5E
:101968000BC0F6FF0CC0F7FFF86A0900FFFFF5CFC0
:101978000DF00900FFFFF5CF0EF00900FFFFF5CFCE
:101988000FF009500D24106E0A500E20116E000E33
:101998000F20126E10C0F6FF11C0F7FF1250E8BEFC
:1019A80005D0F86E0800FFFFF55005D0F6CFE9FF27
:1019B800F7CFEAFFEF50136E13AEE5EF0CF0E8EF48
:1019C8000CF0FFFF08EF0DF0FFFF07C0F6FF08C09F
:1019D800F7FFF86A0900FFFFF5CF09F00900FFFFDC
:1019E800F5CF0AF0300E0924D96E000E0A20DA6EFF
:1019F800DF50D8A402EF0DF005EF0DF0FFFF08EF60
:101A08000DF0FFFF5EEF0CF0FFFF1F281E6E8BEF3F
:101A18000DF0FFFF1F50040DF3CF09F0F4CF0AF0CB
:101A2800020E07240B6E000E08200C6E0BC0F6FF8A
:101A38000CC0F7FFF86A0900FFFFF5CF0DF00900A9
:101A4800FFFFF5CF0EF00900FFFFF5CF0FF00950AB
:101A58000D24106E0A500E20116E000E0F20126E0B
:101A680010C0F6FF11C0F7FF1250E8BE05D0F86E9F
:101A78000800FFFFF55005D0F6CFE9FFF7CFEAFFE2
:101A8800EF50136E1E50040DF3CF14F0F4CF15F081
:101A9800020E0724166E000E0820176E16C0F6FFF9
:101AA80017C0F7FFF86A0900FFFFF5CF18F0090023
:101AB800FFFFF5CF19F00900FFFFF5CF1AF014501A
:101AC80018241B6E155019201C6E000E1A201D6E4E
:101AD8001BC0F6FF1CC0F7FF1D50E8BE05D0F86E0E
:101AE8000800FFFFF55005D0F6CFE9FFF7CFEAFF72
:101AF800EF501318D8A483EF0DF086EF0DF0FFFF19
:101B080089EF0DF0FFFF5EEF0CF0FFFF1E2AFFFFCD
:101B1800050E0724096E000E08200A6E09C0F6FF9C
:101B28000AC0F7FFF86A0900FFFFF5501E5CD8A04D
:101B3800A0EF0DF0A3EF0DF0FFFF0DEF0DF0FFFF8D
:101B48001F2AFFFF050E0724096E000E08200A6EE3
:101B580009C0F6FF0AC0F7FFF86A0900FFFFF55051
:101B68001F5CD8A0BAEF0DF0BDEF0DF0FFFF66EFD8
:101B78000CF0FFFF07C0F6FF08C0F7FFF86A065031
:101B8800D96EDA6A060E0900FFFFF5CFDEFFE80618
:101B9800FAE20650D96EDA6A070ED926010EDF6E10
:101BA8000650D96EDA6A080ED926DF6A0650D96E51
:101BB800DA6A090ED926DF6A0650D96EDA6A120E79
:101BC800D926DF6A1F6AFFFF06501F24D96EDA6A1A
:101BD8000A0ED926DF6A1F2A070E1F64F6EF0DF0DA
:101BE800F9EF0DF0FFFFE7EF0DF0FFFF010EFFFF2C
:101BF8001200FFFFFFFF1C50D8B405EF0EF008EFEE
:101C08000EF0FFFF2BEF0EF0FFFF1D50D8B40FEFC3
:101C18000EF012EF0EF0FFFF2BEF0EF0FFFF1E503D
:101C2800D8B419EF0EF01CEF0EF0FFFF2BEF0EF0FB
:101C3800FFFF1C50D96EDA6A010ED926DF50D8A4EE
:101C480028EF0EF02BEF0EF0FFFF2FEF0EF0FFFF47
:101C5800010EF3EF0FF0FFFF1BBE35EF0EF039EF6B
:101C68000EF0FFFF010E3BEF0EF0FFFF000EFFFF2F
:101C78002E6E1BBE45EF0EF042EF0EF0FFFF6BEF2E
:101C88000EF0FFFF010E18241F6E000E1920206EA3
:101C9800000E1A20216E000E1B20226E1F1E201E11
:101CA800211E221E1F2A000E2022212222221FC0AE
:101CB8002FF020C030F021C031F022C032F0010EE8
:101CC8002F26000E30223122322274EF0EF0FFFF51
:101CD80018C02FF019C030F01AC031F01BC032F014
:101CE800FFFF2FC013F030C014F031C015F032C020
:101CF80016F021EC3AF0336E33502E242D6E1C5022
:101D0800D96EDA6A010ED9262D50DE5CD8B08FEF75
:101D18000EF092EF0EF0FFFF95EF0EF0FFFF2BEFA6
:101D28000EF0FFFF356AA6EF0EF0FFFF1D503524B9
:101D3800D96EDA6AFF0EDF6E1E503524D96EDA6A64
:101D4800DF6A352AFFFF1C50D96EDA6A010ED926E0
:101D5800DE50355CD8A0B3EF0EF0B6EF0EF0FFFF03
:101D680099EF0EF0FFFF356AEEEF0EF0FFFF3550EA
:101D7800230FD96EDA6A2FC006F030C007F031C0E1
:101D880008F032C009F00A0E0A6E000E0B6E000E43
:101D98000C6E000E0D6EB5EC3DF00650DF6E2FC0D8
:101DA80006F030C007F031C008F032C009F00A0E62
:101DB8000A6E000E0B6E000E0C6E000E0D6E8DEC92
:101DC8001EF006C02FF007C030F008C031F009C07F
:101DD80032F0352AFFFF3350355CD8A0F6EF0EF00D
:101DE800F9EF0EF0FFFFBAEF0EF0FFFF1C50D96EAF
:101DF800DA6A020ED926DF50D8A405EF0FF008EFF3
:101E08000FF0FFFF49EF0FF0FFFF346A2E50D8B4F0
:101E180010EF0FF013EF0FF0FFFF1FEF0FF0FFFFB2
:101E28001D50D96EDA6AFE0EDF6E1E50D96EDA6A60
:101E3800010EDF6E342AFFFF356A39EF0FF0FFFF1E
:101E4800355023083324D96EDA6AFF0ED9261D507F
:101E58003424E16EE26ADFCFE7FF1E503424D96EE6
:101E6800DA6A010EDF6E342A352AFFFF3350355CFB
:101E7800D8A041EF0FF044EF0FF0FFFF23EF0FF072
:101E8800FFFFFFFF000EF3EF0FF0FFFF1C50D96EAE
:101E9800DA6A010ED926DF50346E356A67EF0FF023
:101EA800FFFF34063550230FD96EDA6A1D503424EB
:101EB800E16EE26ADFCFE7FF1E503424D96EDA6A9A
:101EC800010EDF6E352AFFFF3350355CD8A06FEF67
:101ED8000FF072EF0FF0FFFF54EF0FF0FFFF2E50DF
:101EE800D8B479EF0FF07CEF0FF0FFFFC5EF0FF0DC
:101EF800FFFF1C50D96EDA6A030ED926DF50D8B41A
:101F080088EF0FF08BEF0FF0FFFFB5EF0FF0FFFF3B
:101F18001D50D96EDA6AFE0EDF6E1E50D96EDA6A6F
:101F2800010EDF6E010E356EA7EF0FF0FFFF1D509B
:101F38003524D96EDA6ADF6A1E503524D96EDA6A1A
:101F4800010EDF6E352AFFFF3450355CD8A0AFEFA5
:101F58000FF0B2EF0FF0FFFF9AEF0FF0FFFF45EF22
:101F68000FF0FFFF34061D503424D96EDA6AFE0ED6
:101F7800DF6E1E503424D96EDA6A010EDF6E45EF2B
:101F88000FF0FFFF1C50D96EDA6A030ED926DF5016
:101F9800D8B4D1EF0FF0D4EF0FF0FFFF45EF0FF0FB
:101FA800FFFF356AE5EF0FF0FFFF1D503524D96EAE
:101FB800DA6ADF6A1E503524D96EDA6A010EDF6EDE
:101FC800352AFFFF3450355CD8A0EDEF0FF0F0EF65
:101FD8000FF0FFFFD8EF0FF0FFFF45EF0FF0FFFF07
:101FE8001200FFFFFFFF2C502D10D8B4FEEF0FF0AA
:101FF80001EF10F0FFFF48EF11F0FFFF20EE3DF07A
:102008002C50D9262D50DA22DF50D8A40EEF10F02C
:1020180011EF10F0FFFF14EF10F0FFFF48EF11F081
:10202800FFFF2CC006F02DC007F05FEC38F0000968
:10203800D8A421EF10F024EF10F0FFFF27EF10F0E5
:10204800FFFF48EF11F0FFFF20EE3EF02C50D9269D
:102058002D50DA22DF50346E20EE33F02C50D92682
:102068002D50DA22DE50345CD8A03DEF10F040EF5E
:1020780010F0FFFF42EF10F0FFFF346AFFFF2CC0A3
:1020880028F02DC029F0BCEC39F02CC01CF02DC074
:102098001DF0000E1E6E000E1F6E5AEC14F020EE9E
:1020A80040F02C50D9262D50DA22620EDF645FEF03
:1020B80010F062EF10F0FFFF6CEF10F0FFFF20EE62
:1020C80040F02C50D9262D50DA22DF6A74EF10F038
:1020D800FFFF20EE40F02C50D9262D50DA22DF2ABF
:1020E800FFFF34C02EF0010E2F6E000E306E2E2A28
:1020F80082EF10F0FFFFD8902F363036FFFF2E2EDC
:102108007EEF10F02FC031F030C032F020EE3FF0FB
:102118002C50D9262D50DA22DF50D8B496EF10F083
:1021280099EF10F0FFFF2BEF11F0FFFF20EE3FF0CB
:102138002C50D9262D50DA2210EE40F02C50E126F2
:102148002D50E222DE50E65CD8B0ADEF10F0B0EFD3
:1021580010F0FFFF2BEF11F0FFFF20EE52F02C5094
:10216800D9262D50DA22DF50D8B4BDEF10F0C0EFD9
:1021780010F0FFFFE9EF10F0FFFF20EE53F02C50B6
:10218800D9262D50DA22DF50D8A4CDEF10F0D0EFA9
:1021980010F0FFFFE9EF10F0FFFF20EE4AF02C509F
:1021A800D9262D50DA22DECF2EF0DDCF2FF0315098
:1021B8002E1632502F162E502F10D8A4E6EF10F0FE
:1021C800E9EF10F0FFFF2BEF11F0FFFF34C02EF006
:1021D80020EE49F02C50D9262D50DA22DF502F6EF0
:1021E8002E2AFAEF10F0FFFFD8902F32FFFF2E2E85
:1021F800F7EF10F02FB003EF11F007EF11F0FFFF2A
:10220800010E09EF11F0FFFF000EFFFF336E2CC027
:102218001CF02DC01DF034502C242E6E000E2D20E5
:102228002F6E410E2E24D96E000E2F20DA6EDF504D
:102238001E6E33C01FF05AEC14F02CC015F02DC0E0
:1022480016F034C017F0010E186E59EC13F0FFFFAA
:10225800342A20EE33F02C50D9262D50DA22DE50C5
:10226800345CD8A03AEF11F03DEF11F0FFFF3FEFDB
:1022780011F0FFFF346AFFFF20EE3EF02C50D92604
:102288002D50DA2234C0DFFFFFFF1200FFFFFFFFEF
:102298006C6E6950D8B453EF11F056EF11F0FFFF90
:1022A80053EF12F0FFFF6A50D8A45DEF11F060EF12
:1022B80011F0FFFF63EF11F0FFFF53EF12F0FFFF84
:1022C8006C04D8A46AEF11F06DEF11F0FFFFA2EFD4
:1022D80011F0FFFF6A50D96EDA6ADF2A6A50D96EA8
:1022E800DA6A030EDF647BEF11F07EEF11F0FFFF77
:1022F80083EF11F0FFFF6A50D96EDA6ADF6AFFFFD9
:102308003F0E076E7F0E086E8CEC39F06A50D96E5E
:10231800DA6ADF506B6E6B501A6E1B6ABAEC38F0D3
:10232800FD0E076E7F0E086E8CEC39F0FB0E076E03
:102338007F0E086E8CEC39F044EF12F0FFFF030EAD
:102348006C18D8A4AAEF11F0ADEF11F0FFFFE6EF7B
:1023580011F0FFFF69C012F06A50D96EDA6ADF50D7
:10236800136E010E146E69EC19F07F0E076E7F0E66
:10237800086E8CEC39F06A50D96EDA6ADF506B6EF1
:102388006B501A6E1B6ABAEC38F0B90E076E7F0EE6
:10239800086E8CEC39F06950D96EDA6ADECF1AF023
:1023A800DDCF1BF0BAEC38F0FD0E076E7F0E086E1D
:1023B8008CEC39F0FB0E076E7F0E086E8CEC39F052
:1023C80044EF12F0FFFF070E6C18D8A4EEEF11F0DF
:1023D800F1EF11F0FFFF2AEF12F0FFFF69C012F0D2
:1023E8006A50D96EDA6ADF50136EFF0E146E69EC0C
:1023F80019F06A0E076E7F0E086E8CEC39F06A5081
:10240800D96EDA6ADF506B6E6B501A6E1B6ABAECC3
:1024180038F0B90E076E7F0E086E8CEC39F06950F3
:10242800D96EDA6ADECF1AF0DDCF1BF0BAEC38F0DD
:10243800FD0E076E7F0E086E8CEC39F0FB0E076EF2
:102448007F0E086E8CEC39F044EF12F0FFFF250E7A
:10245800076E7F0E086E8CEC39F06CC01AF01B6AA0
:10246800BAEC38F0FD0E076E7F0E086E8CEC39F072
:10247800FB0E076E7F0E086E8CEC39F053EF12F0EE
:10248800FFFF6950D96EDA6ADECF5CF0DDCF5DF010
:102498006A50D96EDA6ADF505E6E4FEC1DF0FFFFAE
:1024A8001200FFFFFFFF36503710D8B45EEF12F06E
:1024B80061EF12F0FFFF6BEF12F0FFFF3C50D8A462
:1024C80068EF12F06BEF12F0FFFF6FEF12F0FFFFF3
:1024D800010E56EF13F0FFFF36C006F037C007F0C5
:1024E8003C50D96EDA6ADF50086E3C50D96EDA6A11
:1024F800010ED926DF50096EECEC1EF05A6E5A50C8
:10250800D8B489EF12F08CEF12F0FFFF91EF12F0C0
:10251800FFFFFFFF5A5056EF13F0FFFF38C018F0C7
:1025280039C019F03AC01AF03BC01BF03CC01CF08F
:102538003F0E1D6E470E1E6EFEEC0DF05A6E5A5081
:10254800D8B4A9EF12F0ACEF12F0FFFFAFEF12F022
:10255800FFFF8DEF12F0FFFF5B6AC7EF12F0FFFF7E
:102568005B5036243D6E000E37203E6E410E3D24F2
:10257800D96E000E3E20DA6E5B504F0FE16EE26AB4
:10258800DFCFE7FF5B2AFFFF20EE33F03650D92676
:102598003750DA22DE505B5CD8A0D5EF12F0D8EFC6
:1025A80012F0FFFFB3EF12F0FFFF20EE49F03650B4
:1025B800D9263750DA22DF50586E5B6A39EF13F0AC
:1025C800FFFF3C50D96EDA6ADF505B24596E5B50CE
:1025D800470FD96EDA6ADF50D8B4F5EF12F0F8EF8A
:1025E80012F0FFFF10EF13F0FFFF5B503F0FD96EA3
:1025F800DA6ADF50576E36C006F037C007F057C0AA
:1026080008F059EC1CF03D6E59504F0FD96EDA6A3C
:102618003DC0DFFF37EF13F0FFFF3C50D96EDA6A99
:10262800040ED926DF50D8B41CEF13F01FEF13F0B7
:10263800FFFF37EF13F0FFFF59504F0FD96EDA6ADB
:10264800DF6A59C03DF0010E3E6E3D2A2FEF13F0B0
:10265800FFFFD8903E36FFFF3D2E2CEF13F03E5083
:10266800FF0A5814586EFFFF5B2AFFFF3C50D96ED3
:10267800DA6A010ED926DE505B5CD8A046EF13F06B
:1026880049EF13F0FFFFE4EF12F0FFFF36C006F04A
:1026980037C007F04F0E086E096A58C00AF02DECD3
:1026A8001EF0000EFFFF1200FFFFFFFF155016106F
:1026B800D8B461EF13F064EF13F0FFFF57EF14F095
:1026C800FFFF20EE31F01550D9261650DA22DE50E1
:1026D800DE10D8B472EF13F075EF13F0FFFF57EF69
:1026E80014F0FFFF20EE33F01550D9261650DA22E9
:1026F800DE50175CD8A083EF13F086EF13F0FFFFCE
:1027080089EF13F0FFFF57EF14F0FFFF1850D8A41C
:1027180090EF13F093EF13F0FFFFABEF13F0FFFF11
:1027280020EE34F01550D9261650DA22DF50D8B4EE
:10273800A0EF13F0A4EF13F0FFFF010EA6EF13F0C4
:10274800FFFF000EFFFF266E276AB7EF13F0FFFFAB
:1027580020EE34F01550D9261650DA22DF50196EC3
:102768001950266E276AFFFF26C025F02550D8B4D9
:10277800C0EF13F0C3EF13F0FFFF0EEF14F0FFFFED
:102788001750060DF3CF19F0F4CF1AF020EE31F000
:102798001550D9261650DA22DECF1BF0DDCF1CF0FB
:1027A80019501B241D6E1A501C201E6E1DC0F6FFEA
:1027B8001EC0F7FFF86A0900FFFFF5CF12F00A0004
:1027C800FFFFF5CF13F01750060DF3CF1FF0F4CF2E
:1027D80020F020EE31F01550D9261650DA22DECF3F
:1027E80021F0DDCF22F01F502124236E205022201B
:1027F800246E050E2326000E242223C0F6FF24C0D3
:10280800F7FFF86A0800FFFFF5CF14F09DEC37F0EA
:1028180057EF14F0FFFF1750060DF3CF19F0F4CF60
:102828001AF020EE31F01550D9261650DA22DECFF4
:102838001BF0DDCF1CF019501B241D6E1A501C20F4
:102848001E6E1DC0F6FF1EC0F7FFF86A0900FFFFE5
:10285800F5CF12F00A00FFFFF5CF13F01750060D61
:10286800F3CF1FF0F4CF20F020EE31F01550D92629
:102878001650DA22DECF21F0DDCF22F01F502124BE
:10288800236E20502220246E050E2326000E2422BB
:1028980023C0F6FF24C0F7FFF86A0800FFFFF5CF52
:1028A80014F0A8EC37F0FFFF1200FFFFFFFF1CC079
:1028B80015F01DC016F01EB064EF14F068EF14F0A8
:1028C800FFFF010E6AEF14F0FFFF000EFFFF176E07
:1028D80020EE38F01C50D9261D50DA22DF50186E31
:1028E8005DEC1BF0060E1C24156E000E1D20166EE6
:1028F8001EB281EF14F085EF14F0FFFF010E87EF91
:1029080014F0FFFF000EFFFF176E20EE38F01C508A
:10291800D9261D50DA22DF50186E5DEC1BF00C0E24
:102928001C24156E000E1D20166E1EB49EEF14F0AA
:10293800A2EF14F0FFFF010EA4EF14F0FFFF000E4A
:10294800FFFF176E20EE38F01C50D9261D50DA22F2
:10295800DF50186E5DEC1BF0120E1C24156E000E75
:102968001D20166E1EB6BBEF14F0BFEF14F0FFFF6C
:10297800010EC1EF14F0FFFF000EFFFF176E20EEEF
:1029880038F01C50D9261D50DA22DF50186E5DEC45
:102998001BF0180E1C24156E000E1D20166E1EB896
:1029A800D8EF14F0DCEF14F0FFFF010EDEEF14F0A7
:1029B800FFFF000EFFFF176E20EE38F01C50D926DF
:1029C8001D50DA22DF50186E5DEC1BF01E0E1C2421
:1029D800156E000E1D20166E1EBAF5EF14F0F9EFF5
:1029E80014F0FFFF010EFBEF14F0FFFF000EFFFFD6
:1029F800176E20EE38F01C50D9261D50DA22DF5011
:102A0800186E5DEC1BF0240E1C24156E000E1D20A4
:102A1800166E1EBC12EF15F016EF15F0FFFF010E33
:102A280018EF15F0FFFF000EFFFF176E20EE38F0CD
:102A38001C50D9261D50DA22DF50186E5DEC1BF0B1
:102A480020EE30F01C50D9261D50DA22DF50D8B4C1
:102A580030EF15F033EF15F0FFFF46EF15F0FFFFED
:102A68002A0E1C24156E000E1D20166E1FC017F0AE
:102A780020EE38F01C50D9261D50DA22DF50186E8F
:102A88005DEC1BF0FFFF1200FFFFFFFF1550161053
:102A9800D8B451EF15F054EF15F0FFFF31EF16F0F1
:102AA800FFFF20EE31F01550D9261650DA22DE50FD
:102AB800DE10D8A462EF15F065EF15F0FFFF68EFA0
:102AC80015F0FFFF31EF16F0FFFF20EE34F0155040
:102AD800D9261650DA22DF50D8B475EF15F079EF01
:102AE80015F0FFFF010E7BEF15F0FFFF000EFFFF53
:102AF800236E246A20EF16F0FFFF2350D8B487EF27
:102B080015F08AEF15F0FFFFD5EF15F0FFFF245001
:102B1800060DF3CF17F0F4CF18F020EE31F0155072
:102B2800D9261650DA22DECF19F0DDCF1AF0175069
:102B380019241B6E18501A201C6E1BC0F6FF1CC0EF
:102B4800F7FFF86A0900FFFFF5CF12F00A00FFFF50
:102B5800F5CF13F02450060DF3CF1DF0F4CF1EF07F
:102B680020EE31F01550D9261650DA22DECF1FF0AC
:102B7800DDCF20F01D501F24216E1E502020226E14
:102B8800050E2126000E222221C0F6FF22C0F7FFE3
:102B9800F86A0800FFFFF5CF14F09DEC37F01EEF40
:102BA80016F0FFFF2450060DF3CF17F0F4CF18F0FE
:102BB80020EE31F01550D9261650DA22DECF19F062
:102BC800DDCF1AF0175019241B6E18501A201C6EEE
:102BD8001BC0F6FF1CC0F7FFF86A0900FFFFF5CF1E
:102BE80012F00A00FFFFF5CF13F02450060DF3CFC3
:102BF8001DF0F4CF1EF020EE31F01550D9261650F6
:102C0800DA22DECF1FF0DDCF20F01D501F24216E09
:102C18001E502020226E050E2126000E222221C0E1
:102C2800F6FF22C0F7FFF86A0800FFFFF5CF14F09F
:102C3800A8EC37F0FFFF242AFFFF20EE33F01550F1
:102C4800D9261650DA22DE50245CD8A02EEF16F0D2
:102C580031EF16F0FFFF80EF15F0FFFF1200FFFFC6
:102C6800FFFF06500710D8B43CEF16F03FEF16F000
:102C7800FFFF17EF17F0FFFF20EE3DF00650D926B3
:102C88000750DA22DF50D8A44CEF16F04FEF16F0B9
:102C9800FFFF52EF16F0FFFF17EF17F0FFFF20EED0
:102CA80052F00650D9260750DA22DF50D8B45FEF29
:102CB80016F062EF16F0FFFF73EF16F0FFFF20EE3D
:102CC8004AF00650D9260750DA22DE50DE10D8A482
:102CD80070EF16F073EF16F0FFFF8CEF16F0FFFFA2
:102CE80020EE53F00650D9260750DA22010EDF6E87
:102CF80020EE4EF00650D9260750DA2208C0DEFF33
:102D080009C0DEFF0AC0DEFF0BC0DEFF17EF17F0B9
:102D1800FFFF20EE4CF00650D9260750DA22DECF0E
:102D280018F0DDCF19F018501910D8A49EEF16F03E
:102D3800A1EF16F0FFFFA6EF16F0FFFF010E196EC8
:102D4800F40E186EFFFFD89019300C6E1830186EFC
:102D58000CC019F018501910D8A4B5EF16F0B8EF38
:102D680016F0FFFFE6EF16F0FFFF196A010E186E66
:102D7800E6EF16F0FFFF20EE4EF00650D92607507A
:102D8800DA221850DE261950DE22000EDE22DE225C
:102D980020EE53F00650D9260750DA2210EE53F0F1
:102DA8000650E1260750E222E750D8B4DEEF16F0CD
:102DB800E2EF16F0FFFF010EE4EF16F0FFFF000E42
:102DC800FFFFDF6EFFFF18500C6E19500D6E0E6A74
:102DD8000F6A20EE4EF00650D9260750DA22DECFD1
:102DE80010F0DECF11F0DECF12F0DECF13F010506E
:102DF800085C146E11500958156E12500A58166E58
:102E080013500B58176E0C50145C0D5015580E507B
:102E180016580F501758D8B014EF17F017EF17F0CF
:102E2800FFFFBEEF16F0FFFF1200FFFFFFFF065087
:102E38000710D8B422EF17F025EF17F0FFFF46EF81
:102E480017F0FFFF20EE3AF00650D9260750DA2295
:102E5800DF50D8B432EF17F035EF17F0FFFF46EF29
:102E680017F0FFFF20EE3BF00650D9260750DA2274
:102E7800DE50DE10D8A443EF17F046EF17F0FFFF3F
:102E880079EF17F0FFFF06500710D8B44EEF17F090
:102E980051EF17F0FFFF75EF17F0FFFF20EE3AF044
:102EA8000650D9260750DA22DF50D8A45EEF17F073
:102EB80061EF17F0FFFF6CEF17F0FFFF20EE65F0F2
:102EC8000650D9260750DA22020EDF6E75EF17F08A
:102ED800FFFF20EE65F00650D9260750DA22030ED0
:102EE800DF6EFFFF000EDEEF17F0FFFF0B6A000E2C
:102EF8000A6E0D6A000E0C6EB9EF17F0FFFF20EE98
:102F080065F00650D9260750DA22040EDF6E75EFF9
:102F180017F0FFFF20EE65F00650D9260750DA2299
:102F2800040EDF6E75EF17F0FFFF20EE65F0065018
:102F3800D9260750DA22040EDF6E75EF17F0FFFF6F
:102F480020EE65F00650D9260750DA22040EDF6E0F
:102F580075EF17F0FFFF20EE65F00650D9260750F1
:102F6800DA22040EDF6E75EF17F0FFFF20EE3AF05D
:102F78000650D9260750DA22DF50086E096A095030
:102F8800000AD8B4CAEF17F0AEEF17F0FFFF0850E9
:102F9800010AD8B482EF17F0030AD8B48DEF17F0FE
:102FA800010AD8B498EF17F0070AD8B4A3EF17F0BE
:102FB800AEEF17F0FFFF1200FFFFFFFF20EE02F059
:102FC8001750D9261850DA22DECF13F0DECF14F0CE
:102FD800DDCF15F020EE05F01750D9261850DA226B
:102FE800DF50166EC0EC37F020EE08F01750D926E7
:102FF8001850DA22DECF13F0DECF14F0DDCF15F053
:1030080020EE0BF01750D9261850DA22DF50166E32
:10301800C0EC37F020EE0EF01750D9261850DA22FF
:10302800DECF13F0DECF14F0DDCF15F020EE11F077
:103038001750D9261850DA22DF50166EC0EC37F038
:1030480020EE14F01750D9261850DA22DECF13F0EC
:10305800DECF14F0DDCF15F020EE17F01750D9268B
:103068001850DA22DF50166EC0EC37F020EE1AF056
:103078001750D9261850DA22DECF13F0DECF14F01D
:10308800DDCF15F020EE1DF01750D9261850DA22A2
:10309800DF50166EC0EC37F020EE20F01750D9261E
:1030A8001850DA22DECF13F0DECF14F0DDCF15F0A2
:1030B80020EE23F01750D9261850DA22DF50166E6A
:1030C800C0EC37F020EE26F01750D9261850DA2237
:1030D800DECF13F0DECF14F0DDCF15F020EE29F0AF
:1030E8001750D9261850DA22DF50166EC0EC37F088
:1030F80020EE30F01750D9261850DA22DF50D8B415
:1031080088EF18F08BEF18F0FFFFA2EF18F0FFFF21
:1031180020EE2CF01750D9261850DA22DECF13F003
:10312800DECF14F0DDCF15F020EE2FF01750D926A2
:103138001850DA22DF50166EC0EC37F0FFFF12008D
:10314800FFFFFFFF20EE02F01750D9261850DA22B1
:10315800DECF13F0DECF14F0DDCF15F020EE05F052
:103168001750D9261850DA22DF50166EB3EC37F014
:1031780020EE08F01750D9261850DA22DECF13F0C7
:10318800DECF14F0DDCF15F020EE0BF01750D92666
:103198001850DA22DF50166EB3EC37F020EE0EF03E
:1031A8001750D9261850DA22DECF13F0DECF14F0EC
:1031B800DDCF15F020EE11F01750D9261850DA227D
:1031C800DF50166EB3EC37F020EE14F01750D92606
:1031D8001850DA22DECF13F0DECF14F0DDCF15F071
:1031E80020EE17F01750D9261850DA22DF50166E45
:1031F800B3EC37F020EE1AF01750D9261850DA221F
:10320800DECF13F0DECF14F0DDCF15F020EE1DF089
:103218001750D9261850DA22DF50166EB3EC37F063
:1032280020EE20F01750D9261850DA22DECF13F0FE
:10323800DECF14F0DDCF15F020EE23F01750D9269D
:103248001850DA22DF50166EB3EC37F020EE26F075
:103258001750D9261850DA22DECF13F0DECF14F03B
:10326800DDCF15F020EE29F01750D9261850DA22B4
:10327800DF50166EB3EC37F020EE30F01750D92639
:103288001850DA22DF50D8B44CEF19F04FEF19F08C
:10329800FFFF66EF19F0FFFF20EE2CF01750D9263C
:1032A8001850DA22DECF13F0DECF14F0DDCF15F0A0
:1032B80020EE2FF01750D9261850DA22DF50166E5C
:1032C800B3EC37F0FFFF1200FFFFFFFF1250D8B436
:1032D80070EF19F073EF19F0FFFF22EF1AF0FFFFFC
:1032E800030E13647AEF19F07DEF19F0FFFF80EFFA
:1032F80019F0FFFF22EF1AF0FFFF1350020D340EF2
:10330800F324F66E7E0EF420F76EF86A000EF822AB
:103318000900FFFFF5CF21F00A00FFFFF5CF22F0EB
:1033280021C008F022C009F01250D96EDA6ADECF47
:1033380006F0DDCF07F036EC3CF006C00DF007C014
:103348000EF0106A0A0E0F6E70EC3BF00DC023F001
:103358000EC024F01450800A7F0FD8A0B6EF19F0E1
:10336800B9EF19F0FFFFD5EF19F0FFFF245007E17F
:10337800090E235CD8B0C3EF19F0C6EF19F0FFFFB0
:10338800CFEF19F0FFFF010E23241F6E000E24203B
:10339800206EEDEF19F0FFFF206A000E1F6EEDEFB3
:1033A80019F0FFFF23502410D8B4DDEF19F0E0EF37
:1033B80019F0FFFFE9EF19F0FFFFFF0E23241F6E3E
:1033C800FF0E2420206EEDEF19F0FFFF206A090E92
:1033D8001F6EFFFF1250D96EDA6ADECF15F0DDCF0F
:1033E80016F021502302F3CF17F0F4CF18F024027F
:1033F800F350182622502302F350182621501F029A
:10340800F3CF19F0F4CF1AF02002F3501A26225005
:103418001F02F3501A261750195C1B6E18501A58C1
:103428001C6E15501B241D6E16501C201E6E12504B
:10343800D96EDA6A1DC0DEFF1EC0DDFFFFFF120075
:10344800FFFFFFFF2E50D96EDA6ADECF34F0DDCFF2
:1034580035F0316A34C015F035C016F049EC15F076
:1034680034C017F035C018F0E1EC17F0010E366ED5
:10347800FFFF800E3618D8A444EF1AF047EF1AF071
:10348800FFFF5AEF1AF0FFFF20EE30F03450D92634
:103498003550DA22DF50D8A454EF1AF057EF1AF05B
:1034A800FFFF5AEF1AF0FFFFB8EF1AF0FFFF34C022
:1034B80006F035C007F036C008F0D4EC1AF006C0A4
:1034C80032F007C033F032503310D8B46EEF1AF030
:1034D80071EF1AF0FFFFB8EF1AF0FFFF32C0D9FF03
:1034E80033C0DAFFDE50DE10D8A47DEF1AF080EF8B
:1034F8001AF0FFFF83EF1AF0FFFFB8EF1AF0FFFF93
:1035080032C0D9FF33C0DAFFDECF0CF0DDCF0DF0CB
:1035180020EE05F03250D9263350DA22DF500E6EF5
:1035280092EC37F02F6E2E50D96EDA6A060ED92635
:10353800DE502F18D8A4A3EF1AF0A6EF1AF0FFFF59
:10354800AAEF1AF0FFFF31503610316EFFFF800EE0
:103558003618D8A4B2EF1AF0B5EF1AF0FFFFB8EF9B
:103568001AF0FFFFC4EF1AF0FFFFD8903636365036
:10357800D8A4C1EF1AF0C4EF1AF0FFFF3CEF1AF01D
:10358800FFFF34C017F035C018F0A5EC18F034C0B0
:103598001CF035C01DF030EC03F031501200FFFF75
:1035A800FFFF06500710D8B4DCEF1AF0DFEF1AF06F
:1035B800FFFFE9EF1AF0FFFF0850D8A4E6EF1AF072
:1035C800E9EF1AF0FFFF36EF1BF0FFFF000E066E63
:1035D800000E076E5AEF1BF0FFFF06C006F007C08B
:1035E80007F05AEF1BF0FFFF060E0624066E000ECA
:1035F8000720076E5AEF1BF0FFFF0C0E0624066E1D
:10360800000E0720076E5AEF1BF0FFFF120E06246C
:10361800066E000E0720076E5AEF1BF0FFFF180E0C
:103628000624066E000E0720076E5AEF1BF0FFFFF8
:103638001E0E0624066E000E0720076E5AEF1BF0BA
:10364800FFFF240E0624066E000E0720076E5AEFB1
:103658001BF0FFFF2A0E0624066E000E0720076ED9
:103668005AEF1BF0FFFF0850010AD8B4F0EF1AF028
:10367800030AD8B4F7EF1AF0060AD8B400EF1BF023
:103688000C0AD8B409EF1BF0180AD8B412EF1BF0D3
:10369800300AD8B41BEF1BF0600AD8B424EF1BF033
:1036A800C00AD8B42DEF1BF0E9EF1AF0FFFF1200A3
:1036B800FFFFFFFF15501610D8B465EF1BF068EF39
:1036C8001BF0FFFFD8EF1BF0FFFF15C0D9FF16C096
:1036D800DAFFDE50DE10D8B474EF1BF077EF1BF082
:1036E800FFFFD8EF1BF0FFFF20EE02F01550D926A0
:1036F8001650DA22DE50DE10D8A485EF1BF088EFD2
:103708001BF0FFFF8BEF1BF0FFFFD8EF1BF0FFFF55
:1037180017C01BF01804D8A494EF1BF097EF1BF008
:10372800FFFFA6EF1BF0FFFF1750D8B49EEF1BF06A
:10373800A2EF1BF0FFFF010EA4EF1BF0FFFF000E2E
:10374800FFFF1B6EFFFF1B50D8B4ADEF1BF0B0EFAF
:103758001BF0FFFFC5EF1BF0FFFF15C0D9FF16C018
:10376800DAFFDECF12F0DDCF13F020EE05F01550B2
:10377800D9261650DA22DF50146E9DEC37F0D8EFB8
:103788001BF0FFFF15C0D9FF16C0DAFFDECF12F01D
:10379800DDCF13F020EE05F01550D9261650DA22A9
:1037A800DF50146EA8EC37F0FFFF1200FFFFFFFF99
:1037B80015501610D8B4E3EF1BF0E6EF1BF0FFFF2F
:1037C80056EF1CF0FFFF15C0D9FF16C0DAFFDE5018
:1037D800DE10D8B4F2EF1BF0F5EF1BF0FFFF56EF49
:1037E8001CF0FFFF20EE02F01550D9261650DA2201
:1037F800DE50DE10D8A403EF1CF006EF1CF0FFFF2C
:1038080009EF1CF0FFFF56EF1CF0FFFF17C01BF07D
:103818001804D8A412EF1CF015EF1CF0FFFF24EFDA
:103828001CF0FFFF1750D8B41CEF1CF020EF1CF061
:10383800FFFF010E22EF1CF0FFFF000EFFFF1B6EC3
:10384800FFFF1B50D8B42BEF1CF02EEF1CF0FFFF2E
:1038580043EF1CF0FFFF15C0D9FF16C0DAFFDECF1B
:1038680012F0DDCF13F020EE05F01550D9261650D2
:10387800DA22DF50146E9DEC37F056EF1CF0FFFF94
:1038880015C0D9FF16C0DAFFDECF12F0DDCF13F076
:1038980020EE05F01550D9261650DA22DF50146EA6
:1038A800A8EC37F0FFFF1200FFFFFFFF0A0E0860C9
:1038B80060EF1CF063EF1CF0FFFF72EF1CF0FFFFDE
:1038C800220E0824F66EF76A7E0EF722F86A000EBA
:1038D800F8220800FFFFF550D2EF1CF0FFFFFE0EA4
:1038E8000818D8A47AEF1CF07DEF1CF0FFFF81EFD9
:1038F8001CF0FFFF400ED2EF1CF0FFFF0828D8A4F1
:1039080088EF1CF08BEF1CF0FFFF90EF1CF0FFFF1F
:10391800FFFF000ED2EF1CF0FFFF090E086497EFBF
:103928001CF09AEF1CF0FFFF8CEF1CF0FFFF20EE5D
:1039380035F00650D9260750DA22DE50DE10D8B40A
:10394800A8EF1CF0ABEF1CF0FFFF8CEF1CF0FFFFA3
:103958000850F60F0B6E20EE37F00650D9260750A8
:10396800DA22DE500B5CD8B0BCEF1CF0BFEF1CF0C5
:10397800FFFF8CEF1CF0FFFF20EE35F00650D92634
:103988000750DA22DECF09F0DDCF0AF00B50092408
:10399800D96E000E0A20DA6EDF507F0BFFFF12008F
:1039A800FFFFFFFF0F501010D8B4DDEF1CF0E0EF61
:1039B8001CF0FFFF4CEF1DF0FFFF20EE3DF00F5015
:1039C800D9261050DA22DF50D8B4EDEF1CF0F0EF12
:1039D8001CF0FFFF4CEF1DF0FFFF20EE33F00F50FF
:1039E800D9261050DA22DE50115CD8A0FEEF1CF068
:1039F80001EF1DF0FFFF04EF1DF0FFFF4CEF1DF07E
:103A0800FFFF20EE49F00F50D9261050DA22DF5080
:103A1800156E1250D8B413EF1DF016EF1DF0FFFF0E
:103A28002AEF1DF0FFFF11C013F0010E146E132AC8
:103A380021EF1DF0FFFFD8901436FFFF132E1EEF65
:103A48001DF014501510156E3DEF1DF0FFFF11C04D
:103A580013F0010E146E132A35EF1DF0FFFFD890F6
:103A68001436FFFF132E32EF1DF01450FF0A151401
:103A7800156EFFFF0FC006F010C007F0410E0F24AF
:103A8800086E000E1020096E15C00AF02DEC1EF00D
:103A9800FFFF1200FFFFFFFF030E5E6456EF1DF0ED
:103AA80059EF1DF0FFFF5BEF1DF0FFFF5E6AFFFFA0
:103AB800646A040E656E010E666E010E676E010E75
:103AC800686E400E366E010E376E5CC038F05DC011
:103AD80039F03A6A3B6A640E3C6E56EC12F0626E3C
:103AE8006250D8B47AEF1DF07DEF1DF0FFFF84EF30
:103AF8001DF0FFFFA50E096E7F0E0A6E8BEC3AF0E3
:103B0800FFFF636AFFFF400E0F6E010E106E63C069
:103B180011F0000E126ED5EC1CF0632A030E6364DC
:103B280098EF1DF09BEF1DF0FFFF86EF1DF0FFFFE4
:103B3800400E106E010E116E5EC05FF0010E606ED9
:103B4800000E616E5F2AADEF1DF0FFFFD890603662
:103B58006136FFFF5F2EA9EF1DF060C012F061C053
:103B680013F016EC3DF0400E066E010E076E010EC6
:103B7800086EC8EC3CF01200FFFFFFFF065007106C
:103B8800D8A4C9EF1DF0CCEF1DF0FFFFCFEF1DF05B
:103B9800FFFF2AEF1EF0FFFF20EE3AF00650D9266D
:103BA8000750DA22DF50086E096A0950000AD8B4B3
:103BB800E0EF1DF0F4EF1DF0FFFF0850010AD8B444
:103BC800F4EF1DF0030AD8B4F4EF1DF0010AD8B4DD
:103BD800F4EF1DF0070AD8B4F4EF1DF0F4EF1DF070
:103BE800FFFF20EE54F00650D9260750DA22DF6A8C
:103BF80020EE55F00650D9260750DA22DE6ADD6A33
:103C080020EE57F00650D9260750DA22DE6ADD6A20
:103C180020EE59F00650D9260750DA22DE6ADE6A0D
:103C2800DE6ADD6A20EE5DF00650D9260750DA22FA
:103C3800DE6ADE6ADE6ADD6A20EE61F00650D926A9
:103C48000750DA22DE6ADE6ADE6ADD6AFFFF1200EA
:103C5800FFFFFFFF06500710D8B435EF1EF038EF0E
:103C68001EF0FFFF8AEF1EF0FFFF08500910D8A4CE
:103C780040EF1EF043EF1EF0FFFF46EF1EF0FFFF80
:103C88008AEF1EF0FFFF000EF2BE010E0D6EF29ECF
:103C98000E6A65EF1EF0FFFF0E500824D96E000E65
:103CA8000920DA6E0E5006240B6E000E07200C6EEB
:103CB800410E0B24E16E000E0C20E26EDFCFE7FF11
:103CC8000E2AFFFF20EE33F00650D9260750DA22DD
:103CD800DE500E5CD8A073EF1EF076EF1EF0FFFFEB
:103CE8004FEF1EF0FFFF20EE49F00650D92607508F
:103CF800DA220AC0DFFF0D50D8B485EF1EF088EF36
:103D08001EF0FFFF8AEF1EF0FFFFF28EFFFF12008A
:103D1800FFFFFFFF000E0E6E000E0F6E000E106EFE
:103D2800000E116E0A500B100C100D10D8B49FEF36
:103D38001EF0A2EF1EF0FFFFE1EF1EF0FFFF010EE5
:103D4800126EAEEF1EF0FFFFD8900A360B360C3617
:103D58000D36122AFFFF0DAEB4EF1EF0B7EF1EF0BE
:103D6800FFFFA7EF1EF0FFFFFFFFD8900E360F36BC
:103D7800103611360A50065C0B5007580C5008587C
:103D88000D500958D8A0CBEF1EF0CEEF1EF0FFFF64
:103D9800D8EF1EF0FFFF0A50065E0B50075A0C5072
:103DA800085A0D50095A0E80FFFFD8900D320C3278
:103DB8000B320A32122EB8EF1EF0FFFF0EC006F0CB
:103DC8000FC007F010C008F011C009F01200FFFF83
:103DD800FFFF06500710D8B4F4EF1EF0F7EF1EF0FF
:103DE800FFFF3FEF1FF0FFFF20EE3DF00650D92602
:103DF8000750DA22DF50D8B404EF1FF007EF1FF0A6
:103E0800FFFF3FEF1FF0FFFF0950D8B40EEF1FF080
:103E180011EF1FF0FFFF3FEF1FF0FFFF20EE33F021
:103E28000650D9260750DA22DE50085CD8B01FEFBA
:103E38001FF022EF1FF0FFFF3FEF1FF0FFFF0950B9
:103E480008C00AF00B6A0A26000E0B2220EE33F097
:103E58000650D9260750DA22DF500C6E0D6A0A5038
:103E68000C5C0B500D58D8B03CEF1FF03FEF1FF023
:103E7800FFFF43EF1FF0FFFF010E45EF1FF0FFFFAD
:103E8800000EFFFF1200FFFFFFFF0650071008108B
:103E9800D8B451EF1FF054EF1FF0FFFF9FEF1FF052
:103EA800FFFF070E09645BEF1FF05EEF1FF0FFFFD7
:103EB80061EF1FF0FFFF9FEF1FF0FFFF06C0F6FF47
:103EC80007C0F7FF0850E8BE05D0F86E0800FFFFEE
:103ED800F55005D0F6CFE9FFF7CFEAFFEF500E6EA9
:103EE80009C00BF0010E0C6E0B2A7EEF1FF0FFFFCE
:103EF800D8900C36FFFF0B2E7BEF1FF00C500D6E89
:103F08000A50D8B48AEF1FF08DEF1FF0FFFF93EF30
:103F18001FF0FFFF0E500D100E6E98EF1FF0FFFF01
:103F28000D50FF0A0E140E6EFFFF06C0D9FF07C022
:103F3800DAFF0EC0DFFFFFFF1200FFFFFFFF20EEDA
:103F480008F00A50D9260B50DA220CC0DFFF20EE09
:103F580009F00A50D9260B50DA220CC0DFFF20EEF8
:103F680006F00A50D9260B50DA220CC0DFFF87EC86
:103F780037F020EE0AF00A50D9260B50DA2206C094
:103F8800DEFF07C0DEFF08C0DEFF09C0DEFF20EE4F
:103F98000EF00A50D9260B50DA22DE6ADE6ADE6A93
:103FA800DD6A20EE12F00A50D9260B50DA22DE6ABA
:103FB800DE6ADE6ADD6A20EE16F00A50D9260B505A
:103FC800DA22DE6ADE6ADE6ADD6A20EE20F00A5056
:103FD800D9260B50DA22DF6A0AC006F00BC007F0B8
:103FE8002FEC39F01200FFFFFFFF06C075F007C085
:083FF80076F01200FFFFFFFF4D
:106ECE00FFFFCD801200FFFFFFFF9E909D801200FE
:106EDE00FFFFFFFF0350CF6E02C0CEFF1200FFFF79
:106EEE00FFFF0750CF6E06C0CEFF1200FFFFFFFF61
:106EFE0037C035F038C036F0F9EC3AF01200FFFF2B
:106F0E00FFFF71C006F072C007F073C008F074C0C6
:106F1E0009F01200FFFFFFFF0CC006F00DC007F0D6
:106F2E000EC008F0EEEC39F01200FFFFFFFF12C0AA
:106F3E000FF013C010F014C011F00AEC38F012006C
:106F4E00FFFFFFFF12C00FF013C010F014C011F0BE
:106F5E001CEC38F01200FFFFFFFF13C00FF014C03F
:106F6E0010F015C011F016C012F0DCEC37F0120064
:106F7E00FFFFFFFF13C00FF014C010F015C011F08B
:106F8E0016C012F0EBEC37F01200FFFFFFFF77C0D8
:106F9E0002F078C003F070EC37F0010E7126000E8F
:106FAE007222732274221200FFFFFFFF0FC006F041
:106FBE0010C007F011C008F012C009F0000E0A6EE2
:106FCE0048EC1FF01200FFFFFFFF0FC006F010C0CD
:106FDE0007F011C008F012C009F0010E0A6E48EC5D
:106FEE001FF01200FFFFFFFF066EFFFF9EA802EFCD
:106FFE0038F005EF38F0FFFFFCEF37F0FFFF06C06B
:10700E00ADFF1200FFFFFFFF0FC006F010C007F02C
:10701E0006500710D8A4800E086E11C009F0010E9C
:10702E000A6E48EC1FF01200FFFFFFFF0FC006F0C4
:10703E0010C007F006500710D8A4800E086E11C0BD
:10704E0009F0000E0A6E48EC1FF01200FFFF01EE71
:10705E0000F0C70EEE6AE806FDE100EE80F0610E6C
:10706E00EE6AE806FDE100EE6DF00E0EEE6AE80641
:10707E00FDE1019001920001A7EF07F0FFFF06501E
:10708E000710D8A44DEF38F050EF38F0FFFF54EF53
:10709E0038F0FFFF010E5CEF38F0FFFF20EE65F0D9
:1070AE000650D9260750DA22DF50FFFF1200FFFFED
:1070BE00FFFF06500710D8A467EF38F06AEF38F0DC
:1070CE00FFFF6EEF38F0FFFF000E76EF38F0FFFF98
:1070DE0020EE33F00650D9260750DA22DF50FFFF9C
:1070EE001200FFFFFFFF88EF38F0FFFF030E086E60
:1070FE006F0EFFFFE82EFDD7082EFBD70606D8A091
:10710E000706FFFF06500710D8A490EF38F093EF54
:10711E0038F0FFFF7CEF38F0FFFF1200FFFFFFFF9C
:10712E00FE0E786EC80E776E000E716E000E726EC9
:10713E00000E736E000E746E0B6A080E0A6E08EC6B
:10714E0039F077C006F078C007F077EC37F09A0E7A
:10715E00066E6F0E076EF8EC1FF06BEC37F067ECF7
:10716E0037F01200FFFFFFFF1BBEC3EF38F0C0EF7A
:10717E0038F0FFFFD7EF38F0FFFF2D0EFAEC37F0A7
:10718E001AC01CF01BC01DF01C1E1D1E1C4A1D2A01
:10719E001CC012F01DC013F0ABEC3EF0DEEF38F069
:1071AE00FFFF1AC012F01BC013F0ABEC3EF0FFFF56
:1071BE001200FFFFFFFF0650D8B4E8EF38F0EBEFF8
:1071CE0038F0FFFFFAEF38F0FFFF0650D96EDA6A9B
:1071DE00070ED926DF50D8A4F7EF38F0FAEF38F0C3
:1071EE00FFFFFEEF38F0FFFF000E05EF39F0FFFF57
:1071FE000650D96EDA6A080ED926DF50FFFF12004C
:10720E00FFFFFFFFCD920AC006F00BC007F055EC52
:10721E003AF00C6E010E0C160C3ACD500C18EF0B0A
:10722E000C18CD6E0AC006F00BC007F055EC3AF004
:10723E000C6ED8900C32010E0C160C3A0C46CD503A
:10724E000C18DF0B0C18CD6ECF6ACE6A1200FFFF42
:10725E00FFFF20EE1AF00650D9260750DA22DF6A19
:10726E0020EE1BF00650D9260750DA22DF6A20EEF8
:10727E001CF00650D9260750DA22DF6A20EE1DF0E8
:10728E000650D9260750DA22DF6A20EE1EF006508D
:10729E00D9260750DA22DF6A20EE1FF00650D926D3
:1072AE000750DA22DF6A1200FFFFFFFF9DA062EF98
:1072BE0039F065EF39F0FFFF89EF39F0FFFF9EA03F
:1072CE006BEF39F06EEF39F0FFFF89EF39F0FFFF0A
:1072DE009E9075507610D8B477EF39F07AEF39F07A
:1072EE00FFFF89EF39F0FFFF02D889EF39F0FFFF7A
:1072FE000500FA6E7550FD6E7650FE6EFF6AFA50FE
:10730E001200FFFFFFFF1200FFFFFFFF07500810E4
:10731E00D8A494EF39F097EF39F0FFFFA7EF39F0CB
:10732E00FFFFB9EF39F0FFFF07C0F6FF08C0F7FF08
:10733E00F86A0800FFFFF550FAEC37F0074A082A02
:10734E00FFFF07C0F6FF08C0F7FFF86A0800FFFF4F
:10735E00F5500009D8A4B6EF39F0B9EF39F0FFFFB8
:10736E009AEF39F0FFFF1200FFFFFFFF28502910A0
:10737E00D8A4C4EF39F0C7EF39F0FFFFCAEF39F0E8
:10738E00FFFFEBEF39F0FFFF2B6ADAEF39F0FFFF6B
:10739E0028C015F029C016F02BC017F0000E186E7D
:1073AE0059EC13F02B2AFFFF20EE33F02850D9268C
:1073BE002950DA22DE502B5CD8A0E8EF39F0EBEF43
:1073CE0039F0FFFFCEEF39F0FFFF1200FFFFFFFF96
:1073DE0006500710D8B4F6EF39F0F9EF39F0FFFF89
:1073EE0003EF3AF0FFFF070E086400EF3AF003EFE9
:1073FE003AF0FFFF07EF3AF0FFFF000E1EEF3AF0F4
:10740E00FFFF06C0D9FF07C0DAFFDF500B6E08C0C2
:10741E0009F00BC00AF0092A18EF3AF0FFFFD890D6
:10742E000A32FFFF092E15EF3AF00A50010BFFFF4B
:10743E001200FFFFFFFF010E176E42EF3AF0FFFF43
:10744E0013C006F014C007F015C008F016C009F0FE
:10745E000A0E0A6E000E0B6E000E0C6E000E0D6EF6
:10746E008DEC1EF006C013F007C014F008C015F026
:10747E0009C016F0172AFFFF16501510141007E159
:10748E000A0E135CD8B04EEF3AF051EF3AF0FFFF10
:10749E0026EF3AF0FFFF17501200FFFFFFFF68EFD5
:1074AE003AF0FFFF000E88EF3AF0FFFF010E88EF73
:1074BE003AF0FFFF020E88EF3AF0FFFF030E88EF5F
:1074CE003AF0FFFF06C008F007C009F00950000AA5
:1074DE00D8B474EF3AF064EF3AF0FFFF0850010AA7
:1074EE00D8B458EF3AF0030AD8B45CEF3AF0060A73
:1074FE00D8B460EF3AF00C0AD8B464EF3AF064EF07
:10750E003AF0FFFF1200FFFFFFFF8C6A8B808B8229
:10751E008B848B86CE0E076E7F0E086E8CEC39F048
:10752E0009500A10D8B49EEF3AF0A1EF3AF0FFFFDF
:10753E00B0EF3AF0FFFF09C007F00AC008F08CEC7C
:10754E0039F0FB0E076E7F0E086E8CEC39F0BDEF36
:10755E003AF0FFFFD60E076E7F0E086E8CEC39F0F8
:10756E00FB0E076E7F0E086E8CEC39F0FFFFBDEF41
:10757E003AF01200FFFFFFFF06500710D8B4CAEF13
:10758E003AF0CDEF3AF0FFFFF6EF3AF0FFFF20EEC4
:10759E003DF00650D9260750DA22DF50D8A4DAEF94
:1075AE003AF0DDEF3AF0FFFFE0EF3AF0FFFFF6EFD3
:1075BE003AF0FFFF640E0864E7EF3AF0EAEF3AF0B4
:1075CE00FFFFEDEF3AF0FFFF640E086EFFFF20EEB7
:1075DE003FF00650D9260750DA2208C0DFFFFFFF22
:1075EE001200FFFFFFFF35503610D8B401EF3BF00D
:1075FE0004EF3BF0FFFF31EF3BF0FFFF20EE3DF0DD
:10760E003550D9263650DA22DF50D8A411EF3BF090
:10761E0014EF3BF0FFFF17EF3BF0FFFF31EF3BF0B6
:10762E00FFFF20EE54F03550D9263650DA22DF50C7
:10763E00D8B424EF3BF027EF3BF0FFFF2AEF3BF0EF
:10764E00FFFF31EF3BF0FFFF35C02CF036C02DF0C1
:10765E00F6EC0FF0FFFF1200FFFFFFFF06500710C2
:10766E00D8B43CEF3BF03FEF3BF0FFFF6DEF3BF04C
:10767E00FFFF20EE3DF00650D9260750DA22DF50EC
:10768E00D8A44CEF3BF04FEF3BF0FFFF52EF3BF037
:10769E00FFFF6DEF3BF0FFFF08500910D8A45AEF23
:1076AE003BF05DEF3BF0FFFF62EF3BF0FFFF010EA3
:1076BE00096EF40E086EFFFF20EE4CF00650D92630
:1076CE000750DA2208C0DEFF09C0DDFFFFFF1200FF
:1076DE00FFFFFFFF0F501010D8B478EF3BF07BEF99
:1076EE003BF0FFFFA8EF3BF0FFFF010E116E85EFA1
:1076FE003BF0FFFFD8900F361036112AFFFF10AE69
:10770E008BEF3BF08EEF3BF0FFFF80EF3BF0FFFF88
:10771E00FFFF0F500D5C10500E58D8A099EF3BF0A4
:10772E009CEF3BF0FFFFA1EF3BF0FFFF0F500D5E14
:10773E0010500E5AFFFFD89010320F32112E8FEFCD
:10774E003BF0FFFF0DC00DF00EC00EF01200FFFF5C
:10775E00FFFF1A501B10D8B4B7EF3BF0BAEF3BF057
:10776E00FFFFEFEF3BF0FFFF20EE3DF01A50D92662
:10777E001B50DA22DF50D8A4C7EF3BF0CAEF3BF024
:10778E00FFFFCDEF3BF0FFFFEFEF3BF0FFFF20EEF3
:10779E0054F01A50D9261B50DA22DF50D8B4DAEF43
:1077AE003BF0DDEF3BF0FFFFE0EF3BF0FFFFEFEFD5
:1077BE003BF0FFFF1AC006F01BC007F01CC008F01C
:1077CE001DC009F01EC00AF01FC00BF034EC16F0FD
:1077DE00FFFF1200FFFFFFFF0D500E10D8A4FAEFAF
:1077EE003BF0FDEF3BF0FFFF00EF3CF0FFFF33EF10
:1077FE003CF0FFFF0DC0D9FF0EC0DAFFDE6ADD6A76
:10780E0020EE02F00D50D9260E50DA22DE6ADE6A24
:10781E00DD6A20EE05F00D50D9260E50DA22DF6A11
:10782E0020EE07F00D50D9260E50DA22010EDF6E33
:10783E000DC00AF00EC00BF00F50D8A429EF3CF08B
:10784E002DEF3CF0FFFF010E2FEF3CF0FFFF000E7F
:10785E00FFFF0C6EA2EC1FF0FFFF1200FFFFFFFFF9
:10786E000B6A000E0A6E08500910D8B441EF3CF0B6
:10787E0044EF3CF0FFFF75EF3CF0FFFF010E0C6E86
:10788E004EEF3CF0FFFFD890083609360C2AFFFF6A
:10789E0009AE54EF3CF057EF3CF0FFFF49EF3CF0E0
:1078AE00FFFFFFFFD8900A360B360850065C0950D2
:1078BE000758D8A065EF3CF068EF3CF0FFFF6EEF85
:1078CE003CF0FFFF0850065E0950075A0A80FFFF82
:1078DE00D890093208320C2E58EF3CF0FFFF0AC048
:1078EE0006F00BC007F01200FFFFFFFF0E6A000E3E
:1078FE000D6E06500710D8A487EF3CF08AEF3CF0CF
:10790E00FFFF90EF3CF0FFFF076A000E066EC5EF1B
:10791E003CF0FFFF0F6AADEF3CF0FFFF0FC00AF027
:10792E00010E0B6E000E0C6E0A2AA2EF3CF0FFFF4A
:10793E00D8900B360C36FFFF0A2E9EEF3CF00D5002
:10794E000B100D6E0E500C100E6E0F2AFFFF20EE58
:10795E0033F00650D9260750DA22DE500F5CD8A03D
:10796E00BBEF3CF0BEEF3CF0FFFF94EF3CF0FFFFAF
:10797E000D500814066E0E500914076EFFFF12000C
:10798E00FFFFFFFF06500710D8B4D0EF3CF0D3EF47
:10799E003CF0FFFF13EF3DF0FFFF20EE3DF00650F1
:1079AE00D9260750DA22DF50D8A4E0EF3CF0E3EFFF
:1079BE003CF0FFFFE6EF3CF0FFFF13EF3DF0FFFF63
:1079CE0020EE52F00650D9260750DA220850D8A4DD
:1079DE00F3EF3CF0F7EF3CF0FFFF010EF9EF3CF058
:1079EE00FFFF000EFFFFDF6E20EE52F00650D9268D
:1079FE000750DA22DF50D8A407EF3DF00AEF3DF032
:107A0E00FFFF13EF3DF0FFFF20EE53F00650D92697
:107A1E000750DA22010EDF6EFFFF1200FFFFFFFF9D
:107A2E0010501110D8B41EEF3DF021EF3DF0FFFFC6
:107A3E0062EF3DF0FFFF20EE3DF01050D9261150C1
:107A4E00DA22DF50D8A42EEF3DF031EF3DF0FFFFEC
:107A5E0034EF3DF0FFFF62EF3DF0FFFF10C006F088
:107A6E0011C007F012C008F013C009F07CEC3CF016
:107A7E0020EE4AF01050D9261150DA2206C0DEFF51
:107A8E0007C0DDFF20EE4AF01050D9261150DA2241
:107A9E00DE50DE10D8A456EF3DF059EF3DF0FFFF5B
:107AAE0062EF3DF0FFFF20EE53F01050D92611503B
:107ABE00DA22010EDF6EFFFF1200FFFFFFFF0650FE
:107ACE000710D8A46DEF3DF070EF3DF0FFFF73EFA0
:107ADE003DF0FFFFB2EF3DF0FFFF20EE07F0065046
:107AEE00D9260750DA22DF50D8A480EF3DF083EF7D
:107AFE003DF0FFFF95EF3DF0FFFF06C0D9FF07C039
:107B0E00DAFFDE50DE10D8B48FEF3DF092EF3DF08D
:107B1E00FFFF95EF3DF0FFFFB2EF3DF0FFFF20EED0
:107B2E0007F00650D9260750DA22010EDF6E20EE3E
:107B3E0006F00650D9260750DA220850D8A4AAEF2C
:107B4E003DF0AEEF3DF0FFFF010EB0EF3DF0FFFF59
:107B5E00000EFFFFDF6EFFFF1200FFFFFFFF0A5058
:107B6E000B100C100D10D8B4BFEF3DF0C2EF3DF06E
:107B7E00FFFFFBEF3DF0FFFF010E0E6ECEEF3DF06F
:107B8E00FFFFD8900A360B360C360D360E2AFFFF45
:107B9E000DAED4EF3DF0D7EF3DF0FFFFC7EF3DF058
:107BAE00FFFFFFFF0A50065C0B5007580C50085899
:107BBE000D500958D8A0E6EF3DF0E9EF3DF0FFFF7C
:107BCE00F2EF3DF0FFFF0A50065E0B50075A0C50C5
:107BDE00085A0D50095AFFFFD8900D320C320B3255
:107BEE000A320E2ED8EF3DF0FFFF06C006F007C09A
:107BFE0007F008C008F009C009F01200FFFFFFFFF0
:107C0E001350141015101610D8A410EF3EF013EFE9
:107C1E003EF0FFFF1CEF3EF0FFFF800E136E250EB1
:107C2E00146E000E156E000E166EFFFFAC98AC842F
:107C3E00800E066E960E076E980E086E000E096E7A
:107C4E0013C017F014C018F015C019F016C01AF0B2
:107C5E00040EFFFFD8901736183619361A36E82E4E
:107C6E0030EF3EF017C00AF018C00BF019C00CF040
:107C7E001AC00DF08DEC1EF0FF0E06241B6EFF0ECB
:107C8E0007201C6EFF0E08201D6EFF0E09201E6EB3
:107C9E001BC0AFFFAB8EAC8AAB887A6A796A1200D2
:107CAE00FFFFFFFF20EE07F00650D9260750DA221D
:107CBE00DF50D8B465EF3EF068EF3EF0FFFF72EF95
:107CCE003EF0FFFF20EE06F00650D9260750DA22CE
:107CDE00DF50A8EF3EF0FFFF06C0D9FF07C0DAFF66
:107CEE00DE50DE10D8A47EEF3EF081EF3EF0FFFFB7
:107CFE0085EF3EF0FFFF010EA8EF3EF0FFFF20EEF6
:107D0E0005F00650D9260750DA22DF50086E06C05D
:107D1E00D9FF07C0DAFFDECF09F0DDCF0AF009C0C8
:107D2E00D9FF0AC0DAFFDF500B6E082AA2EF3EF031
:107D3E00FFFFD8900B32FFFF082E9FEF3EF00B5047
:107D4E00010BFFFF1200FFFFFFFF196A1250131005
:107D5E00D8A4B4EF3EF0B7EF3EF0FFFFDCEF3EF0FD
:107D6E00FFFF300EFAEC37F0FDEF3EF0FFFF19503B
:107D7E00140FD96EDA6A12C00DF013C00EF0106A2D
:107D8E000A0E0F6E70EC3BF00D50300FDF6E192A9D
:107D9E0012C006F013C007F0096A0A0E086E36EC20
:107DAE003CF006C012F007C013F0FFFF1250131084
:107DBE00D8A4E4EF3EF0E7EF3EF0FFFFBDEF3EF05C
:107DCE00FFFFF3EF3EF0FFFF19061950140FD96EA7
:107DDE00DA6ADF50FAEC37F0FFFF1950D8A4FAEF49
:107DEE003EF0FDEF3EF0FFFFEAEF3EF0FFFF120028
:107DFE00FFFF0030313233343536373839414243A4
:107E0E004445460002000400080010002000400017
:107E1E00800000013F065B4F666D7D077F6F01009E
:107E2E00020004000800E80364000A0001000100DB
:107E3E0004001000830F950F8000830F950F8001B3
:107E4E00830F950F8002830F950F8003830F950F7D
:107E5E008004830F950F8005830F950F8006830F87
:107E6E00950F8007017F7E040000000000000000D7
:107E7E0000820F940F8000820F940F8001820F9466
:107E8E000F8002820F940F80030153AD00032B8CE1
:107E9E0000072DA6014001977E0003015049433192
:107EAE0038463435322064696F64652D636F6465BE
:107EBE006420646967697420656469746F72004137
:107ECE003D73656C6563742C20412B423D706C755F
:107EDE00732C20412B422B433D6D696E757300410F
:107EEE006374696F6E732065786563757465206160
:107EFE00667465722072656C6561736500444953E2
:107F0E00504C415920494E4954204641494C454414
:107F1E0020636F64653D0049474E4F5245442061D2
:107F2E006363756D756C61746564206D61736B3D13
:107F3E0000414354494F4E3A2053454C454354203B
:107F4E0064696769743D0052454C45415345206153
:107F5E006374696F6E206D61736B3D0041435449CC
:107F6E004F4E3A204D494E55532064696769743D12
:107F7E0000414354494F4E3A20504C5553206469AA
:107F8E006769743D007365676D656E74206B657906
:107F9E007320696E697400646973706C6179207501
:107FAE00706461746500414C4956452076616C756C
:107FBE00653D00646973706C617920696E69740047
:107FCE00464154414C3A2000756E6B6E6F776E00D1
:107FDE00204143433D00206163633D002072617781
:107FEE003D005245414459005241573D000D0A0093
:017FFE000082
:020000040030CA
:0E000000FF220F0EFF0181FF0FC00FE00F4027
:00000001FF
