:0600000000003BEF00F0E0
:10000800FFFF0182FACF36F0FBCF37F0E1CF38F0AF
:10001800E2CF39F0D9CF3AF0DACF3BF0F3CF3CF06A
:10002800F4CF3DF0F6CF3EF0F7CF3FF0F8CF40F0F9
:10003800F5CF41F043EC36F041C0F5FF40C0F8FF82
:100048003FC0F7FF3EC0F6FF3DC0F4FF3CC0F3FFE2
:100058003BC0DAFF3AC0D9FF39C0E2FF38C0E1FF40
:1000680037C0FBFF36C0FAFF01921100FFFFEBEF2C
:1000780036F0FFFF10501110D8B445EF00F048EFEC
:1000880000F0FFFF06EF01F0FFFF20EE29F010500F
:10009800D9261150DA22DF50D8B455EF00F058EFC6
:1000A80000F0FFFF06EF01F0FFFF20EE2AF01050EE
:1000B800D9261150DA22DE50125CD8A066EF00F083
:1000C80069EF00F0FFFF6CEF00F0FFFF06EF01F0B3
:1000D800FFFF1350D8A473EF00F076EF00F0FFFF96
:1000E8008EEF00F0FFFF20EE2BF01050D9261150B4
:1000F800DA22DF50D8B483EF00F087EF00F0FFFF7B
:10010800010E89EF00F0FFFF000EFFFF176E186A5F
:100118009AEF00F0FFFF20EE2BF01050D926115077
:10012800DA22DF50146E1450176E186AFFFF17C0DA
:1001380016F01650D8B4A3EF00F0A6EF00F0FFFFBA
:10014800D7EF00F0FFFF1250050D20EE29F01050F8
:10015800D9261150DA22DF50F324146E14C0F6FFAA
:10016800060EF76E0900FFFFF5CF0DF00A00FFFF3E
:10017800F5CF0EF01250050D20EE29F01050D926BB
:100188001150DA22DF50F324156E040E152615C01F
:10019800F6FF060EF76E0800FFFFF5CF0FF0ADEC87
:1001A80035F006EF01F0FFFF1250050D20EE29F0A3
:1001B8001050D9261150DA22DF50F324146E14C0DF
:1001C800F6FF060EF76E0900FFFFF5CF0DF00A00E7
:1001D800FFFFF5CF0EF01250050D20EE29F010505C
:1001E800D9261150DA22DF50F324156E040E152695
:1001F80015C0F6FF060EF76E0800FFFFF5CF0FF0EB
:10020800B8EC35F0FFFF1200FFFFFFFF2650271064
:10021800D8B411EF01F014EF01F0FFFFD1EF01F0B6
:10022800FFFF20EE34F02650D9262750DA22DF507F
:10023800D8A421EF01F024EF01F0FFFF27EF01F030
:10024800FFFFD1EF01F0FFFF26C01DF027C01EF011
:100258005BEC18F020EE58F02650D9262750DA2209
:10026800DE2A000EDE22DE22DE2220EE50F02650AC
:10027800D9262750DA22DECF28F0DECF29F0DECFCC
:100288002AF0DECF2BF020EE4EF02650D92627504C
:10029800DA22DECF2CF0DDCF2DF02C5028242E6E64
:1002A8002D5029202F6E000E2A20306E000E2B2094
:1002B800316E20EE50F02650D9262750DA222EC073
:1002C800DEFF2FC0DEFF30C0DEFF31C0DEFF000ED4
:1002D800326E000E336E000E346E000E356E9CEFDB
:1002E80001F0FFFF20EE50F02650D9262750DA22E1
:1002F800180EDE24286EFC0EDE20296EFF0EDE208E
:100308002A6EFF0EDE202B6E20EE50F02650D926E6
:100318002750DA2228C0DEFF29C0DEFF2AC0DEFF10
:100328002BC0DEFF010E3226000E33223422352286
:10033800FFFF20EE50F02650D9262750DA22030E70
:10034800DB500CE1020EDB5009E1E80EDE5C030E27
:10035800DE58D8B0B2EF01F0B5EF01F0FFFF75EF4E
:1003680001F0FFFF3250331034103510D8B4BFEF0E
:1003780001F0C2EF01F0FFFFD1EF01F0FFFF26C04F
:1003880016F027C017F032C018F033C019F034C087
:100398001AF035C01BF02AEC3DF0FFFF1200FFFFFA
:1003A800FFFF000182518311D8A4DDEF01F0E0EFD7
:1003B80001F0FFFF07EF02F0FFFF63EF02F0FFFF1E
:1003C8008251461807E183514718D8A4EEEF01F08F
:1003D800F1EF01F0FFFF2CEF02F0FFFF8EEC35F09C
:1003E8008AEC35F0000E0001806F000E816F9FECE3
:1003F80035F0000E466E000E476E000E486E000E79
:10040800496E2CEF02F0FFFF20EE31F08251D92621
:100418008351DA22DF50846F856B8551000AD8B486
:1004280018EF02F02CEF02F0FFFF8451010AD8B454
:100438002CEF02F0030AD8B42CEF02F0010AD8B46A
:10044800E3EF01F0070AD8B42CEF02F02CEF02F02A
:10045800FFFF000120EE4BF08251D9268351DA22AA
:10046800DF6A20EE4CF08251D9268351DA22DE6A07
:10047800DD6A20EE4EF08251D9268351DA22DE6AF7
:10048800DD6A20EE50F08251D9268351DA22DE6AE5
:10049800DE6ADE6ADD6A20EE54F08251D926835185
:1004A800DA22DE6ADE6ADE6ADD6A20EE58F0825100
:1004B800D9268351DA22DE6ADE6ADE6ADD6AFFFF48
:1004C8001200FFFFFFFF000189518A11D8B46FEFB6
:1004D80002F072EF02F0FFFFE3EF02F0FFFF20EE01
:1004E80034F08951D9268A51DA22DF50D8B47FEF07
:1004F80002F082EF02F0FFFFE3EF02F0FFFF20EED1
:100508002AF08951D9268A51DA22DE508B5DD8A08B
:1005180090EF02F093EF02F0FFFF96EF02F0FFFF7B
:10052800E3EF02F0FFFF986BAEEF02F0FFFF985188
:1005380089258D6F000E8A218E6F380E8D25D96E14
:10054800000E8E21DA6E98518F0FE16EE26ADFCFCE
:10055800E7FF982BFFFF20EE2AF08951D9268A5110
:10056800DA22DE50985DD8A0BCEF02F0BFEF02F0AF
:10057800FFFF9AEF02F0FFFF20EE40F08951D926E5
:100588008A51DA22DF50976F89C080F08AC081F0E3
:100598008CC082F00BEC3EF000018D6F8B518F0FF9
:1005A800D96EDA6A8DC0DFFF89C080F08AC081F019
:1005B8008F0E826F836B97C084F0C9EC3CF0FFFF0D
:1005C8001200FFFFFFFF02500310D8A4EEEF02F065
:1005D800F1EF02F0FFFFF5EF02F0FFFF000EFDEF75
:1005E80002F0FFFF20EE2AF00250D9260350DA224B
:1005F800DF50FFFF1200FFFF000200040008001098
:100608000020004000800000013F065B4F666D7DC2
:10061800077F6F01000200040008000100040010B9
:10062800008C0F950F008C0F950F018C0F950F0202
:100638008C0F950F038C0F950F048C0F950F058C5D
:100648000F950F068C0F950F07015D040000000041
:10065800000103E8038B0F940F008B0F940F018B9D
:100668000F940F028B0F940F0300FFFF0101826F9D
:100678000101846B22EF07F0FFFF66C1D9FF67C154
:10068800DAFFDECF7AF1DECF7BF1DECF7CF1DECF91
:100698007DF17A51625D7E6F7B5163597F6F7C512A
:1006A8006459806F7D516559816F815180117F1127
:1006B8000AE1FA0E7E5DD8A064EF03F067EF03F05D
:1006C800FFFF4AEF07F0FFFF66C1D9FF67C1DAFFF6
:1006D80062C1DEFF63C1DEFF64C1DEFF65C1DEFF0C
:1006E80068C1D9FF69C1DAFFDE2A000EDD2268C1C0
:1006F800D9FF69C1DAFF100EDE5C270EDE58D8A0DC
:1007080088EF03F08BEF03F0FFFF92EF03F0FFFF9A
:1007180068C1D9FF69C1DAFFDE6ADD6AFFFF68C117
:10072800D9FF69C1DAFFDECF7AF1DDCF7BF17AC17B
:10073800E6F07BC1E7F00001E86BE96B010EEA6FB8
:10074800010EEB6FAFEC36F00101846F4AEF07F052
:10075800FFFF66C1D9FF67C1DAFFDECF7AF1DECFCE
:100768007BF1DECF7CF1DECF7DF17A51625D7E6F69
:100778007B5163597F6F7C516459806F7D516559F6
:10078800816F815180110CE15E0E7E5D010E7F59F3
:10079800D8A0D1EF03F0D4EF03F0FFFF4AEF07F042
:1007A800FFFF66C1D9FF67C1DAFF62C1DEFF63C11F
:1007B800DEFF64C1DEFF65C1DEFF270E0001916F19
:1007C8000F0E906FE1EC37F0000190C0E6F091C099
:1007D800E7F0E86BE96B010EEA6F000EEB6FAFEC28
:1007E80036F00101846F4AEF07F0FFFF66C1D9FFB9
:1007F80067C1DAFFDECF7AF1DECF7BF1DECF7CF1A5
:10080800DECF7DF17A51625D7E6F7B5163597F6FD8
:100818007C516459806F7D516559816F8151801178
:100828000CE15E0E7E5D010E7F59D8A01EEF04F02C
:1008380021EF04F0FFFF4AEF07F0FFFF66C1D9FF81
:1008480067C1DAFF62C1DEFF63C1DEFF64C1DEFF9C
:1008580065C1DEFF270E0001916F0F0E906FE1EC6E
:1008680037F0000190C0F8F091C0F9F0FA6BFB6B1B
:10087800020EFC6F010EFD6F010EFE6F2CEC37F0BF
:100888000101846F4AEF07F0FFFF66C1D9FF67C116
:10089800DAFFDECF7AF1DECF7BF1DECF7CF1DECF7F
:1008A8007DF17A51625D7E6F7B5163597F6F7C5118
:1008B8006459806F7D516559816F815180110CE1B8
:1008C800900E7E5D010E7F59D8A06DEF04F070EF99
:1008D80004F0FFFF4AEF07F0FFFF66C1D9FF67C1C9
:1008E800DAFF62C1DEFF63C1DEFF64C1DEFF65C1FE
:1008F800DEFF93EC36F06AC1D9FF6BC1DAFFDF2A5D
:100908006AC1D9FF6BC1DAFF030EDF648EEF04F012
:1009180091EF04F0FFFF97EF04F0FFFF6AC1D9FFE2
:100928006BC1DAFFDF6AFFFF000E0001896F010E5D
:100938008A6F6AC1D9FF6BC1DAFFDF508B6F010E76
:100948008C6F86EC3EF04AEF07F0FFFF66C1D9FFD7
:1009580067C1DAFFDECF7AF1DECF7BF1DECF7CF143
:10096800DECF7DF17A51625D7E6F7B5163597F6F77
:100978007C516459806F7D516559816F8151801117
:100988000CE1580E7E5D020E7F59D8A0CEEF04F020
:10099800D1EF04F0FFFF4AEF07F0FFFF66C1D9FF70
:1009A80067C1DAFF62C1DEFF63C1DEFF64C1DEFF3B
:1009B80065C1DEFF6CC1D9FF6DC1DAFFDF2A6CC1EA
:1009C800D9FF6DC1DAFF030EDF64EDEF04F0F0EF3D
:1009D80004F0FFFFF6EF04F0FFFF6CC1D9FF6DC113
:1009E800DAFFDF6AFFFF6CC1D9FF6DC1DAFFDF50A4
:1009F8007A6F010E7B6F000E7C6F7A2B08EF05F083
:100A0800FFFFD8907B377C37FFFF7A2F04EF05F084
:100A18007BC190F07CC191F00AEC37F04AEF07F007
:100A2800FFFF66C1D9FF67C1DAFFDECF7AF1DECFFB
:100A38007BF1DECF7CF1DECF7DF17A51625D7E6F96
:100A48007B5163597F6F7C516459806F7D51655923
:100A5800816F815180117F110AE1320E7E5DD8A02D
:100A680038EF05F03BEF05F0FFFF4AEF07F0FFFF17
:100A780066C1D9FF67C1DAFF62C1DEFF63C1DEFF6D
:100A880064C1DEFF65C1DEFF70C1D9FF71C1DAFF45
:100A9800DF507A6F6EC1D9FF6FC1DAFFDF507B6F0D
:100AA8007B517A25856FE86AD8B0E82A7ABFE806CC
:100AB800866F86BF69EF05F086510AE1640E855D91
:100AC800D8A069EF05F06CEF05F0FFFF78EF05F0AF
:100AD800FFFF866B640E856F70C1D9FF71C1DAFFA5
:100AE800FB0EDF6E92EF05F0FFFF86BF88EF05F083
:100AF800865107E10B0E855DD8B085EF05F088EFCC
:100B080005F0FFFF92EF05F0FFFF866B0A0E856F79
:100B180070C1D9FF71C1DAFF050EDF6EFFFF6EC12C
:100B2800D9FF6FC1DAFF85C1DFFF000E0001806FBA
:100B3800010E816F6EC1D9FF6FC1DAFFDF50826F7E
:100B480009EC39F04AEF07F0FFFF66C1D9FF67C12A
:100B5800DAFFDECF7AF1DECF7BF1DECF7CF1DECFBC
:100B68007DF17A51625D7E6F7B5163597F6F7C5155
:100B78006459806F7D516559816F815180110CE1F5
:100B8800900E7E5D010E7F59D8A0CDEF05F0D0EF15
:100B980005F0FFFF4AEF07F0FFFF66C1D9FF67C105
:100BA800DAFF62C1DEFF63C1DEFF64C1DEFF65C13B
:100BB800DEFF72C1D9FF73C1DAFFDF2A72C1D9FF24
:100BC80073C1DAFF0F0EDF64ECEF05F0EFEF05F00D
:100BD800FFFFF5EF05F0FFFF72C1D9FF73C1DAFF20
:100BE800DF6AFFFF000E0001A06F010EA16F72C146
:100BF800D9FF73C1DAFFDF50A26F71EC37F04AEF0B
:100C080007F0FFFF66C1D9FF67C1DAFFDECF7AF1CF
:100C1800DECF7BF1DECF7CF1DECF7DF17A51625DF4
:100C28007E6F7B5163597F6F7C516459806F7D5112
:100C38006559816F815180110CE1E80E7E5D030ECC
:100C48007F59D8A02AEF06F02DEF06F0FFFF4AEFF4
:100C580007F0FFFF66C1D9FF67C1DAFF62C1DEFF97
:100C680063C1DEFF64C1DEFF65C1DEFF76C1D9FF67
:100C780077C1DAFFDF2A76C1D9FF77C1DAFF3B0EE9
:100C8800DF6449EF06F04CEF06F0FFFF6AEF06F06D
:100C9800FFFF76C1D9FF77C1DAFFDF6A74C1D9FFD8
:100CA80075C1DAFFDF2A74C1D9FF75C1DAFF170EE3
:100CB800DF6461EF06F064EF06F0FFFF6AEF06F00D
:100CC800FFFF74C1D9FF75C1DAFFDF6AFFFF000EAD
:100CD8000001C06F010EC16F000EC26F74C1D9FF51
:100CE80075C1DAFFDF50C36F76C1D9FF77C1DAFF6C
:100CF800DF50C46F010EC56FE1EC16F00101846F7F
:100D08004AEF07F0FFFF66C1D9FF67C1DAFFDECF00
:100D18007AF1DECF7BF1DECF7CF1DECF7DF17A5147
:100D2800625D7E6F7B5163597F6F7C516459806F20
:100D38007D516559816F815180110CE1900E7E5D66
:100D4800010E7F59D8A0ABEF06F0AEEF06F0FFFF1B
:100D58004AEF07F0FFFF66C1D9FF67C1DAFF62C13A
:100D6800DEFF63C1DEFF64C1DEFF65C1DEFF000E8A
:100D78000001896F010E8A6F78C1D9FF79C1DAFF46
:100D8800DF508B6F000E8C6F94EC3DF078C1D9FF6B
:100D980079C1DAFFDF2A78C1D9FF79C1DAFF030EFA
:100DA800DF64D9EF06F0DCEF06F0FFFFFCEF06F09A
:100DB800FFFF78C1D9FF79C1DAFFDF6AFCEF06F0DF
:100DC800FFFF010E0101836F10EF07F0FFFF060E12
:100DD8000101836F10EF07F0FFFF400E0101836FE1
:100DE80010EF07F0FFFF7F0E0101836F10EF07F090
:100DF800FFFF78C1D9FF79C1DAFFDF50000AD8B404
:100E0800E4EF06F0010AD8B4EAEF06F0030AD8B412
:100E1800F0EF06F0F6EF06F0FFFF000E0001896F15
:100E2800010E8A6F78C1D9FF79C1DAFFDF508B6F65
:100E380083C18CF094EC3DF04AEF07F0FFFF82513C
:100E4800000AD8B440EF03F0010AD8B4ACEF03F0BD
:100E5800030AD8B4F9EF03F0080AD8B448EF04F04D
:100E6800010AD8B4A9EF04F0070AD8B414EF05F0C2
:100E7800010AD8B4A8EF05F0030AD8B405EF06F0C4
:100E8800010AD8B486EF06F04AEF07F0FFFF010128
:100E980084511200FFFFFFFF0001D751D811D8B4C9
:100EA80058EF07F05BEF07F0FFFFA3EF07F0FFFF36
:100EB800D951D8B462EF07F065EF07F0FFFFA3EF51
:100EC80007F0FFFFD9C0DAF0290EDA27DAC0F6FFFB
:100ED800060EF76E0800FFFFF5500009D8B477EF4B
:100EE80007F07AEF07F0FFFFA3EF07F0FFFFD9C085
:100EF800DAF02A0EDA27DAC0F6FF060EF76E0800D7
:100F0800FFFFF5500009D8B48CEF07F08FEF07F01A
:100F1800FFFFA3EF07F0FFFFD9C0DAF02A0EDA27A8
:100F2800DAC0F6FF060EF76E080E0800FFFFF5643C
:100F3800A0EF07F0A3EF07F0FFFFBBEF07F0FFFFFD
:100F4800D751D811D8B4ABEF07F0AEEF07F0FFFFD9
:100F5800B7EF07F0FFFF20EE5CF0D751D926D85144
:100F6800DA22010EDF6EFFFF000E38EF0AF0FFFFF6
:100F7800D9C0F6FF060EF76ED7C0D9FFD8C0DAFF82
:100F8800330E0900FFFFF5CFDEFFE806FAE220EE98
:100F980034F0D751D926D851DA22DF6A20EE35F05D
:100FA800D751D926D851DA22DF6A20EE36F0D75148
:100FB800D926D851DA22640EDF6E20EE37F0D751E9
:100FC800D926D851DA22DF6A20EE40F0D751D92647
:100FD800D851DA22DF6A20EE41F0D751D926D8510C
:100FE800DA22DE6ADD6A20EE43F0D751D926D851DD
:100FF800DA22F40EDE6E010EDD6E20EE45F0D751DA
:10100800D926D851DA22DE6ADE6ADE6ADD6A20EE87
:1010180049F0D751D926D851DA22DF6A20EE4AF0B2
:10102800D751D926D851DA22010EDF6E20EE4BF0C7
:10103800D751D926D851DA22DF6A20EE4CF0D751A1
:10104800D926D851DA22DE6ADD6A20EE4EF0D75171
:10105800D926D851DA22DE6ADD6A20EE50F0D7515F
:10106800D926D851DA22DE6ADE6ADE6ADD6A20EE27
:1010780054F0D751D926D851DA22DE6ADE6ADE6A00
:10108800DD6A20EE58F0D751D926D851DA22DE6A27
:10109800DE6ADE6ADD6A20EE5CF0D751D926D851C7
:1010A800DA22DF6A20EE02F0D751D926D851DA22A7
:1010B800DECF8BF0DDCF8CF020EE04F0D751D926AF
:1010C800D851DA22DF508D6FD9EC35F0000120EECF
:1010D80007F0D751D926D851DA22DECF8BF0DDCFF1
:1010E8008CF020EE09F0D751D926D851DA22DF50FA
:1010F8008D6FD9EC35F0000120EE0CF0D751D926D0
:10110800D851DA22DECF8BF0DDCF8CF020EE0EF056
:10111800D751D926D851DA22DF508D6FD9EC35F066
:10112800000120EE11F0D751D926D851DA22DECFAE
:101138008BF0DDCF8CF020EE13F0D751D926D851A3
:10114800DA22DF508D6FD9EC35F0000120EE16F071
:10115800D751D926D851DA22DECF8BF0DDCF8CF0EB
:1011680020EE18F0D751D926D851DA22DF508D6FEA
:10117800D9EC35F0000120EE1BF0D751D926D85113
:10118800DA22DECF8BF0DDCF8CF020EE1DF0D751C8
:10119800D926D851DA22DF508D6FD9EC35F000010D
:1011A80020EE20F0D751D926D851DA22DECF8BF0A5
:1011B800DDCF8CF020EE22F0D751D926D851DA2293
:1011C800DF508D6FD9EC35F0000120EE28F0D751B3
:1011D800D926D851DA22DF50D8B4F5EF08F0F8EF65
:1011E80008F0FFFF0DEF09F0FFFF20EE25F0D751C3
:1011F800D926D851DA22DECF8BF0DDCF8CF020EE65
:1012080027F0D751D926D851DA22DF508D6FD9EC83
:1012180035F0FFFF0001DD6B52EF09F0FFFFDD51F4
:10122800050D20EE29F0D751D926D851DA22DF5002
:10123800F324DA6F020EDA27DAC0F6FF060EF76E2D
:101248000900FFFFF5CF8BF00A00FFFFF5CF8CF008
:10125800DD51050D20EE29F0D751D926D851DA22D3
:10126800DF50F324DB6F040EDB27DBC0F6FF060E2E
:10127800F76E0800FFFFF5CF8DF0D9EC35F00001CF
:10128800DD51D725DA6F000ED821DB6F380EDA254D
:10129800D96E000EDB21DA6EDF6ADD2BFFFF20EE50
:1012A8002AF0D751D926D851DA22DE50DD5DD8A0F0
:1012B80060EF09F063EF09F0FFFF12EF09F0FFFF9D
:1012C80020EE2AF0D751D926D851DA22DF50DD6F27
:1012D800FFFF070EDD6573EF09F076EF09F0FFFFFA
:1012E80079EF09F0FFFF8AEF09F0FFFFDD51D725FD
:1012F800DA6F000ED821DB6F380EDA25D96E000EB2
:10130800DB21DA6EDF6ADD2B6CEF09F0FFFFD7C057
:1013180097F0D8C098F09FEC38F0D7C095F0D8C0B7
:1013280096F0000E0001976F000E986F0BEC1CF002
:10133800D9C0DAF0300E0001DA27DAC0F6FF060E5F
:10134800F76E0800FFFFF5CFDCF0010EDC65AFEFAC
:1013580009F0B2EF09F0FFFFBAEF09F0FFFF20EE46
:1013680030F0D751D926D851DA22DF6AFFFF20EEB4
:1013780030F0D751D926D851DA22DE04D8A4C7EFE5
:1013880009F0CAEF09F0FFFF27EF0AF0FFFF20EE90
:1013980031F0D751D926D851DA22DF50D8B4D7EF57
:1013A80009F0DAEF09F0FFFFFBEF09F0FFFF20EE8D
:1013B80032F0D751D926D851DA22DE50DE10D8B40F
:1013C800E8EF09F0EBEF09F0FFFFFBEF09F0FFFF93
:1013D800D7C0CBF0D8C0CCF0B1EC13F00009D8A43A
:1013E800F8EF09F0FBEF09F0FFFF1DEF0AF0FFFF30
:1013F800D7C082F0D8C083F0D4EC01F0D7C097F002
:10140800D8C098F09FEC38F0D7C095F0D8C096F0C7
:10141800000E0001976F000E986F0BEC1CF0000196
:1014280020EE34F0D751D926D851DA22DF6AB7EF47
:1014380007F0FFFF000120EE4BF0D751D926D85115
:10144800DA22010EDF6EFFFF20EE34F0D751D926E5
:10145800D851DA22010EDF6E20EE5CF0D751D92682
:10146800D851DA22DF6A010EFFFF1200FFFFFFFFEB
:101478000001A751A811D8B444EF0AF047EF0AF0C9
:10148800FFFF75EF0AF0FFFFA951D8B44EEF0AF03D
:1014980051EF0AF0FFFF75EF0AF0FFFFAA51D8B429
:1014A80058EF0AF05BEF0AF0FFFF75EF0AF0FFFF55
:1014B800AB51D8B462EF0AF065EF0AF0FFFF75EFA1
:1014C8000AF0FFFF20EE01F0A751D926A851DA2231
:1014D800DF50D8A472EF0AF075EF0AF0FFFF79EF3A
:1014E8000AF0FFFF010E15EF0DF0FFFFA5BF7FEF1C
:1014F8000AF083EF0AF0FFFF010E85EF0AF0FFFF05
:10150800000EFFFFC86FA5BF8FEF0AF08CEF0AF03F
:10151800FFFFB5EF0AF0FFFF010EA225AC6F000E2A
:10152800A321AD6F000EA421AE6F000EA521AF6FF1
:10153800AC1FAD1FAE1FAF1FAC2B000EAD23AE23EB
:10154800AF23ACC0C4F0ADC0C5F0AEC0C6F0AFC0EC
:10155800C7F0010EC427000EC523C623C723BEEF5C
:101568000AF0FFFFA2C0C4F0A3C0C5F0A4C0C6F033
:10157800A5C0C7F0FFFFC4C09DF0C5C09EF0C6C09F
:101588009FF0C7C0A0F0D3EC38F00001CA6FCAC002
:10159800CBF0A651AC6FAD6B010EAC27000EAD239E
:1015A800CB51AE6FAF6BAC51AE5DAD51AF59D8B04A
:1015B800E0EF0AF0E3EF0AF0FFFFE6EF0AF0FFFFC3
:1015C800A629CB6FFFFFCB51C825CC6F0A0ECB6184
:1015D800F0EF0AF0F3EF0AF0FFFF75EF0AF0FFFFF4
:1015E80020EE01F0A751D926A851DA22CC51DE5CB1
:1015F800D8B001EF0BF004EF0BF0FFFF07EF0BF093
:10160800FFFF75EF0AF0FFFFCE6B18EF0BF0FFFF3F
:10161800A951CE25D96EDA6AFF0EDF6EAA51CE2502
:10162800D96EDA6ADF6ACE2BFFFF20EE01F0A751F0
:10163800D926A851DA22DE50CE5DD8A026EF0BF0CD
:1016480029EF0BF0FFFF0BEF0BF0FFFFCE6B63EF03
:101658000BF0FFFFCE51B00FD96EDA6AC4C080F02C
:10166800C5C081F0C6C082F0C7C083F00A0E846F7F
:10167800000E856F000E866F000E876FA4EC1FF0BA
:1016880000018051DF6EC4C090F0C5C091F0C6C0A3
:1016980092F0C7C093F00A0E946F000E956F000E7B
:1016A800966F000E976F69EC3CF090C0C4F091C043
:1016B800C5F092C0C6F093C0C7F00001CE2BFFFF63
:1016C800CA51CE5DD8A06BEF0BF06EEF0BF0FFFFA9
:1016D8002DEF0BF0FFFFC96BC851D8B476EF0BF0B4
:1016E80079EF0BF0FFFF81EF0BF0FFFFC951BA0F45
:1016F800D96EDA6AFE0EDF6EC92BFFFFCA51CB5DC9
:10170800CD6FCE6B90EF0BF0FFFFC951BA0FD96EBA
:10171800DA6ADF6AC92BCE2BFFFFCD51CE5DD8A088
:1017280098EF0BF09BEF0BF0FFFF88EF0BF0FFFF3C
:10173800CE6BAFEF0BF0FFFFCE51B008CA25D96EC4
:10174800DA6AFF0ED926C951BA0FE16EE26ADFCF15
:10175800E7FFC92BCE2BFFFFCA51CE5DD8A0B7EF4C
:101768000BF0BAEF0BF0FFFF9FEF0BF0FFFFAB5151
:10177800D96EDA6AFF0EDF6EA651D8B4C6EF0BF049
:10178800C9EF0BF0FFFFD3EF0BF0FFFFAB51D96EA2
:10179800DA6AA651C85DCB25AC6FAC05DF6EFFFFDA
:1017A80020EE02F0A751D926A851DA22DF50D8A49A
:1017B800E0EF0BF0E3EF0BF0FFFF09EF0CF0FFFF9A
:1017C800CE6BF9EF0BF0FFFFCE51BA0FD96EDA6A84
:1017D800A951CE25E16EE26ADFCFE7FFAA51CE25F7
:1017E800D96EDA6A010EDF6ECE2BFFFFCC51CE5DCB
:1017F800D8A001EF0CF004EF0CF0FFFFE7EF0BF0BF
:10180800FFFFFFFF000E15EF0DF0FFFF20EE01F0C8
:10181800A751D926A851DA22DF50AC6FCC51AC5D64
:10182800CD6F20EE03F0A751D926A851DA22DF5058
:10183800D8B421EF0CF024EF0CF0FFFFE2EF0CF02E
:10184800FFFFCD51D8B42BEF0CF02EEF0CF0FFFFBB
:10185800E2EF0CF0FFFFC851D8B435EF0CF038EFC9
:101868000CF0FFFF89EF0CF0FFFFA951D96EDA6A7F
:10187800FE0EDF6EAA51D96EDA6A010EDF6ECE6BEC
:1018880057EF0CF0FFFFA951CE25D96EDA6A010E89
:10189800D926DF6AAA51CE25D96EDA6A010ED92671
:1018A800010EDF6ECE2BFFFFCD51CE5DD8A05FEFCE
:1018B8000CF062EF0CF0FFFF46EF0CF0FFFF010E9B
:1018C800CE6F7BEF0CF0FFFFCE51BA0FD96EDA6AFC
:1018D800A951CD25CE25E16EE26ADFCFE7FFAA51F7
:1018E800CD25CE25D96EDA6A010EDF6ECE2BFFFF2D
:1018F800CC51CE5DD8A083EF0CF086EF0CF0FFFF43
:1019080067EF0CF0FFFFC8EF0CF0FFFFCE6B9AEF0C
:101918000CF0FFFFA951CE25D96EDA6ADF6AAA5109
:10192800CE25D96EDA6A010EDF6ECE2BFFFFCD51C0
:10193800CE5DD8A0A2EF0CF0A5EF0CF0FFFF8DEF65
:101948000CF0FFFFCE6BBDEF0CF0FFFFCE51BA0FCE
:10195800D96EDA6AA951CD25CE25E16EE26ADFCFCC
:10196800E7FFAA51CD25CE25D96EDA6A010EDF6EC2
:10197800CE2BFFFFCC51CE5DD8A0C5EF0CF0C8EF41
:101988000CF0FFFFA9EF0CF0FFFFAB51D96EDA6A3C
:10199800DE28D8B4D2EF0CF0D5EF0CF0FFFF05EF3E
:1019A8000CF0FFFFFFFFAB51D96EDA6AAB51E16E65
:1019B800E26AE750CD25DF6E05EF0CF0FFFFCE6B36
:1019C800FAEF0CF0FFFFCE51BA0FD96EDA6AA951BF
:1019D800CD25CE25E16EE26ADFCFE7FFAA51CD25FE
:1019E800CE25D96EDA6A010EDF6ECE2BFFFFCC5101
:1019F800CE5DD8A002EF0DF005EF0DF0FFFFE6EF8A
:101A08000CF0FFFFAB51D96EDA6ADE28D8B40FEFBD
:101A18000DF012EF0DF0FFFF05EF0CF0FFFFD6EF12
:101A28000CF0FFFF1200FFFFFFFF00019D519E1108
:101A3800D8B421EF0DF024EF0DF0FFFF5DEF0DF0AE
:101A4800FFFF9F51D8B42BEF0DF02EEF0DF0FFFFE5
:101A58005DEF0DF0FFFFA051D8B435EF0DF038EF72
:101A68000DF0FFFF5DEF0DF0FFFFA151D8B43FEF80
:101A78000DF042EF0DF0FFFF5DEF0DF0FFFFA251FB
:101A8800D8B449EF0DF04CEF0DF0FFFF5DEF0DF00E
:101A9800FFFF20EE32F09D51D9269E51DA22DE500A
:101AA800DE10D8A45AEF0DF05DEF0DF0FFFF75EFD3
:101AB8000DF0FFFF9D519E11D8B465EF0DF068EF52
:101AC8000DF0FFFF71EF0DF0FFFF20EE5CF09D5170
:101AD800D9269E51DA22070EDF6EFFFF000E9EEF19
:101AE8000FF0FFFFA869A969AA69AB69BC6B000E72
:101AF800BB6FB56BB66B20EE32F09D51D9269E5167
:101B0800DA22DECFA3F0DDCFA4F0A3C0C1F0A4C0D9
:101B1800C2F0C36BC46BCA6BFFFF010EC96FFFFF36
:101B2800A00EC56F250EC66F260EC76F000EC86FB4
:101B3800CA51020DF350230FA36FA3C0F6FF060E80
:101B4800F76E0900FFFFF5CFA4F00900FFFFF5CFFE
:101B5800A5F0A4C084F0A5C085F0866B876BC95139
:101B6800886F896B8A6B8B6BB8EC39F084C0BDF0D9
:101B780085C0BEF086C0BFF087C0C0F0C5C084F085
:101B8800C6C085F0C7C086F0C8C087F0C1C088F05D
:101B9800C2C089F0C3C08AF0C4C08BF0B8EC39F079
:101BA80084C090F085C091F086C092F087C093F011
:101BB800BDC084F0BEC085F0BFC086F0C0C087F04D
:101BC800400E0001886F420E896F0F0E8A6F000E5B
:101BD8008B6FB8EC39F084C094F085C095F086C05E
:101BE80096F087C097F069EC3CF090C0C5F091C0C2
:101BF800C6F092C0C7F093C0C8F00001C551C61125
:101C0800C711C811D8A40BEF0EF00EEF0EF0FFFFAE
:101C180017EF0EF0FFFF010EC56F000EC66F000E26
:101C2800C76F000EC86FFFFFC851C7110BE1C5058C
:101C3800010EC659D8A023EF0EF026EF0EF0FFFFD5
:101C480029EF0EF0FFFFFCEF0EF0FFFFC505AC6FAC
:101C5800AC51A36FA46B010EA327000EA423A3C04D
:101C680084F0A4C085F0866B876BCA51020DF350CF
:101C7800230FA56FA5C0F6FF060EF76E0900FFFF3C
:101C8800F5CFA6F00900FFFFF5CFA7F0A6C088F0B2
:101C9800A7C089F08A6B8B6BB8EC39F084C0BDF0B3
:101CA80085C0BEF086C0BFF087C0C0F0BDC084F05C
:101CB800BEC085F0BFC086F0C0C087F00001C95122
:101CC800886F896B8A6B8B6BB8EC39F084C0B1F084
:101CD80085C0B2F086C0B3F087C0B4F0B1C084F05C
:101CE800B2C085F0B3C086F0B4C087F0400E0001E2
:101CF800886F420E896F0F0E8A6F000E8B6FB8ECDB
:101D080039F084C090F085C091F086C092F087C009
:101D180093F0A00E0001946F250E956F260E966F16
:101D2800000E976F69EC3CF090C0B7F091C0B8F026
:101D380092C0B9F093C0BAF00001C151B75DC25169
:101D4800B859C351B959C451BA59D8A0AEEF0EF019
:101D5800B1EF0EF0FFFFC0EF0EF0FFFFC151B75D0E
:101D6800AD6FC251B859AE6FC351B959AF6FC451B5
:101D7800BA59B06FCDEF0EF0FFFFB751C15DAD6F2F
:101D8800B851C259AE6FB951C359AF6FBA51C4599E
:101D9800B06FFFFFA851AD5DA951AE59AA51AF5917
:101DA800AB51B059D8B0DBEF0EF0DEEF0EF0FFFF0D
:101DB800FCEF0EF0FFFFADC0A8F0AEC0A9F0AFC0B9
:101DC800AAF0B0C0ABF0CA51020DF350230FA36FB5
:101DD800A3C0F6FF060EF76E0900FFFFF5CFBBF0B4
:101DE8000A00FFFFF5CFBCF0ACC0B5F0C9C0B6F033
:101DF800FFFFC92B100EC96504EF0FF007EF0FF0B6
:101E0800FFFF93EF0DF0FFFFCA2B020ECA650FEF1D
:101E18000FF012EF0FF0FFFF90EF0DF0FFFFBB5137
:101E2800BC11D8A41AEF0FF01DEF0FF0FFFF28EF39
:101E38000FF0FFFF20EE5CF09D51D9269E51DA226B
:101E4800070EDF6E71EF0DF0FFFF9F51D96EDA6A52
:101E5800BBC0DEFFBCC0DDFFA051D96EDA6AB5C0D9
:101E6800DFFFA151D96EDA6AB6C0DFFFB551A36FA3
:101E7800A46B010EA327000EA423A3C084F0A4C062
:101E880085F0866B876BBBC088F0BCC089F08A6B15
:101E98008B6BB8EC39F084C0BDF085C0BEF086C04D
:101EA800BFF087C0C0F0BDC084F0BEC085F0BFC021
:101EB80086F0C0C087F00001B651886F896B8A6BC5
:101EC8008B6BB8EC39F084C0B1F085C0B2F086C035
:101ED800B3F087C0B4F0B1C084F0B2C085F0B3C02D
:101EE80086F0B4C087F0400E0001886F420E896FFB
:101EF8000F0E8A6F000E8B6FB8EC39F084C090F02B
:101F080085C091F086C092F087C093F0A00E0001C2
:101F1800946F250E956F260E966F000E976F69ECDD
:101F28003CF00001A251D96EDA6A90C0DEFF91C080
:101F3800DDFF010EFFFF1200FFFFFFFF0101746FBD
:101F48000101756B7DEC36F093EC36F0000E000164
:101F5800806F010E816F640E826F09EC39F062C1E7
:101F6800D9FF63C1DAFFDE6ADD6A64C1D9FF65C1E2
:101F7800DAFFDF6A66C1D9FF67C1DAFFDF6A68C1C5
:101F8800D9FF69C1DAFF640EDF6E6AC1D9FF6BC180
:101F9800DAFFFB0EDF6E6CC1D9FF6DC1DAFFDF6AB5
:101FA8006EC1D9FF6FC1DAFF0C0EDF6E70C1D9FFA9
:101FB80071C1DAFF220EDF6E72C1D9FF73C1DAFF79
:101FC800DF6A6BEF11F0FFFF000E0001E66F000EF5
:101FD800E76F000EE86F000EE96F010EEA6F010E61
:101FE800EB6FAFEC36F00101756FB0EF11F0FFFF4A
:101FF800270E0001916F0F0E906FE1EC37F0000192
:1020080090C0E6F091C0E7F0E86BE96B010EEA6F6B
:10201800000EEB6FAFEC36F00101756FB0EF11F009
:10202800FFFF270E0001916F0F0E906FE1EC37F064
:10203800000190C0F8F091C0F9F0FA6BFB6B020E4A
:10204800FC6F010EFD6F010EFE6F2CEC37F00101E5
:10205800756FB0EF11F0FFFF2A0E0001E66F000E5A
:10206800E76F000EE86F000EE96F000EEA6F000ED2
:10207800EB6FAFEC36F00101756FB0EF11F0FFFFB9
:102088002A0E0001E66F000EE76F000EE86F000EE3
:10209800E96F010EEA6F000EEB6FAFEC36F001014D
:1020A800756FB0EF11F0FFFF2A0E0001E66F000E0A
:1020B800E76F000EE86F000EE96F010EEA6F010E80
:1020C800EB6FAFEC36F00101756FB0EF11F0FFFF69
:1020D800850E0001E66FFF0EE76FFF0EE86FFF0E3B
:1020E800E96F010EEA6F000EEB6FAFEC36F00101FD
:1020F800756FB0EF11F0FFFFD20E0001F86F040EFC
:10210800F96F000EFA6F000EFB6F020EFC6F010EE6
:10211800FD6F000EFE6F2CEC37F00101756FB0EF0C
:1021280011F0FFFF050E0001F86F000EF96F000EA9
:10213800FA6F000EFB6F020EFC6F010EFD6F010EB1
:10214800FE6F2CEC37F00101756FB0EF11F0FFFF57
:10215800850E0001F86FFF0EF96FFF0EFA6FFF0E84
:10216800FB6F010EFC6F010EFD6F000EFE6F2CEC75
:1021780037F00101756FB0EF11F0FFFFD20E0001CB
:10218800E66F040EE76F000EE86F000EE96F010EB0
:10219800EA6F000EEB6FAFEC36F00101756F755109
:1021A800D8A4D9EF10F0DCEF10F0FFFFB0EF11F07A
:1021B800FFFF000E0001896F010E8A6F000E8B6F02
:1021C800010E8C6F86EC3EF0B0EF11F0FFFFD20EDF
:1021D8000001E66F040EE76F000EE86F000EE96F6E
:1021E800010EEA6F000EEB6FAFEC36F00101756F70
:1021F8007551D8A402EF11F005EF11F0FFFFB0EF11
:1022080011F0FFFF0001916B010E906F0AEC37F09F
:10221800B0EF11F0FFFFB80E0001E66F220EE76F76
:10222800000EE86F000EE96F010EEA6F000EEB6F0B
:10223800AFEC36F00101756FB0EF11F0FFFF000E43
:102248000001896F010E8A6F38EC3AF0000E000128
:10225800A06F010EA16F000EA26F71EC37F0B0EF06
:1022680011F0FFFF000E0001C06F010EC16F000EDC
:10227800C26F6EC1D9FF6FC1DAFFDF50C36F70C183
:10228800D9FF71C1DAFFDF50C46F010EC56FE1ECF1
:1022980016F00101756FB0EF11F0FFFF000E00019D
:1022A800896F010E8A6F38EC3AF0000E0001896FD1
:1022B800010E8A6F000E8B6F010E8C6F94EC3DF04F
:1022C800B0EF11F0FFFF010E756FB0EF11F0FFFFD7
:1022D80001017451000AD8B4E7EF0FF0010AD8B42D
:1022E800FBEF0FF0030AD8B414EF10F0010AD8B4CA
:1022F8002FEF10F0070AD8B443EF10F0010AD8B452
:1023080057EF10F0030AD8B46BEF10F0010AD8B4F5
:102318007FEF10F00F0AD8B495EF10F0010AD8B487
:10232800ABEF10F0030AD8B4C1EF10F0010AD8B42B
:10233800EAEF10F0070AD8B40EEF11F0010AD8B48A
:1023480022EF11F0030AD8B435EF11F0010AD8B41E
:1023580051EF11F066EF11F0FFFF01017551120006
:10236800FFFFFFFF0001A651D8B4BDEF11F0C0EF89
:1023780011F0FFFFE3EF11F0FFFFA751D8B4C7EF4B
:1023880011F0CAEF11F0FFFFE3EF11F0FFFFA851C2
:10239800D8B4D1EF11F0D4EF11F0FFFFE3EF11F053
:1023A800FFFFA651D96EDA6A010ED926DF50D8A4EC
:1023B800E0EF11F0E3EF11F0FFFFE7EF11F0FFFF9F
:1023C800010EAEEF13F0FFFFA5BFEDEF11F0F1EF37
:1023D80011F0FFFF010EF3EF11F0FFFF000EFFFFFA
:1023E800B86FA5BFFDEF11F0FAEF11F0FFFF23EF73
:1023F80012F0FFFF010EA225A96F000EA321AA6FFC
:10240800000EA421AB6F000EA521AC6FA91FAA1F57
:10241800AB1FAC1FA92B000EAA23AB23AC23A9C06A
:10242800B9F0AAC0BAF0ABC0BBF0ACC0BCF0010EAA
:10243800B927000EBA23BB23BC232CEF12F0FFFFF1
:10244800A2C0B9F0A3C0BAF0A4C0BBF0A5C0BCF04C
:10245800FFFFB9C09DF0BAC09EF0BBC09FF0BCC0E2
:10246800A0F0D3EC38F00001BD6FBD51B825B76FAF
:10247800A651D96EDA6A010ED926B751DE5CD8B0FA
:1024880048EF12F04BEF12F0FFFF4EEF12F0FFFF94
:10249800E3EF11F0FFFFBF6B5FEF12F0FFFFA751F3
:1024A800BF25D96EDA6AFF0EDF6EA851BF25D96E37
:1024B800DA6ADF6ABF2BFFFFA651D96EDA6A010E0E
:1024C800D926DE50BF5DD8A06CEF12F06FEF12F086
:1024D800FFFF52EF12F0FFFFBF6BA9EF12F0FFFFF3
:1024E800BF51AD0FD96EDA6AB9C080F0BAC081F0B9
:1024F800BBC082F0BCC083F00A0E846F000E856FEB
:10250800000E866F000E876FA4EC1FF0000180514B
:10251800DF6EB9C090F0BAC091F0BBC092F0BCC0F9
:1025280093F00A0E946F000E956F000E966F000ED2
:10253800976F69EC3CF090C0B9F091C0BAF092C0C6
:10254800BBF093C0BCF00001BF2BFFFFBD51BF5DC6
:10255800D8A0B1EF12F0B4EF12F0FFFF73EF12F052
:10256800FFFFA651D96EDA6A020ED926DF50D8A429
:10257800C0EF12F0C3EF12F0FFFF04EF13F0FFFFFC
:10258800BE6BB851D8B4CBEF12F0CEEF12F0FFFF0C
:10259800DAEF12F0FFFFA751D96EDA6AFE0EDF6E8E
:1025A800A851D96EDA6A010EDF6EBE2BFFFFBF6B32
:1025B800F4EF12F0FFFFBF51AD08BD25D96EDA6AFE
:1025C800FF0ED926A751BE25E16EE26ADFCFE7FFED
:1025D800A851BE25D96EDA6A010EDF6EBE2BBF2B5D
:1025E800FFFFBD51BF5DD8A0FCEF12F0FFEF12F066
:1025F800FFFFDEEF12F0FFFFFFFF000EAEEF13F05C
:10260800FFFFA651D96EDA6A010ED926DF50BE6FD8
:10261800BF6B22EF13F0FFFFBE07BF51AD0FD96E9E
:10262800DA6AA751BE25E16EE26ADFCFE7FFA8515B
:10263800BE25D96EDA6A010EDF6EBF2BFFFFBD51D2
:10264800BF5DD8A02AEF13F02DEF13F0FFFF0FEFB7
:1026580013F0FFFFB851D8B434EF13F037EF13F08D
:10266800FFFF80EF13F0FFFFA651D96EDA6A030E61
:10267800D926DF50D8B443EF13F046EF13F0FFFF2D
:1026880070EF13F0FFFFA751D96EDA6AFE0EDF6E06
:10269800A851D96EDA6A010EDF6E010EBF6F62EFC4
:1026A80013F0FFFFA751BF25D96EDA6ADF6AA85178
:1026B800BF25D96EDA6A010EDF6EBF2BFFFFBE5150
:1026C800BF5DD8A06AEF13F06DEF13F0FFFF55EF71
:1026D80013F0FFFF00EF13F0FFFFBE07A751BE2561
:1026E800D96EDA6AFE0EDF6EA851BE25D96EDA6A97
:1026F800010EDF6E00EF13F0FFFFA651D96EDA6A04
:10270800030ED926DF50D8B48CEF13F08FEF13F0F7
:10271800FFFF00EF13F0FFFFBF6BA0EF13F0FFFF09
:10272800A751BF25D96EDA6ADF6AA851BF25D96ECD
:10273800DA6A010EDF6EBF2BFFFFBE51BF5DD8A066
:10274800A8EF13F0ABEF13F0FFFF93EF13F0FFFFC9
:1027580000EF13F0FFFF1200FFFFFFFF0001CB5156
:10276800CC11D8B4BAEF13F0BDEF13F0FFFFDEEFD2
:1027780013F0FFFF20EE31F0CB51D926CC51DA22ED
:10278800DF50D8B4CAEF13F0CDEF13F0FFFFDEEF40
:1027980013F0FFFF20EE32F0CB51D926CC51DA22CC
:1027A800DE50DE10D8A4DBEF13F0DEEF13F0FFFFEE
:1027B80011EF14F0FFFFCB51CC11D8B4E6EF13F0B2
:1027C800E9EF13F0FFFF0DEF14F0FFFF20EE31F0FB
:1027D800CB51D926CC51DA22DF50D8A4F6EF13F02A
:1027E800F9EF13F0FFFF04EF14F0FFFF20EE5CF0A9
:1027F800CB51D926CC51DA22020EDF6E0DEF14F040
:10280800FFFF20EE5CF0CB51D926CC51DA22030E23
:10281800DF6EFFFF000E60EF15F0FFFFD26B000EBA
:10282800D16FD46B000ED36FD56BD66B13EF15F049
:10283800FFFF20EE5CF0CB51D926CC51DA22040EF2
:10284800DF6E0DEF14F0FFFF20EE5CF0CB51D926C0
:10285800CC51DA22040EDF6E0DEF14F0FFFF465064
:102868004710D8B43AEF14F03DEF14F0FFFF48EFEB
:1028780014F0FFFF20EE5CF0CB51D926CC51DA22C0
:10288800050EDF6E0DEF14F0FFFFA6EC35F080C0EB
:10289800CFF081C0D0F00001CF51D011D8B457EF9C
:1028A80014F05AEF14F0FFFF73EF14F0FFFFD00E8F
:1028B800CF190AE16C0ED019D8B465EF14F068EF9F
:1028C80014F0FFFF73EF14F0FFFF20EE5CF0CB5124
:1028D800D926CC51DA22060EDF6E0DEF14F0FFFF79
:1028E800CBC09DF0CCC09EF0D10E9F6FD50EA06FCF
:1028F800D60EA16FD30EA26F18EC0DF00009D8A464
:1029080088EF14F08BEF14F0FFFF8EEF14F0FFFF49
:102918000DEF14F0FFFFCBC046F0CCC047F0D00E4F
:10292800486E6C0E496E8EEC35F08AEC35F0D1C0ED
:1029380084F0D2C085F0BBEC37F00001D551F6EC3D
:102948001FF00001D65155EC36F0D00E0001806F13
:102958006C0E816F9FEC35F092EC35F09AEC35F007
:1029680096EC35F00001CB51461807E1CC514718D9
:10297800D8A4C1EF14F0C4EF14F0FFFFDEEF14F099
:10298800FFFFA6EC35F0D00E0001801907E16C0EB0
:102998008119D8A4D2EF14F0D5EF14F0FFFFDEEFC1
:1029A80014F0FFFFCAB4DBEF14F0DEEF14F0FFFF02
:1029B80038EF15F0FFFF8EEC35F08AEC35F0000E9D
:1029C8000001806F000E816F9FEC35F0000E466E9F
:1029D800000E476E000E486E000E496E000120EE94
:1029E8005CF0CB51D926CC51DA22080EDF6E0DEF00
:1029F80014F0FFFF20EE5CF0CB51D926CC51DA223F
:102A0800040EDF6E0DEF14F0FFFF20EE5CF0CB51EB
:102A1800D926CC51DA22040EDF6E0DEF14F0FFFF39
:102A280020EE31F0CB51D926CC51DA22DF50CD6FD0
:102A3800CE6BCE51000AD8B424EF15F008EF15F08C
:102A4800FFFFCD51010AD8B41CEF14F0030AD8B423
:102A580027EF14F0010AD8B432EF14F0070AD8B4FB
:102A6800FDEF14F008EF15F0FFFF20EE4CF0CB510E
:102A7800D926CC51DA22DE6ADD6A20EE4EF0CB513F
:102A8800D926CC51DA22D3C0DEFFD4C0DDFF20EE38
:102A980050F0CB51D926CC51DA22DE6ADE6ADE6AE2
:102AA800DD6A20EE54F0CB51D926CC51DA22DE6A09
:102AB800DE6ADE6ADD6A010EFFFF1200FFFFFFFF1C
:102AC8000101916B966B976B640E926FFB0E936F7F
:102AD800986B0C0E996F220E9A6F9F6B956B000E78
:102AE800946F000E8C6F000E8D6F000E8E6F000EAF
:102AF8008F6F000EA06F000EA16F000EA26F000E68
:102B0800A36FF29EF29CD09E070EC16E96988C6AB7
:102B1800956A8B808B828B848B8694909492949404
:102B28009496000E0001D76F010ED86F290ED96F49
:102B38004FEC07F001018B6F8B51D8A4A6EF15F06D
:102B4800A9EF15F0FFFFACEF15F0FFFFFEEC35F035
:102B5800FFFF940E0101626F010E636F960E646FA2
:102B6800010E656F970E666F010E676F920E686FA4
:102B7800010E696F930E6A6F010E6B6F980E6C6F82
:102B8800010E6D6F990E6E6F010E6F6F9A0E706F5A
:102B9800010E716F9F0E726F010E736F000EA1EC24
:102BA8000FF00101906F9051D8B4DDEF15F0E0EF10
:102BB80015F0FFFFE3EF15F0FFFFFEEC35F0FFFF28
:102BC8009E92F28CF28EFFFF000E0001806F010EC4
:102BD800816FF6EC39F00001805181118211831167
:102BE800D8B4F9EF15F0FCEF15F0FFFFE7EF15F09B
:102BF800FFFF000E806F010E816FF6EC39F080C088
:102C08009BF181C09CF182C09DF183C09EF19BC164
:102C18008CF19CC18DF19DC18EF19EC18FF19BC13C
:102C2800A0F19CC1A1F19DC1A2F19EC1A3F1FFFF3A
:102C3800000E0001806F010E816FF6EC39F080C044
:102C48009BF181C09CF182C09DF183C09EF19BC124
:102C580062F19CC163F19DC164F19EC165F1A00E52
:102C68000101666F010E676F940E686F010E696F40
:102C7800960E6A6F010E6B6F970E6C6F010E6D6F7B
:102C8800920E6E6F010E6F6F930E706F010E716F63
:102C9800980E726F010E736F990E746F010E756F37
:102CA8009A0E766F010E776F9F0E786F010E796F0F
:102CB800915139EC03F00101906F9051D8B467EF4E
:102CC80016F06AEF16F0FFFF6DEF16F0FFFFFEEC4F
:102CD80035F0FFFF01018C519B5D876F8D519C5929
:102CE800886F8E519D59896F8F519E598A6F8A516D
:102CF80089110CE1B80E875D0B0E8859D8A087EFB3
:102D080016F08AEF16F0FFFF1BEF16F0FFFF9BC1CE
:102D18008CF19CC18DF19DC18EF19EC18FF19BC13B
:102D2800A0F19CC1A1F19DC1A2F19EC1A3F1912B7B
:102D38000F0E9165A2EF16F0A5EF16F0FFFFA7EFB3
:102D480016F0FFFF916BFFFF940E626F010E636F29
:102D5800960E646F010E656F970E666F010E676FB2
:102D6800920E686F010E696F930E6A6F010E6B6F9A
:102D7800980E6C6F010E6D6F990E6E6F010E6F6F6E
:102D88009A0E706F010E716F9F0E726F010E736F46
:102D98009151A1EC0FF00101906F9051D8B4D7EF89
:102DA80016F0DAEF16F0FFFF1BEF16F0FFFFFEEC50
:102DB80035F01BEF16F03BEF00F0FFFF180E000197
:102DC800C361E9EF16F0ECEF16F0FFFFF6EF16F02F
:102DD800FFFF3B0EC465F3EF16F0F6EF16F0FFFFAA
:102DE800FAEF16F0FFFF010E58EF18F0FFFFC0C012
:102DF80080F0C1C081F0C2C082F0040E836F0CEC79
:102E08003CF00001E36FE351D8B40DEF17F010EF79
:102E180017F0FFFF15EF17F0FFFFFFFFE35158EF23
:102E280018F0FFFFE46B2DEF17F0FFFFE451C0250A
:102E3800C66F000EC121C76F380EC625D96E000EA9
:102E4800C721DA6EE451C80FE16EE26ADFCFE7FF0F
:102E5800E42BFFFF20EE2AF0C051D926C151DA2217
:102E6800DE50E45DD8A03BEF17F03EEF17F0FFFF10
:102E780019EF17F0FFFF20EE40F0C051D926C151DD
:102E8800DA22DF50E26FC2C0E5F0020EE66F010EF3
:102E9800E76FC5C0E8F0010EE96FC351A26FA36BDD
:102EA800A46BA56BE50EA66FD00EA76FD80EA86F02
:102EB800B5EC11F00001E36FE351D8B466EF17F0F9
:102EC80069EF17F0FFFF6CEF17F0FFFF11EF17F036
:102ED800FFFFE46BBDEF17F0FFFFE551E425E06F5E
:102EE800E451D80FD96EDA6ADF50D8B47EEF17F004
:102EF80081EF17F0FFFF98EF17F0FFFFC0C080F0D9
:102F0800C1C081F0E451D00FD96EDA6ADF50826F08
:102F18000BEC3EF00001C66FE051C80FD96EDA6ABB
:102F2800C6C0DFFFBBEF17F0FFFFE951D8B49FEF32
:102F380017F0A2EF17F0FFFFBBEF17F0FFFFE0510C
:102F4800C80FD96EDA6ADF6AE0C0C6F0010EC76F33
:102F5800C62BB2EF17F0FFFFD890C737FFFFC62F79
:102F6800AFEF17F00001C751FF0AE215E26FFFFF4C
:102F7800E42BFFFFE651E45DD8A0C5EF17F0C8EFDA
:102F880017F0FFFF70EF17F0FFFFC251020FEA6F53
:102F9800020EEB6F010EEC6F010EED6F010EEE6F7E
:102FA800C451A26FA36BA46BA56BEA0EA66FD00EDB
:102FB800A76FD80EA86FB5EC11F00001E36FE351CD
:102FC800D8B4E9EF17F0ECEF17F0FFFFEFEF17F0C9
:102FD800FFFF11EF17F0FFFFE46B40EF18F0FFFF62
:102FE800EA51E425E16FE451D80FD96EDA6ADF506F
:102FF800D8B401EF18F004EF18F0FFFF1BEF18F03A
:10300800FFFFC0C080F0C1C081F0E451D00FD96E7D
:10301800DA6ADF50826F0BEC3EF00001C66FE151B7
:10302800C80FD96EDA6AC6C0DFFF3EEF18F0FFFF9F
:10303800EE51D8B422EF18F025EF18F0FFFF3EEF5D
:1030480018F0FFFFE151C80FD96EDA6ADF6AE1C0F4
:10305800C6F0010EC76FC62B35EF18F0FFFFD890EA
:10306800C737FFFFC62F32EF18F00001C751FF0A1C
:10307800E215E26FFFFFE42BFFFFEB51E45DD8A000
:1030880048EF18F04BEF18F0FFFFF3EF17F0FFFFD2
:10309800C0C080F0C1C081F0C80E826F836BE2C0EF
:1030A80084F0C9EC3CF0000EFFFF1200FFFFFFFFA9
:1030B8001D501E10D8B463EF18F066EF18F0FFFF2C
:1030C800ADEF19F0FFFF20EE34F01D50D9261E5049
:1030D800DA22DF50D8A473EF18F076EF18F0FFFF6C
:1030E80079EF18F0FFFFADEF19F0FFFF1DC002F0F8
:1030F8001EC003F0E6EC02F00009D8A486EF18F031
:1031080089EF18F0FFFF8CEF18F0FFFFADEF19F013
:10311800FFFF20EE35F01D50D9261E50DA22DF5071
:10312800256E20EE2AF01D50D9261E50DA22DE50D8
:10313800255CD8A0A2EF18F0A5EF18F0FFFFA7EFC5
:1031480018F0FFFF256AFFFF1DC019F01EC01AF016
:103158006DEC38F01DC017F01EC018F0000E196E87
:10316800000E1A6E02EC1DF020EE37F01D50D92625
:103178001E50DA22620EDF64C4EF18F0C7EF18F0B1
:10318800FFFFD1EF18F0FFFF20EE37F01D50D926D2
:103198001E50DA22DF6AD9EF18F0FFFF20EE37F071
:1031A8001D50D9261E50DA22DF2AFFFF25C01FF046
:1031B800010E206E000E216E1F2AE7EF18F0FFFFA8
:1031C800D89020362136FFFF1F2EE3EF18F020C0DD
:1031D80022F021C023F020EE36F01D50D9261E50D3
:1031E800DA22DF50D8B4FBEF18F0FEEF18F0FFFF3B
:1031F80090EF19F0FFFF20EE36F01D50D9261E5033
:10320800DA2210EE37F01D50E1261E50E222DE5081
:10321800E65CD8B012EF19F015EF19F0FFFF90EF48
:1032280019F0FFFF20EE49F01D50D9261E50DA2272
:10323800DF50D8B422EF19F025EF19F0FFFF4EEF59
:1032480019F0FFFF20EE4AF01D50D9261E50DA2251
:10325800DF50D8A432EF19F035EF19F0FFFF4EEF29
:1032680019F0FFFF20EE41F01D50D9261E50DA223A
:10327800DECF1FF0DDCF20F022501F16235020167E
:103288001F502010D8A44BEF19F04EEF19F0FFFF94
:1032980090EF19F0FFFF25C01FF020EE40F01D5001
:1032A800D9261E50DA22DF50206E1F2A5FEF19F050
:1032B800FFFFD8902032FFFF1F2E5CEF19F020B0DF
:1032C80068EF19F06CEF19F0FFFF010E6EEF19F0BF
:1032D800FFFF000EFFFF246E1DC017F01EC018F080
:1032E80025501D241F6E000E1E20206E380E1F2430
:1032F800D96E000E2020DA6EDF50196E24C01AF045
:1033080002EC1DF01DC010F01EC011F025C012F017
:10331800010E136E3DEC00F0FFFF252A20EE2AF087
:103328001D50D9261E50DA22DE50255CD8A09FEF0A
:1033380019F0A2EF19F0FFFFA4EF19F0FFFF256ABB
:10334800FFFF20EE35F01D50D9261E50DA2225C089
:10335800DFFFFFFF1200FFFFFFFF0001CF51D01179
:10336800D8B4B9EF19F0BCEF19F0FFFFC7EF19F0A7
:10337800FFFFD651D711D8A4C4EF19F0C7EF19F041
:10338800FFFFCBEF19F0FFFF010E00EF1BF0FFFF6F
:10339800D551D8B4D2EF19F0D5EF19F0FFFFE8EF07
:1033A80019F0FFFF20EE28F0CF51D926D051DA22AC
:1033B800DF50D8A4E2EF19F0E5EF19F0FFFFE8EFCE
:1033C80019F0FFFFC7EF19F0FFFFCFC080F0D0C0A2
:1033D80081F0D6C0D9FFD7C0DAFFDF50826F20EE68
:1033E80001F0D651D926D751DA22DF50836F0CEC81
:1033F8003CF00001F56FF551D8B405EF1AF008EF6D
:103408001AF0FFFF0DEF1AF0FFFFFFFFF55100EF75
:103418001BF0FFFFD1C0A2F0D2C0A3F0D3C0A4F02C
:10342800D4C0A5F0D5C0A6F0D6C0A7F0D7C0A8F0E4
:10343800E20EA96FEA0EAA6FF60EAB6F3BEC0AF02C
:103448000001F56FF551D8B42CEF1AF02FEF1AF0F0
:10345800FFFF32EF1AF0FFFF09EF1AF0FFFFF76BDB
:103468004AEF1AF0FFFFF751CF25D86F000ED02191
:10347800D96F380ED825D96E000ED921DA6EF751DA
:10348800DA0FE16EE26ADFCFE7FFF72BFFFF20EEEE
:103498002AF0CF51D926D051DA22DE50F75DD8A0D4
:1034A80058EF1AF05BEF1AF0FFFF36EF1AF0FFFF44
:1034B80020EE40F0CF51D926D051DA22DF50F46FF8
:1034C800F76BBEEF1AF0FFFFD6C0D9FFD7C0DAFFFF
:1034D800DF50F725F36FF3C0D8F0010ED96FD82B62
:1034E80079EF1AF0FFFFD890D937FFFFD82F76EF82
:1034F8001AF00001D951FF0AF415F46FF751EA0FD9
:10350800D96EDA6ADF50D8B48CEF1AF08FEF1AF060
:10351800FFFFA6EF1AF0FFFFCFC080F0D0C081F008
:10352800F751E20FD96EDA6ADF50826F0BEC3EF08A
:103538000001D86FF351DA0FD96EDA6AD8C0DFFF0D
:10354800BCEF1AF0FFFF20EE04F0D651D926D75170
:10355800DA22DF50D8B4B3EF1AF0B6EF1AF0FFFF53
:10356800BCEF1AF0FFFFF351DA0FD96EDA6ADF6A9F
:10357800FFFFF72BFFFF20EE01F0D651D926D751D8
:10358800DA22DE50F75DD8A0CCEF1AF0CFEF1AF0B0
:10359800FFFF67EF1AF0FFFFF629D8B4D6EF1AF04D
:1035A800D9EF1AF0FFFFF3EF1AF0FFFFD6C0D9FFEB
:1035B800D7C0DAFFDF50F625F26FF2C0D8F0010E5F
:1035C800D96FD82BEBEF1AF0FFFFD890D937FFFF50
:1035D800D82FE8EF1AF00001D951F411F46FFFFF6A
:1035E800CFC080F0D0C081F0DA0E826F836BF4C058
:1035F80084F0C9EC3CF0000EFFFF1200FFFFFFFF54
:103608000001C051C111D8B40CEF1BF00FEF1BF033
:10361800FFFF19EF1BF0FFFFC651D8A416EF1BF0F0
:1036280019EF1BF0FFFF1DEF1BF0FFFF010E08EF66
:103638001CF0FFFFC0C080F0C1C081F0C651D96E38
:10364800DA6ADF50826FC651D96EDA6A010ED9265E
:10365800DF50836F0CEC3CF00001E46FE451D8B408
:1036680038EF1BF03BEF1BF0FFFF40EF1BF0FFFFB5
:10367800FFFFE45108EF1CF0FFFFC2C0A2F0C3C077
:10368800A3F0C4C0A4F0C5C0A5F0C6C0A6F0D10E72
:10369800A76FD90EA86FB5EC11F00001E46FE451E3
:1036A800D8B459EF1BF05CEF1BF0FFFF5FEF1BF086
:1036B800FFFF3CEF1BF0FFFFE56B77EF1BF0FFFF11
:1036C800E551C025C76F000EC121C86F380EC72548
:1036D800D96E000EC821DA6EE551C90FE16EE26AB3
:1036E800DFCFE7FFE52BFFFF20EE2AF0C051D926F8
:1036F800C151DA22DE50E55DD8A085EF1BF088EFD6
:103708001BF0FFFF63EF1BF0FFFF20EE40F0C051FE
:10371800D926C151DA22DF50E26FE56BEBEF1BF0DF
:10372800FFFFC651D96EDA6ADF50E525E36FE55130
:10373800D90FD96EDA6ADF50D8B4A5EF1BF0A8EF1D
:103748001BF0FFFFC1EF1BF0FFFFE551D10FD96E52
:10375800DA6ADF50E16FC0C080F0C1C081F0E1C01B
:1037680082F00BEC3EF00001C76FE351C90FD96E30
:10377800DA6AC7C0DFFFE9EF1BF0FFFFC651D96E59
:10378800DA6A040ED926DF50D8B4CDEF1BF0D0EF9B
:103798001BF0FFFFE9EF1BF0FFFFE351C90FD96EE4
:1037A800DA6ADF6AE3C0C7F0010EC86FC72BE0EF23
:1037B8001BF0FFFFD890C837FFFFC72FDDEF1BF0C6
:1037C8000001C851FF0AE215E26FFFFFE52BFFFF7A
:1037D800C651D96EDA6A010ED926DE50E55DD8A049
:1037E800F8EF1BF0FBEF1BF0FFFF94EF1BF0FFFF60
:1037F800C0C080F0C1C081F0C90E826F836BE2C087
:1038080084F0C9EC3CF0000EFFFF1200FFFFFFFF41
:1038180095C08EF096C08FF0000197B116EF1CF09E
:103828001AEF1CF0FFFF010E1CEF1CF0FFFF000E4B
:10383800FFFF906F20EE2FF09551D9269651DA228E
:10384800DF50916F81EC3FF0050E000195258E6FDA
:10385800000E96218F6F97B334EF1CF038EF1CF0F1
:10386800FFFF010E3AEF1CF0FFFF000EFFFF906F05
:1038780020EE2FF09551D9269651DA22DF50916F1C
:1038880081EC3FF00A0E000195258E6F000E9621FF
:103898008F6F97B552EF1CF056EF1CF0FFFF010E2B
:1038A80058EF1CF0FFFF000EFFFF906F20EE2FF087
:1038B8009551D9269651DA22DF50916F81EC3FF06D
:1038C8000F0E000195258E6F000E96218F6F97B70A
:1038D80070EF1CF074EF1CF0FFFF010E76EF1CF088
:1038E800FFFF000EFFFF906F20EE2FF09551D926B5
:1038F8009651DA22DF50916F81EC3FF0140E0001EF
:1039080095258E6F000E96218F6F97B98EEF1CF05C
:1039180092EF1CF0FFFF010E94EF1CF0FFFF000E6A
:10392800FFFF906F20EE2FF09551D9269651DA229D
:10393800DF50916F81EC3FF0190E000195258E6FD5
:10394800000E96218F6F97BBACEF1CF0B0EF1CF008
:10395800FFFF010EB2EF1CF0FFFF000EFFFF906F9C
:1039680020EE2FF09551D9269651DA22DF50916F2B
:1039780081EC3FF01E0E000195258E6F000E9621FA
:103988008F6F97BDCAEF1CF0CEEF1CF0FFFF010E42
:10399800D0EF1CF0FFFF000EFFFF906F20EE2FF01E
:1039A8009551D9269651DA22DF50916F81EC3FF07C
:1039B800000120EE28F09551D9269651DA22DF50E1
:1039C800D8B4E9EF1CF0ECEF1CF0FFFFFFEF1CF0A0
:1039D800FFFF230E95258E6F000E96218F6F98C0DE
:1039E80090F020EE2FF09551D9269651DA22DF502B
:1039F800916F81EC3FF0FFFF1200FFFFFFFF17C040
:103A080010F018C011F019B00CEF1DF010EF1DF0F8
:103A1800FFFF010E12EF1DF0FFFF000EFFFF126EF9
:103A280020EE2FF01750D9261850DA22DF50136EE7
:103A380003EC3FF0050E1724106E000E1820116ECF
:103A480019B229EF1DF02DEF1DF0FFFF010E2FEF2A
:103A58001DF0FFFF000EFFFF126E20EE2FF0175033
:103A6800D9261850DA22DF50136E03EC3FF00A0E05
:103A78001724106E000E1820116E19B446EF1DF0B1
:103A88004AEF1DF0FFFF010E4CEF1DF0FFFF000E87
:103A9800FFFF126E20EE2FF01750D9261850DA22A9
:103AA800DF50136E03EC3FF00F0E1724106E000E5C
:103AB8001820116E19B663EF1DF067EF1DF0FFFFB8
:103AC800010E69EF1DF0FFFF000EFFFF126E20EEE2
:103AD8002FF01750D9261850DA22DF50136E03EC56
:103AE8003FF0140E1724106E000E1820116E19B82E
:103AF80080EF1DF084EF1DF0FFFF010E86EF1DF033
:103B0800FFFF000EFFFF126E20EE2FF01750D92690
:103B18001850DA22DF50136E03EC3FF0190E172409
:103B2800106E000E1820116E19BA9DEF1DF0A1EF4E
:103B38001DF0FFFF010EA3EF1DF0FFFF000EFFFFBA
:103B4800126E20EE2FF01750D9261850DA22DF50C7
:103B5800136E03EC3FF01E0E1724106E000E182093
:103B6800116E19BCBAEF1DF0BEEF1DF0FFFF010E7C
:103B7800C0EF1DF0FFFF000EFFFF126E20EE2FF0CA
:103B88001750D9261850DA22DF50136E03EC3FF095
:103B980020EE28F01750D9261850DA22DF50D8B472
:103BA800D8EF1DF0DBEF1DF0FFFFEEEF1DF0FFFF7C
:103BB800230E1724106E000E1820116E1AC012F072
:103BC80020EE2FF01750D9261850DA22DF50136E46
:103BD80003EC3FF0FFFF1200FFFFFFFF025003104E
:103BE800D8B4F9EF1DF0FCEF1DF0FFFFD4EF1EF085
:103BF800FFFF20EE34F00250D9260350DA22DF50BE
:103C0800D8A409EF1EF00CEF1EF0FFFF0FEF1EF017
:103C1800FFFFD4EF1EF0FFFF20EE49F00250D92637
:103C28000350DA22DF50D8B41CEF1EF01FEF1EF04D
:103C3800FFFF30EF1EF0FFFF20EE41F00250D926C3
:103C48000350DA22DE50DE10D8A42DEF1EF030EF3C
:103C58001EF0FFFF49EF1EF0FFFF20EE4AF0025072
:103C6800D9260350DA22010EDF6E20EE45F002500D
:103C7800D9260350DA2204C0DEFF05C0DEFF06C0E5
:103C8800DEFF07C0DEFFD4EF1EF0FFFF20EE43F09B
:103C98000250D9260350DA22DECF14F0DDCF15F01A
:103CA80014501510D8A45BEF1EF05EEF1EF0FFFF56
:103CB80063EF1EF0FFFF010E156EF40E146EFFFF8A
:103CC800D8901530086E1430146E08C015F01450D2
:103CD8001510D8A472EF1EF075EF1EF0FFFFA3EFCA
:103CE8001EF0FFFF156A010E146EA3EF1EF0FFFF12
:103CF80020EE45F00250D9260350DA221450DE2671
:103D08001550DE22000EDE22DE2220EE4AF002509E
:103D1800D9260350DA2210EE4AF00250E126035069
:103D2800E222E750D8B49BEF1EF09FEF1EF0FFFF92
:103D3800010EA1EF1EF0FFFF000EFFFFDF6EFFFF79
:103D48001450086E1550096E0A6A0B6A20EE45F089
:103D58000250D9260350DA22DECF0CF0DECF0DF068
:103D6800DECF0EF0DECF0FF00C50045C106E0D505D
:103D78000558116E0E500658126E0F500758136EE4
:103D88000850105C095011580A5012580B5013581B
:103D9800D8B0D1EF1EF0D4EF1EF0FFFF7BEF1EF07E
:103DA800FFFF1200FFFFFFFF00018E518F11D8B4F3
:103DB800E0EF1EF0E3EF1EF0FFFFA1EF1FF0FFFFA3
:103DC80020EE29F08E51D9268F51DA22DF50D8B44F
:103DD800F0EF1EF0F3EF1EF0FFFFA1EF1FF0FFFF63
:103DE80020EE2AF08E51D9268F51DA22DE50905DCE
:103DF800D8A001EF1FF004EF1FF0FFFF07EF1FF03F
:103E0800FFFFA1EF1FF0FFFF9151D8A40EEF1FF0A5
:103E180011EF1FF0FFFF29EF1FF0FFFF20EE2BF03F
:103E28008E51D9268F51DA22DF50D8B41EEF1FF0F9
:103E380022EF1FF0FFFF010E24EF1FF0FFFF000E1F
:103E4800FFFF956F966B35EF1FF0FFFF20EE2BF00D
:103E58008E51D9268F51DA22DF50926F9251956F89
:103E6800966BFFFF95C094F09451D8B43EEF1FF0C5
:103E780041EF1FF0FFFF72EF1FF0FFFF9051050D9C
:103E880020EE29F08E51D9268F51DA22DF50F32403
:103E9800926F92C0F6FF060EF76E0900FFFFF5CF8E
:103EA8008BF00A00FFFFF5CF8CF09051050D20EE46
:103EB80029F08E51D9268F51DA22DF50F324936FDF
:103EC800040E932793C0F6FF060EF76E0800FFFF57
:103ED800F5CF8DF0C3EC35F0A1EF1FF0FFFF905147
:103EE800050D20EE29F08E51D9268F51DA22DF50A8
:103EF800F324926F92C0F6FF060EF76E0900FFFFDB
:103F0800F5CF8BF00A00FFFFF5CF8CF09051050D2F
:103F180020EE29F08E51D9268F51DA22DF50F32472
:103F2800936F040E932793C0F6FF060EF76E0800F2
:103F3800FFFFF5CF8DF0CEEC35F0FFFF1200FFFF4D
:103F4800FFFF00018451851186118711D8B4AFEFA6
:103F58001FF0B2EF1FF0FFFFEBEF1FF0FFFF010EA6
:103F6800886FBEEF1FF0FFFFD890843785378637FC
:103F78008737882BFFFF87AFC4EF1FF0C7EF1FF00D
:103F8800FFFFB7EF1FF0FFFFFFFF8451805D8551F2
:103F980081598651825987518359D8A0D6EF1FF08D
:103FA800D9EF1FF0FFFFE2EF1FF0FFFF8451805FA2
:103FB8008551815B8651825B8751835BFFFFD89077
:103FC8008733863385338433882FC8EF1FF0FFFF8C
:103FD80080C080F081C081F082C082F083C083F00D
:103FE8001200FFFFFFFF0001806F80C0CBFF1200AF
:063FF800FFFFE1ACFFFF3A
:106B1400FFFF9D921200FFFFFFFFCA941200FFFFC8
:106B2400FFFF9E921200FFFFFFFFCA841200FFFFC7
:106B3400FFFF9E929D821200FFFFFFFF80C052F074
:106B440081C053F01200FFFFFFFF52C080F053C01A
:106B540081F01200FFFFFFFF0DC00AF00EC00BF022
:106B64000FC00CF0E4EC35F01200FFFFFFFF0DC086
:106B74000AF00EC00BF00FC00CF0F1EC35F012006F
:106B8400FFFFFFFF8BC088F08CC089F08DC08AF0B6
:106B940019EC36F01200FFFFFFFF8BC088F08CC0A9
:106BA40089F08DC08AF027EC36F01200FFFFFFFF5A
:106BB4008BC088F08CC089F08DC08AF035EC36F03B
:106BC4001200FFFFFFFF0AC002F00BC003F00CC06D
:106BD40004F0010E056E82EC3AF01200FFFFFFFF95
:106BE4000AC002F00BC003F00CC004F0000E056EE6
:106BF40082EC3AF01200FFFFFFFF000E00019B6FD2
:106C0400010E9C6F41EC39F0FFFF06EF36F01200E5
:106C1400FFFFFFFF9DC099F09EC09AF0000E000197
:106C24009B6F9FC09CF095EC37F01200FFFFFFFFB5
:106C340088C080F089C081F08AC082F0010E000112
:106C4400836F6CEC3BF01200FFFFFFFF88C080F005
:106C540089C081F08AC082F0000E0001836F6CEC61
:106C64003BF01200FFFFFFFF88C080F089C081F075
:106C74008AC082F0000E0001836F6CEC3BF01200BE
:106C8400FFFFFFFF46504710D8B44BEF36F04EEFEE
:106C940036F0FFFF52EF36F0FFFF3DEC38F09E92E6
:106CA400FFFF1200FFFFFFFF0001826F000182510E
:106CB4004EEC37F00001816F814781478147CA500C
:106CC4008119870B8119CA6E1200FFFFFFFF46501E
:106CD4004710D8B470EF36F073EF36F0FFFF7AEF59
:106CE40036F0FFFF46C026F047C027F009EC01F05C
:106CF400FFFF1200FFFFFFFF000E0001806F010E77
:106D0400816F000E826F1DEC3BF0000E00018A6F54
:106D1400010E8B6F8D6B000E8C6FBBEC3BF0120081
:106D2400FFFFFFFF0001906BFFFF000E896F010E54
:106D34008A6F90C08BF0000E8C6F86EC3EF00001E1
:106D4400902B030E9065A9EF36F0ACEF36F0FFFF01
:106D540096EF36F0FFFF1200FFFFFFFF0001EC6B20
:106D6400040EED6FEAC0EEF0EBC0EFF0010EF06F31
:106D7400000EC06F010EC16FE6C0C2F0E7C0C3F0E1
:106D8400E8C0C4F0E9C0C5F0EC0EC66F03EC1BF01C
:106D94001200FFFFFFFF010E54140001826F836B8A
:106DA400D8905532543282518311D8B4DCEF36F086
:106DB400DFEF36F0FFFFE4EF36F0FFFF000E541A6A
:106DC400B40E551AFFFF54C080F055C081F0120074
:106DD400FFFFFA0EF66E3F0EF76E000EF86E090016
:106DE400F5CF54F00900F5CF55F001EE00F05D0E3B
:106DF400EE6AE806FDE100EE42F0120EEE6AE806E5
:106E0400FDE101900192000EF86E000163EF15F0B0
:106E1400FFFF000E00018A6F010E8B6F90C08CF093
:106E240091C08DF0BBEC3BF0000E0001806F010EB1
:106E3400816F020E836F580E826F7BEC39F0000E67
:106E44000001806F010E816F010E826F1DEC3BF01B
:106E54001200FFFFFFFF01015D6B040E5E6FFDC0BA
:106E64005FF1FEC060F1010E616F000E0001CF6F93
:106E7400010ED06FF8C0D1F0F9C0D2F0FAC0D3F04F
:106E8400FBC0D4F0FCC0D5F05D0ED66F010ED76FF9
:106E9400B0EC19F01200FFFFFFFF0001806F00014A
:106EA4008051D8A458EF37F05BEF37F0FFFF60EF65
:106EB40037F0FFFF010E806F6DEF37F0FFFF100E0C
:106EC400806567EF37F06AEF37F0FFFF6DEF37F05B
:106ED400FFFF100E806FFFFF80051200FFFFFFFF12
:106EE4000A0E0001A26179EF37F07CEF37F0FFFF63
:106EF40087EF37F0FFFFA0C09DF0A1C09EF0A2C0B5
:106F04009FF00BEC36F092EF37F0FFFFA0C089F052
:106F1400A1C08AF0000E8B6FA2C08CF066EC02F068
:106F2400FFFF1200FFFFFFFF090E00019C659DEFAC
:106F340037F0A0EF37F0FFFFADEF37F0FFFF99C058
:106F440089F09AC08AF09BC08BF0FF0E8C6F66ECC0
:106F540002F0B8EF37F0FFFF99C089F09AC08AF0C9
:106F64009BC08BF09CC08CF066EC02F0FFFF12001B
:106F7400FFFFFFFF84C080F085C081F00EEC38F085
:106F84000001866F010E8617CA508619FE0B8619FA
:106F9400CA6E84C080F085C081F00EEC38F0000128
:106FA400866FD8908633010E86178647CA50861995
:106FB400FD0B8619CA6ECB68CC6A1200FFFFFFFF77
:106FC40000019051926F9151936F946B956B010EE8
:106FD4009225846F000E9321856F000E9421866F95
:106FE400000E9521876FCCEC36F0000180C088F04C
:106FF40081C089F08A6B8B6BB8EC39F084C096F051
:1070040085C097F086C098F087C099F098C090F03A
:1070140099C091F01200FFFFFFFF1DEF38F0FFFF52
:10702400000E3AEF38F0FFFF010E3AEF38F0FFFFA1
:10703400020E3AEF38F0FFFF80C082F081C083F087
:1070440000018351000AD8B42AEF38F019EF38F060
:10705400FFFF8251010AD8B411EF38F0050AD8B401
:1070640015EF38F0140AD8B419EF38F019EF38F0E6
:10707400FFFF1200FFFFFFFF9DA243EF38F046EF32
:1070840038F0FFFF6AEF38F0FFFF9EA24CEF38F0B4
:107094004FEF38F0FFFF6AEF38F0FFFF9E92525037
:1070A4005310D8B458EF38F05BEF38F0FFFF6AEFB5
:1070B40038F0FFFF02D86AEF38F0FFFF0500FA6EE0
:1070C4005250FD6E5350FE6EFF6AFA501200FFFFDD
:1070D400FFFF1200FFFFFFFF19501A10D8A475EF2D
:1070E40038F078EF38F0FFFF7BEF38F0FFFF9CEFCC
:1070F40038F0FFFF1C6A8BEF38F0FFFF19C010F067
:107104001AC011F01CC012F0000E136E3DEC00F01A
:107114001C2AFFFF20EE2AF01950D9261A50DA2231
:10712400DE501C5CD8A099EF38F09CEF38F0FFFFDC
:107134007FEF38F0FFFF1200FFFFFFFF00019751C0
:107144009811D8A4A8EF38F0ABEF38F0FFFFAEEFFA
:1071540038F0FFFFD0EF38F0FFFF9A6BBFEF38F045
:10716400FFFF97C08EF098C08FF09AC090F0000E89
:10717400916FD7EC1EF000019A2BFFFF20EE2AF04E
:107184009751D9269851DA22DE509A5DD8A0CDEFD6
:1071940038F0D0EF38F0FFFFB2EF38F0FFFF120005
:1071A400FFFFFFFF010E0001A16FF6EF38F0FFFFB4
:1071B4009DC090F09EC091F09FC092F0A0C093F04B
:1071C4000A0E946F000E956F000E966F000E976F67
:1071D40069EC3CF090C09DF091C09EF092C09FF08D
:1071E40093C0A0F00001A12BFFFFA0519F119E119D
:1071F40007E10A0E9D5DD8B002EF39F005EF39F0D2
:10720400FFFFD9EF38F0FFFFA1511200FFFFFFFF8E
:10721400000180518111D8B412EF39F015EF39F023
:10722400FFFF3EEF39F0FFFF20EE34F08051D92606
:107234008151DA22DF50D8A422EF39F025EF39F05A
:10724400FFFF28EF39F0FFFF3EEF39F0FFFF640E38
:1072540082652FEF39F032EF39F0FFFF35EF39F067
:10726400FFFF640E826FFFFF20EE36F08051D926B7
:107274008151DA2282C0DFFFFFFF1200FFFFFFFF10
:1072840000019B519C11D8B44AEF39F04DEF39F00D
:10729400FFFF78EF39F0FFFF20EE34F09B51D92641
:1072A4009C51DA22DF50D8A45AEF39F05DEF39F05F
:1072B400FFFF60EF39F0FFFF78EF39F0FFFF9BC06D
:1072C40082F09CC083F0D4EC01F09BC097F09CC08A
:1072D40098F09FEC38F09BC095F09CC096F0000E9F
:1072E4000001976F000E986F0BEC1CF0FFFF12006B
:1072F400FFFFFFFF000180518111D8B484EF39F002
:1073040087EF39F0FFFFB5EF39F0FFFF20EE34F0DF
:107314008051D9268151DA22DF50D8A494EF39F074
:1073240097EF39F0FFFF9AEF39F0FFFFB5EF39F02F
:10733400FFFF82518311D8A4A2EF39F0A5EF39F0F1
:10734400FFFFAAEF39F0FFFF010E836FF40E826F87
:10735400FFFF20EE43F08051D9268151DA2282C00A
:10736400DEFF83C0DDFFFFFF1200FFFFFFFF000E03
:1073740000018C6F000E8D6F000E8E6F000E8F6FEC
:10738400FFFF84A1C8EF39F0CBEF39F0FFFFD4EF52
:1073940039F0FFFF88518C2789518D238A518E2320
:1073A4008B518F23FFFFD890883789378A378B37E3
:1073B400D89087338633853384338451851186117D
:1073C4008711D8A4E8EF39F0EBEF39F0FFFFC2EFF3
:1073D40039F0FFFF8CC084F08DC085F08EC086F03C
:1073E4008FC087F01200FFFFFFFF00018051811161
:1073F400D8A4FFEF39F002EF3AF0FFFF0DEF3AF0B7
:10740400FFFF000E806F000E816F000E826F000E72
:10741400836F35EF3AF0FFFF000EF2BE010E886F66
:10742400F29E20EE58F08051D9268151DA22DECF27
:1074340084F0DECF85F0DECF86F0DECF87F0885192
:10744400D8B427EF3AF02AEF3AF0FFFF2CEF3AF0E6
:10745400FFFFF28EFFFF84C080F085C081F086C0FC
:1074640082F087C083F0FFFF1200FFFFFFFF0001DF
:1074740089518A11D8B441EF3AF044EF3AF0FFFF52
:107484007FEF3AF0FFFF20EE34F08951D9268A517C
:10749400DA22DF50D8A451EF3AF054EF3AF0FFFF6C
:1074A40057EF3AF0FFFF7FEF3AF0FFFF946B62EF84
:1074B4003AF0FFFF94518C0FD96EDA6ADF6A942B8D
:1074C400FFFF20EE2AF08951D9268A51DA22DE50B4
:1074D400945DD8A070EF3AF073EF3AF0FFFF5BEFE2
:1074E4003AF0FFFF89C080F08AC081F08C0E826F71
:1074F400836B000E846FC9EC3CF0FFFF1200FFFFAA
:10750400FFFF02500310D8B48AEF3AF08DEF3AF03F
:10751400FFFFCCEF3AF0FFFF070E046494EF3AF05C
:1075240097EF3AF0FFFF9AEF3AF0FFFFCCEF3AF013
:10753400FFFF02C0D9FF03C0DAFFDF50096E04C0A9
:1075440006F0010E076E062AABEF3AF0FFFFD89063
:107554000736FFFF062EA8EF3AF00750086E0550D5
:10756400D8B4B7EF3AF0BAEF3AF0FFFFC0EF3AF011
:10757400FFFF09500810096EC5EF3AF0FFFF0850ED
:10758400FF0A0914096EFFFF02C0D9FF03C0DAFF26
:1075940009C0DFFFFFFF1200FFFFFFFF0001886B40
:1075A400000E876F80518111D8A4DBEF3AF0DEEF33
:1075B4003AF0FFFFE4EF3AF0FFFF816B000E806FBB
:1075C4001AEF3BF0FFFF896B02EF3BF0FFFF89C02E
:1075D40084F0010E856F000E866F842BF6EF3AF06F
:1075E400FFFFD89085378637FFFF842FF2EF3AF0FC
:1075F400000187518511876F88518611886F892B07
:10760400FFFF20EE2AF08051D9268151DA22DE5084
:10761400895DD8A010EF3BF013EF3BF0FFFFE8EFDC
:107624003AF0FFFF87518215806F88518315816F6F
:10763400FFFF1200FFFFFFFF000180518111D8B44A
:1076440026EF3BF029EF3BF0FFFF69EF3BF0FFFF34
:1076540020EE34F08051D9268151DA22DF50D8A4AB
:1076640036EF3BF039EF3BF0FFFF3CEF3BF0FFFF21
:1076740069EF3BF0FFFF20EE49F08051D92681519C
:10768400DA228251D8A449EF3BF04DEF3BF0FFFFE3
:10769400010E4FEF3BF0FFFF000EFFFFDF6E20EE09
:1076A40049F08051D9268151DA22DF50D8A45DEF08
:1076B4003BF060EF3BF0FFFF69EF3BF0FFFF20EE94
:1076C4004AF08051D9268151DA22010EDF6EFFFF84
:1076D4001200FFFFFFFF000180518111D8B475EF44
:1076E4003BF078EF3BF0FFFFB8EF3BF0FFFF070EF6
:1076F40082657FEF3BF082EF3BF0FFFF85EF3BF0CD
:10770400FFFFB8EF3BF0FFFF80C0D9FF81C0DAFF75
:10771400DF50876F82C084F0010E856F842B96EF53
:107724003BF0FFFFD8908537FFFF842F93EF3BF0AA
:1077340000018551866F8351D8B4A3EF3BF0A6EFC7
:107744003BF0FFFFACEF3BF0FFFF87518611876FE3
:10775400B1EF3BF0FFFF8651FF0A8715876FFFFFEC
:1077640080C0D9FF81C0DAFF87C0DFFFFFFF1200AE
:10777400FFFFFFFF00018A518B11D8B4C4EF3BF027
:10778400C7EF3BF0FFFF09EF3CF0FFFF20EE34F0C2
:107794008A51D9268B51DA22DF50D8A4D4EF3BF09A
:1077A400D7EF3BF0FFFFDAEF3BF0FFFF09EF3CF0D0
:1077B400FFFF8AC080F08BC081F08CC082F08DC046
:1077C40083F0CFEC3AF0000120EE41F08A51D92643
:1077D4008B51DA2280C0DEFF81C0DDFF20EE41F054
:1077E4008A51D9268B51DA22DE50DE10D8A4FDEF5F
:1077F4003BF000EF3CF0FFFF09EF3CF0FFFF20EE11
:107804004AF08A51D9268B51DA22010EDF6EFFFF2E
:107814001200FFFFFFFF000180518111D8B415EF62
:107824003CF018EF3CF0FFFF60EF3CF0FFFF20EE70
:1078340034F08051D9268151DA22DF50D8B425EFB3
:107844003CF028EF3CF0FFFF60EF3CF0FFFF83517A
:10785400D8B42FEF3CF032EF3CF0FFFF60EF3CF088
:10786400FFFF20EE2AF08051D9268151DA22DE5022
:10787400825DD8B040EF3CF043EF3CF0FFFF60EF97
:107884003CF0FFFF835182C084F0856B8427000E97
:10789400852320EE2AF08051D9268151DA22DF5047
:1078A400866F876B8451865D85518759D8B05DEFAB
:1078B4003CF060EF3CF0FFFF64EF3CF0FFFF010E93
:1078C40066EF3CF0FFFF000EFFFF1200FFFFFFFF1B
:1078D400000E0001996F000E9A6F000E9B6F000E50
:1078E4009C6F9451951196119711D8B47CEF3CF08C
:1078F4007FEF3CF0FFFFBEEF3CF0FFFF010E986FFF
:107904008BEF3CF0FFFFD890943795379637973735
:10791400982BFFFF97AF91EF3CF094EF3CF0FFFF03
:1079240084EF3CF0FFFFFFFFD89099379A379B37DD
:107934009C379451905D9551915996519259975114
:107944009359D8A0A8EF3CF0ABEF3CF0FFFFB5EFA4
:107954003CF0FFFF9451905F9551915B9651925B7F
:107964009751935B9981FFFFD89097339633953362
:107974009433982F95EF3CF0FFFF99C090F09AC094
:1079840091F09BC092F09CC093F01200FFFFFFFFA8
:10799400000180518111D8B4D2EF3CF0D5EF3CF016
:1079A400FFFF27EF3DF0FFFF82518311D8A4DDEFE5
:1079B4003CF0E0EF3CF0FFFFE3EF3CF0FFFF27EF8C
:1079C4003DF0FFFF000EF2BE010E876FF29E886B42
:1079D40002EF3DF0FFFF88518225D96E000E83210E
:1079E400DA6E88518025856F000E8121866F380EEE
:1079F4008525E16E000E8621E26EDFCFE7FF882B3E
:107A0400FFFF20EE2AF08051D9268151DA22DE5080
:107A1400885DD8A010EF3DF013EF3DF0FFFFECEFD1
:107A24003CF0FFFF20EE40F08051D9268151DA224C
:107A340084C0DFFF8751D8B422EF3DF025EF3DF03D
:107A4400FFFF27EF3DF0FFFFF28EFFFF1200FFFF65
:107A5400FFFF16501710D8B432EF3DF035EF3DF06C
:107A6400FFFF91EF3DF0FFFF20EE34F01650D926D2
:107A74001750DA22DF50D8A442EF3DF045EF3DF035
:107A8400FFFF48EF3DF0FFFF91EF3DF0FFFF16C011
:107A940002F017C003F020EE54F01650D926175008
:107AA400DA22DECF1CF0DECF1DF0DECF1EF0DECFFB
:107AB4001FF018501C24046E19501D20056E1A5016
:107AC4001E20066E1B501F20076EF1EC1DF020EEE9
:107AD40054F01650D9261750DA22DECF1CF0DECF30
:107AE4001DF0DECF1EF0DECF1FF018501C24206ED8
:107AF40019501D20216E1A501E20226E1B501F206B
:107B0400236E20EE54F01650D9261750DA2220C0E6
:107B1400DEFF21C0DEFF22C0DEFF23C0DEFFFFFF49
:107B24001200FFFFFFFF000189518A11D8B49DEFB5
:107B34003DF0A0EF3DF0FFFF08EF3EF0FFFF20EE29
:107B440034F08951D9268A51DA22DF50D8B4ADEF06
:107B54003DF0B0EF3DF0FFFF08EF3EF0FFFF20EEF9
:107B64002AF08951D9268A51DA22DE508B5DD8A0B9
:107B7400BEEF3DF0C1EF3DF0FFFFC4EF3DF0FFFF6E
:107B840008EF3EF0FFFF986BDCEF3DF0FFFF9851EC
:107B940089258D6F000E8A218E6F380E8D25D96E42
:107BA400000E8E21DA6E98518F0FE16EE26ADFCFFC
:107BB400E7FF982BFFFF20EE2AF08951D9268A513E
:107BC400DA22DE50985DD8A0EAEF3DF0EDEF3DF00B
:107BD400FFFFC8EF3DF0FFFF20EE40F08951D926AA
:107BE4008A51DA22DF50976F8B518F0FD96EDA6A80
:107BF4008C517F0BDF6E89C080F08AC081F08F0EBC
:107C0400826F836B97C084F0C9EC3CF0FFFF1200D5
:107C1400FFFFFFFF0A0E0001826113EF3EF016EF33
:107C24003EF0FFFF23EF3EF0FFFF8251110F836F01
:107C340083C0F6FF060EF76E0800FFFFF55083EFD2
:107C44003EF0FFFFFE0E8219D8A42BEF3EF02EEF7C
:107C54003EF0FFFF32EF3EF0FFFF400E83EF3EF0B9
:107C6400FFFF8229D8A439EF3EF03CEF3EF0FFFF3E
:107C740041EF3EF0FFFFFFFF000E83EF3EF0FFFFFA
:107C8400090E826548EF3EF04BEF3EF0FFFF3DEFFB
:107C94003EF0FFFF20EE2CF08051D9268151DA22EC
:107CA400DE50DE10D8B459EF3EF05CEF3EF0FFFF3B
:107CB4003DEF3EF0FFFF8251F60F856F20EE2EF070
:107CC4008051D9268151DA22DE50855DD8B06DEF1E
:107CD4003EF070EF3EF0FFFF3DEF3EF0FFFF20EE81
:107CE4002CF08051D9268151DA22DECF83F0DDCF0A
:107CF40084F085518325D96E000E8421DA6EDF501D
:107D04007F0BFFFF1200FFFFFFFF000189518A1163
:107D1400D8B48FEF3EF092EF3EF0FFFF00EF3FF05C
:107D2400FFFF20EE34F08951D9268A51DA22DF5040
:107D3400D8B49FEF3EF0A2EF3EF0FFFF00EF3FF01C
:107D4400FFFF20EE2AF08951D9268A51DA22DE502B
:107D54008B5DD8A0B0EF3EF0B3EF3EF0FFFFB6EF7F
:107D64003EF0FFFF00EF3FF0FFFF20EE40F08951AF
:107D7400D9268A51DA22DF508F6F8C51D8B4C5EFDF
:107D84003EF0C8EF3EF0FFFFDDEF3EF0FFFF8BC09B
:107D94008DF0010E8E6F8D2BD3EF3EF0FFFFD89048
:107DA4008E37FFFF8D2FD0EF3EF000018E518F11E3
:107DB4008F6FF1EF3EF0FFFF8BC08DF0010E8E6FE1
:107DC4008D2BE8EF3EF0FFFFD8908E37FFFF8D2F0D
:107DD400E5EF3EF000018E51FF0A8F158F6FFFFF14
:107DE40089C080F08AC081F0380E8925826F000E28
:107DF4008A21836F8FC084F0C9EC3CF0FFFF12002E
:107E0400FFFFFFFF10501110D8B40BEF3FF00EEF3F
:107E14003FF0FFFF7EEF3FF0FFFF10C0D9FF11C01E
:107E2400DAFFDE50DE10D8B41AEF3FF01DEF3FF05A
:107E3400FFFF7EEF3FF0FFFF20EE02F01050D92647
:107E44001150DA22DE50DE10D8A42BEF3FF02EEFD3
:107E54003FF0FFFF31EF3FF0FFFF7EEF3FF0FFFF0A
:107E640012C016F01304D8A43AEF3FF03DEF3FF0F0
:107E7400FFFF4CEF3FF0FFFF1250D8B444EF3FF048
:107E840048EF3FF0FFFF010E4AEF3FF0FFFF000E07
:107E9400FFFF166EFFFF1650D8B453EF3FF056EFB6
:107EA4003FF0FFFF6BEF3FF0FFFF10C0D9FF11C0A1
:107EB400DAFFDECF0DF0DDCF0EF020EE04F010502F
:107EC400D9261150DA22DF500F6EADEC35F07EEF7B
:107ED4003FF0FFFF10C0D9FF11C0DAFFDECF0DF075
:107EE400DDCF0EF020EE04F01050D9261150DA2226
:107EF400DF500F6EB8EC35F0FFFF1200FFFFFFFFFD
:107F040000018E518F11D8B48AEF3FF08DEF3FF00E
:107F1400FFFFFDEF3FF0FFFF8EC0D9FF8FC0DAFFF8
:107F2400DE50DE10D8B499EF3FF09CEF3FF0FFFF36
:107F3400FDEF3FF0FFFF20EE02F08E51D9268F5166
:107F4400DA22DE50DE10D8A4AAEF3FF0ADEF3FF006
:107F5400FFFFB0EF3FF0FFFFFDEF3FF0FFFF90C0EA
:107F640094F09105D8A4B9EF3FF0BCEF3FF0FFFFC8
:107F7400CBEF3FF0FFFF9051D8B4C3EF3FF0C7EF12
:107F84003FF0FFFF010EC9EF3FF0FFFF000EFFFFC0
:107F9400946FFFFF9451D8B4D2EF3FF0D5EF3FF088
:107FA400FFFFEAEF3FF0FFFF8EC0D9FF8FC0DAFF7B
:107FB400DECF8BF0DDCF8CF020EE04F08E51D9268D
:107FC4008F51DA22DF508D6FC3EC35F0FDEF3FF0B7
:107FD400FFFF8EC0D9FF8FC0DAFFDECF8BF0DDCF7D
:107FE4008CF020EE04F08E51D9268F51DA22DF5026
:0C7FF4008D6FCEEC35F0FFFF1200FFFF98
:020000040030CA
:0E000000FF220F0EFF0181FF0FC00FE00F4027
:00000001FF
