:060000000000FEEF1FF0FE
:1006000000020004000800100020004000800000EC
:10061000013F065B4F666D7D077F6F01000200049E
:100620000008000100040010008C0F950F008C0FD3
:10063000950F018C0F950F028C0F950F038C0F9562
:100640000F048C0F950F058C0F950F068C0F950FCF
:1006500007015D040000000000000000008B0F9403
:100660000F008B0F940F018B0F940F028B0F940FC1
:100670000300FFFF1850D8B440EF03F043EF03F03E
:10068000FFFF70EF03F0FFFF1950D8B44AEF03F0FB
:100690004DEF03F0FFFF70EF03F0FFFF1A50D8B4E7
:1006A00054EF03F057EF03F0FFFF70EF03F0FFFF8D
:1006B0001B50D8B45EEF03F061EF03F0FFFF70EF63
:1006C00003F0FFFF1850D96EDA6A010ED926DF5009
:1006D000D8A46DEF03F070EF03F0FFFF74EF03F0A9
:1006E000FFFF010E08EF06F0FFFF16BE7AEF03F0E2
:1006F0007EEF03F0FFFF010E80EF03F0FFFF000E1F
:10070000FFFF396E16BE8AEF03F087EF03F0FFFF9D
:10071000B0EF03F0FFFF010E13241C6E000E142037
:100720001D6E000E15201E6E000E16201F6E1C1E64
:100730001D1E1E1E1F1E1C2A000E1D221E221F22F1
:100740001CC034F01DC035F01EC036F01FC037F09D
:10075000010E3426000E352236223722B9EF03F07F
:10076000FFFF13C034F014C035F015C036F016C0CA
:1007700037F0FFFF34C00EF035C00FF036C010F078
:1007800037C011F0CFEC1AF03A6E3AC03BF0175078
:100790001C6E1D6A010E1C26000E1D223B501E6E93
:1007A0001F6A1C501E5C1D501F58D8B0DAEF03F0B2
:1007B000DDEF03F0FFFFE0EF03F0FFFF17283B6ED4
:1007C000FFFF3B5039243C6E0A0E3B60EAEF03F01A
:1007D000EDEF03F0FFFF70EF03F0FFFF1850D96E4D
:1007E000DA6A010ED9263C50DE5CD8B0FAEF03F08D
:1007F000FDEF03F0FFFF00EF04F0FFFF70EF03F0E9
:10080000FFFF3E6A11EF04F0FFFF19503E24D96E3E
:10081000DA6AFF0EDF6E1A503E24D96EDA6ADF6A9A
:100820003E2AFFFF1850D96EDA6A010ED926DE5033
:100830003E5CD8A01EEF04F021EF04F0FFFF04EFB0
:1008400004F0FFFF3E6A59EF04F0FFFF3E50200F17
:10085000D96EDA6A34C001F035C002F036C003F058
:1008600037C004F00A0E056E000E066E000E076E0D
:10087000000E086E85EC18F00150DF6E34C001F0F8
:1008800035C002F036C003F037C004F00A0E056E22
:10089000000E066E000E076E000E086E22EC17F0BA
:1008A00001C034F002C035F003C036F004C037F0A8
:1008B0003E2AFFFF3A503E5CD8A061EF04F064EF9F
:1008C00004F0FFFF25EF04F0FFFF386A3950D8B479
:1008D0006CEF04F06FEF04F0FFFF77EF04F0FFFF21
:1008E00038502A0FD96EDA6AFE0EDF6E382AFFFF03
:1008F0003A503B5C3D6E3E6A86EF04F0FFFF385095
:100900002A0FD96EDA6ADF6A382A3E2AFFFF3D5085
:100910003E5CD8A08EEF04F091EF04F0FFFF7EEF75
:1009200004F0FFFF3E6AA5EF04F0FFFF3E502008F1
:100930003A24D96EDA6AFF0ED92638502A0FE16EB2
:10094000E26ADFCFE7FF382A3E2AFFFF3A503E5CDB
:10095000D8A0ADEF04F0B0EF04F0FFFF95EF04F086
:10096000FFFF1B50D96EDA6AFF0EDF6E1750D8B446
:10097000BCEF04F0BFEF04F0FFFFC9EF04F0FFFF8E
:100980001B50D96EDA6A1750395C3B241C6E1C046C
:10099000DF6EFFFF1850D96EDA6A020ED926DF50DB
:1009A000D8A4D5EF04F0D8EF04F0FFFFFEEF04F079
:1009B000FFFF3E6AEEEF04F0FFFF3E502A0FD96EB4
:1009C000DA6A19503E24E16EE26ADFCFE7FF1A507F
:1009D0003E24D96EDA6A010EDF6E3E2AFFFF3C50DC
:1009E0003E5CD8A0F6EF04F0F9EF04F0FFFFDCEF77
:1009F00004F0FFFFFFFF000E08EF06F0FFFF1850A6
:100A0000D96EDA6A010ED926DF501C6E3C501C5C90
:100A10003D6E1850D96EDA6A030ED926DF50D8B46D
:100A200014EF05F017EF05F0FFFFD5EF05F0FFFF1E
:100A30003D50D8B41EEF05F021EF05F0FFFFD5EFD4
:100A400005F0FFFF3950D8B428EF05F02BEF05F083
:100A5000FFFF7CEF05F0FFFF1950D96EDA6AFE0E3A
:100A6000DF6E1A50D96EDA6A010EDF6E3E6A4AEF07
:100A700005F0FFFF19503E24D96EDA6A010ED9261F
:100A8000DF6A1A503E24D96EDA6A010ED926010EA9
:100A9000DF6E3E2AFFFF3D503E5CD8A052EF05F0CE
:100AA00055EF05F0FFFF39EF05F0FFFF010E3E6E39
:100AB0006EEF05F0FFFF3E502A0FD96EDA6A19502B
:100AC0003D243E24E16EE26ADFCFE7FF1A503D2469
:100AD0003E24D96EDA6A010EDF6E3E2AFFFF3C50DB
:100AE0003E5CD8A076EF05F079EF05F0FFFF5AEFF6
:100AF00005F0FFFFBBEF05F0FFFF3E6A8DEF05F04D
:100B0000FFFF19503E24D96EDA6ADF6A1A503E247C
:100B1000D96EDA6A010EDF6E3E2AFFFF3D503E5C61
:100B2000D8A095EF05F098EF05F0FFFF80EF05F0F6
:100B3000FFFF3E6AB0EF05F0FFFF3E502A0FD96E6F
:100B4000DA6A19503D243E24E16EE26ADFCFE7FF06
:100B50001A503D243E24D96EDA6A010EDF6E3E2A19
:100B6000FFFF3C503E5CD8A0B8EF05F0BBEF05F0AE
:100B7000FFFF9CEF05F0FFFF1B50D96EDA6ADE28FD
:100B8000D8B4C5EF05F0C8EF05F0FFFFFAEF04F0A9
:100B9000FFFFFFFF1B50D96EDA6A1B50E16EE26A5D
:100BA000E7503D24DF6EFAEF04F0FFFF3E6AEDEF01
:100BB00005F0FFFF3E502A0FD96EDA6A19503D2426
:100BC0003E24E16EE26ADFCFE7FF1A503D243E2467
:100BD000D96EDA6A010EDF6E3E2AFFFF3C503E5CA2
:100BE000D8A0F5EF05F0F8EF05F0FFFFD9EF05F01D
:100BF000FFFF1B50D96EDA6ADE28D8B402EF06F088
:100C000005EF06F0FFFFFAEF04F0FFFFC9EF05F074
:100C1000FFFF1200FFFFFFFF1250D8B412EF06F0E3
:100C200015EF06F0FFFF5DEF06F0FFFF1350D8B49D
:100C30001CEF06F01FEF06F0FFFF5DEF06F0FFFF71
:100C400013C014F0290E142614C0F6FF060EF76E1A
:100C50000800FFFFF5500009D8B431EF06F034EF7B
:100C600006F0FFFF5DEF06F0FFFF13C014F02A0E41
:100C7000142614C0F6FF060EF76E0800FFFFF550AD
:100C80000009D8B446EF06F049EF06F0FFFF5DEF2C
:100C900006F0FFFF13C014F02A0E142614C0F6FF4E
:100CA000060EF76E080E0800FFFFF5645AEF06F017
:100CB0005DEF06F0FFFF73EF06F0FFFF1250D8B4B0
:100CC00064EF06F067EF06F0FFFF6FEF06F0FFFF3F
:100CD0001250D96EDA6A5C0ED926010EDF6EFFFF64
:100CE000000E9BEF08F0FFFF13C0F6FF060EF76E35
:100CF0001250D96EDA6A330E0900FFFFF5CFDEFF1E
:100D0000E806FAE21250D96EDA6A340ED926DF6AA2
:100D10001250D96EDA6A350ED926DF6A1250D96EB2
:100D2000DA6A360ED926640EDF6E1250D96EDA6A90
:100D3000370ED926DF6A1250D96EDA6A400ED926EC
:100D4000DF6A1250D96EDA6A410ED926DE6ADD6A90
:100D50001250D96EDA6A430ED926F40EDE6E010EF9
:100D6000DD6E1250D96EDA6A450ED926DE6ADE6A69
:100D7000DE6ADD6A1250D96EDA6A490ED926DF6A58
:100D80001250D96EDA6A4A0ED926010EDF6E125061
:100D9000D96EDA6A4B0ED926DF6A1250D96EDA6A3A
:100DA0004C0ED926DE6ADD6A1250D96EDA6A4E0E12
:100DB000D926DE6ADD6A1250D96EDA6A500ED9265B
:100DC000DE6ADE6ADE6ADD6A1250D96EDA6A540EB5
:100DD000D926DE6ADE6ADE6ADD6A1250D96EDA6A08
:100DE000580ED926DE6ADE6ADE6ADD6A1250D96ED6
:100DF000DA6A5C0ED926DF6A1250D96EDA6A020E00
:100E0000D926DECF01F0DDCF02F01250D96EDA6ABA
:100E1000040ED926DF50036EC8EC1BF01250D96EB9
:100E2000DA6A070ED926DECF01F0DDCF02F01250CC
:100E3000D96EDA6A090ED926DF50036EC8EC1BF0B2
:100E40001250D96EDA6A0C0ED926DECF01F0DDCF52
:100E500002F01250D96EDA6A0E0ED926DF50036EF8
:100E6000C8EC1BF01250D96EDA6A110ED926DECF0B
:100E700001F0DDCF02F01250D96EDA6A130ED926D6
:100E8000DF50036EC8EC1BF01250D96EDA6A160EF2
:100E9000D926DECF01F0DDCF02F01250D96EDA6A2A
:100EA000180ED926DF50036EC8EC1BF01250D96E15
:100EB000DA6A1B0ED926DECF01F0DDCF02F0125028
:100EC000D96EDA6A1D0ED926DF50036EC8EC1BF00E
:100ED0001250D96EDA6A200ED926DECF01F0DDCFAE
:100EE00002F01250D96EDA6A220ED926DF50036E54
:100EF000C8EC1BF01250D96EDA6A280ED926DF50E2
:100F0000D8B485EF07F088EF07F0FFFF9BEF07F0FD
:100F1000FFFF1250D96EDA6A250ED926DECF01F016
:100F2000DDCF02F01250D96EDA6A270ED926DF50D3
:100F3000036EC8EC1BF0FFFF176AD6EF07F0FFFF48
:100F40001750050D1250D96EDA6A290ED926DF50D6
:100F5000F324146E020E142614C0F6FF060EF76E6C
:100F60000900FFFFF5CF01F00A00FFFFF5CF02F007
:100F70001750050D1250D96EDA6A290ED926DF50A6
:100F8000F324156E040E152615C0F6FF060EF76E37
:100F90000800FFFFF5CF03F0C8EC1BF01250172438
:100FA000D96EDA6A380ED926DF6A172AFFFF125087
:100FB000D96EDA6A2A0ED926DE50175CD8A0E3EF84
:100FC00007F0E6EF07F0FFFF9FEF07F0FFFF12507B
:100FD000D96EDA6A2A0ED926DF50176EFFFF070E88
:100FE0001764F5EF07F0F8EF07F0FFFFFBEF07F0EE
:100FF000FFFF06EF08F0FFFF12501724D96EDA6AE0
:10100000380ED926DF6A172AEEEF07F0FFFF12C06D
:101010000FF003EC1BF012C00DF0000E0E6E000E70
:101020000F6E13EC13F013C014F0300E142614C01E
:10103000F6FF060EF76E0800FFFFF5CF16F0010E63
:10104000166425EF08F028EF08F0FFFF2FEF08F0F7
:10105000FFFF1250D96EDA6A300ED926DF6AFFFF21
:101060001250D96EDA6A300ED926DE04D8A43BEFCE
:1010700008F03EEF08F0FFFF8CEF08F0FFFF125082
:10108000D96EDA6A310ED926DF50D8B44AEF08F0AB
:101090004DEF08F0FFFF6BEF08F0FFFF1250D96E25
:1010A000DA6A320ED926DE50DE10D8B45AEF08F0D4
:1010B0005DEF08F0FFFF6BEF08F0FFFF12C001F0DB
:1010C000A5EC14F00009D8A468EF08F06BEF08F065
:1010D000FFFF84EF08F0FFFF12C001F0BEEC16F036
:1010E00012C00FF003EC1BF012C00DF0000E0E6EDC
:1010F000000E0F6E13EC13F01250D96EDA6A340E34
:10110000D926DF6A6FEF06F0FFFF1250D96EDA6A58
:101110004B0ED926010EDF6EFFFF1250D96EDA6A30
:10112000340ED926010EDF6E1250D96EDA6A5C0ECB
:10113000D926DF6A010EFFFF1200FFFFFFFF1750E5
:10114000D8B4A5EF08F0A8EF08F0FFFFCBEF08F048
:10115000FFFF1850D8B4AFEF08F0B2EF08F0FFFF70
:10116000CBEF08F0FFFF1950D8B4B9EF08F0BCEF8F
:1011700008F0FFFFCBEF08F0FFFF1750D96EDA6AD7
:10118000010ED926DF50D8A4C8EF08F0CBEF08F045
:10119000FFFFCFEF08F0FFFF010E93EF0AF0FFFF14
:1011A00016BED5EF08F0D9EF08F0FFFF010EDBEF18
:1011B00008F0FFFF000EFFFF296E16BEE5EF08F0F6
:1011C000E2EF08F0FFFF0BEF09F0FFFF010E132421
:1011D0001A6E000E14201B6E000E15201C6E000EE1
:1011E00016201D6E1A1E1B1E1C1E1D1E1A2A000E06
:1011F0001B221C221D221AC02AF01BC02BF01CC06F
:101200002CF01DC02DF0010E2A26000E2B222C22C0
:101210002D2214EF09F0FFFF13C02AF014C02BF0A9
:1012200015C02CF016C02DF0FFFF2AC00EF02BC009
:101230000FF02CC010F02DC011F0CFEC1AF02E6E74
:101240002E502924286E1750D96EDA6A010ED9263D
:101250002850DE5CD8B02FEF09F032EF09F0FFFF25
:1012600035EF09F0FFFFCBEF08F0FFFF306A46EFE4
:1012700009F0FFFF18503024D96EDA6AFF0EDF6ED6
:1012800019503024D96EDA6ADF6A302AFFFF17500E
:10129000D96EDA6A010ED926DE50305CD8A053EF41
:1012A00009F056EF09F0FFFF39EF09F0FFFF306A50
:1012B0008EEF09F0FFFF30501E0FD96EDA6A2AC098
:1012C00001F02BC002F02CC003F02DC004F00A0E78
:1012D000056E000E066E000E076E000E086E85ECA1
:1012E00018F00150DF6E2AC001F02BC002F02CC0B4
:1012F00003F02DC004F00A0E056E000E066E000EFF
:10130000076E000E086E22EC17F001C02AF002C032
:101310002BF003C02CF004C02DF0302AFFFF2E501C
:10132000305CD8A096EF09F099EF09F0FFFF5AEF73
:1013300009F0FFFF1750D96EDA6A020ED926DF5086
:10134000D8A4A5EF09F0A8EF09F0FFFFE9EF09F035
:10135000FFFF2F6A2950D8B4B0EF09F0B3EF09F0BE
:10136000FFFFBFEF09F0FFFF1850D96EDA6AFE0EDB
:10137000DF6E1950D96EDA6A010EDF6E2F2AFFFF79
:10138000306AD9EF09F0FFFF30501E082E24D96EC5
:10139000DA6AFF0ED92618502F24E16EE26ADFCFF9
:1013A000E7FF19502F24D96EDA6A010EDF6E2F2A5B
:1013B000302AFFFF2E50305CD8A0E1EF09F0E4EFB7
:1013C00009F0FFFFC3EF09F0FFFFFFFF000E93EFEF
:1013D0000AF0FFFF1750D96EDA6A010ED926DF50E6
:1013E0002F6E306A07EF0AF0FFFF2F0630501E0FF6
:1013F000D96EDA6A18502F24E16EE26ADFCFE7FF78
:1014000019502F24D96EDA6A010EDF6E302AFFFFE1
:101410002E50305CD8A00FEF0AF012EF0AF0FFFF59
:10142000F4EF09F0FFFF2950D8B419EF0AF01CEFD0
:101430000AF0FFFF65EF0AF0FFFF1750D96EDA6A76
:10144000030ED926DF50D8B428EF0AF02BEF0AF0AC
:10145000FFFF55EF0AF0FFFF1850D96EDA6AFE0E53
:10146000DF6E1950D96EDA6A010EDF6E010E306E32
:1014700047EF0AF0FFFF18503024D96EDA6ADF6AAE
:1014800019503024D96EDA6A010EDF6E302AFFFF60
:101490002F50305CD8A04FEF0AF052EF0AF0FFFF58
:1014A0003AEF0AF0FFFFE5EF09F0FFFF2F061850B3
:1014B0002F24D96EDA6AFE0EDF6E19502F24D96EF2
:1014C000DA6A010EDF6EE5EF09F0FFFF1750D96E03
:1014D000DA6A030ED926DF50D8B471EF0AF074EF40
:1014E0000AF0FFFFE5EF09F0FFFF306A85EF0AF031
:1014F000FFFF18503024D96EDA6ADF6A19503024A1
:10150000D96EDA6A010EDF6E302AFFFF2F50305C91
:10151000D8A08DEF0AF090EF0AF0FFFF78EF0AF005
:10152000FFFFE5EF09F0FFFF1200FFFFFFFF73C0B1
:101530000FF073EC1CF073C00DF02DEC1CF0765026
:10154000D96EDA6A640EDF6E7750D96EDA6AFB0EF6
:10155000DF6E7550D96EDA6ADF6A73C001F07650BB
:10156000D96EDA6ADF50026E9BEC1AF046EF0CF08F
:10157000FFFF270E126E0F0E116E31EC1BF011C023
:1015800078F012C079F073C056F078C057F079C087
:1015900058F0596A5A6A010E5B6E000E5C6EE2ECFE
:1015A0001BF07A6E82EF0CF0FFFF270E126E0F0E0B
:1015B000116E31EC1BF011C078F012C079F073C0DD
:1015C00066F078C067F079C068F0696A6A6A020EEE
:1015D0006B6E010E6C6E000E6D6E92EC1BF07A6EEF
:1015E00082EF0CF0FFFF73C056F0D20E576E040E60
:1015F000586E000E596E000E5A6E010E5B6E000E94
:101600005C6EE2EC1BF07A6E7A50D8A40AEF0BF015
:101610000DEF0BF0FFFF82EF0CF0FFFF73C00FF038
:10162000116A010E106EFCEC1BF082EF0CF0FFFF54
:1016300073C056F0D20E576E040E586E000E596EDF
:10164000000E5A6E010E5B6E000E5C6EE2EC1BF03B
:101650007A6E7A50D8A42FEF0BF032EF0BF0FFFF29
:1016600082EF0CF0FFFF73C00FF0116A020E106ED4
:10167000FCEC1BF082EF0CF0FFFF73C056F0D20EB3
:10168000576E040E586E000E596E000E5A6E010E03
:101690005B6E000E5C6EE2EC1BF07A6E7A50D8A4A2
:1016A00054EF0BF057EF0BF0FFFF82EF0CF0FFFF52
:1016B00073C00FF0116A040E106EFCEC1BF082EF89
:1016C0000CF0FFFF73C056F0D20E576E040E586E2A
:1016D000000E596E000E5A6E010E5B6E000E5C6EAF
:1016E000E2EC1BF07A6E7A50D8A479EF0BF07CEF25
:1016F0000BF0FFFF82EF0CF0FFFF73C00FF0116AD9
:10170000080E106EFCEC1BF082EF0CF0FFFF73C0B4
:1017100056F02A0E576E000E586E000E596E000ECF
:101720005A6E000E5B6E000E5C6EE2EC1BF07A6E81
:1017300082EF0CF0FFFF73C056F02A0E576E000EBA
:10174000586E000E596E000E5A6E010E5B6E000E42
:101750005C6EE2EC1BF07A6E82EF0CF0FFFF73C060
:1017600056F02A0E576E000E586E000E596E000E7F
:101770005A6E010E5B6E010E5C6EE2EC1BF07A6E2F
:1017800082EF0CF0FFFF73C056F0D20E576E040EBE
:10179000586E000E596E000E5A6E010E5B6E000EF2
:1017A0005C6EE2EC1BF07A6E7A50D8A4DAEF0BF0A4
:1017B000DDEF0BF0FFFF82EF0CF0FFFF73C007F0CF
:1017C0007550D96EDA6ADF50086E010E096E4DEC65
:1017D00016F082EF0CF0FFFF73C056F0B80E576E94
:1017E000220E586E000E596E000E5A6E010E5B6E80
:1017F000000E5C6EE2EC1BF07A6E82EF0CF0FFFFE5
:1018000073C066F0D20E676E040E686E000E696ECD
:10181000000E6A6E020E6B6E010E6C6E000E6D6E27
:1018200092EC1BF07A6E82EF0CF0FFFF73C066F053
:10183000050E676E000E686E000E696E000E6A6E11
:10184000020E6B6E010E6C6E000E6D6E92EC1BF054
:101850007A6E82EF0CF0FFFF73C066F0850E676E44
:10186000FF0E686EFF0E696EFF0E6A6E010E6B6EE4
:10187000010E6C6E000E6D6E92EC1BF07A6E82EFB4
:101880000CF0FFFF010E7A6E82EF0CF0FFFF745038
:10189000000AD8B4B8EF0AF0010AD8B4D4EF0AF0BD
:1018A000030AD8B4F2EF0AF0010AD8B417EF0BF02C
:1018B000070AD8B43CEF0BF0010AD8B461EF0BF083
:1018C000030AD8B486EF0BF0010AD8B49AEF0BF0F4
:1018D0000F0AD8B4AEEF0BF0010AD8B4C2EF0BF088
:1018E000030AD8B4EBEF0BF0010AD8B4FFEF0BF00A
:1018F000070AD8B415EF0CF0010AD8B42BEF0CF09E
:1019000041EF0CF0FFFF7A501200FFFFFFFF7D6AEE
:10191000C2EF0DF0FFFF7950D96EDA6ADECF80F0AA
:10192000DECF81F0DECF82F0DECF83F00001805188
:10193000755C846F81517658856F82517758866FB8
:1019400083517858876F875186110CE15E0E845D54
:10195000010E8559D8A0AFEF0CF0B2EF0CF0FFFFED
:10196000D6EF0DF0FFFF7950D96EDA6A75C0DEFF51
:1019700076C0DEFF77C0DEFF78C0DEFF270E126E76
:101980000F0E116E31EC1BF011C07EF012C07FF013
:1019900073C056F07EC057F07FC058F0596A5A6A3B
:1019A000010E5B6E000E5C6EE2EC1BF07D6ED6EFFE
:1019B0000DF0FFFF7950D96EDA6ADECF80F0DECF0E
:1019C00081F0DECF82F0DECF83F000018051755CC4
:1019D000846F81517658856F82517758866F835115
:1019E0007858876F875186110CE1C20E845D010E15
:1019F0008559D8A0FEEF0CF001EF0DF0FFFFD6EFF8
:101A00000DF0FFFF7950D96EDA6A75C0DEFF76C03F
:101A1000DEFF77C0DEFF78C0DEFF270E126E0F0EEE
:101A2000116E31EC1BF011C07EF012C07FF073C05C
:101A300066F07EC067F07FC068F0696A6A6A020E6D
:101A40006B6E010E6C6E000E6D6E92EC1BF07D6E77
:101A5000D6EF0DF0FFFF7950D96EDA6ADECF80F055
:101A6000DECF81F0DECF82F0DECF83F00001805147
:101A7000755C846F81517658856F82517758866F77
:101A800083517858876F875186110CE1C20E845DAF
:101A9000010E8559D8A04FEF0DF052EF0DF0FFFF6A
:101AA000D6EF0DF0FFFF7950D96EDA6A75C0DEFF10
:101AB00076C0DEFF77C0DEFF78C0DEFF73C00DF0BA
:101AC0002DEC1CF07A50D96EDA6ADF2A7A50D96E82
:101AD000DA6A030EDF646FEF0DF072EF0DF0FFFFB7
:101AE00077EF0DF0FFFF7A50D96EDA6ADF6AFFFFF9
:101AF00073C007F07A50D96EDA6ADF50086E010EB3
:101B0000096E4DEC16F0D6EF0DF0FFFF7950D96E4F
:101B1000DA6ADECF80F0DECF81F0DECF82F0DECF7A
:101B200083F000018051755C846F81517658856F18
:101B300082517758866F83517858876F8751861105
:101B400085110AE1230E845DD8A0A9EF0DF0ACEF5A
:101B50000DF0FFFFD6EF0DF0FFFF7950D96EDA6A76
:101B600075C0DEFF76C0DEFF77C0DEFF78C0DEFF27
:101B700073C003F07BC004F07CC005F081EC17F06B
:101B8000D6EF0DF0FFFF7450000AD8B48AEF0CF0C6
:101B9000010AD8B4D9EF0CF0080AD8B42AEF0DF036
:101BA000030AD8B485EF0DF0D6EF0DF0FFFF7D509E
:101BB0001200FFFFFFFF1250D8B4E1EF0DF0E4EF89
:101BC0000DF0FFFF0CEF0FF0FFFF1250D96EDA6A35
:101BD000340ED926DF50D8A4F0EF0DF0F3EF0DF05E
:101BE000FFFFF6EF0DF0FFFF0CEF0FF0FFFF12C04D
:101BF00001F015EC1CF00009D8A401EF0EF004EF81
:101C00000EF0FFFF07EF0EF0FFFF0CEF0FF0FFFFEE
:101C10001250D96EDA6A350ED926DF50196E12507D
:101C2000D96EDA6A2A0ED926DE50195CD8A01BEFCD
:101C30000EF01EEF0EF0FFFF20EF0EF0FFFF196A0F
:101C4000FFFF12C00FF003EC1BF012C00DF0000EEE
:101C50000E6E000E0F6E13EC13F01250D96EDA6A8E
:101C6000370ED926620EDF6438EF0EF03BEF0EF030
:101C7000FFFF44EF0EF0FFFF1250D96EDA6A370E05
:101C8000D926DF6A4BEF0EF0FFFF1250D96EDA6AE9
:101C9000370ED926DF2AFFFF19C013F0010E146E8C
:101CA000000E156E132A59EF0EF0FFFFD890143670
:101CB0001536FFFF132E55EF0EF014C016F015C0A9
:101CC00017F01250D96EDA6A360ED926DF50D8B422
:101CD0006CEF0EF06FEF0EF0FFFFF1EF0EF0FFFF75
:101CE0001250D96EDA6A360ED9261250E16EE26AC7
:101CF000370EE126DE50E65CD8B081EF0EF084EFBF
:101D00000EF0FFFFF1EF0EF0FFFF1250D96EDA6A0E
:101D1000490ED926DF50D8B490EF0EF093EF0EF0B5
:101D2000FFFFBAEF0EF0FFFF1250D96EDA6A4A0ECB
:101D3000D926DF50D8A49FEF0EF0A2EF0EF0FFFFE0
:101D4000BAEF0EF0FFFF1250D96EDA6A410ED926B3
:101D5000DECF13F0DDCF14F0165013161750141603
:101D600013501410D8A4B7EF0EF0BAEF0EF0FFFF27
:101D7000F1EF0EF0FFFF19C013F01250D96EDA6ABE
:101D8000400ED926DF50146E132ACAEF0EF0FFFF63
:101D9000D8901432FFFF132EC7EF0EF014B0D3EF1C
:101DA0000EF0D7EF0EF0FFFF010ED9EF0EF0FFFFA0
:101DB000000EFFFF186E12C00DF012501924D96EDC
:101DC000DA6A380ED926DF500E6E18C00FF013EC09
:101DD00013F012C007F019C008F0010E096EE2EC12
:101DE00013F0FFFF192A1250D96EDA6A2A0ED9268B
:101DF000DE50195CD8A0FFEF0EF002EF0FF0FFFFEE
:101E000004EF0FF0FFFF196AFFFF1250D96EDA6A74
:101E1000350ED92619C0DFFFFFFF1200FFFFFFFFBD
:101E20003F50D8B416EF0FF019EF0FF0FFFF23EF7C
:101E30000FF0FFFF4550D8A420EF0FF023EF0FF075
:101E4000FFFF27EF0FF0FFFF010E3FEF10F0FFFF46
:101E50004450D8B42EEF0FF031EF0FF0FFFF43EFF7
:101E60000FF0FFFF3F50D96EDA6A280ED926DF50F7
:101E7000D8A43DEF0FF040EF0FF0FFFF43EF0FF05E
:101E8000FFFF23EF0FF0FFFF3FC001F04550D96E79
:101E9000DA6ADF50026E4550D96EDA6A010ED92631
:101EA000DF50036ED9EC17F0636E6350D8B45BEF6C
:101EB0000FF05EEF0FF0FFFF63EF0FF0FFFFFFFF8C
:101EC00063503FEF10F0FFFF40C013F041C014F02B
:101ED00042C015F043C016F044C017F045C018F0DA
:101EE000500E196E580E1A6E640E1B6E39EC03F00C
:101EF000636E6350D8B47FEF0FF082EF0FF0FFFFF7
:101F000085EF0FF0FFFF5FEF0FF0FFFF656A97EFC0
:101F10000FF0FFFF3F506524D96EDA6A380ED926DC
:101F20006550480FE16EE26ADFCFE7FF652AFFFFE9
:101F30003F50D96EDA6A2A0ED926DE50655CD8A0E9
:101F4000A4EF0FF0A7EF0FF0FFFF89EF0FF0FFFFF7
:101F50003F50D96EDA6A400ED926DF50626E656A4C
:101F600003EF10F0FFFF4550D96EDA6ADF506524A9
:101F7000616E61C046F0010E476E462AC3EF0FF056
:101F8000FFFFD8904736FFFF462EC0EF0FF04750B7
:101F9000FF0A6214626E6550580FD96EDA6ADF501C
:101FA000D8B4D5EF0FF0D8EF0FF0FFFFECEF0FF044
:101FB000FFFF3FC001F06550500FD96EDA6ADF5065
:101FC000026ED6EC15F0466E6150480FD96EDA6A93
:101FD00046C0DFFF01EF10F0FFFF4550D96EDA6A0F
:101FE000040ED926DF50D8B4F8EF0FF0FBEF0FF056
:101FF000FFFF01EF10F0FFFF6150480FD96EDA6A62
:10200000DF6AFFFF652AFFFF4550D96EDA6A010ECD
:10201000D926DE50655CD8A010EF10F013EF10F059
:10202000FFFFB2EF0FF0FFFF6428D8B41AEF10F0F3
:102030001DEF10F0FFFF35EF10F0FFFF4550D96E98
:10204000DA6ADF506424606E60C046F0010E476EAD
:10205000462A2EEF10F0FFFFD8904736FFFF462E9E
:102060002BEF10F047506210626EFFFF3FC001F08F
:10207000480E026E62C003F031EC18F0000EFFFF54
:102080001200FFFFFFFF0001966B9D6B640E976FC0
:10209000FB0E986F000E996F000E9A6F000E9B6FEB
:1020A000000E9C6F000E8C6F000E8D6F000E8E6FF9
:1020B000000E8F6F000E926F000E936F000E946FE4
:1020C000000E956FF29EF29C070EC16E96989BECE7
:1020D0001CF08D908C6A8B808B828B848B86956AAA
:1020E00094909492949494969E0E126E290E136E70
:1020F0000BEC06F00001906F9051D8A482EF10F025
:1021000085EF10F0FFFF88EF10F0FFFF83EC1CF06D
:10211000FFFF9E0E016E640E026E9BEC1AF09E0E87
:10212000736E000E746E9D0E756E970E766E980E21
:10213000776E96EC0AF00001916F9151D8B4A3EF3D
:1021400010F0A6EF10F0FFFFA9EF10F0FFFF83ECF7
:102150001CF0FFFF9E0E1B6E94EC1CF0026A010E39
:10216000016E75EC1BF0010E00019927000E9A23F9
:102170009B239C239E0E146E99C015F09AC016F0F6
:102180009BC017F09CC018F0B1EC19F09E0E736E56
:1021900096C074F099C075F09AC076F09BC077F045
:1021A0009CC078F0920E796E9D0E7A6E970E7B6EC3
:1021B000980E7C6E86EC0CF00001916F9151D8B4B2
:1021C000E4EF10F0E7EF10F0FFFFEAEF10F0FFFF91
:1021D00083EC1CF0FFFF00018C51995D886F8D51DD
:1021E0009A59896F8E519B598A6F8F519C598B6F69
:1021F0008B518A110CE1B80E885D0B0E8959D8A05D
:1022000004EF11F007EF11F0FFFFA9EF10F0FFFF4F
:1022100099C08CF09AC08DF09BC08EF09CC08FF05E
:1022200099C092F09AC093F09BC094F09CC095F036
:10223000962B0D0E96651FEF11F022EF11F0FFFFA8
:1022400024EF11F0FFFF966BFFFF9E0E736E96C09A
:1022500074F09D0E756E970E766E980E776E96ECF6
:102260000AF00001916F9151D8B439EF11F03CEFB1
:1022700011F0FFFF3FEF11F0FFFF83EC1CF0FFFFB9
:102280008D72A9EF10F0FEEF1FF0FFFF3150D8B4B0
:102290004CEF11F04FEF11F0FFFF59EF11F0FFFF7E
:1022A0003650D8A456EF11F059EF11F0FFFF5DEF53
:1022B00011F0FFFF010E35EF12F0FFFF31C001F00A
:1022C0003650D96EDA6ADF50026E3650D96EDA6A4D
:1022D000010ED926DF50036ED9EC17F0546E54501E
:1022E000D8B475EF11F078EF11F0FFFF7DEF11F02A
:1022F000FFFFFFFF545035EF12F0FFFF32C013F025
:1023000033C014F034C015F035C016F036C017F0E5
:10231000410E186E490E196E9EEC08F0546E545022
:10232000D8B495EF11F098EF11F0FFFF9BEF11F08B
:10233000FFFF79EF11F0FFFF556AADEF11F0FFFFDE
:1023400031505524D96EDA6A380ED9265550390FD6
:10235000E16EE26ADFCFE7FF552AFFFF3150D96E09
:10236000DA6A2A0ED926DE50555CD8A0BAEF11F0F1
:10237000BDEF11F0FFFF9FEF11F0FFFF3150D96E5D
:10238000DA6A400ED926DF50526E556A1BEF12F002
:10239000FFFF3650D96EDA6ADF505524536E555020
:1023A000490FD96EDA6ADF50D8B4D9EF11F0DCEFFB
:1023B00011F0FFFFF2EF11F0FFFF5550410FD96E02
:1023C000DA6ADF50516E31C001F051C002F0D6EC34
:1023D00015F0376E5350390FD96EDA6A37C0DFFF08
:1023E00019EF12F0FFFF3650D96EDA6A040ED926C3
:1023F000DF50D8B4FEEF11F001EF12F0FFFF19EF3C
:1024000012F0FFFF5350390FD96EDA6ADF6A53C0FA
:1024100037F0010E386E372A11EF12F0FFFFD89017
:102420003836FFFF372E0EEF12F03850FF0A5214E5
:10243000526EFFFF552AFFFF3650D96EDA6A010E41
:10244000D926DE50555CD8A028EF12F02BEF12F001
:10245000FFFFC8EF11F0FFFF31C001F0390E026E2F
:1024600052C003F031EC18F0000EFFFF1200FFFF26
:10247000FFFF0150D8B43FEF12F042EF12F0FFFF20
:1024800010EF13F0FFFF0150D96EDA6A340ED9262F
:10249000DF50D8A44EEF12F051EF12F0FFFF54EFCF
:1024A00012F0FFFF10EF13F0FFFF0150D96EDA6A50
:1024B000490ED926DF50D8B460EF12F063EF12F066
:1024C000FFFF73EF12F0FFFF0150D96EDA6A410E81
:1024D000D926DE50DE10D8A470EF12F073EF12F0A0
:1024E000FFFF8AEF12F0FFFF0150D96EDA6A4A0E41
:1024F000D926010EDF6E0150D96EDA6A450ED92653
:1025000002C0DEFF03C0DEFF04C0DEFF05C0DEFF49
:1025100010EF13F0FFFF0150D96EDA6A430ED9268F
:10252000DECF12F0DDCF13F012501310D8A49BEFC2
:1025300012F09EEF12F0FFFFA3EF12F0FFFF010E6B
:10254000136EF40E126EFFFFD8901330066E123029
:10255000126E06C013F012501310D8A4B2EF12F08E
:10256000B5EF12F0FFFFE0EF12F0FFFF136A010E6C
:10257000126EE0EF12F0FFFF0150D96EDA6A450EDD
:10258000D9261250DE261350DE22000EDE22DE2275
:102590000150D96EDA6A4A0ED9260150E16EE26A1C
:1025A0004A0EE126E750D8B4D8EF12F0DCEF12F073
:1025B000FFFF010EDEEF12F0FFFF000EFFFFDF6EE8
:1025C000FFFF1250066E1350076E086A096A015029
:1025D000D96EDA6A450ED926DECF0AF0DECF0BF0CF
:1025E000DECF0CF0DECF0DF00A50025C0E6E0B5009
:1025F00003580F6E0C500458106E0D500558116E94
:1026000006500E5C07500F580850105809501158CA
:10261000D8B00DEF13F010EF13F0FFFFBBEF12F087
:10262000FFFF1200FFFFFFFF0DC007F00EB01BEF12
:1026300013F01FEF13F0FFFF010E21EF13F0FFFF68
:10264000000EFFFF086E0D50D96EDA6A2F0ED926E4
:10265000DF50096E5FEC15F00D50050F076E0EB2DE
:1026600034EF13F038EF13F0FFFF010E3AEF13F0E1
:10267000FFFF000EFFFF086E0D50D96EDA6A2F0EB5
:10268000D926DF50096E5FEC15F00D500A0F076E6A
:102690000EB44DEF13F051EF13F0FFFF010E53EFA7
:1026A00013F0FFFF000EFFFF086E0D50D96EDA6ABF
:1026B0002F0ED926DF50096E5FEC15F00D500F0F6D
:1026C000076E0EB666EF13F06AEF13F0FFFF010E10
:1026D0006CEF13F0FFFF000EFFFF086E0D50D96E78
:1026E000DA6A2F0ED926DF50096E5FEC15F00D5017
:1026F000140F076E0EB87FEF13F083EF13F0FFFF98
:10270000010E85EF13F0FFFF000EFFFF086E0D5066
:10271000D96EDA6A2F0ED926DF50096E5FEC15F0FC
:102720000D50190F076E0EBA98EF13F09CEF13F0CF
:10273000FFFF010E9EEF13F0FFFF000EFFFF086E7C
:102740000D50D96EDA6A2F0ED926DF50096E5FEC74
:1027500015F00D501E0F076E0EBCB1EF13F0B5EF64
:1027600013F0FFFF010EB7EF13F0FFFF000EFFFFA6
:10277000086E0D50D96EDA6A2F0ED926DF50096E19
:102780005FEC15F00D50D96EDA6A280ED926DF50AD
:10279000D8B4CDEF13F0D0EF13F0FFFFDFEF13F05D
:1027A000FFFF0D50230F076E0FC008F00D50D96EBC
:1027B000DA6A2F0ED926DF50096E5FEC15F0FFFFA5
:1027C0001200FFFFFFFF0750D8B4E9EF13F0ECEF62
:1027D00013F0FFFFA2EF14F0FFFF0750D96EDA6A83
:1027E000290ED926DF50D8B4F8EF13F0FBEF13F021
:1027F000FFFFA2EF14F0FFFF0750D96EDA6A2A0E2E
:10280000D926DE50085CD8A008EF14F00BEF14F0C6
:10281000FFFF0EEF14F0FFFFA2EF14F0FFFF0950CF
:10282000D8A415EF14F018EF14F0FFFF2FEF14F0F9
:10283000FFFF0750D96EDA6A2B0ED926DF50D8B4C5
:1028400024EF14F028EF14F0FFFF010E2AEF14F02C
:10285000FFFF000EFFFF0C6E0D6A3AEF14F0FFFF52
:102860000750D96EDA6A2B0ED926DF500A6E0A504D
:102870000C6E0D6AFFFF0CC00EF00E50D8B443EF83
:1028800014F046EF14F0FFFF75EF14F0FFFF08504F
:10289000050D0750D96EDA6A290ED926DF50F324C8
:1028A0000A6E0AC0F6FF060EF76E0900FFFFF5CFAD
:1028B00001F00A00FFFFF5CF02F00850050D0750A8
:1028C000D96EDA6A290ED926DF50F3240B6E040E76
:1028D0000B260BC0F6FF060EF76E0800FFFFF5CFC4
:1028E00003F05CEC1CF0A2EF14F0FFFF0850050DA4
:1028F0000750D96EDA6A290ED926DF50F3240A6E02
:102900000AC0F6FF060EF76E0900FFFFF5CF01F0D3
:102910000A00FFFFF5CF02F00850050D0750D96EF1
:10292000DA6A290ED926DF50F3240B6E040E0B262B
:102930000BC0F6FF060EF76E0800FFFFF5CF03F0A1
:10294000AEEC1BF0FFFF1200FFFFFFFF0150D8B4F9
:10295000ACEF14F0AFEF14F0FFFFCEEF14F0FFFF79
:102960000150D96EDA6A310ED926DF50D8B4BBEFE8
:1029700014F0BEEF14F0FFFFCEEF14F0FFFF015094
:10298000D96EDA6A320ED926DE50DE10D8A4CBEF2B
:1029900014F0CEEF14F0FFFFFDEF14F0FFFF015035
:1029A000D8B4D5EF14F0D8EF14F0FFFFF9EF14F01E
:1029B000FFFF0150D96EDA6A310ED926DF50D8A454
:1029C000E4EF14F0E7EF14F0FFFFF1EF14F0FFFF76
:1029D0000150D96EDA6A5C0ED926020EDF6EF9EF6D
:1029E00014F0FFFF0150D96EDA6A5C0ED926030E8F
:1029F000DF6EFFFF000E5CEF15F0FFFF056A000EB3
:102A0000046E076A000E066E38EF15F0FFFF0150E6
:102A1000D96EDA6A5C0ED926040EDF6EF9EF14F077
:102A2000FFFF0150D96EDA6A5C0ED926040EDF6E04
:102A3000F9EF14F0FFFF0150D96EDA6A5C0ED92667
:102A4000040EDF6EF9EF14F0FFFF0150D96EDA6A61
:102A50005C0ED926040EDF6EF9EF14F0FFFF015073
:102A6000D96EDA6A5C0ED926040EDF6EF9EF14F027
:102A7000FFFF0150D96EDA6A310ED926DF50026E9F
:102A8000036A0350000AD8B448EF15F02EEF15F092
:102A9000FFFF0250010AD8B406EF15F0030AD8B4BC
:102AA00010EF15F0010AD8B41AEF15F0070AD8B4E0
:102AB00024EF15F02EEF15F0FFFF1200FFFFFFFFD0
:102AC0000750D8B466EF15F069EF15F0FFFFD3EFAC
:102AD00015F0FFFF0750D96EDA6ADE50DE10D8B469
:102AE00074EF15F077EF15F0FFFFD3EF15F0FFFF50
:102AF0000750D96EDA6A020ED926DE50DE10D8A44D
:102B000084EF15F087EF15F0FFFF8AEF15F0FFFF58
:102B1000D3EF15F0FFFF08C00CF00904D8A493EF21
:102B200015F096EF15F0FFFFA5EF15F0FFFF085029
:102B3000D8B49DEF15F0A1EF15F0FFFF010EA3EF44
:102B400015F0FFFF000EFFFF0C6EFFFF0C50D8B416
:102B5000ACEF15F0AFEF15F0FFFFC2EF15F0FFFF80
:102B60000750D96EDA6ADECF01F0DDCF02F00750F0
:102B7000D96EDA6A040ED926DF50036E5CEC1CF0C5
:102B8000D3EF15F0FFFF0750D96EDA6ADECF01F000
:102B9000DDCF02F00750D96EDA6A040ED926DF5075
:102BA000036EAEEC1BF0FFFF1200FFFFFFFF0A0EEB
:102BB0000260DDEF15F0E0EF15F0FFFFEDEF15F02F
:102BC000FFFF0250110F036E03C0F6FF060EF76EF3
:102BD0000800FFFFF5504AEF16F0FFFFFE0E021847
:102BE000D8A4F5EF15F0F8EF15F0FFFFFCEF15F0A6
:102BF000FFFF400E4AEF16F0FFFF0228D8A403EFB4
:102C000016F006EF16F0FFFF0BEF16F0FFFFFFFFC9
:102C1000000E4AEF16F0FFFF090E026412EF16F0E5
:102C200015EF16F0FFFF07EF16F0FFFF0150D96E0A
:102C3000DA6A2C0ED926DE50DE10D8B422EF16F058
:102C400025EF16F0FFFF07EF16F0FFFF0250F60F1B
:102C5000056E0150D96EDA6A2E0ED926DE50055C5B
:102C6000D8B035EF16F038EF16F0FFFF07EF16F08B
:102C7000FFFF0150D96EDA6A2C0ED926DECF03F0A1
:102C8000DDCF04F005500324D96E000E0420DA6E67
:102C9000DF507F0BFFFF1200FFFFFFFF0750D8B48C
:102CA00054EF16F057EF16F0FFFFBBEF16F0FFFFE3
:102CB0000750D96EDA6A340ED926DF50D8B463EFE4
:102CC00016F066EF16F0FFFFBBEF16F0FFFF0750A0
:102CD000D96EDA6A2A0ED926DE50085CD8A073EFC6
:102CE00016F076EF16F0FFFF79EF16F0FFFFBBEF5F
:102CF00016F0FFFF0750D96EDA6A400ED926DF5072
:102D00000C6E0950D8B487EF16F08AEF16F0FFFF6B
:102D10009EEF16F0FFFF08C00AF0010E0B6E0A2AA4
:102D200095EF16F0FFFFD8900B36FFFF0A2E92EFBB
:102D300016F00B500C100C6EB1EF16F0FFFF08C030
:102D40000AF0010E0B6E0A2AA9EF16F0FFFFD890C9
:102D50000B36FFFF0A2EA6EF16F00B50FF0A0C14DD
:102D60000C6EFFFF07C001F00750380F026E0CC059
:102D700003F031EC18F0FFFF1200FFFFFFFF0150DE
:102D8000D8A4C5EF16F0C8EF16F0FFFFCBEF16F092
:102D9000FFFF1FEF17F0FFFF0150D96EDA6A310E07
:102DA000D926DF50026E036A0350000AD8B4DBEF65
:102DB00016F0EFEF16F0FFFF0250010AD8B4EFEF64
:102DC00016F0030AD8B4EFEF16F0010AD8B4EFEF0B
:102DD00016F0070AD8B4EFEF16F0EFEF16F0FFFF8A
:102DE0000150D96EDA6A4B0ED926DF6A0150D96ECE
:102DF000DA6A4C0ED926DE6ADD6A0150D96EDA6ACB
:102E00004E0ED926DE6ADD6A0150D96EDA6A500E9E
:102E1000D926DE6ADE6ADE6ADD6A0150D96EDA6AB8
:102E2000540ED926DE6ADE6ADE6ADD6A0150D96E8A
:102E3000DA6A580ED926DE6ADE6ADE6ADD6AFFFFCC
:102E40001200FFFFFFFF000E096E000E0A6E000E5B
:102E50000B6E000E0C6E0550061007100810D8B44B
:102E600034EF17F037EF17F0FFFF76EF17F0FFFFA3
:102E7000010E0D6E43EF17F0FFFFD89005360636B2
:102E8000073608360D2AFFFF08AE49EF17F04CEF62
:102E900017F0FFFF3CEF17F0FFFFFFFFD890093658
:102EA0000A360B360C360550015C065002580750A6
:102EB000035808500458D8A060EF17F063EF17F0DC
:102EC000FFFF6DEF17F0FFFF0550015E0650025A3D
:102ED0000750035A0850045A0980FFFFD89008325F
:102EE0000732063205320D2E4DEF17F0FFFF09C0F5
:102EF00001F00AC002F00BC003F00CC004F0120095
:102F0000FFFFFFFF0550D96EDA6ADF50066E0450EE
:102F1000D96EDA6ADF50076E07500624086EE86A39
:102F2000D8B0E82A06BEE806096E09BEA1EF17F080
:102F300009500AE1640E085CD8A0A1EF17F0A4EFD5
:102F400017F0FFFFAFEF17F0FFFF096A640E086E7E
:102F50000550D96EDA6AFB0EDF6EC8EF17F0FFFF7F
:102F600009BEBFEF17F0095007E10B0E085CD8B09F
:102F7000BCEF17F0BFEF17F0FFFFC8EF17F0FFFF30
:102F8000096A0A0E086E0550D96EDA6A050EDF6E00
:102F9000FFFF0450D96EDA6A08C0DFFF03C001F0FA
:102FA0000450D96EDA6ADF50026E9BEC1AF0120000
:102FB000FFFFFFFF0150D8B4E0EF17F0E3EF17F089
:102FC000FFFF28EF18F0FFFF0150D96EDA6A340EC8
:102FD000D926DF50D8B4EFEF17F0F2EF17F0FFFF6C
:102FE00028EF18F0FFFF0350D8B4F9EF17F0FCEF0B
:102FF00017F0FFFF28EF18F0FFFF0150D96EDA6AD3
:103000002A0ED926DE50025CD8B009EF18F00CEF7A
:1030100018F0FFFF28EF18F0FFFF035002C004F084
:10302000056A0426000E05220150D96EDA6A2A0EBE
:10303000D926DF50066E076A0450065C0550075813
:10304000D8B025EF18F028EF18F0FFFF2CEF18F09C
:10305000FFFF010E2EEF18F0FFFF000EFFFF120022
:10306000FFFFFFFF0150D8B438EF18F03BEF18F026
:10307000FFFF82EF18F0FFFF0250D8A442EF18F0D4
:1030800045EF18F0FFFF48EF18F0FFFF82EF18F050
:10309000FFFF000EF2BE010E056EF29E066A5FEFA4
:1030A00018F0FFFF02500624D96EDA6A0150062498
:1030B000E16EE26A380EE126DFCFE7FF062AFFFF66
:1030C0000150D96EDA6A2A0ED926DE50065CD8A0E5
:1030D0006CEF18F06FEF18F0FFFF51EF18F0FFFFE3
:1030E0000150D96EDA6A400ED92603C0DFFF0550C1
:1030F000D8B47DEF18F080EF18F0FFFF82EF18F0E2
:10310000FFFFF28EFFFF1200FFFFFFFF05500610CA
:1031100007100810D8B48FEF18F092EF18F0FFFFE7
:10312000CBEF18F0FFFF010E096E9EEF18F0FFFFC6
:10313000D8900536063607360836092AFFFF08AE4E
:10314000A4EF18F0A7EF18F0FFFF97EF18F0FFFFBC
:10315000FFFF0550015C0650025807500358085005
:103160000458D8A0B6EF18F0B9EF18F0FFFFC2EF7F
:1031700018F0FFFF0550015E0650025A0750035A2F
:103180000850045AFFFFD890083207320632053241
:10319000092EA8EF18F0FFFF01C001F002C002F0F5
:1031A00003C003F004C004F01200FFFFFFFF086A31
:1031B000000E076E0150D8A4E0EF18F0E3EF18F00E
:1031C000FFFFE9EF18F0FFFF026A000E016E1DEF2E
:1031D00019F0FFFF096A06EF19F0FFFF09C004F0BC
:1031E000010E056E000E066E042AFBEF18F0FFFFBD
:1031F000D89005360636FFFF042EF7EF18F007507B
:103200000510076E08500610086E092AFFFF0150CE
:10321000D96EDA6A2A0ED926DE50095CD8A013EFDF
:1032200019F016EF19F0FFFFEDEF18F0FFFF075050
:103230000214016E08500314026EFFFF1200FFFF1C
:10324000FFFF0150D8B427EF19F02AEF19F0FFFF64
:1032500066EF19F0FFFF0150D96EDA6A340ED926F5
:10326000DF50D8A436EF19F039EF19F0FFFF3CEF2B
:1032700019F0FFFF66EF19F0FFFF0150D96EDA6A0F
:10328000490ED9260250D8A448EF19F04CEF19F096
:10329000FFFF010E4EEF19F0FFFF000EFFFFDF6E84
:1032A0000150D96EDA6A490ED926DF50D8A45BEFF7
:1032B00019F05EEF19F0FFFF66EF19F0FFFF015004
:1032C000D96EDA6A4A0ED926010EDF6EFFFF1200B0
:1032D000FFFFFFFF0A50D8B470EF19F073EF19F039
:1032E000FFFFAEEF19F0FFFF0A50D96EDA6A340E15
:1032F000D926DF50D8A47FEF19F082EF19F0FFFF35
:1033000085EF19F0FFFFAEEF19F0FFFF0AC001F0E3
:103310000BC002F00CC003F0D6EC18F00A50D96EC6
:10332000DA6A410ED92601C0DEFF02C0DDFF0A5075
:10333000D96EDA6A410ED926DE50DE10D8A4A3EF8A
:1033400019F0A6EF19F0FFFFAEEF19F0FFFF0A50DA
:10335000D96EDA6A4A0ED926010EDF6EFFFF12001F
:10336000FFFFFFFF1450D8B4B8EF19F0BBEF19F00E
:10337000FFFFECEF19F0FFFF1450D96EDA6A340E3C
:10338000D926DF50D8A4C7EF19F0CAEF19F0FFFF14
:10339000CDEF19F0FFFFECEF19F0FFFF1450D96EDD
:1033A000DA6A4B0ED926DF50D8B4D9EF19F0DCEF2A
:1033B00019F0FFFFDFEF19F0FFFFECEF19F0FFFF4F
:1033C00014C001F015C002F016C003F017C004F0DD
:1033D00018C005F038EC12F0FFFF1200FFFFFFFFEE
:1033E000000E0D6E000E0E6E000E0F6E000E106EB3
:1033F000FFFF05A0FEEF19F001EF1AF0FFFF0AEF43
:103400001AF0FFFF09500D260A500E220B500F2212
:103410000C501022FFFFD89009360A360B360C36B6
:10342000D8900832073206320532055006100710D0
:103430000810D8A41EEF1AF021EF1AF0FFFFF8EFE2
:1034400019F0FFFF0DC005F00EC006F00FC007F029
:1034500010C008F01200FFFFFFFF0150D8B433EF97
:103460001AF036EF1AF0FFFF62EF1AF0FFFF01507B
:10347000D96EDA6A340ED926DF50D8A442EF1AF09A
:1034800045EF1AF0FFFF48EF1AF0FFFF62EF1AF066
:10349000FFFF02500310D8A450EF1AF053EF1AF0B8
:1034A000FFFF58EF1AF0FFFF010E036EF40E026EDD
:1034B000FFFF0150D96EDA6A430ED92602C0DEFF43
:1034C00003C0DDFFFFFF1200FFFFFFFF1A50D8B45B
:1034D0006CEF1AF06FEF1AF0FFFF98EF1AF0FFFF92
:1034E0001A50D96EDA6A340ED926DF50D8A47BEF91
:1034F0001AF07EEF1AF0FFFF81EF1AF0FFFF98EF4E
:103500001AF0FFFF1A50D96EDA6A4B0ED926DF5037
:10351000D8B48DEF1AF090EF1AF0FFFF93EF1AF086
:10352000FFFF98EF1AF0FFFF1AC012F0DAEC0DF06F
:10353000FFFF1200FFFFFFFF0150D8B4A2EF1AF007
:10354000A5EF1AF0FFFFCCEF1AF0FFFF0150D96E84
:10355000DA6A340ED926DF50D8A4B1EF1AF0B4EFEE
:103560001AF0FFFFB7EF1AF0FFFFCCEF1AF0FFFFE2
:10357000640E0264BEEF1AF0C1EF1AF0FFFFC4EF51
:103580001AF0FFFF640E026EFFFF0150D96EDA6A77
:10359000360ED92602C0DFFFFFFF1200FFFFFFFF3C
:1035A000010E126EF0EF1AF0FFFF0EC001F00FC017
:1035B00002F010C003F011C004F00A0E056E000EF8
:1035C000066E000E076E000E086E22EC17F001C0AA
:1035D0000EF002C00FF003C010F004C011F0122A68
:1035E000FFFF115010100F1007E10A0E0E5CD8B04B
:1035F000FCEF1AF0FFEF1AF0FFFFD4EF1AF0FFFF15
:1036000012501200FFFFFFFF0F50D8A40AEF1BF06B
:103610000DEF1BF0FFFF10EF1BF0FFFF2EEF1BF075
:10362000FFFF116A1EEF1BF0FFFF0FC007F011C074
:1036300008F0000E096EE2EC13F0112AFFFF0F50A4
:10364000D96EDA6A2A0ED926DE50115CD8A02BEF8B
:103650001BF02EEF1BF0FFFF14EF1BF0FFFF12001B
:10366000FFFFFFFF56EC1BF001C005F002C006F0A3
:10367000076A086A010E1124136E000E1220146EE0
:1036800013C009F014C00AF00B6A0C6AEFEC19F0D1
:1036900005C015F006C016F007C017F008C018F0F6
:1036A00017C011F018C012F01200FFFFFFFF010E4B
:1036B0000001FB15036E046AD890FC33FB33035002
:1036C0000410D8B466EF1BF069EF1BF0FFFF6EEF3C
:1036D0001BF0FFFF000EFB1BB40EFC1BFFFFFBC02B
:1036E00001F0FCC002F01200FFFFFFFF84EF1BF0AF
:1036F000FFFF030E036E6F0EFFFFE82EFDD7032EB4
:10370000FBD70106D8A00206FFFF01500210D8A483
:103710008CEF1BF08FEF1BF0FFFF78EF1BF0FFFF2C
:103720001200FFFFFFFF6E6A040E6F6E6CC070F038
:103730006DC071F0010E726E66C03FF067C040F060
:1037400068C041F069C042F06AC043F06BC044F009
:103750006E0E456E0FEC0FF01200FFFFFFFF03C06F
:1037600004F0010E056E042AB9EF1BF0FFFFD8909C
:103770000536FFFF042EB6EF1BF00550FF0A066E5C
:1037800001C0D9FF02C0DAFF0650DF161200FFFFAA
:10379000FFFF03C004F0010E056E042AD3EF1BF0F7
:1037A000FFFFD8900536FFFF042ED0EF1BF0055029
:1037B000FF0A066E01C0D9FF02C0DAFF0650DF160D
:1037C0001200FFFFFFFF5D6A040E5E6E5BC05FF0DC
:1037D0005CC060F0010E616E56C031F057C032F02F
:1037E00058C033F059C034F05AC035F05D0E366E13
:1037F00045EC11F01200FFFFFFFF0FC00AF010C0F0
:103800000BF011C00CF069EC19F00FC001F0020EC2
:10381000036E580E026E2CEC1AF00FC001F0010E70
:10382000026E20EC19F01200FFFFFFFF0150D8A438
:103830001CEF1CF01FEF1CF0FFFF23EF1CF0FFFF3D
:10384000000E2AEF1CF0FFFF0150D96EDA6A2A0E33
:10385000D926DF50FFFF1200FFFFFFFF0E6AFFFFB8
:103860000DC007F00EC008F0000E096E4DEC16F00A
:103870000E2A030E0E643FEF1CF042EF1CF0FFFF18
:103880002FEF1CF0FFFF1200FFFF440EF66E390E03
:10389000F76E000EF86E0900F5CFFBF00900F5CFCA
:1038A000FCF001EE00F0100EEE6AE806FDE1000EFD
:1038B000F86E000142EF10F0FFFF03C004F0010EAC
:1038C000056E042A67EF1CF0FFFFD8900536FFFF56
:1038D000042E64EF1CF001C0D9FF02C0DAFF0550CE
:1038E000DF121200FFFFFFFF0FC001F0000E026E9B
:1038F00020EC19F00FC00AF00C6A000E0B6E69EC98
:1039000019F01200FFFFFFFF8CEC1CF08D80FFFF11
:1039100087EF1CF01200FFFFFFFF8B808B828B84F0
:103920008B868C6A1200FFFFFFFF1BC01AF065EC4C
:103930001AF01200FFFFFFFF8D908D9296909692E5
:083940001200FFFFE1ACFFFFE4
:043FFC0045EF1CF081
:020000040030CA
:0E000000FF220F0EFF0181FF0FC00FE00F4027
:00000001FF
