:060000000000FEEF1FF0FE
:10060000003031323334353637383941424344458E
:100610004600493243207363616E206578616D70D6
:100620006C652072656164790049324320646576A7
:1006300069636573203D200020203078000D0A009A
:0106400000B9
:10064200FFFF5050511052105310D8A42BEF03F05B
:100652002EEF03F0FFFF37EF03F0FFFFA00E506E07
:10066200860E516E010E526E000E536EFFFF94867F
:100672009488280EC66EC56A800EC76E000E436E41
:10068200120E446E7A0E456E000E466E50C054F045
:1006920051C055F052C056F053C057F0020EFFFF42
:1006A200D8905436553656365736E82E50EF03F06A
:1006B20054C047F055C048F056C049F057C04AF000
:1006C200EDEC03F0FF0E4324586EFF0E4420596EEA
:1006D200FF0E45205A6EFF0E46205B6E5B505A108D
:1006E20009E15904D8A078EF03F07BEF03F0FFFF94
:1006F20084EF03F0FFFFFF0E586E000E596E000EDE
:100702005A6E000E5B6EFFFF58C0C8FF1200FFFF5B
:10071200FFFF800E506E250E516E000E526E000EBF
:10072200536EA1EC04F0A00E506E860E516E010EB7
:10073200526E000E536E21EC03F0120E446EEEEC7C
:1007420005F03D0E446EEEEC05F0FFFF5C0E476EC9
:10075200080E486EF3EC04F0646E290E446EEEEC63
:1007620005F064C052F0536A16EC06F03F0E446E78
:10077200EEEC05F03D0E446EEEEC05F0656AD7EF47
:1007820003F0FFFF380E446EEEEC05F065505C0F8F
:10079200D96EDA6ADF50C0EC05F03F0E446EEEEC23
:1007A20005F03D0E446EEEEC05F0652AFFFF645045
:1007B200655CD8A0DFEF03F0E2EF03F0FFFFC2EFCA
:1007C20003F0FFFF030E446EE80E436E5CEC06F08E
:1007D200A6EF03F0FEEF1FF0FFFF000E4B6E000EC0
:1007E2004C6E000E4D6E000E4E6E47504810491072
:1007F2004A10D8B4FFEF03F002EF04F0FFFF41EF1D
:1008020004F0FFFF010E4F6E0EEF04F0FFFFD890D1
:100812004736483649364A364F2AFFFF4AAE14EF6A
:1008220004F017EF04F0FFFF07EF04F0FFFFFFFFF4
:10083200D8904B364C364D364E364750435C485076
:100842004458495045584A504658D8A02BEF04F016
:100852002EEF04F0FFFF38EF04F0FFFF4750435E36
:100862004850445A4950455A4A50465A4B80FFFF15
:10087200D8904A324932483247324F2E18EF04F0AC
:10088200FFFF4BC043F04CC044F04DC045F04EC09A
:1008920046F01200FFFFFFFF516A4A504B10D8A4E6
:1008A20055EF04F058EF04F0FFFF7DEF04F0FFFF77
:1008B200300ECFEC06F09EEF04F0FFFF51504C0FCC
:1008C200D96EDA6A4AC043F04BC044F0466A0A0E57
:1008D200456E81EC05F04350300FDF6E512A4AC05D
:1008E20043F04BC044F0466A0A0E456E3BEC05F0FD
:1008F20043C04AF044C04BF0FFFF4A504B10D8A40B
:1009020085EF04F088EF04F0FFFF5EEF04F0FFFFD5
:1009120094EF04F0FFFF510651504C0FD96EDA6A82
:10092200DF50CFEC06F0FFFF5150D8A49BEF04F04C
:100932009EEF04F0FFFF8BEF04F0FFFF1200FFFFBA
:10094200FFFF5050511052105310D8A4ABEF04F0D7
:10095200AEEF04F0FFFFB7EF04F0FFFF800E506E22
:10096200250E516E000E526E000E536EFFFFAC98B4
:10097200AC84000E436E120E446E7A0E456E000E6B
:10098200466E50C054F051C055F052C056F053C09C
:1009920057F0040EFFFFD890543655365636573668
:1009A200E82ECBEF04F054C047F055C048F056C0D3
:1009B20049F057C04AF0EDEC03F0FF0E4324586EA5
:1009C200FF0E4420596EFF0E45205A6EFF0E462040
:1009D2005B6E58C0AFFFAB8EAC8AAB88426A416A8D
:1009E2001200FFFFFFFF4A6A080E496EFFFF4950DF
:1009F20095EC06F00009D8B401EF05F004EF05F01C
:100A0200FFFF2CEF05F0FFFF4750D8B40BEF05F0C6
:100A12000EEF05F0FFFF20EF05F0FFFF48504A5CA4
:100A2200D8B016EF05F019EF05F0FFFF20EF05F043
:100A3200FFFF47504A24D96EDA6A49C0DFFFFFFF41
:100A42004A28D8B427EF05F02AEF05F0FFFF2CEF74
:100A520005F0FFFF4A2AFFFF492A770E496434EF67
:100A620005F037EF05F0FFFFF7EF04F0FFFF4A5004
:100A72001200FFFFFFFF486A000E476E4550461006
:100A8200D8B446EF05F049EF05F0FFFF7AEF05F025
:100A9200FFFF010E496E53EF05F0FFFFD890453678
:100AA2004636492AFFFF46AE59EF05F05CEF05F0E6
:100AB200FFFF4EEF05F0FFFFFFFFD89047364836A5
:100AC2004550435C46504458D8A06AEF05F06DEF9C
:100AD20005F0FFFF73EF05F0FFFF4550435E465000
:100AE200445A4780FFFFD89046324532492E5DEF87
:100AF20005F0FFFF47C043F048C044F01200FFFF7B
:100B0200FFFF45504610D8B489EF05F08CEF05F091
:100B1200FFFFB9EF05F0FFFF010E476E96EF05F0FC
:100B2200FFFFD89045364636472AFFFF46AE9CEF78
:100B320005F09FEF05F0FFFF91EF05F0FFFFFFFFCC
:100B42004550435C46504458D8A0AAEF05F0ADEF9B
:100B520005F0FFFFB2EF05F0FFFF4550435E465040
:100B6200445AFFFFD89046324532472EA0EF05F097
:100B7200FFFF43C043F044C044F01200FFFFFFFFF9
:100B8200566E010EF66E20EE45F0100E0900FFFFC4
:100B9200F5CFDEFFE806FAE2300ECFEC06F0780E73
:100BA200CFEC06F056C044F0443A0F0E44160F0E36
:100BB20044164450450FD96EDA6ADF50CFEC06F086
:100BC20056C044F00F0E44164450450FD96EDA6AEF
:100BD200DF50CFEC06F01200FFFFFFFF4450D8A415
:100BE200F5EF05F0F8EF05F0FFFF04EF06F0FFFF69
:100BF20013EF06F0FFFF44C0F6FF0800FFFFF550B9
:100C0200CFEC06F0442AFFFF44C0F6FF0800FFFFC6
:100C1200F5500009D8A410EF06F013EF06F0FFFF1D
:100C2200FBEF05F0FFFF1200FFFFFFFF53BE1FEFB8
:100C320006F01CEF06F0FFFF33EF06F0FFFF2D0E6C
:100C4200CFEC06F052C054F053C055F0541E551E5E
:100C5200544A552A54C04AF055C04BF04CEC04F0AB
:100C62003AEF06F0FFFF52C04AF053C04BF04CEC93
:100C720004F0FFFF1200FFFFFFFF446E7AEC06F064
:100C82009E9644C0C9FFFFFF9EA64AEF06F04DEFB5
:100C920006F0FFFF44EF06F0FFFFC5BC53EF06F07E
:100CA20057EF06F0FFFF010E59EF06F0FFFF000EAF
:100CB200FFFF1200FFFFFFFF6CEF06F0FFFF020EC7
:100CC200456EF20EFFFFE82EFDD7452EFBD700D072
:100CD2004306D8A04406FFFF43504410D8A474EF43
:100CE20006F077EF06F0FFFF5FEF06F0FFFF12005E
:100CF200FFFFFFFFFFFFC5CF43F01F0E4316D8A42F
:100D020085EF06F088EF06F0FFFF7BEF06F0FFFFAE
:100D1200FFFFC7B48FEF06F092EF06F0FFFF89EFF7
:100D220006F0FFFF1200FFFFFFFF456EBFEC06F06B
:100D3200455045243DEC06F0466EAFEC06F04650B9
:100D4200D8B4A6EF06F0AAEF06F0FFFF010EACEF53
:100D520006F0FFFF000EFFFF1200FFFFFFFF7AEC1D
:100D620006F0C584FFFFC5B4B9EF06F0BCEF06F08C
:100D7200FFFFB3EF06F0FFFF1200FFFFFFFF7AEC69
:100D820006F0C580FFFFC5B0C9EF06F0CCEF06F054
:100D9200FFFFC3EF06F0FFFF1200FFFFFFFF436EEE
:100DA200FFFF9EA8D7EF06F0DAEF06F0FFFFD1EFC4
:100DB20006F0FFFF43C0ADFF1200FFFF00EE01F09F
:100DC200420EEE6AE806FDE1000EF86E060EF76EC0
:080DD200000189EF03F0FFFFAF
:043FFC00DFEF06F0FD
:020000040030CA
:0E000000FF220F0EFF0181FF0FC00FE00F4027
:00000001FF
