:060000000000FEEF1FF0FE
:10060000003031323334353637383941424344458E
:100610004600BE44CC553344533138423230207208
:10062000656164206578616D706C652072656164D8
:10063000790054656D7020783130203D20000D0A1E
:100640000000FFFF556A53BE2BEF03F028EF03F0C5
:10065000FFFF32EF03F0FFFF526C531ED8B0532A56
:10066000010E556EFFFF51BE3BEF03F038EF03F074
:10067000FFFF42EF03F0FFFF506C511ED8B0512A2C
:10068000010E551AFFFF576A000E566E5250531056
:10069000D8B44DEF03F050EF03F0FFFF81EF03F00C
:1006A000FFFF010E546E5AEF03F0FFFFD890523651
:1006B0005336542AFFFF53AE60EF03F063EF03F0AD
:1006C000FFFF55EF03F0FFFFFFFFD8905636573678
:1006D0005250505C53505158D8A071EF03F074EF52
:1006E00003F0FFFF7AEF03F0FFFF5250505E5350CC
:1006F000515A5680FFFFD89053325232542E64EF35
:1007000003F0FFFF5550D8B488EF03F08BEF03F0F0
:10071000FFFF90EF03F0FFFF566C571ED8B0572A2B
:10072000FFFF56C050F057C051F01200FFFFFFFF0F
:10073000000E586E000E596E000E5A6E000E5B6E63
:100740005450551056105710D8B4A9EF03F0ACEF21
:1007500003F0FFFFEBEF03F0FFFF010E5C6EB8EF5D
:1007600003F0FFFFD89054365536563657365C2A7C
:10077000FFFF57AEBEEF03F0C1EF03F0FFFFB1EF95
:1007800003F0FFFFFFFFD890583659365A365B36D4
:100790005450505C55505158565052585750535819
:1007A000D8A0D5EF03F0D8EF03F0FFFFE2EF03F09E
:1007B000FFFF5450505E5550515A5650525A5750A0
:1007C000535A5880FFFFD890573256325532543220
:1007D0005C2EC2EF03F0FFFF58C050F059C051F03B
:1007E0005AC052F05BC053F01200FFFFFFFF5E5093
:1007F000D8A4FDEF03F000EF04F0FFFF05EF04F0D5
:10080000FFFFFFFF000E50EF04F0FFFFFFEC06F0CC
:100810000009D8A40EEF04F011EF04F0FFFF14EF6D
:1008200004F0FFFF01EF04F0FFFF5CC05AF05DC071
:100830005BF02AEC08F0BE0E5BEC08F0616AFFFF8B
:10084000CCEC07F05F6E5E506124D96EDA6A5FC04F
:10085000DFFF612A080E616430EF04F033EF04F02B
:10086000FFFF1FEF04F0FFFF5EC050F0526A080E5A
:10087000516EFAEC04F05F6E5E50D96EDA6A080EC3
:10088000D926DE505F18D8B448EF04F04BEF04F0DF
:10089000FFFF4EEF04F0FFFF01EF04F0FFFF010E3A
:1008A000FFFF1200FFFFFFFF5E6A57505810D8A4E9
:1008B0005CEF04F05FEF04F0FFFF84EF04F0FFFF54
:1008C000300EB1EC08F0A5EF04F0FFFF5E50590FB9
:1008D000D96EDA6A57C050F058C051F0536A0A0E08
:1008E000526E62EC06F05050300FDF6E5E2A57C039
:1008F00050F058C051F0536A0A0E526EDDEC05F00C
:1009000050C057F051C058F0FFFF57505810D8A4AE
:100910008CEF04F08FEF04F0FFFF65EF04F0FFFFB2
:100920009BEF04F0FFFF5E065E50590FD96EDA6A46
:10093000DF50B1EC08F0FFFF5E50D8A4A2EF04F046
:10094000A5EF04F0FFFF92EF04F0FFFF1200FFFF9E
:10095000FFFF5D505E105F106010D8A4B2EF04F08E
:10096000B5EF04F0FFFFBEEF04F0FFFF800E5D6EF9
:10097000250E5E6E000E5F6E000E606EFFFFAC987F
:10098000AC84000E506E120E516E7A0E526E000E36
:10099000536E5DC061F05EC062F05FC063F060C026
:1009A00064F0040EFFFFD890613662366336643619
:1009B000E82ED2EF04F061C054F062C055F063C07D
:1009C00056F064C057F097EC03F0FF0E5024656EAC
:1009D000FF0E5120666EFF0E5220676EFF0E5320F1
:1009E000686E65C0AFFFAB8EAC8AAB884E6A4D6A4D
:1009F0001200FFFFFFFF566A5050D8A402EF05F027
:100A000005EF05F0FFFF09EF05F0FFFF000E47EFD0
:100A100005F0FFFF546A000E536E38EF05F0FFFF3C
:100A200050505324D96EDA6ADF50561A556AFFFFC8
:100A300056A01DEF05F020EF05F0FFFF27EF05F0B2
:100A4000FFFFD89056308C0A566E2AEF05F0FFFF54
:100A5000D8905632FFFF552A070E556432EF05F045
:100A600035EF05F0FFFF17EF05F0FFFF534A542A5B
:100A7000FFFF5150535C52505458D8A042EF05F03C
:100A800045EF05F0FFFF0FEF05F0FFFF5650FFFFAA
:100A90001200FFFFFFFF6450D8A451EF05F054EFA0
:100AA00005F0FFFF59EF05F0FFFFFFFF000E94EF89
:100AB00005F0FFFF62C05CF063C05DF0EEEC07F094
:100AC0000009D8A466EF05F069EF05F0FFFF6CEFB1
:100AD00005F0FFFF55EF05F0FFFF020E516EEE0E21
:100AE000506E0CEC08F062C05CF063C05DF0670E05
:100AF0005E6EF6EC03F00009D8A481EF05F084EFF8
:100B000005F0FFFF87EF05F0FFFF55EF05F0FFFF52
:100B10006850666E6750656E6450D96EDA6A65C05B
:100B2000DEFF66C0DDFF010EFFFF1200FFFFFFFFCB
:100B3000800E5D6E250E5E6E000E5F6E000E606EA6
:100B4000A8EC04F0810E526E0F0E536E930E546E8D
:100B50000F0E556E010E566EC1EC08F0170E516E59
:100B60007DEC07F03E0E516E7DEC07F0FFFF000EAE
:100B7000776E000E786E9FEC08F077C07BF078C03F
:100B80007CF0320E516E7DEC07F07BC05FF07CC0D4
:100B900060F0A5EC07F0400E516E7DEC07F03E0EC4
:100BA000516E7DEC07F0030E516EE80E506E0CECAA
:100BB00008F0B6EF05F0FEEF1FF0FFFF556A000EDC
:100BC000546E52505310D8B4E8EF05F0EBEF05F037
:100BD000FFFF1CEF06F0FFFF010E566EF5EF05F06C
:100BE000FFFFD89052365336562AFFFF53AEFBEF25
:100BF00005F0FEEF05F0FFFFF0EF05F0FFFFFFFF50
:100C0000D890543655365250505C53505158D8A055
:100C10000CEF06F00FEF06F0FFFF15EF06F0FFFFF9
:100C20005250505E5350515A5480FFFFD890533267
:100C30005232562EFFEF05F0FFFF54C050F055C062
:100C400051F01200FFFFFFFF7250D8A42AEF06F008
:100C50002DEF06F0FFFF30EF06F0FFFF5FEF06F02D
:100C6000FFFF70C062F071C063F0750E646E4AECF5
:100C700005F00009D8A43FEF06F042EF06F0FFFFB1
:100C800045EF06F0FFFF5FEF06F0FFFF0A0E75026B
:100C9000F3CF73F0F4CF74F07602F350742673C080
:100CA00050F074C051F0536A100E526E21EC03F0F4
:100CB0007250D96EDA6A50C0DEFF51C0DDFFFFFF0F
:100CC0001200FFFFFFFF52505310D8B46AEF06F036
:100CD0006DEF06F0FFFF9AEF06F0FFFF010E546E76
:100CE00077EF06F0FFFFD89052365336542AFFFFB5
:100CF00053AE7DEF06F080EF06F0FFFF72EF06F0D7
:100D0000FFFFFFFF5250505C53505158D8A08BEF5B
:100D100006F08EEF06F0FFFF93EF06F0FFFF525054
:100D2000505E5350515AFFFFD89053325232542ED6
:100D300081EF06F0FFFF50C050F051C051F012009B
:100D4000FFFFFFFF4FC050F0010E516E502AACEF75
:100D500006F0FFFFD8905136FFFF502EA9EF06F0A6
:100D60005150FF0A526E4BC0D9FF4CC0DAFF5250AF
:100D7000DF164FC050F0010E516E502AC3EF06F03F
:100D8000FFFFD8905136FFFF502EC0EF06F05150B4
:100D9000FF0A526E49C0D9FF4AC0DAFF5250DF162F
:100DA0001200FFFFFFFF546EF29EA1EC06F054A06C
:100DB000DCEF06F0DFEF06F0FFFFEEEF06F0FFFFDF
:100DC000536A060E526EDDEC08F072EC08F0536ABE
:100DD000400E526EDDEC08F0FBEF06F0FFFF536AA9
:100DE0003C0E526EDDEC08F072EC08F0536A0A0E0D
:100DF000526EDDEC08F0FFFFF28E1200FFFFFFFFE6
:100E0000F29EA1EC06F0010E516EE00E506E89ECE0
:100E100008F072EC08F0516A460E506E89EC08F04A
:100E200044EC08F00009D8B418EF07F01CEF07F005
:100E3000FFFF010E1EEF07F0FFFF000EFFFF536ED6
:100E4000010E516E9A0E506E89EC08F0F28E5350DE
:100E50001200FFFFFFFF57505810D8A432EF07F0E1
:100E600035EF07F0FFFF38EF07F0FFFF51EF07F016
:100E7000FFFF550E5BEC08F0596AFFFF59505724ED
:100E8000D96E000E5820DA6EDF505BEC08F0592A5C
:100E9000070E59644EEF07F051EF07F0FFFF3DEFEB
:100EA00007F0FFFF1200FFFFFFFFF29EA1EC06F02C
:100EB000536A060E526EDDEC08F072EC08F0536ACD
:100EC000090E526EDDEC08F044EC08F00009D8A4DD
:100ED0006CEF07F070EF07F0FFFF010E72EF07F005
:100EE000FFFF000EFFFF546E536A370E526EDDECAB
:100EF00008F0F28E54501200FFFFFFFF5150D8A4AB
:100F000084EF07F087EF07F0FFFF93EF07F0FFFF95
:100F1000A2EF07F0FFFF51C0F6FF0800FFFFF550FA
:100F2000B1EC08F0512AFFFF51C0F6FF0800FFFFA7
:100F3000F5500009D8A49FEF07F0A2EF07F0FFFFDC
:100F40008AEF07F0FFFF1200FFFFFFFF60BEAEEF6A
:100F500007F0ABEF07F0FFFFC2EF07F0FFFF2D0E2A
:100F6000B1EC08F05FC061F060C062F0611E621E0B
:100F7000614A622A61C057F062C058F053EC04F035
:100F8000C9EF07F0FFFF5FC057F060C058F053ECA7
:100F900004F0FFFF1200FFFFFFFF556A566AFFFFD4
:100FA000D890553254EC07F00009D8B4DAEF07F0C6
:100FB000DDEF07F0FFFFDFEF07F0FFFF558EFFFFCC
:100FC000562A070E5664E7EF07F0EAEF07F0FFFF37
:100FD000CFEF07F0FFFF55501200FFFFFFFFFFECC0
:100FE00006F00009D8A4F7EF07F0FAEF07F0FFFFCB
:100FF000FEEF07F0FFFF000E09EF08F0FFFF5CC0F7
:101000005AF05DC05BF02AEC08F0440E5BEC08F08F
:10101000010EFFFF1200FFFFFFFF1CEF08F0FFFFB4
:10102000020E526EF20EFFFFE82EFDD7522EFBD7B6
:1010300000D05006D8A05106FFFF50505110D8A440
:1010400024EF08F027EF08F0FFFF0FEF08F0FFFF95
:101050001200FFFFFFFF5A505B10D8B432EF08F0C8
:1010600035EF08F0FFFF3EEF08F0FFFF5AC057F0E2
:101070005BC058F02AEC07F041EF08F0FFFFE6EC08
:1010800008F0FFFF1200FFFFFFFF4FC050F04BC002
:10109000D9FF4CC0DAFFDF50516E502A53EF08F0F1
:1010A000FFFFD8905132FFFF502E50EF08F0515003
:1010B000010B1200FFFFFFFF556E566AFFFF5550F0
:1010C000010BD2EC06F0D8905532562A070E566422
:1010D0006CEF08F06FEF08F0FFFF5EEF08F0FFFF26
:1010E0001200FFFFFFFF4FC050F0010E516E502A5B
:1010F0007DEF08F0FFFFD8905136FFFF502E7AEFBA
:1011000008F049C0D9FF4AC0DAFF5150DF1212007F
:10111000FFFFFFFF91EF08F0FFFF00D05006D8A0BF
:101120005106FFFF50505110D8A499EF08F09CEFE2
:1011300008F0FFFF8CEF08F0FFFF1200FFFFFFFF3A
:101140007A6A000E796E77C070F078C071F0790E0F
:10115000726E23EC06F079C077F07AC078F0120056
:10116000FFFFFFFF506EFFFF9EA8B9EF08F0BCEF36
:1011700008F0FFFFB3EF08F0FFFF50C0ADFF120013
:10118000FFFFFFFF52C04BF053C04CF054C049F07A
:1011900055C04AF056C04FF072EC08F01200FFFF45
:1011A00000EE01F04F0EEE6AE806FDE1000EF86E6B
:1011B000060EF76E000197EF05F0FFFF52C050F0EA
:1011C00053C051F089EC08F01200FFFFFFFFCC0E76
:0A11D0005BEC08F01200FFFFFFFFC8
:043FFC00D0EF08F00A
:020000040030CA
:0E000000FF220F0EFF0181FF0FC00FE00F4027
:00000001FF
