:060000000000FEEF1FF0FE
:10060000003031323334353637383941424344458E
:1006100046004144432072656164206578616D70D5
:100620006C652072656164790041444330207261D9
:0906300077203D20000D0A0000B6
:10063A00FFFF000E4B6E000E4C6E000E4D6E000E4C
:10064A004E6E4750481049104A10D8B42FEF03F0A5
:10065A0032EF03F0FFFF71EF03F0FFFF010E4F6E61
:10066A003EEF03F0FFFFD8904736483649364A3600
:10067A004F2AFFFF4AAE44EF03F047EF03F0FFFFB4
:10068A0037EF03F0FFFFFFFFD8904B364C364D365D
:10069A004E364750435C48504458495045584A5092
:1006AA004658D8A05BEF03F05EEF03F0FFFF68EF58
:1006BA0003F0FFFF4750435E4850445A4950455A99
:1006CA004A50465A4B80FFFFD8904A324932483244
:1006DA0047324F2E48EF03F0FFFF4BC043F04CC0A8
:1006EA0044F04DC045F04EC046F01200FFFFFFFF38
:1006FA00516A4A504B10D8A485EF03F088EF03F0F3
:10070A00FFFFADEF03F0FFFF300E89EC05F0CEEFEF
:10071A0003F0FFFF51504C0FD96EDA6A4AC043F01A
:10072A004BC044F0466A0A0E456E69EC04F0435029
:10073A00300FDF6E512A4AC043F04BC044F0466A7C
:10074A000A0E456E23EC04F043C04AF044C04BF055
:10075A00FFFF4A504B10D8A4B5EF03F0B8EF03F0EF
:10076A00FFFF8EEF03F0FFFFC4EF03F0FFFF510618
:10077A0051504C0FD96EDA6ADF5089EC05F0FFFF51
:10078A005150D8A4CBEF03F0CEEF03F0FFFFBBEF3D
:10079A0003F0FFFF1200FFFFFFFF505051105210ED
:1007AA005310D8A4DBEF03F0DEEF03F0FFFFE7EF0F
:1007BA0003F0FFFF800E506E250E516E000E526E32
:1007CA00000E536EFFFFAC98AC84000E436E120EFF
:1007DA00446E7A0E456E000E466E50C054F051C0FB
:1007EA0055F052C056F053C057F0040EFFFFD89090
:1007FA005436553656365736E82EFBEF03F054C0BA
:10080A0047F055C048F056C049F057C04AF01DECB1
:10081A0003F0FF0E4324586EFF0E4420596EFF0E5C
:10082A0045205A6EFF0E46205B6E58C0AFFFAB8E56
:10083A00AC8AAB88426A416A1200FFFFFFFF486A2E
:10084A00000E476E45504610D8B42EEF04F031EF33
:10085A0004F0FFFF62EF04F0FFFF010E496E3BEF69
:10086A0004F0FFFFD89045364636492AFFFF46AEC8
:10087A0041EF04F044EF04F0FFFF36EF04F0FFFF0E
:10088A00FFFFD890473648364550435C4650445897
:10089A00D8A052EF04F055EF04F0FFFF5BEF04F02D
:1008AA00FFFF4550435E4650445A4780FFFFD890A9
:1008BA0046324532492E45EF04F0FFFF47C043F068
:1008CA0048C044F01200FFFFFFFF45504610D8B45D
:1008DA0071EF04F074EF04F0FFFFA1EF04F0FFFFE3
:1008EA00010E476E7EEF04F0FFFFD890453646367C
:1008FA00472AFFFF46AE84EF04F087EF04F0FFFFBC
:10090A0079EF04F0FFFFFFFF4550435C465044581F
:10091A00D8A092EF04F095EF04F0FFFF9AEF04F0ED
:10092A00FFFF4550435E4650445AFFFFD890463277
:10093A004532472E88EF04F0FFFF43C043F044C01E
:10094A0044F01200FFFFFFFF800E506E250E516E1D
:10095A00000E526E000E536ED1EC03F0A6EC05F0B9
:10096A00120E446EE1EC04F0350E446EE1EC04F034
:10097A00FFFF000E30EC05F045C05CF046C05DF0AC
:10098A00290E446EE1EC04F05CC052F05DC053F0F5
:10099A0009EC05F0370E446EE1EC04F0350E446EB6
:1009AA00E1EC04F0030E446EE80E436E55EC05F0DC
:1009BA00BDEF04F0FEEF1FF0FFFF4450D8A4E8EFAC
:1009CA0004F0EBEF04F0FFFFF7EF04F0FFFF06EF90
:1009DA0005F0FFFF44C0F6FF0800FFFFF55089EC61
:1009EA0005F0442AFFFF44C0F6FF0800FFFFF55058
:1009FA000009D8A403EF05F006EF05F0FFFFEEEFBC
:100A0A0004F0FFFF1200FFFFFFFF53BE12EF05F0D5
:100A1A000FEF05F0FFFF26EF05F0FFFF2D0E89EC23
:100A2A0005F052C054F053C055F0541E551E544A96
:100A3A00552A54C04AF055C04BF07CEC03F02DEF18
:100A4A0005F0FFFF52C04AF053C04BF07CEC03F0B4
:100A5A00FFFF1200FFFFFFFF496EC30EC21649C017
:100A6A0047F00F0E4716D8904736D8904734C2122F
:100A7A00446A0A0E436E73EC05F0C284FFFFC2B4E7
:100A8A0049EF05F04CEF05F0FFFF43EF05F0FFFFDC
:100A9A00C450476EC350456E47C046F01200FFFF70
:100AAA00FFFF65EF05F0FFFF020E456EF20EFFFF36
:100ABA00E82EFDD7452EFBD700D04306D8A0440622
:100ACA00FFFF43504410D8A46DEF05F070EF05F016
:100ADA00FFFF58EF05F0FFFF1200FFFFFFFF7BEF5C
:100AEA0005F0FFFF00D04306D8A04406FFFF43509D
:100AFA004410D8A483EF05F086EF05F0FFFF76EFE8
:100B0A0005F0FFFF1200FFFFFFFF436EFFFF9EA8E5
:100B1A0091EF05F094EF05F0FFFF8BEF05F0FFFF73
:100B2A0043C0ADFF1200FFFF00EE01F0420EEE6A75
:100B3A00E806FDE1000EF86E060EF76E0001A8EF5A
:100B4A0004F0FFFF010EC26E0E0EC16E1200FFFF0F
:020B5A00FFFF9B
:043FFC0099EF05F044
:020000040030CA
:0E000000FF220F0EFF0181FF0FC00FE00F4027
:00000001FF
