:06000000000013EF00F008
:10000800FFFF0182FACF04F0FBCF05F083EC10F07C
:1000180005C0FBFF04C0FAFF01921100FFFF32EF99
:1000280012F0FFFF4950D96EDA6A0A0ED926DECFE0
:100038000DF0DDCF0EF06A0E0F6E4950D96EDA6AF8
:10004800020ED92602D834EF00F0FFFF0500FA6E41
:10005800DE50FD6EDE50FE6EFF6AFA501200FFFFA2
:10006800FFFF586E5850D8B43CEF00F03FEF00F057
:10007800FFFF48EF00F0FFFF49C047F0050E486E4C
:10008800B3EC10F0CDEF03F0FFFF4950D96EDA6AF8
:100098000C0ED926DE506A5CDE506B58D8B057EF8C
:1000A80000F05AEF00F0FFFF63EF00F0FFFF49C0D8
:1000B80047F0030E486EB3EC10F0CDEF03F0FFFFEE
:1000C8004950D96EDA6A0E0ED9266A50DE5C6B503A
:1000D800DE58D8B072EF00F075EF00F0FFFF7EEF4A
:1000E80000F0FFFF49C047F0040E486EB3EC10F073
:1000F800CDEF03F0FFFF4950D96EDA6A200ED926FA
:100108006AC0DEFF6BC0DDFF49C014F06AC015F09D
:100118006BC016F09DEC0AF04950D96EDA6A220ECF
:10012800D92614C0DEFF15C0DDFF4950D96EDA6A42
:10013800260ED926DE04D8B4A4EF00F0A7EF00F00D
:10014800FFFFAAEF00F0FFFFCDEF03F0FFFF4950DC
:10015800D96EDA6A0A0ED926DECF0AF0DDCF0BF0A7
:100168004950D96EDA6A02D8C5EF00F0FFFF0500E2
:10017800FA6EDE50FD6EDE50FE6EFF6AFA50120017
:10018800FFFFFFFF0AC061F00BC062F00CC063F014
:100198000DC064F04950D96EDA6A220ED926DECF36
:1001A8004AF0DDCF4BF04AC04CF04BC04DF0000E8A
:1001B8004DBEFF0E4E6E4F6E4950D96EDA6A240E50
:1001C800D926DECF50F0DDCF51F050C052F051C0EB
:1001D80053F0000E53BEFF0E546E556E4C50525CD9
:1001E8005D6E4D5053585E6E4E5054585F6E4F5072
:1001F8005558606E4950D96EDA6A220ED926DECF7C
:1002080006F0DDCF07F04950D96EDA6A240ED926F8
:10021800DECF08F0DDCF09F077EC0FF04950D96E4A
:10022800DA6A140ED926DF504A6E4AC04BF04C6A7F
:100238004D6A4E6A06504B5C07504C5808504D5852
:100248004E50800A4F6E0950800A4F58D8A02FEFA1
:1002580001F032EF01F0FFFF56EF01F0FFFF49C058
:1002680019F0B2EC0FF04950D96EDA6A260ED92689
:10027800020EDF6E4950D96EDA6A270ED926DF6A78
:1002880049C010F0D30E116E7F0E126E2CEC11F0D7
:1002980049C006F0D30E076E7F0E086E36EC13F0D9
:1002A800CDEF03F0FFFF60BE64EF01F060505F1018
:1002B8005E1009E15D04D8A064EF01F067EF01F07A
:1002C800FFFF6CEF01F0FFFF010E696E6FEF01F0A9
:1002D800FFFF020E696EFFFF4950D96EDA6A1B0EE6
:1002E800D926DF50D8B47BEF01F07EEF01F0FFFF95
:1002F80090EF01F0FFFF6904D8A485EF01F088EFC3
:1003080001F0FFFF8DEF01F0FFFF020E696E90EF25
:1003180001F0FFFF010E696EFFFF4950D96EDA6ADE
:10032800280ED9266950DE18D8B49DEF01F0A0EF49
:1003380001F0FFFFD9EF01F0FFFF4950D96EDA6AEB
:10034800280ED92669C0DFFF4950D96EDA6A040E33
:10035800D926DE50DE10D8B4B4EF01F0B7EF01F0C3
:10036800FFFF08EF02F0FFFF4950D96EDA6A0A0E64
:10037800D926DECF14F0DDCF15F069C016F049504C
:10038800D96EDA6A040ED92602D8D6EF01F0FFFF3B
:100398000500FA6EDE50FD6EDE50FE6EFF6AFA5002
:1003A8001200FFFFFFFF08EF02F0FFFF4950D96E70
:1003B800DA6A040ED926DE50DE10D8B4E6EF01F072
:1003C800E9EF01F0FFFF08EF02F0FFFF4950D96E97
:1003D800DA6A0A0ED926DECF14F0DDCF15F069C02F
:1003E80016F04950D96EDA6A040ED92602D808EFF9
:1003F80002F0FFFF0500FA6EDE50FD6EDE50FE6E65
:10040800FF6AFA501200FFFFFFFF4950D96EDA6AFF
:10041800150ED926DECF4AF0DDCF4BF04A504C6E90
:100428004B504D6E4E6A4F6A4950D96EDA6A290EA2
:10043800D926DECF50F0DECF51F0DECF52F0DECF3E
:1004480053F05050615C546E51506258556E525082
:100458006358566E53506458576E4C50545C4D5008
:1004680055584E5056584F505758D8A03EEF02F0A6
:1004780041EF02F0FFFF4AEF02F0FFFF49C047F0EB
:10048800070E486EB3EC10F0CDEF03F0FFFF4950B4
:10049800D96EDA6A310ED926DECF4AF0DDCF4BF0BD
:1004A8004A506A5C656E4B506B58666E676AD8A096
:1004B80067066750686E68BE67EF02F064EF02F087
:1004C800FFFF70EF02F0FFFF681E671E661E656C77
:1004D800000E662267226822FFFF4950D96EDA6A49
:1004E800190ED926DECF4AF0DDCF4BF04A504C6EBC
:1004F8004B504D6E4E6A4F6A4C50655C4D50665875
:100508004E5067586850800A506E4F50800A5058B5
:10051800D8B091EF02F094EF02F0FFFFD6EF02F0AF
:10052800FFFF4950D96EDA6A170ED926DECF4AF096
:10053800DDCF4BF04A504C6E4B504D6E4E6A4F6AB1
:100548004950D96EDA6A2D0ED926DECF50F0DECFAB
:1005580051F0DECF52F0DECF53F05050615C546E54
:1005680051506258556E52506358566E53506458E5
:10057800576E4C50545C4D5055584E5056584F502D
:100588005758D8A0CAEF02F0CDEF02F0FFFFEDEF09
:1005980002F0FFFF49C047F0060E486EB3EC10F0BA
:1005A800CDEF03F0FFFF4950D96EDA6A2D0ED92638
:1005B80061C0DEFF62C0DEFF63C0DEFF64C0DEFF35
:1005C8004950D96EDA6A310ED9266AC0DEFF6BC08F
:1005D800DDFFFFFF4950D96EDA6A140ED926DF50C5
:1005E8004A6E4AC04BF04C6A4D6A4E6AD8904B34FA
:1005F800596E4C345A6E4D345B6E4E345C6E5D50A1
:10060800595C5E505A585F505B585C50800A4A6E7D
:100618006050800A4A58D8B014EF03F017EF03F07F
:10062800FFFF62EF03F0FFFF4950D96EDA6A330E1D
:10063800D926DECF4AF0DDCF4BF04A506A5C656EB2
:100648004B506B58666E676AD8A067066750686E2D
:100658004950D96EDA6A190ED926DECF4AF0DDCFB5
:100668004BF04A504C6E4B504D6E4E6A4F6A4C1EC2
:100678004D1E4E1E4F1E4C2A000E4D224E224F225A
:100688004C50655C4D5066584E5067586850800A0B
:10069800506E4F50800A5058D8B055EF03F058EFBD
:1006A80003F0FFFFC3EF03F0FFFFFFFF49C047F070
:1006B800080E486EB3EC10F0CDEF03F0FFFF59C001
:1006C8004AF05AC04BF05BC04CF05CC04DF04A1E7B
:1006D8004B1E4C1E4D1E4A2A000E4B224C224D2208
:1006E8004A505D5C4B505E584C505F586050800AD1
:1006F8004E6E4D50800A4E58D8B085EF03F088EF03
:1007080003F0FFFFC3EF03F0FFFF4950D96EDA6A29
:10071800330ED926DECF4AF0DDCF4BF04A506A5C63
:10072800656E4B506B58666E676AD8A0670667504F
:10073800686E4950D96EDA6A190ED926DECF4AF0AA
:10074800DDCF4BF04A504C6E4B504D6E4E6A4F6A9F
:1007580065504C5C66504D5867504E584F50800A53
:10076800506E6850800A5058D8B0BDEF03F0C0EF03
:1007780003F0FFFFC3EF03F0FFFF59EF03F0FFFFA4
:100788004950D96EDA6A330ED9266AC0DEFF6BC0CB
:10079800DDFFFFFF1200FFFFFFFF4950D8A4D7EF8E
:1007A80003F0DAEF03F0FFFFDFEF03F0FFFFFFFFD7
:1007B800010E1BEF06F0FFFF4950D96EDA6A1F0ED3
:1007C800D926DF50D8A4EBEF03F0EEEF03F0FFFFDC
:1007D800F8EF03F0FFFF4950D96EDA6A270ED926E1
:1007E800010EDF6EDBEF03F0FFFF4950D96EDA6AC6
:1007F800100ED926DE504A5C4B50800A4E6EDE50F1
:10080800800A4E58D8A00BEF04F00EEF04F0FFFF5B
:1008180024EF04F0FFFF4950D96EDA6A120ED92688
:100828004A50DE5CDE50800A4E6E4B50800A4E58AD
:10083800D8B021EF04F024EF04F0FFFF4BEF04F0F1
:10084800FFFF49C019F0B2EC0FF04950D96EDA6ACF
:10085800270ED926020EDF6E4950D96EDA6A260EA7
:10086800D926DF6A49C010F0EC0E116E7F0E126EA9
:100878002CEC11F049C010F04950D96EDA6A270EF5
:10088800D926DF50116EF1EC09F0DBEF03F0FFFF22
:100898004950D96EDA6A0A0ED926DECF0DF0DDCFBF
:1008A8000EF0580E0F6E4950D96EDA6A020ED9262C
:1008B80002D86AEF04F0FFFF0500FA6EDE50FD6E05
:1008C800DE50FE6EFF6AFA501200FFFFFFFF526E05
:1008D8005250D8B472EF04F075EF04F0FFFF7EEFCA
:1008E80004F0FFFF49C047F0050E486EB3EC10F066
:1008F800DBEF03F0FFFF4950D96EDA6A0C0ED926F8
:10090800DE50585CDE505958D8B08DEF04F090EFA7
:1009180004F0FFFF99EF04F0FFFF49C047F0030E12
:10092800486EB3EC10F0DBEF03F0FFFF4950D96ECF
:10093800DA6A0E0ED9265850DE5C5950DE58D8B007
:10094800A8EF04F0ABEF04F0FFFFB4EF04F0FFFFF3
:1009580049C047F0040E486EB3EC10F0DBEF03F02B
:10096800FFFF4950D96EDA6A200ED92658C0DEFF3B
:1009780059C0DDFF49C014F058C015F059C016F031
:100988009DEC0AF04950D96EDA6A220ED92614C0B5
:10099800DEFF15C0DDFF4950D96EDA6A240ED9266C
:1009A8004AC0DEFF4BC0DDFF4950D96EDA6A220E1D
:1009B800D926DECF06F0DDCF07F04950D96EDA6AC6
:1009C800240ED926DECF08F0DDCF09F077EC0FF042
:1009D8004950D96EDA6A140ED926DF504C6E4CC0D5
:1009E8004DF04E6A4F6A506A06504D5C07504E589B
:1009F80008504F585050800A516E0950800A51587B
:100A0800D8A009EF05F00CEF05F0FFFF32EF05F075
:100A1800FFFF49C019F0B2EC0FF04950D96EDA6AFD
:100A2800260ED926020EDF6E4950D96EDA6A270ED5
:100A3800D926DF6A49C010F0D30E116E7F0E126EF0
:100A48002CEC11F049C006F0D30E076E7F0E086E2D
:100A580036EC13F0FFFF000E1BEF06F0FFFF4950C6
:100A6800D96EDA6A240ED9264950E16EE26A220E5E
:100A7800E126DE50E65CE650800A506EDE50800AC1
:100A88005058D8B04AEF05F04DEF05F0FFFF52EF90
:100A980005F0FFFF010E576E55EF05F0FFFF020E40
:100AA800576EFFFF4950D96EDA6A1B0ED926DF5000
:100AB800D8B461EF05F064EF05F0FFFF76EF05F0BD
:100AC800FFFF5704D8A46BEF05F06EEF05F0FFFFAA
:100AD80073EF05F0FFFF020E576E76EF05F0FFFF8C
:100AE800010E576EFFFF4950D96EDA6A0A0ED926F1
:100AF800DECF0AF0DDCF0BF04950D96EDA6A02D8A2
:100B080091EF05F0FFFF0500FA6EDE50FD6EDE5036
:100B1800FE6EFF6AFA501200FFFFFFFF0AC053F093
:100B28000BC054F00CC055F00DC056F04950D96EAA
:100B3800DA6A280ED92657C0DFFF4950D96EDA6A1B
:100B4800290ED92653C0DEFF54C0DEFF55C0DEFF94
:100B580056C0DEFF4950D96EDA6A2D0ED92653C029
:100B6800DEFF54C0DEFF55C0DEFF56C0DEFF495031
:100B7800D96EDA6A310ED92658C0DEFF59C0DDFFBA
:100B88004950D96EDA6A330ED92658C0DEFF59C0EB
:100B9800DDFF4950D96EDA6A040ED926DE50DE1020
:100BA800D8B4D9EF05F0DCEF05F0FFFFFBEF05F057
:100BB800FFFF4950D96EDA6A0A0ED926DECF14F043
:100BC800DDCF15F057C016F04950D96EDA6A040E19
:100BD800D92602D8FBEF05F0FFFF0500FA6EDE50BC
:100BE800FD6EDE50FE6EFF6AFA501200FFFFFFFF37
:100BF8004950D96EDA6A260ED926010EDF6E4950A1
:100C0800D96EDA6A270ED926DF6A49C010F0F10ECC
:100C1800116E7F0E126E2CEC11F049C006F0F10E29
:100C2800076E7F0E086E36EC13F02EEF05F0FFFF0F
:100C38001200FFFFFFFF4550D8A425EF06F028EF6C
:100C480006F0FFFF34EF06F0FFFF4450D96EDA6A72
:100C5800270ED9260A0EDF6EFFFF010E48EF08F0B7
:100C6800FFFF4550D96EDA6ADE50DE10D8B43FEF88
:100C780006F042EF06F0FFFF62EF06F0FFFF455077
:100C8800D96EDA6A020ED926DE50DE10D8B44FEFDC
:100C980006F052EF06F0FFFF62EF06F0FFFF455047
:100CA800D96EDA6A040ED926DE50DE10D8A45FEFBA
:100CB80006F062EF06F0FFFF6CEF06F0FFFF44500E
:100CC800D96EDA6A270ED9260A0EDF6E30EF06F0E3
:100CD800FFFF4550D96EDA6A0E0ED9264550E16EEF
:100CE800E26A0C0EE126DE50E65CDE50E658D8A03B
:100CF80080EF06F083EF06F0FFFF8DEF06F0FFFFB1
:100D08004450D96EDA6A270ED9260A0EDF6E30EF04
:100D180006F0FFFF4550D96EDA6A120ED926455003
:100D2800E16EE26A100EE126DE50E65CE650800ACB
:100D38004A6EDE50800A4A58D8A0A5EF06F0A8EF00
:100D480006F0FFFFB2EF06F0FFFF4450D96EDA6AF3
:100D5800270ED9260A0EDF6E30EF06F0FFFF45504A
:100D6800D96EDA6A140ED926DF50D8A4BEEF06F081
:100D7800C1EF06F0FFFFCBEF06F0FFFF4450D96E3E
:100D8800DA6A270ED9260A0EDF6E30EF06F0FFFF6B
:100D98004550D96EDA6A150ED926DE50DE10D8A471
:100DA800D8EF06F0DBEF06F0FFFFE5EF06F0FFFFF8
:100DB8004450D96EDA6A270ED9260A0EDF6E30EF54
:100DC80006F0FFFF4550D96EDA6A170ED926DE50B5
:100DD800DE10D8B4F2EF06F0F5EF06F0FFFF05EFEE
:100DE80007F0FFFF4550D96EDA6A190ED926DE5092
:100DF800DE10D8A402EF07F005EF07F0FFFF0FEFB2
:100E080007F0FFFF4450D96EDA6A270ED9260A0E7A
:100E1800DF6E30EF06F0FFFF4550D96EDA6A0C0E30
:100E2800D926DECF46F0DDCF47F04550D96EDA6AD5
:100E38000E0ED926DECF48F0DDCF49F04650485C8B
:100E48004A6E475049584B6E4AC052F04BC053F057
:100E5800546A556A4550D96EDA6A100ED926DECF23
:100E680046F0DDCF47F046C048F047C049F0000ED5
:100E780049BEFF0E4A6E4B6E4550D96EDA6A120EA5
:100E8800D926DECF4CF0DDCF4DF04CC04EF04DC032
:100E98004FF0000E4FBEFF0E506E516E48504E5C24
:100EA800566E49504F58576E4A505058586E4B50CE
:100EB8005158596E52C006F053C007F054C008F09C
:100EC80055C009F056C00AF057C00BF058C00CF0D6
:100ED80059C00DF0FEEC0EF0800E095CD8A077EF3B
:100EE80007F07AEF07F0FFFF84EF07F0FFFF4450A9
:100EF800D96EDA6A270ED9260A0EDF6E30EF06F0B1
:100F0800FFFF4550D96EDA6A4450E16EE26A1E0E60
:100F1800DBCFE3FFE806FCE24450D96EDA6A0A0E3A
:100F2800D926DECF0DF0DDCF0EF05B0E0F6E4450EC
:100F3800D96EDA6A020ED92602D8AEEF07F0FFFFA3
:100F48000500FA6EDE50FD6EDE50FE6EFF6AFA5046
:100F58001200FFFFFFFF5A6E5A50D8B4B6EF07F0E1
:100F6800B9EF07F0FFFFC3EF07F0FFFF4450D96E5A
:100F7800DA6A270ED926050EDF6E30EF06F0FFFF7E
:100F88004450D96EDA6A0C0ED926DE505B5CDE500E
:100F98005C58D8B0D2EF07F0D5EF07F0FFFFDFEFCE
:100FA80007F0FFFF4450D96EDA6A270ED926030EE0
:100FB800DF6E30EF06F0FFFF4450D96EDA6A0E0E8E
:100FC800D9265B50DE5C5C50DE58D8B0EEEF07F0F7
:100FD800F1EF07F0FFFFFBEF07F0FFFF4450D96E7A
:100FE800DA6A270ED926040EDF6E30EF06F0FFFF0F
:100FF8004450D96EDA6A200ED9265BC0DEFF5CC089
:10100800DDFF44C014F05BC015F05CC016F09DEC29
:101018000AF04450D96EDA6A220ED92614C0DEFFCF
:1010280015C0DDFF4450D96EDA6A220ED926445025
:10103800E16EE26A240EE126DECFE6FFDDCFE5FFB2
:101048004450D96EDA6A260ED926DF6A4450D96E22
:10105800DA6A270ED926DF6A4450D96EDA6A1F0E7B
:10106800D926010EDF6E44C010F0AB0E116E7F0E54
:10107800126E2CEC11F044C006F0AB0E076E7F0E1A
:10108800086E36EC13F0000EFFFF1200FFFFFFFFA3
:10109800F29EF29CD09E0E0EC16E96988C6A956A4E
:1010A800800E136E250E146E000E156E000E166E51
:1010B8004CEC0DF0FD0E076E7F0E086E7DEC0EF009
:1010C800FB0E076E7F0E086E7DEC0EF07D0E076E30
:1010D8007E0E086E7DEC0EF0FB0E076E7F0E086E1E
:1010E8007DEC0EF0F60E076E7F0E086E7DEC0EF0AE
:1010F800FB0E076E7F0E086E7DEC0EF01FEC13F0F2
:1011080076EC11F0C60E0001B66F250EB76FA60E6D
:10111800B86F200EB96F420EBA6F190EBB6F000E72
:10112800BC6F000EBD6F960EBE6F240EBF6F000E13
:10113800C06F000EC16FC36B000EC26F030EC56F88
:10114800C469C76B000EC66F010EC96F0E0EC86F5B
:10115800020ECA6F130ECC6F880ECB6F030ECE6FC4
:10116800E80ECD6FD06B040ECF6FD16B320ED26FFD
:10117800640ED36F500ED46F800E5D6EB60E5E6E29
:101188002EEC09F00001B56FA50E076E7E0E086EF5
:101198007DEC0EF0B5C015F0166A05EC11F0FD0EE9
:1011A800076E7F0E086E7DEC0EF0FB0E076E7F0E4D
:1011B800086E7DEC0EF00001B551D8B4E6EF08F0EA
:1011C800E9EF08F0FFFFF9EF08F0FFFFC10E076E27
:1011D8007E0E086E7DEC0EF0FB0E076E7F0E086E1D
:1011E8007DEC0EF0FFFFF6EF08F0FFFF9E90F28C0B
:1011F800F28E420E076E7F0E086E7DEC0EF0FB0E2F
:10120800076E7F0E086E7DEC0EF0540E076E7E0E94
:10121800086E7DEC0EF0FB0E076E7F0E086E7DECFF
:101228000EF0FFFF800E6C6E9AEC11F06E6A1E0EC7
:101238006D6EEBEC0DF06E6A780E6D6EEBEC0DF0EA
:10124800010E076EF40E066EBEEC11F015EF09F0F4
:1012580013EF00F0FFFF5D50D8A435EF09F038EF29
:1012680009F0FFFF3CEF09F0FFFF010EEEEF09F078
:10127800FFFF5E50D8B443EF09F046EF09F0FFFFD7
:1012880075EF09F0FFFF5E50D96EDA6A040ED926B1
:10129800DE50DE10D8B453EF09F056EF09F0FFFF27
:1012A80075EF09F0FFFF5E50D96EDA6A0A0ED9268B
:1012B800DECF14F0DDCF15F0000E166E5E50D96E3D
:1012C800DA6A040ED92602D875EF09F0FFFF050087
:1012D800FA6EDE50FD6EDE50FE6EFF6AFA501200A6
:1012E800FFFFFFFF5D50D96EDA6A1F0ED926DF6A4D
:1012F8005D50D96EDA6A260ED926DF6A5D50D96E3E
:10130800DA6A270ED926DF6A5D50D96EDA6A280EA6
:10131800D926DF6A5D50D96EDA6A200ED926DE6AD0
:10132800DD6A5D50D96EDA6A220ED926DE6ADD6A78
:101338005D50D96EDA6A240ED926DE6ADD6A5D5000
:10134800D96EDA6A290ED926DE6ADE6ADE6ADD6AB5
:101358005D50D96EDA6A2D0ED926DE6ADE6ADE6A3B
:10136800DD6A5D50D96EDA6A310ED926DE6ADD6A29
:101378005D50D96EDA6A330ED926DE6ADD6A5DC041
:1013880044F05EC045F01EEC06F0616E6150D8A4D2
:10139800D0EF09F0D3EF09F0FFFFD8EF09F0FFFF16
:1013A800FFFF6150EEEF09F0FFFF5DC010F0870E00
:1013B800116E7F0E126E2CEC11F05DC010F05D50B6
:1013C800D96EDA6A270ED926DF50116EF1EC09F0D2
:1013D800D4EF09F0FFFF1200FFFFFFFF41EF0AF013
:1013E800FFFF160E446E7F0E456E78EF0AF0FFFF82
:1013F800DC0E446E7E0E456E78EF0AF0FFFF670E36
:10140800446E7F0E456E78EF0AF0FFFF5B0E446E68
:101418007F0E456E78EF0AF0FFFF4F0E446E7F0E89
:10142800456E78EF0AF0FFFF350E446E7F0E456E6D
:1014380078EF0AF0FFFFBB0E446E7F0E456E78EF23
:101448000AF0FFFFF00E446E7E0E456E78EF0AF04C
:10145800FFFF030E446E7F0E456E78EF0AF0FFFF24
:10146800260E446E7F0E456E78EF0AF0FFFFB30E2E
:10147800446E7F0E456E78EF0AF0FFFF1150126E32
:10148800136A1350000AD8B44CEF0AF03AEF0AF086
:10149800FFFF1250010AD8B4F4EF09F0030AD8B4D8
:1014A800FBEF09F0010AD8B402EF0AF0070AD8B432
:1014B80009EF0AF0010AD8B410EF0AF0030AD8B409
:1014C80017EF0AF0010AD8B41EEF0AF00F0AD8B4D1
:1014D80025EF0AF0010AD8B42CEF0AF0030AD8B4B1
:1014E80033EF0AF03AEF0AF0FFFF466A140E066E71
:1014F80046C007F0A30E086E7F0E096E20EC10F0B0
:10150800466E140E066E46C007F044C008F045C08B
:1015180009F020EC10F0466E4650140FD96EDA6AC6
:10152800DF6A10C00CF0140E0D6E3BEC0FF01200C9
:10153800FFFFFFFF1450D96EDA6A0C0ED926DECFF2
:1015480017F0DDCF18F01750155C236E1850165899
:10155800246E256AD8A025062550266E1450D96E0B
:10156800DA6A100ED926DECF17F0DDCF18F017C0D3
:1015780019F018C01AF0000E1ABEFF0E1B6E1C6E72
:101588001450D96EDA6A120ED926DECF1DF0DDCFDF
:101598001EF01DC01FF01EC020F0000E20BEFF0E62
:1015A800216E226E19501F5C276E1A502058286E23
:1015B8001B502158296E1C5022582A6E23C006F051
:1015C80024C007F025C008F026C009F027C00AF09B
:1015D80028C00BF029C00CF02AC00DF0FEEC0EF06C
:1015E80006C02BF007C02CF008C02DF009C02EF063
:1015F8002BC006F02CC007F02DC008F02EC009F053
:101608001450D96EDA6A0C0ED926DECF17F0DDCF6A
:1016180018F01450D96EDA6A0E0ED926DECF19F0FA
:10162800DDCF1AF01750195C1B6E18501A581C6E33
:101638001BC00AF01CC00BF00C6A0D6A48EC0BF0DA
:101648001450D96EDA6A100ED926DECF1DF0DDCF20
:101658001EF01DC01FF01EC020F0000E20BEFF0EA1
:10166800216E226E06501F242F6E07502020306EE8
:1016780008502120316E09502220326E2FC014F0FC
:1016880030C015F01200FFFFFFFF0F6A0DBE52EFCA
:101698000BF04FEF0BF0FFFF5DEF0BF0FFFF0D1EA0
:1016A8000C1E0B1E0A6C000E0B220C220D22010EC2
:1016B8000F6EFFFF09BE66EF0BF063EF0BF0FFFF45
:1016C80071EF0BF0FFFF091E081E071E066C000EC7
:1016D800072208220922010E0F1AFFFF000E106EC2
:1016E800000E116E000E126E000E136E0A500B10D3
:1016F8000C100D10D8B483EF0BF086EF0BF0FFFF42
:10170800C5EF0BF0FFFF010E0E6E92EF0BF0FFFF1F
:10171800D8900A360B360C360D360E2AFFFF0DAE62
:1017280098EF0BF09BEF0BF0FFFF8BEF0BF0FFFF39
:10173800FFFFD89010361136123613360A50065C61
:101748000B5007580C5008580D500958D8A0AFEF47
:101758000BF0B2EF0BF0FFFFBCEF0BF0FFFF0A50EE
:10176800065E0B50075A0C50085A0D50095A108043
:10177800FFFFD8900D320C320B320A320E2E9CEF3E
:101788000BF0FFFF0F50D8B4CCEF0BF0CFEF0BF0FE
:10179800FFFFD8EF0BF0FFFF131E121E111E106C77
:1017A800000E112212221322FFFF10C006F011C0F2
:1017B80007F012C008F013C009F01200FFFFFFFF86
:1017C800000E0E6E000E0F6E000E106E000E116EE3
:1017D8000A500B100C100D10D8B4F5EF0BF0F8EF01
:1017E8000BF0FFFF37EF0CF0FFFF010E126E04EF56
:1017F8000CF0FFFFD8900A360B360C360D36122A3D
:10180800FFFF0DAE0AEF0CF00DEF0CF0FFFFFDEF40
:101818000BF0FFFFFFFFD8900E360F36103611364B
:101828000A50065C0B5007580C5008580D500958C0
:10183800D8A021EF0CF024EF0CF0FFFF2EEF0CF0F6
:10184800FFFF0A50065E0B50075A0C50085A0D50FD
:10185800095A0E80FFFFD8900D320C320B320A3233
:10186800122E0EEF0CF0FFFF0EC006F00FC007F0AF
:1018780010C008F011C009F01200FFFFFFFF720E40
:10188800076E7F0E086E7DEC0EF0800E066E15EC6E
:1018980012F006C015F007C016F005EC11F09A0E0C
:1018A800076E7F0E086E7DEC0EF0800E066EDBEC88
:1018B80011F006C015F007C016F005EC11F0E60EA1
:1018C800076E7F0E086E7DEC0EF0800E066EF8EC4B
:1018D80011F006C015F007C016F005EC11F0C30EA4
:1018E800076E7F0E086E7DEC0EF0800E066E64ECBF
:1018F80012F0196E1950156E166A05EC11F0CB0E20
:10190800076E7F0E086E7DEC0EF0800E066E7CEC86
:1019180012F0196E1950156E166A05EC11F0FD0ECD
:10192800076E7F0E086E7DEC0EF0FB0E076E7F0EC5
:10193800086E7DEC0EF01200FFFFFFFFDDEF0CF0EC
:10194800FFFF8C0E116E0F0E126E000E136EFBEC65
:1019580012F08C0E116E0F0E126E010E136EF0EC5B
:1019680012F0F4EF0CF0FFFF8C0E116E0F0E126EDA
:10197800000E136EF0EC12F08C0E116E0F0E126E3C
:10198800010E136EFBEC12F0F4EF0CF0FFFF8C0E5F
:10199800116E0F0E126E000E136EF0EC12F08C0E1C
:1019A800116E0F0E126E010E136EF0EC12F0F4EFC2
:1019B8000CF0FFFF1650176E186A1850000AD8B4BA
:1019C800E8EF0CF0CAEF0CF0FFFF1750010AD8B48B
:1019D800A4EF0CF0030AD8B4B7EF0CF0CAEF0CF080
:1019E800FFFF1200FFFFFFFF146A0D500E10D8A46E
:1019F80000EF0DF003EF0DF0FFFF28EF0DF0FFFFF4
:101A0800300EAAEC12F049EF0DF0FFFF14500F0F43
:101A1800D96EDA6A0DC006F00EC007F0096A0A0E20
:101A2800086EBFEC0EF00650300FDF6E142A0DC0A2
:101A380006F00EC007F0096A0A0E086E37EC0EF0C1
:101A480006C00DF007C00EF0FFFF0D500E10D8A411
:101A580030EF0DF033EF0DF0FFFF09EF0DF0FFFF52
:101A68003FEF0DF0FFFF140614500F0FD96EDA6A1E
:101A7800DF50AAEC12F0FFFF1450D8A446EF0DF087
:101A880049EF0DF0FFFF36EF0DF0FFFF1200FFFFEB
:101A9800FFFF1350141015101610D8A456EF0DF0B0
:101AA80059EF0DF0FFFF62EF0DF0FFFF800E136E90
:101AB800250E146E000E156E000E166EFFFFAC9804
:101AC800AC84800E066E960E076E980E086E000E99
:101AD800096E13C017F014C018F015C019F016C01D
:101AE8001AF0040EFFFFD8901736183619361A3632
:101AF800E82E76EF0DF017C00AF018C00BF019C0E9
:101B08000CF01AC00DF0E3EC0BF0FF0E06241B6E70
:101B1800FF0E07201C6EFF0E08201D6EFF0E092009
:101B28001E6E1BC0AFFFAB8EAC8AAB88796A786A31
:101B38001200FFFFFFFF06500710D8B4A6EF0DF004
:101B4800A9EF0DF0FFFFE8EF0DF0FFFF070E0864A7
:101B5800B0EF0DF0B3EF0DF0FFFFB6EF0DF0FFFFA4
:101B6800E8EF0DF0FFFF06C0D9FF07C0DAFFDF502E
:101B78000D6E08C00AF0010E0B6E0A2AC7EF0DF0B1
:101B8800FFFFD8900B36FFFF0A2EC4EF0DF00B5065
:101B98000C6E0950D8B4D3EF0DF0D6EF0DF0FFFF5F
:101BA800DCEF0DF0FFFF0D500C100D6EE1EF0DF0A6
:101BB800FFFF0C50FF0A0D140D6EFFFF06C0D9FF82
:101BC80007C0DAFF0DC0DFFFFFFF1200FFFFFFFFB6
:101BD800800E496E6DC04AF06EC04BF0D0EC03F039
:101BE8006F6E910E076E7F0E086E7DEC0EF06DC065
:101BF80015F06EC016F005EC11F0B80E076E7E0EEB
:101C0800086E7DEC0EF06FC015F0166A05EC11F049
:101C1800FD0E076E7F0E086E7DEC0EF0FB0E076E54
:101C28007F0E086E7DEC0EF024EF0EF0FFFF800EA5
:101C38006C6E9AEC11F0076A010E066EBEEC11F09C
:101C4800FFFF800E066E64EC12F0E806D8B42FEFA2
:101C58000EF032EF0EF0FFFF1AEF0EF0FFFF42EC2E
:101C68000CF01200FFFFFFFF0B6A000E0A6E08500F
:101C78000910D8B442EF0EF045EF0EF0FFFF76EFF3
:101C88000EF0FFFF010E0C6E4FEF0EF0FFFFD89025
:101C9800083609360C2AFFFF09AE55EF0EF058EF4B
:101CA8000EF0FFFF4AEF0EF0FFFFFFFFD8900A3655
:101CB8000B360850065C09500758D8A066EF0EF09E
:101CC80069EF0EF0FFFF6FEF0EF0FFFF0850065EA2
:101CD8000950075A0A80FFFFD890093208320C2EA3
:101CE80059EF0EF0FFFF0AC006F00BC007F0120014
:101CF800FFFFFFFF07500810D8A485EF0EF088EF0C
:101D08000EF0FFFFA1EF0EF0FFFFBCEF0EF0FFFF9C
:101D180007C0F6FF08C0F7FFF86A050EF76404D09D
:101D28000800FFFFF55005D0F6CFE1FFF7CFE2FF3F
:101D3800E750AAEC12F0074A082AFFFF07C0F6FF8F
:101D480008C0F7FFF86A050EF76404D00800FFFF23
:101D5800F55005D0F6CFE1FFF7CFE2FFE7500009D5
:101D6800D8A4B9EF0EF0BCEF0EF0FFFF8BEF0EF02A
:101D7800FFFF1200FFFFFFFF08500910D8B4C7EF9C
:101D88000EF0CAEF0EF0FFFFF7EF0EF0FFFF010EA7
:101D98000A6ED4EF0EF0FFFFD890083609360A2AEB
:101DA800FFFF09AEDAEF0EF0DDEF0EF0FFFFCFEF29
:101DB8000EF0FFFFFFFF0850065C09500758D8A037
:101DC800E8EF0EF0EBEF0EF0FFFFF0EF0EF0FFFF85
:101DD8000850065E0950075AFFFFD89009320832AA
:101DE8000A2EDEEF0EF0FFFF06C006F007C007F070
:101DF8001200FFFFFFFF000E0E6E000E0F6E000EAA
:101E0800106E000E116EFFFF06A00DEF0FF010EF21
:101E18000FF0FFFF19EF0FF0FFFF0A500E260B50CF
:101E28000F220C5010220D501122FFFFD8900A36B5
:101E38000B360C360D36D890093208320732063286
:101E48000650071008100910D8A42DEF0FF030EF36
:101E58000FF0FFFF07EF0FF0FFFF0EC006F00FC0F7
:101E680007F010C008F011C009F01200FFFFFFFFD3
:101E78000C50D8B442EF0FF045EF0FF0FFFF74EFAE
:101E88000FF0FFFF0C50D96EDA6A080ED926DE5023
:101E9800DE10D8B452EF0FF055EF0FF0FFFF74EFDC
:101EA8000FF0FFFF0C50D96EDA6A0A0ED926DECF82
:101EB80009F0DDCF0AF00DC00BF00C50D96EDA6ACC
:101EC800080ED92602D874EF0FF0FFFF0500FA6E4E
:101ED800DE50FD6EDE50FE6EFF6AFA501200FFFF04
:101EE800FFFF1200FFFFFFFF08C00AF009C00BF058
:101EF800000E0BBEFF0E0C6E0D6E06C00EF007C076
:101F08000FF0000E0FBEFF0E106E116E0A500E5C21
:101F1800126E0B500F58136E0C501058146E0D5053
:101F28001158156E15BE9EEF0FF09BEF0FF0FFFFD7
:101F3800A7EF0FF0FFFF151E141E131E126C000EE4
:101F4800132214221522FFFF12C006F013C007F057
:101F580014C008F015C009F01200FFFFFFFF195068
:101F6800D96EDA6A280ED926DF6A1950D96EDA6A6C
:101F7800040ED926DE50DE10D8B4C5EF0FF0C8EF36
:101F88000FF0FFFFE7EF0FF0FFFF1950D96EDA6A85
:101F98000A0ED926DECF14F0DDCF15F0000E166E2E
:101FA8001950D96EDA6A040ED92602D8E7EF0FF075
:101FB800FFFF0500FA6EDE50FD6EDE50FE6EFF6A12
:101FC800FA501200FFFFFFFF1200FFFFFFFFFDEFB7
:101FD8000FF0FFFF000E1DEF10F0FFFF010E1DEFC9
:101FE80010F0FFFF020E1DEF10F0FFFF030E1DEFB4
:101FF80010F0FFFF06C008F007C009F00950000AFA
:10200800D8B409EF10F0F9EF0FF0FFFF0850010AFC
:10201800D8B4EDEF0FF0030AD8B4F1EF0FF0060AC9
:10202800D8B4F5EF0FF00C0AD8B4F9EF0FF0F9EFC8
:102038000FF0FFFF1200FFFFFFFF33EF10F0FFFF6D
:1020480008C0F6FF09C0F7FF06500724D96EDA6A00
:102058000800FFFFF5CFDFFF084A092A072AFFFF1C
:1020680008500910D8B43BEF10F03EEF10F0FFFF16
:102078004FEF10F0FFFF08C0F6FF09C0F7FF080098
:10208800FFFFF5500009D8A44CEF10F04FEF10F007
:10209800FFFF23EF10F0FFFF07501200FFFFFFFFC5
:1020A8000F50D8A45AEF10F05DEF10F0FFFF61EF6A
:1020B80010F0FFFF010E80EF10F0FFFF000E51EC53
:1020C80011F008C010F009C011F0040E115CD8A07E
:1020D80070EF10F073EF10F0FFFF77EF10F0FFFFD5
:1020E800030E116E1068FFFF0F50D96EDA6A10C028
:1020F800DEFF11C0DDFF000EFFFF1200FFFFFFFF34
:102108009DA089EF10F08CEF10F0FFFFB0EF10F0FA
:10211800FFFF9EA092EF10F095EF10F0FFFFB0EFD9
:1021280010F0FFFF9E9074507510D8B49EEF10F019
:10213800A1EF10F0FFFFB0EF10F0FFFF02D8B0EFF3
:1021480010F0FFFF0500FA6E7450FD6E7550FE6EBC
:10215800FF6AFA501200FFFFFFFF1200FFFFFFFFA8
:102168004750D96EDA6A270ED92648C0DFFF475094
:10217800D96EDA6A260ED926030EDF6E47C019F02B
:10218800B2EC0FF047C010F0E00E116E7F0E126E29
:102198002CEC11F047C010F048C011F0F1EC09F038
:1021A80047C006F0E00E076E7F0E086E36EC13F09F
:1021B8001200FFFFFFFFCD920AC006F00BC007F028
:1021C800EAEC0FF00C6E010E0C160C3ACD500C1800
:1021D800EF0B0C18CD6E0AC006F00BC007F0EAEC46
:1021E8000FF00C6ED8900C32010E0C160C3A0C46FF
:1021F800CD500C18DF0B0C18CD6ECF6ACE6A1200CA
:10220800FFFFFFFF16BE0EEF11F00BEF11F0FFFFFF
:1022180022EF11F0FFFF2D0EAAEC12F015C017F0F7
:1022280016C018F0171E181E174A182A17C00DF0E6
:1022380018C00EF0F7EC0CF029EF11F0FFFF15C0F5
:102248000DF016C00EF0F7EC0CF0FFFF1200FFFFC8
:10225800FFFF436A130E066E43C007F07D0E086E3B
:102268007F0E096E20EC10F0436E130E066E43C00D
:1022780007F011C008F012C009F020EC10F0436E0E
:102288004350130FD96EDA6ADF6A10C00CF0130ED0
:102298000D6E3BEC0FF01200FFFFFFFF0C6EC30E3C
:1022A800C2160CC00AF00F0E0A16D8900A36D8903B
:1022B8000A34C212076A0A0E066E94EC12F0C2843F
:1022C800FFFFC2B46AEF11F06DEF11F0FFFF64EF8A
:1022D80011F0FFFFC4500A6EC350086E0AC009F01F
:1022E8001200FFFFFFFFFE0E776EC80E766E000E1F
:1022F800706E000E716E000E726E000E736E0B6AB9
:10230800080E0A6EDEEC10F076C006F077C007F013
:1023180018EC13F0740E066E250E076E11EC13F010
:102328002DEC13F032EC13F01200FFFFFFFF6C509E
:10233800D8B4A1EF11F0A4EF11F0FFFFBBEF11F03B
:10234800FFFF6C50D96EDA6A1F0ED926DF50D8A469
:10235800B0EF11F0B3EF11F0FFFFB6EF11F0FFFF90
:10236800BBEF11F0FFFF6CC049F015EC00F0FFFF68
:102378001200FFFFFFFFCDEF11F0FFFF030E086E05
:102388006F0EFFFFE82EFDD7082EFBD70606D8A054
:102398000706FFFF06500710D8A4D5EF11F0D8EFB5
:1023A80011F0FFFFC1EF11F0FFFF1200FFFFFFFF69
:1023B8000650D8A4E2EF11F0E5EF11F0FFFFEBEFC4
:1023C80011F0FFFF076A000E066EF5EF11F0FFFF30
:1023D8000650D96EDA6A240ED926DECF06F0DDCF94
:1023E80007F0FFFF1200FFFFFFFF0650D8A4FFEF22
:1023F80011F002EF12F0FFFF08EF12F0FFFF076A7B
:10240800000E066E12EF12F0FFFF0650D96EDA6A60
:10241800200ED926DECF06F0DDCF07F0FFFF120031
:10242800FFFFFFFF0650D8A41CEF12F01FEF12F0B9
:10243800FFFF25EF12F0FFFF076A000E066E2FEF71
:1024480012F0FFFF0650D96EDA6A220ED926DECFC7
:1024580006F0DDCF07F0FFFF1200FFFF01EE00F0EE
:10246800400EEE6AE806FDE100EE80F0350EEE6AF9
:10247800E806FDE100EE70F00A0EEE6AE806FDE1FE
:1024880001900192000EF86E00014BEF08F0FFFF7B
:102498000B50D8B452EF12F055EF12F0FFFF61EF76
:1024A80012F0FFFF0BC007F0086A7DEC0EF0FB0E80
:1024B800076E7F0E086E7DEC0EF0FFFF1200FFFF27
:1024C800FFFF0650D8A46BEF12F06EEF12F0FFFF7B
:1024D80072EF12F0FFFF000E79EF12F0FFFF0650C7
:1024E800D96EDA6A260ED926DF50FFFF1200FFFFE9
:1024F800FFFF0650D8A483EF12F086EF12F0FFFF1B
:102508008AEF12F0FFFF000E91EF12F0FFFF065066
:10251800D96EDA6A270ED926DF50FFFF1200FFFFB7
:10252800FFFF9CEF12F0FFFF00D00606D8A00706B9
:10253800FFFF06500710D8A4A4EF12F0A7EF12F07F
:10254800FFFF97EF12F0FFFF1200FFFFFFFF066E7D
:10255800FFFF9EA8B2EF12F0B5EF12F0FFFFACEF4D
:1025680012F0FFFF06C0ADFF1200FFFFFFFF76C0AD
:1025780002F077C003F026EC13F0010E7026000E6F
:102588007122722273221200FFFFFFFF0EC006F0B5
:102598000FC007F010C008F0000E096E9EEC0DF099
:1025A8001200FFFFFFFF0EC006F00FC007F010C0BB
:1025B80008F0010E096E9EEC0DF01200FFFFFFFF00
:1025C80006EC13F006C00AF007C00BF008C00CF0C8
:1025D80009C00DF01200FFFFFFFF11C00EF012C07E
:1025E8000FF013C010F0C9EC12F01200FFFFFFFF4C
:1025F80011C00EF012C00FF013C010F0D6EC12F09C
:102608001200FFFFFFFF70C006F071C007F072C034
:1026180008F073C009F01200FFFFFFFF06C074F056
:1026280007C075F01200FFFFFFFF0750CF6E06C00E
:10263800CEFF1200FFFFFFFF010EC26E0E0EC16E2D
:102648001200FFFFFFFF0350CF6E02C0CEFF120043
:10265800FFFFFFFF9E909D801200FFFFFFFFCD80D0
:0C2668001200FFFFFFFF1200FFFFFFFF4A
:107E420000303132333435363738394142434445D4
:107E520046004D6F76652073657175656E63653A90
:107E620020333020646567202D3E2031323020647B
:107E72006567202D3E206C6F6F700050494331388A
:107E82004634353220706F736974696F6E20647284
:107E9200697665204144432055415254206465620D
:107EA200756700504F534954494F4E20445249562A
:107EB2004520494E4954207374617475733D0050D6
:107EC2004F534954494F4E20445249564520494E3A
:107ED2004954204641494C45440054415247455477
:107EE2005F4F55545F4F465F52414E4745004449EC
:107EF20052454354494F4E5F4D49534D41544348B7
:107F020000554E535550504F525445445F53454EC1
:107F1200534F52004E4F545F494E495449414C49C8
:107F22005A454400494E56414C49445F434F4E46E0
:107F320049470053454E534F525F535455434B00EC
:107F42005449434B20535441525445440053454EE7
:107F5200534F525F524541440053454E534F525F77
:107F6200484947480053454E534F525F4C4F5700C4
:107F72005354415445206465673D0050443A53547C
:107F82004154452000494E4954204641494C004D38
:107F92004F564520544F2000207461726765743D2E
:107FA2000050443A4552522000494E4954204F4B0A
:107FB20000554E4B4E4F574E0054494D454F555468
:107FC200002073746174653D00206572726F723DAA
:107FD20000544152474554004553544F50004552B6
:107FE200524F5200207261773D0049444C45004D8A
:0D7FF2004F564500424F4F54000D0A00004D
:020000040030CA
:0E000000FF220F0EFF0181FF0FC00FE00F4027
:00000001FF
