:060000000000FEEF1FF0FE
:10060000003031323334353637383941424344458E
:1006100046005541525420646562756720657861D3
:100620006D706C652072656164790055415254208B
:10063000646562756720616C697665000D0A00006B
:10064000FFFF000E4B6E000E4C6E000E4D6E000E46
:100650004E6E4750481049104A10D8B432EF03F09C
:1006600035EF03F0FFFF74EF03F0FFFF010E4F6E55
:1006700041EF03F0FFFFD8904736483649364A36F7
:100680004F2AFFFF4AAE47EF03F04AEF03F0FFFFA8
:100690003AEF03F0FFFFFFFFD8904B364C364D3654
:1006A0004E364750435C48504458495045584A508C
:1006B0004658D8A05EEF03F061EF03F0FFFF6BEF49
:1006C00003F0FFFF4750435E4850445A4950455A93
:1006D0004A50465A4B80FFFFD8904A32493248323E
:1006E00047324F2E4BEF03F0FFFF4BC043F04CC09F
:1006F00044F04DC045F04EC046F01200FFFFFFFF32
:100700005050511052105310D8A489EF03F08CEFC1
:1007100003F0FFFF95EF03F0FFFF800E506E250EF4
:10072000516E000E526E000E536EFFFFAC98AC84FB
:10073000000E436E120E446E7A0E456E000E466E2B
:1007400050C054F051C055F052C056F053C057F04D
:10075000040EFFFFD8905436553656365736E82EDD
:10076000A9EF03F054C047F055C048F056C049F017
:1007700057C04AF020EC03F0FF0E4324586EFF0EE2
:100780004420596EFF0E45205A6EFF0E46205B6EC8
:1007900058C0AFFFAB8EAC8AAB88426A416A120088
:1007A000FFFFFFFF4450D8A4D8EF03F0DBEF03F0C6
:1007B000FFFFE7EF03F0FFFFF6EF03F0FFFF44C09A
:1007C000F6FF0800FFFFF5503DEC04F0442AFFFF60
:1007D00044C0F6FF0800FFFFF5500009D8A4F3EF6E
:1007E00003F0F6EF03F0FFFFDEEF03F0FFFF120070
:1007F000FFFFFFFF800E506E250E516E000E526EF1
:10080000000E536E7FEC03F0120E446ED1EC03F039
:100810003C0E446ED1EC03F0FFFF2B0E446ED1EC86
:1008200003F03C0E446ED1EC03F0030E446EE80E70
:10083000436E1FEC04F00CEF04F0FEEF1FF0FFFF1F
:100840002FEF04F0FFFF020E456EF20EFFFFE82EC1
:10085000FDD7452EFBD700D04306D8A04406FFFFA6
:1008600043504410D8A437EF04F03AEF04F0FFFFF0
:1008700022EF04F0FFFF1200FFFFFFFF436EFFFFB8
:100880009EA845EF04F048EF04F0FFFF3FEF04F0AF
:10089000FFFF43C0ADFF1200FFFF00EE01F0420E6C
:1008A000EE6AE806FDE1000EF86E060EF76E000136
:0608B000F9EF03F0FFFF69
:043FFC004DEF04F091
:020000040030CA
:0E000000FF220F0EFF0181FF0FC00FE00F4027
:00000001FF
