:060000000000FEEF1FF0FE
:102CFA00FFFFE00146009A01060040003C000A007E
:102D0A00060009003700FFFF600E016E160E026E04
:102D1A00400E036EC9EC1DF0020E7C6E1200FFFF1E
:102D2A00FFFF016EFFFF9EA89DEF16F0A0EF16F0C1
:102D3A00FFFF97EF16F0FFFF01C0ADFF1200FFFF84
:102D4A00FFFF03C078F004C079F005C074F006C034
:102D5A0075F007C07DF003C001F004C002F092ECE8
:102D6A001BF0D0EC16F01200FFFFFFFFC2EF16F0C7
:102D7A00FFFF00D00106D8A00206FFFF0150021093
:102D8A00D8A4CAEF16F0CDEF16F0FFFFBDEF16F08C
:102D9A00FFFF1200FFFFFFFF7DC001F0010E026E70
:102DAA00012ADBEF16F0FFFFD8900236FFFF012E53
:102DBA00D8EF16F074C0D9FF75C0DAFF0250DF12DF
:102DCA001200FFFFFFFF7DC001F078C0D9FF79C074
:102DDA00DAFFDF50026E012AF6EF16F0FFFFD890F5
:102DEA000232FFFF012EF3EF16F00250010B120020
:102DFA00FFFFFFFF056E066AFFFF0550010BF5ECAA
:102E0A0017F0D8900532062A070E06640FEF17F05E
:102E1A0012EF17F0FFFF01EF17F0FFFF1200FFFF9D
:102E2A00FFFF24EF17F0FFFF030E036E6F0EFFFF85
:102E3A00E82EFDD7032EFBD70106D8A00206FFFF16
:102E4A0001500210D8A42CEF17F02FEF17F0FFFF54
:102E5A0018EF17F0FFFF1200FFFFFC0EF66E2C0EA4
:102E6A00F76E000EF86E00EE60F010EE14F0090036
:102E7A00F5CFEEFFE550E150FAE100EE80F0480EA2
:102E8A00EE6AE806FDE100EE74F00A0EEE6AE80664
:102E9A00FDE1000EF86E00018BEF1CF0FFFF11BE82
:102EAA005CEF17F059EF17F0FFFF70EF17F0FFFF15
:102EBA002D0E95EC16F010C012F011C013F0121E70
:102ECA00131E124A132A12C008F013C009F082EC2A
:102EDA001AF077EF17F0FFFF10C008F011C009F0E1
:102EEA0082EC1AF0FFFF1200FFFFFFFFF29E7EEC5A
:102EFA0018F000D000D00000D0EC16F0030EFFFF4F
:102F0A00E82EFDD700D00000E7EC16F00009D8A49F
:102F1A0091EF17F095EF17F0FFFF010E97EF17F0FB
:102F2A00FFFF000EFFFF046E0C0EFFFFE82EFDD719
:102F3A0000D0F28E04501200FFFFFFFF0E6E020E49
:102F4A007C18D8A4ABEF17F0AEEF17F0FFFFB4EF81
:102F5A0017F0FFFF0E50FEEC16F0C7EF17F0FFFF59
:102F6A000F6AFFFF0E50010B03EC1CF0D8900E32D3
:102F7A000F2A070E0F64C4EF17F0C7EF17F0FFFF11
:102F8A00B6EF17F0FFFF1200FFFFFFFFF29E7EEC85
:102F9A0018F0CF0EFFFF00D00000E82EFBD700008C
:102FAA00D0EC16F01F0EFFFFE82EFDD70000E7EC6D
:102FBA0016F00009D8B4E4EF17F0E8EF17F0FFFFB6
:102FCA00010EEAEF17F0FFFF000EFFFF046EF00E8E
:102FDA00FFFF0000E82EFCD7F28E04501200FFFF1C
:102FEA00FFFF046EF29E04A0FDEF17F000EF18F049
:102FFA00FFFF0FEF18F0FFFF7EEC18F000D000D0B3
:10300A000000D0EC16F01F0EFFFFE82EFDD70000DF
:10301A001CEF18F0FFFF7EEC18F01F0EFFFFE82EE2
:10302A00FDD70000D0EC16F000D000D00000FFFF62
:10303A00F28E1200FFFFFFFF02500310D8A428EF00
:10304A0018F02BEF18F0FFFF3AEF18F0FFFF4BEFE5
:10305A0018F0FFFF02C0F6FF03C0F7FF0800FFFFEA
:10306A00F55095EC16F0024A032AFFFF02C0F6FF5C
:10307A0003C0F7FF0800FFFFF5500009D8A448EF86
:10308A0018F04BEF18F0FFFF2EEF18F0FFFF1200B9
:10309A00FFFFFFFF146E010EF66E400EF76E20EE74
:1030AA0003F0100E0900FFFFF5CFDEFFE806FAE293
:1030BA00300E95EC16F0780E95EC16F014C002F06E
:1030CA00023A0F0E02160F0E02160250030FD96EA5
:1030DA00DA6ADF5095EC16F014C002F00F0E0216F1
:1030EA000250030FD96EDA6ADF5095EC16F012001F
:1030FA00FFFFFFFF7DC001F0010E026E012A89EF7A
:10310A0018F0FFFFD8900236FFFF012E86EF18F065
:10311A000250FF0A036E76C0D9FF77C0DAFF035068
:10312A00DF167DC001F0010E026E012AA0EF18F031
:10313A00FFFFD8900236FFFF012E9DEF18F00250D4
:10314A00FF0A036E74C0D9FF75C0DAFF0350DF1699
:10315A001200FFFFFFFF1550D8A4B6EF18F0B9EF21
:10316A0018F0FFFFBCEF18F0FFFFE1EF18F0FFFFC8
:10317A00166AFFFF15501624D96EDA6ADF504EEC34
:10318A0018F0070E1660CCEF18F0CFEF18F0FFFF1B
:10319A00D6EF18F0FFFF470E026E410E036E20ECC9
:1031AA0018F0FFFF162A070E1664DEEF18F0E1EF9B
:1031BA0018F0FFFFBEEF18F0FFFF1200FFFFFFFF3E
:1031CA00020E7C18D8A4ECEF18F0EFEF18F0FFFF0E
:1031DA00F4EF18F0FFFFCAEC17F01EEF19F0FFFF2B
:1031EA00F29E7EEC18F060C001F061C002F0BAEC09
:1031FA0016F0D0EC16F062C001F063C002F0BAEC2F
:10320A0016F0E7EC16F00009D8B40EEF19F012EF39
:10321A0019F0FFFF010E14EF19F0FFFF000EFFFF78
:10322A00056E64C001F065C002F0BAEC16F0F28EC9
:10323A000550FFFF1200FFFFFFFF020E7C18D8A403
:10324A0029EF19F02CEF19F0FFFF31EF19F0FFFF0A
:10325A007AEC17F05BEF19F0FFFFF29E7EEC18F0A4
:10326A006EC001F06FC002F0BAEC16F0D0EC16F0A6
:10327A0070C001F071C002F0BAEC16F0E7EC16F07B
:10328A000009D8A44BEF19F04FEF19F0FFFF010E18
:10329A0051EF19F0FFFF000EFFFF056E72C001F03B
:1032AA0073C002F0BAEC16F0F28E0550FFFF12005E
:1032BA00FFFFFFFF03500410D8B466EF19F069EF5F
:1032CA0019F0FFFF96EF19F0FFFF010E056E73EF7D
:1032DA0019F0FFFFD89003360436052AFFFF04AE23
:1032EA0079EF19F07CEF19F0FFFF6EEF19F0FFFF8D
:1032FA00FFFF0350015C04500258D8A087EF19F071
:10330A008AEF19F0FFFF8FEF19F0FFFF0350015EFC
:10331A000450025AFFFFD89004320332052E7DEF83
:10332A0019F0FFFF01C001F002C002F01200FFFF16
:10333A00FFFF066A000E056E03500410D8B4A8EF0A
:10334A0019F0ABEF19F0FFFFDCEF19F0FFFF010EE8
:10335A00076EB5EF19F0FFFFD89003360436072A37
:10336A00FFFF04AEBBEF19F0BEEF19F0FFFFB0EF9D
:10337A0019F0FFFFFFFFD890053606360350015CAF
:10338A0004500258D8A0CCEF19F0CFEF19F0FFFF84
:10339A00D5EF19F0FFFF0350015E0450025A058071
:1033AA00FFFFD89004320332072EBFEF19F0FFFF58
:1033BA0005C001F006C002F01200FFFFFFFF076A16
:1033CA000150D8A4EBEF19F0EEEF19F0FFFFF2EF7E
:1033DA0019F0FFFF000E2DEF1AF0FFFF056A20EF2C
:1033EA001AF0FFFF01500524D96EDA6ADF50046E25
:1033FA00066AFFFF07500418010B036ED8900732C4
:10340A000350D8B40BEF1AF00EEF1AF0FFFF11EFCA
:10341A001AF0FFFF8C0E071AFFFFD8900432062A13
:10342A00070E06641BEF1AF01EEF1AF0FFFFFEEFFD
:10343A0019F0FFFF052AFFFF0250055CD8A028EF0C
:10344A001AF02BEF1AF0FFFFF6EF19F0FFFF075003
:10345A00FFFF1200FFFFFFFF0E500F101010111098
:10346A00D8A43AEF1AF03DEF1AF0FFFF46EF1AF030
:10347A00FFFF800E0E6E250E0F6E000E106E000EF0
:10348A00116EFFFFAC98AC84800E016E960E026E30
:10349A00980E036E000E046E0EC012F00FC013F0E9
:1034AA0010C014F011C015F0040EFFFFD8901236A8
:1034BA00133614361536E82E5AEF1AF012C005F0F4
:1034CA0013C006F014C007F015C008F033EC1BF067
:1034DA00FF0E0124166EFF0E0220176EFF0E032048
:1034EA00186EFF0E0420196E16C0AFFFAB8EAC8AA1
:1034FA00AB887B6A7A6A1200FFFFFFFF0F6A0850E7
:10350A000910D8A48BEF1AF08EEF1AF0FFFFB3EF71
:10351A001AF0FFFF300E95EC16F0D4EF1AF0FFFF09
:10352A000F500A0FD96EDA6A08C001F009C002F01A
:10353A00046A0A0E036E5EEC19F00150300FDF6E5A
:10354A000F2A08C001F009C002F0046A0A0E036ECD
:10355A009DEC19F001C008F002C009F0FFFF085005
:10356A000910D8A4BBEF1AF0BEEF1AF0FFFF94EFD0
:10357A001AF0FFFFCAEF1AF0FFFF0F060F500A0FEB
:10358A00D96EDA6ADF5095EC16F0FFFF0F50D8A417
:10359A00D1EF1AF0D4EF1AF0FFFFC1EF1AF0FFFFD4
:1035AA001200FFFFFFFF9B0E026E410E036E20EC1E
:1035BA0018F0990E026E410E036E20EC18F0A20E5E
:1035CA00026E400E036E20EC18F0990E026E410E48
:1035DA00036E20EC18F0BE0E026E400E036E20EC55
:1035EA0018F0990E026E410E036E20EC18F0E4EC0E
:1035FA0018F0066E0650D8B405EF1BF008EF1BF062
:10360A00FFFF17EF1BF0FFFF750E026E410E036EF0
:10361A0020EC18F0990E026E410E036E20EC18F0A1
:10362A0030EF1BF0FFFF250E026E410E036E20ECF9
:10363A0018F0990E026E410E036E20EC18F03E0E41
:10364A00026E400E036E20EC18F0990E026E410EC7
:10365A00036E20EC18F0FFFF1200FFFFFFFF000EC1
:10366A00096E000E0A6E000E0B6E000E0C6E0550EF
:10367A00061007100810D8B445EF1BF048EF1BF0EE
:10368A00FFFF87EF1BF0FFFF010E0D6E54EF1BF0DB
:10369A00FFFFD89005360636073608360D2AFFFF93
:1036AA0008AE5AEF1BF05DEF1BF0FFFF4DEF1BF06A
:1036BA00FFFFFFFFD89009360A360B360C36055045
:1036CA00015C065002580750035808500458D8A005
:1036DA0071EF1BF074EF1BF0FFFF7EEF1BF0FFFF93
:1036EA000550015E0650025A0750035A0850045A00
:1036FA000980FFFFD89008320732063205320D2EB4
:10370A005EEF1BF0FFFF09C001F00AC002F00BC018
:10371A0003F00CC004F01200FFFFFFFF800E011837
:10372A0007E10F0E0218D8A49DEF1BF0A0EF1BF0C3
:10373A00FFFFA7EF1BF0FFFF890E766E0F0E776E65
:10374A0000EF1CF0FFFF810E011807E10F0E0218AF
:10375A00D8A4B2EF1BF0B5EF1BF0FFFFBCEF1BF0D4
:10376A00FFFF8A0E766E0F0E776E00EF1CF0FFFFDA
:10377A00820E011807E10F0E0218D8A4C7EF1BF03A
:10378A00CAEF1BF0FFFFD1EF1BF0FFFF8B0E766E27
:10379A000F0E776E00EF1CF0FFFF830E011807E192
:1037AA000F0E0218D8A4DCEF1BF0DFEF1BF0FFFFAF
:1037BA00E6EF1BF0FFFF8C0E766E0F0E776E00EFB2
:1037CA001CF0FFFF840E011807E10F0E0218D8A49F
:1037DA00F1EF1BF0F4EF1BF0FFFFFBEF1BF0FFFF15
:1037EA008D0E766E0F0E776E00EF1CF0FFFF01C094
:1037FA0076F002C077F0FFFF1200FFFFFFFF0D6EA9
:10380A00020E7C18D8A40CEF1CF00FEF1CF0FFFF7F
:10381A0015EF1CF0FFFF0D50F5EC17F088EF1CF0C8
:10382A00FFFFF29E0DA01CEF1CF01FEF1CF0FFFF24
:10383A0054EF1CF0FFFF7EEC18F066C005F067C07D
:10384A0006F02DEF1CF0FFFF00000506D8A00606C3
:10385A00FFFF05500610D8A435EF1CF038EF1CF016
:10386A00FFFF28EF1CF0FFFFD0EC16F068C007F04E
:10387A0069C008F046EF1CF0FFFF00000706D8A059
:10388A000806FFFF07500810D8A44EEF1CF051EFAE
:10389A001CF0FFFF41EF1CF0FFFF86EF1CF0FFFF5B
:1038AA007EEC18F06AC009F06BC00AF062EF1CF0F7
:1038BA00FFFF00000906D8A00A06FFFF09500A10F8
:1038CA00D8A46AEF1CF06DEF1CF0FFFF5DEF1CF04F
:1038DA00FFFFD0EC16F06CC00BF06DC00CF07BEF64
:1038EA001CF0FFFF00000B06D8A00C06FFFF0B50D0
:1038FA000C10D8A483EF1CF086EF1CF0FFFF76EFC4
:10390A001CF0FFFFF28EFFFF1200FFFFFFFF800E89
:10391A000E6E250E0F6E000E106E000E116E30EC3C
:10392A001AF0810E036E0F0E046E930E056E0F0EC3
:10393A00066E010E076EA5EC16F088EC16F09B0ECB
:10394A00026E410E036E20EC18F0990E026E410EC3
:10395A00036E20EC18F0F30E026E400E036E20EC9C
:10396A0018F0990E026E410E036E20EC18F0490E03
:10397A00026E410E036E20EC18F0990E026E410E93
:10398A00036E20EC18F0680E026E410E036E20ECF6
:10399A0018F0990E026E410E036E20EC18F0590EC3
:1039AA00026E410E036E20EC18F0990E026E410E63
:1039BA00036E20EC18F0820E026E400E036E20ECAD
:1039CA0018F0990E026E410E036E20EC18F0FFFFFC
:1039DA00D7EC1AF01FEC1DF09B0E026E410E036E1F
:1039EA0020EC18F0990E026E410E036E20EC18F0CE
:1039FA00D90E026E400E036E20EC18F0990E026E7C
:103A0A00410E036E20EC18F09B0E026E410E036EFF
:103A1A0020EC18F0990E026E410E036E20EC18F09D
:103A2A000B0E026EB80E016E15EC17F0ECEF1CF0DF
:103A3A00FEEF1FF0FFFF9B0E026E410E036E20EC9D
:103A4A0018F0990E026E410E036E20EC18F00D0E5E
:103A5A00026E410E036E20EC18F0990E026E410EB2
:103A6A00036E20EC18F0260E106E070E116EC3ECD2
:103A7A001EF05E6E390E026E410E036E20EC18F0D7
:103A8A005EC010F0116A53EC17F09B0E026E410EE5
:103A9A00036E20EC18F0990E026E410E036E20ECB4
:103AAA0018F05E50D8A45CEF1DF05FEF1DF0FFFF29
:103ABA006EEF1DF0FFFF620E026E400E036E20ECE9
:103ACA0018F0990E026E410E036E20EC18F0C6EF44
:103ADA001DF0FFFF5F6ABBEF1DF0FFFF940E026E41
:103AEA00410E036E20EC18F05FC010F0116A53EC1F
:103AFA0017F0460E026E410E036E20EC18F05F506E
:103B0A00080DF350260F156EAFEC18F05F50080D34
:103B1A00F350260F016E080E026EE3EC19F000094D
:103B2A00D8A49AEF1DF09DEF1DF0FFFFACEF1DF03A
:103B3A00FFFF8C0E026E410E036E20EC18F0990EF8
:103B4A00026E410E036E20EC18F0B9EF1DF0FFFF74
:103B5A00820E026E410E036E20EC18F0990E026E70
:103B6A00410E036E20EC18F0FFFF5F2AFFFF5E5044
:103B7A005F5CD8A0C3EF1DF0C6EF1DF0FFFF72EF28
:103B8A001DF0FFFF1200FFFFFFFF0150D8B4D0EF76
:103B9A001DF0D3EF1DF0FFFFC0EF1EF0FFFF025034
:103BAA000310D8A4DBEF1DF0DEEF1DF0FFFFE1EFFD
:103BBA001DF0FFFFC0EF1EF0FFFF02C0F6FF03C0BB
:103BCA00F7FF0150D96EDA6A0900FFFFF5CFDEFF71
:103BDA000800FFFFF5CFDDFF020E0224046E000E7F
:103BEA000320056E04C0F6FF05C0F7FF0150D96E29
:103BFA00DA6A020ED9260900FFFFF5CFDEFF0800B8
:103C0A00FFFFF5CFDDFF040E0224046E000E032031
:103C1A00056E04C0F6FF05C0F7FF0150D96EDA6AD7
:103C2A00040ED9260900FFFFF5CFDEFF0800FFFFCB
:103C3A00F5CFDDFF060E0224046E000E0320056E8A
:103C4A0004C0F6FF05C0F7FF0150D96EDA6A060E06
:103C5A00D9260900FFFFF5CFDEFF0800FFFFF5CFE9
:103C6A00DDFF080E0224046E000E0320056E04C058
:103C7A00F6FF05C0F7FF0150D96EDA6A080ED92699
:103C8A000900FFFFF5CFDEFF0800FFFFF5CFDDFFDC
:103C9A000A0E0224046E000E0320056E04C0F6FF0D
:103CAA0005C0F7FF0150D96EDA6A0A0ED926090053
:103CBA00FFFFF5CFDEFF0800FFFFF5CFDDFF0C0E9B
:103CCA000224046E000E0320056E04C0F6FF05C030
:103CDA00F7FF0150D96EDA6A0C0ED9260900FFFFE8
:103CEA00F5CFDEFF0800FFFFF5CFDDFF0E0E022441
:103CFA00046E000E0320056E04C0F6FF05C0F7FF30
:103D0A000150D96EDA6A0E0ED9260900FFFFF5CFE7
:103D1A00DEFF0800FFFFF5CFDDFF100E0224046E60
:103D2A00000E0320056E04C0F6FF05C0F7FF015020
:103D3A00D96EDA6A100ED9260900FFFFF5CFDEFF29
:103D4A000800FFFFF5CFDDFF120E0224046E000EFD
:103D5A000320056E04C0F6FF05C0F7FF0150D96EB7
:103D6A00DA6A120ED9260900FFFFF5CFDEFF080036
:103D7A00FFFFF5CFDDFFFFFF1200FFFFFFFF226A03
:103D8A0020EE13F0070EDE6AE806FDE21F6A1B6AE0
:103D9A001050D8B4D3EF1EF0D6EF1EF0FFFFE0EFBD
:103DAA001EF0FFFF1150D8A4DDEF1EF0E0EF1EF069
:103DBA00FFFFE3EF1FF0FFFF000EFBEF1FF0FFFF17
:103DCA00E4EC18F00009D8A4EDEF1EF0F0EF1EF0B5
:103DDA00FFFFF3EF1EF0FFFF1AEF1FF0FFFFF00ED9
:103DEA00A2EC17F01C6A010E206E236AFFFF010E77
:103DFA00256E9EEF1FF0FFFF21EC19F01E6E21ECDD
:103E0A0019F01D6E1E50D8B40DEF1FF010EF1FF001
:103E1A00FFFF1EEF1FF0FFFF1D50D8B417EF1FF072
:103E2A001AEF1FF0FFFF1EEF1FF0FFFF2250FBEFFC
:103E3A001FF0FFFF1D501E18D8B426EF1FF029EF00
:103E4A001FF0FFFF2EEF1FF0FFFF1EC021F06DEFE6
:103E5A001FF0FFFF1F50205CD8B036EF1FF039EF7C
:103E6A001FF0FFFF50EF1FF0FFFF2350130FD96E13
:103E7A00DA6ADF5025140009D8A446EF1FF04AEF8A
:103E8A001FF0FFFF010E4CEF1FF0FFFF000EFFFFB8
:103E9A00216E60EF1FF0FFFF1F502018D8B458EFB3
:103EAA001FF05CEF1FF0FFFF010E5EEF1FF0FFFF38
:103EBA00000EFFFF216EFFFF2150D8A467EF1FF00D
:103ECA006AEF1FF0FFFF6DEF1FF0FFFF20C01CF02D
:103EDA00FFFF2150D8B474EF1FF077EF1FF0FFFFF8
:103EEA0080EF1FF0FFFF2350130FD96EDA6A2550B7
:103EFA00DF128AEF1FF0FFFF2550FF0A126E2350D0
:103F0A00130FD96EDA6A1250DF16FFFF215003EC45
:103F1A001CF0202AD89025362550D8A497EF1FF0F8
:103F2A009AEF1FF0FFFF9EEF1FF0FFFF232AFBEF20
:103F3A001EF0FFFF070E2364A5EF1FF0A8EF1FF086
:103F4A00FFFF00EF1FF0FFFF1CC01FF01F50D8A497
:103F5A00B1EF1FF0B4EF1FF0FFFFB7EF1FF0FFFF45
:103F6A00010E1B6EFFFF130E016E080E026EE3ECCC
:103F7A0019F00009D8A4C4EF1FF0C7EF1FF0FFFF24
:103F8A00E3EF1FF0FFFF246AFFFF2450130FD96EDF
:103F9A00DA6A2250080D1050F3242424E16EE26AF2
:103FAA00DFCFE7FF242A070E2464DEEF1FF0E1EFDC
:103FBA001FF0FFFFC9EF1FF0FFFF222AFFFF1B5070
:103FCA00D8A4EAEF1FF0EDEF1FF0FFFF1AEF1FF082
:103FDA00FFFF1150225CD8A0F5EF1FF0F8EF1FF099
:103FEA00FFFFE4EF1EF0FFFF1AEF1FF0FFFF1200C2
:103FFA00FFFF32EF17F000303132333435363738BD
:10400A003941424344454600CC5533F0440232001C
:10401A00E001020032003200020002000600140031
:10402A00E00146009A01060040003C000A00060032
:10403A0009003700436865636B2044512C20707572
:10404A006C6C2D75702C2044533138423230205616
:10405A0044442F474E442E004E6F206465766963B0
:10406A00657320666F756E6420627920536561728C
:10407A00636820524F4D2E0054696D696E673A206D
:10408A0050726F7465757320504943313846343520
:10409A00322074756E6564004F6E655769726520CB
:1040AA0072657365742F70726573656E63652074CB
:1040BA006573740044513D5242312F70696E333436
:1040CA002C2070756C6C2D75703D342E376B004E3C
:1040DA00657874207465737420696E203320736563
:1040EA00636F6E64732E2E2E005049433138463466
:1040FA003532204F6E6557697265206578616D703B
:10410A006C65004F6E65576972652053656172630D
:10411A006820524F4D207465737400507265736540
:10412A006E63653A204E4F20444556494345004444
:10413A0065766963657320666F756E643A2000441C
:10414A0065766963653A2044533138423230005506
:10415A004152543A203936303020384E31004451D9
:10416A003D5242312F70696E333400507265736567
:10417A006E63653A204F4B00204352435F464149E4
:10418A004C00204352435F4F4B00524F4D20000DCD
:03419A000A000018
:020000040030CA
:0E000000FF220F0EFF0181FF0FC00FE00F4027
:00000001FF
