:060000000000FEEF1FF0FE
:10319A00FFFF00EE01F0520EEE6AE806FDE1000EB6
:1031AA00F86E00014AEF1FF0FFFF536EFFFF9EA863
:1031BA00E1EF18F0E4EF18F0FFFFDBEF18F0FFFF84
:1031CA0053C0ADFF1200FFFFFFFF534A542A555068
:1031DA00535C56505458D8A0F5EF18F0F8EF18F091
:1031EA00FFFFFCEF18F0FFFF546A000E536EFFFF5B
:1031FA0053C053F054C054F01200FFFFFFFF12EF08
:10320A0019F0FFFF030E556E6F0EFFFFE82EFDD774
:10321A00552EFBD75306D8A05406FFFF535054101F
:10322A00D8A41AEF19F01DEF19F0FFFF06EF19F0F5
:10323A00FFFF1200FFFFFFFF63BE29EF19F026EF21
:10324A0019F0FFFF3DEF19F0FFFF2D0ED9EC18F032
:10325A0062C064F063C065F0641E651E644A652A34
:10326A0064C05AF065C05BF0ACEC1CF044EF19F096
:10327A00FFFF62C05AF063C05BF0ACEC1CF0FFFFCA
:10328A001200FFFFFFFF5350D8A44EEF19F051EF81
:10329A0019F0FFFF55EF19F0FFFF010E70EF19F05B
:1032AA00FFFF5350D96EDA6A050ED9265350E16EE4
:1032BA00E26A030EE126DE50E6180BE1DE50E6185C
:1032CA00D8B46AEF19F06EEF19F0FFFF010E70EF34
:1032DA0019F0FFFF000EFFFF1200FFFFFFFFB10E04
:1032EA00546E410E556E9FEC19F0AF0E546E410E9E
:1032FA00556E9FEC19F07E0E546E400E556E9FEC83
:10330A0019F0AF0E546E410E556E9FEC19F0410E36
:10331A007DEC1BF0420E7DEC1BF0430E7DEC1BF0A6
:10332A0038EC1BF038EC1BF038EC1BF038EC1BF0D7
:10333A001200FFFFFFFF54505510D8A4A7EF19F051
:10334A00AAEF19F0FFFFB9EF19F0FFFFCAEF19F062
:10335A00FFFF54C0F6FF55C0F7FF0800FFFFF55006
:10336A00D9EC18F0544A552AFFFF54C0F6FF55C04D
:10337A00F7FF0800FFFFF5500009D8A4C7EF19F0BE
:10338A00CAEF19F0FFFFADEF19F0FFFF1200FFFFC0
:10339A00FFFF666E010EF66E400EF76E20EE55F0D8
:1033AA00100E0900FFFFF5CFDEFFE806FAE2300E45
:1033BA00D9EC18F0780ED9EC18F066C054F0543AEB
:1033CA000F0E54160F0E54165450550FD96EDA6A52
:1033DA00DF50D9EC18F066C054F00F0E5416545052
:1033EA00550FD96EDA6ADF50D9EC18F01200FFFFD8
:1033FA00FFFFB10E546E410E556E9FEC19F0AF0EE1
:10340A00546E410E556E9FEC19F09D0E546E400E8F
:10341A00556E9FEC19F0AF0E546E410E556E9FEC2F
:10342A0019F020EF1AF0FFFF38EC1BF0546A640E13
:10343A00536E03EC19F0FFFF4B0E536E47EC19F075
:10344A000009D8B42BEF1AF02EEF1AF0FFFF18EF8D
:10345A001AF0FFFF38EC1BF01200FFFFFFFFB10E5E
:10346A00546E410E556E9FEC19F0AF0E546E410E1C
:10347A00556E9FEC19F0D60E546E400E556E9FECA9
:10348A0019F0AF0E546E410E556E9FEC19F03D0EB9
:10349A00546E400E556E9FEC19F0AF0E546E410EED
:1034AA00556E9FEC19F06A6AFFFF6A50300F7DEC87
:1034BA001BF0546A640E536E03EC19F06A2A070E65
:1034CA006A646AEF1AF06DEF1AF0FFFF59EF1AF00B
:1034DA00FFFF1200FFFFFFFF55505610D8B478EFD8
:1034EA001AF07BEF1AF0FFFFA8EF1AF0FFFF010EA8
:1034FA00576E85EF1AF0FFFFD89055365636572A81
:10350A00FFFF56AE8BEF1AF08EEF1AF0FFFF80EF37
:10351A001AF0FFFFFFFF5550535C56505458D8A07D
:10352A0099EF1AF09CEF1AF0FFFFA1EF1AF0FFFFD4
:10353A005550535E5650545AFFFFD8905632553262
:10354A00572E8FEF1AF0FFFF53C053F054C054F0B8
:10355A001200FFFFFFFF5350D8B4B6EF1AF0B9EFCD
:10356A001AF0FFFFF0EF1AF0FFFF5450D8B4C0EF83
:10357A001AF0C3EF1AF0FFFFF0EF1AF0FFFF5650F0
:10358A0007E1020E555CD8B0CDEF1AF0D0EF1AF071
:10359A00FFFFD3EF1AF0FFFFF0EF1AF0FFFF5350CF
:1035AA00D96EDA6A54C0DFFF5350D96EDA6A010E57
:1035BA00D92655C0DEFF56C0DDFF5350D96EDA6AF0
:1035CA00030ED926DE6ADD6A5350D96EDA6A050E11
:1035DA00D926DE6ADD6AFFFF1200FFFFFFFF66C021
:1035EA0054F067C055F09FEC19F0660E546E410E08
:1035FA00556E9FEC19F04B0E536E42EC1EF053C001
:10360A0062F054C063F020EC19F0900E546E410E33
:10361A00556E9FEC19F04B0E536E47EC19F0686E1D
:10362A006850626E636A20EC19F0980E546E410E6F
:10363A00556E9FEC19F04B0E576E08EC1CF0686E35
:10364A006850626E636A20EC19F0B10E546E410E36
:10365A00556E9FEC19F0AF0E546E410E556E9FECED
:10366A0019F01200FFFFFFFF696AA50E546E410EA2
:10367A00556E9FEC19F04B0E576E690E586EC2ECE0
:10368A001EF00009D8B44CEF1BF04FEF1BF0FFFF00
:10369A0067EF1BF0FFFF7D0E546E410E556E9FECD7
:1036AA0019F06950CDEC19F0B10E546E410E556EF9
:1036BA009FEC19F0AF0E546E410E556E9FEC19F047
:1036CA0074EF1BF0FFFF720E546E410E556E9FECA5
:1036DA0019F0AF0E546E410E556E9FEC19F0FFFFB4
:1036EA00870E666E410E676EF3EC1AF01200FFFF4A
:1036FA00FFFF696E9F0E546E410E556E9FEC19F0D6
:10370A006950CDEC19F0A30E546E410E556E9FEC24
:10371A0019F04B0E576E69C058F0C8EC1DF000093D
:10372A00D8B49AEF1BF09DEF1BF0FFFFACEF1BF034
:10373A00FFFFB20E546E410E556E9FEC19F0AF0E9C
:10374A00546E410E556E9FEC19F0B9EF1BF0FFFF56
:10375A00AA0E546E410E556E9FEC19F0AF0E546EC0
:10376A00410E556E9FEC19F0FFFF870E666E410EF3
:10377A00676EF3EC1AF01200FFFFFFFF586A000EA3
:10378A00576E55505610D8B4CDEF1BF0D0EF1BF042
:10379A00FFFF01EF1CF0FFFF010E596EDAEF1BF07D
:1037AA00FFFFD89055365636592AFFFF56AEE0EF3E
:1037BA001BF0E3EF1BF0FFFFD5EF1BF0FFFFFFFF4E
:1037CA00D890573658365550535C56505458D8A04E
:1037DA00F1EF1BF0F4EF1BF0FFFFFAEF1BF0FFFF16
:1037EA005550535E5650545A5780FFFFD890563260
:1037FA005532592EE4EF1BF0FFFF57C053F058C063
:10380A0054F01200FFFFFFFF5750D8B40FEF1CF01F
:10381A0012EF1CF0FFFF25EF1CF0FFFF5750D96E87
:10382A00DA6A010ED926010EDB5007E1020EDE5CD0
:10383A00D8B022EF1CF025EF1CF0FFFF29EF1CF097
:10384A00FFFF000E57EF1CF0FFFF5750D96EDA6AE0
:10385A00030ED926DECF53F0DDCF54F05750D96E80
:10386A00DA6A010ED926DECF55F0DDCF56F0E9EC43
:10387A0018F053C05AF054C05BF05750D96EDA6A48
:10388A00050ED9265A50DE180BE15B50DE18D8B463
:10389A0051EF1CF055EF1CF0FFFF010E57EF1CF023
:1038AA00FFFF000EFFFF1200FFFFFFFF60506110D5
:1038BA0062106310D8A464EF1CF067EF1CF0FFFFDE
:1038CA0070EF1CF0FFFF800E606E250E616E000E19
:1038DA00626E000E636EFFFFAC98AC84800E536E6E
:1038EA00960E546E980E556E000E566E60C064F0B9
:1038FA0061C065F062C066F063C067F0040EFFFF46
:10390A00D8906436653666366736E82E84EF1CF042
:10391A0064C057F065C058F066C059F067C05AF0E5
:10392A0001EC1DF0FF0E5324686EFF0E5420696EE1
:10393A00FF0E55206A6EFF0E56206B6E68C0AFFFF1
:10394A00AB8EAC8AAB88426A416A1200FFFFFFFF66
:10395A00616A5A505B10D8A4B5EF1CF0B8EF1CF09E
:10396A00FFFFDDEF1CF0FFFF300ED9EC18F0FEEF81
:10397A001CF0FFFF61505C0FD96EDA6A5AC053F02F
:10398A005BC054F0566A0A0E556E70EC1AF053502A
:10399A00300FDF6E612A5AC053F05BC054F0566A8A
:1039AA000A0E556EC2EC1BF053C05AF054C05BF0BD
:1039BA00FFFF5A505B10D8A4E5EF1CF0E8EF1CF0AB
:1039CA00FFFFBEEF1CF0FFFFF4EF1CF0FFFF6106E4
:1039DA0061505C0FD96EDA6ADF50D9EC18F0FFFF3C
:1039EA006150D8A4FBEF1CF0FEEF1CF0FFFFEBEFD9
:1039FA001CF0FFFF1200FFFFFFFF000E5B6E000EC0
:103A0A005C6E000E5D6E000E5E6E575058105910B7
:103A1A005A10D8B413EF1DF016EF1DF0FFFF55EF43
:103A2A001DF0FFFF010E5F6E22EF1DF0FFFFD89021
:103A3A005736583659365A365F2AFFFF5AAE28EF9C
:103A4A001DF02BEF1DF0FFFF1BEF1DF0FFFFFFFF27
:103A5A00D8905B365C365D365E365750535C5850AC
:103A6A005458595055585A505658D8A03FEF1DF03F
:103A7A0042EF1DF0FFFF4CEF1DF0FFFF5750535E62
:103A8A005850545A5950555A5A50565A5B80FFFF4B
:103A9A00D8905A325932583257325F2E2CEF1DF0D5
:103AAA00FFFF5BC053F05CC054F05DC055F05EC0D0
:103ABA0056F01200FFFFFFFFB10E546E410E556E15
:103ACA009FEC19F0AF0E546E410E556E9FEC19F033
:103ADA00BA0E546E400E556E9FEC19F0AF0E546E2E
:103AEA00410E556E9FEC19F0410E7DEC1BF0420E13
:103AFA007DEC1BF0430E7DEC1BF0440E7DEC1BF0BD
:103B0A0038EC1BF038EC1BF0450E7DEC1BF0460E32
:103B1A007DEC1BF0470E7DEC1BF0480E7DEC1BF094
:103B2A00B10E546E410E556E9FEC19F0AF0E546EE5
:103B3A00410E556E9FEC19F0410E546E410E556EB2
:103B4A009FEC19F0AF0E546E410E556E9FEC19F0B2
:103B5A00B7EF1DF0FFFF38EC1BF0546A640E536E8A
:103B6A0003EC19F0FFFF4B0E536E47EC19F00009F6
:103B7A00D8B4C2EF1DF0C5EF1DF0FFFFAFEF1DF087
:103B8A00FFFF1200FFFFFFFF5750D8B4CFEF1DF021
:103B9A00D2EF1DF0FFFFF2EF1DF0FFFF5750D96E75
:103BAA00DA6ADF50D8B4DCEF1DF0DFEF1DF0FFFF5B
:103BBA00F2EF1DF0FFFF5750D96EDA6A010ED926CF
:103BCA00010EDB5007E1020EDE5CD8B0EFEF1DF00C
:103BDA00F2EF1DF0FFFFF6EF1DF0FFFF000E3FEFC3
:103BEA001EF0FFFF5750D96EDA6A030ED926DECFD0
:103BFA0053F0DDCF54F05750D96EDA6A010ED92648
:103C0A00DECF55F0DDCF56F0E9EC18F053C05BF08B
:103C1A0054C05CF05750D96EDA6A050ED9265B504B
:103C2A00DE1807E15C50DE18D8A41EEF1EF021EF63
:103C3A001EF0FFFF24EF1EF0FFFFF2EF1DF0FFFF63
:103C4A005750D96EDA6A030ED926DF50596E57508B
:103C5A00D96EDA6ADF505924D96EDA6A58C0DFFFA2
:103C6A005750D96EDA6A030ED9265BC0DEFF5CC0F4
:103C7A00DDFF010EFFFF1200FFFFFFFF5350D8B414
:103C8A0049EF1EF04CEF1EF0FFFF5FEF1EF0FFFF43
:103C9A005350D96EDA6A010ED926010EDB5007E1BC
:103CAA00020EDE5CD8B05CEF1EF05FEF1EF0FFFF85
:103CBA0065EF1EF0FFFF546A000E536EBFEF1EF051
:103CCA00FFFF5350D96EDA6A050ED9265350E16EBA
:103CDA00E26A030EE126DE50E65CDE50E658D8A022
:103CEA0079EF1EF07CEF1EF0FFFF97EF1EF0FFFF4B
:103CFA005350D96EDA6A050ED926DECF55F0DDCFDC
:103D0A0056F05350D96EDA6A030ED926DECF57F031
:103D1A00DDCF58F05550575C536E56505858546E74
:103D2A00BFEF1EF0FFFF5350D96EDA6A030ED92691
:103D3A00DECF55F0DDCF56F05350D96EDA6A050E54
:103D4A00D926DECF57F0DDCF58F05350D96EDA6A54
:103D5A00010ED926DECF59F0DDCF5AF05750595C03
:103D6A005B6E58505A585C6E55505B24536E5650D1
:103D7A005C20546EFFFF1200FFFFFFFF5750D8B4BC
:103D8A00C9EF1EF0CCEF1EF0FFFFF6EF1EF0FFFFAB
:103D9A005850D8B4D3EF1EF0D6EF1EF0FFFFF6EF5F
:103DAA001EF0FFFF5750D96EDA6ADF50D8B4E0EF41
:103DBA001EF0E3EF1EF0FFFFF6EF1EF0FFFF575075
:103DCA00D96EDA6A010ED926010EDB5007E1020E1E
:103DDA00DE5CD8B0F3EF1EF0F6EF1EF0FFFFFAEF4D
:103DEA001EF0FFFF000E47EF1FF0FFFF5750D96E7E
:103DFA00DA6A050ED9265750E16EE26A030EE12609
:103E0A00DE50E61807E1DE50E618D8A40FEF1FF0DF
:103E1A0012EF1FF0FFFF15EF1FF0FFFFF6EF1EF086
:103E2A00FFFF5750D96EDA6A050ED926DF50596E50
:103E3A005750D96EDA6ADF505924D96EDA6A585067
:103E4A00E16EE26ADFCFE7FF5750D96EDA6A050EF4
:103E5A00D926DECF53F0DDCF54F05750D96EDA6A47
:103E6A00010ED926DECF55F0DDCF56F0E9EC18F079
:103E7A005750D96EDA6A050ED92653C0DEFF54C0F0
:103E8A00DDFF010EFFFF1200FFFFFFFF800E606ED5
:103E9A00250E616E000E626E000E636E5AEC1CF007
:103EAA004B0E536E430E546E566A080E556EAFECA7
:103EBA001AF0B10E546E410E556E9FEC19F0AF0E0A
:103ECA00546E410E556E9FEC19F00D0E546E410E54
:103EDA00556E9FEC19F0AF0E546E410E556E9FEC65
:103EEA0019F0280E546E410E556E9FEC19F0AF0E64
:103EFA00546E410E556E9FEC19F0120E546E400E20
:103F0A00556E9FEC19F0AF0E546E410E556E9FEC34
:103F1A0019F0B10E546E410E556E9FEC19F0AF0EAA
:103F2A00546E410E556E9FEC19F0570E666E410E97
:103F3A00676EF3EC1AF0FFFF4B0E536E430E546E8E
:103F4A00566A080E556EAFEC1AF073EC19F04B0E68
:103F5A00536E430E546E566A080E556EAFEC1AF045
:103F6A0033EC1AF0FDEC19F04B0E536E430E546EFF
:103F7A00566A080E556EAFEC1AF060EC1DF0B10EE1
:103F8A00546E410E556E9FEC19F0AF0E546E410EF1
:103F9A00556E9FEC19F05E0E546E400E556E9FECF6
:103FAA0019F0AF0E546E410E556E9FEC19F0F20ED9
:103FBA00546E400E556E9FEC19F0AF0E546E410EC2
:103FCA00556E9FEC19F0B10E546E410E556E9FEC72
:103FDA0019F0AF0E546E410E556E9FEC19F00B0E90
:103FEA00546EB80E536E03EC19F0A0EF1FF0FEEFFB
:103FFA001FF0CEEF18F0003031323334353637380F
:10400A003941424344454600554152543A205243AD
:10401A00362F54582070696E3235202D3E2056694D
:10402A00727475616C205465726D696E616C205290
:10403A005844004275666665722073697A653D3830
:10404A002C20757361626C652063617061636974A9
:10405A00793D3700416C6C2072696E675F627566E4
:10406A006665722074657374732066696E69736815
:10407A0065642E003D3D3D205465737420313A201D
:10408A00626173696320707573682F706F70203D69
:10409A003D3D003D3D3D205465737420333A206414
:1040AA007261696E20627566666572203D3D3D00EB
:1040BA003D3D3D205465737420343A207772617017
:1040CA002D61726F756E64203D3D3D003D3D3D2082
:1040DA005465737420323A2066696C6C2062756686
:1040EA00666572203D3D3D00526573746172746964
:1040FA006E6720696E2033207365636F6E64732E5A
:10410A002E2E005049433138463435322072696EBA
:10411A00675F627566666572207465737400536FB3
:10412A006674776172652052414D204649464F2098
:10413A006275666665720052656164696E672077AA
:10414A0072617070656420646174613A00496E69D5
:10415A007469616C2073746174653A0020617661D8
:10416A00696C61626C653D004641494C20454D5081
:10417A005459004F4B2076616C75653D00202073C1
:10418A00746174653A0020656D7074793D0020662B
:10419A00756C6C3D00505553482000504F5020001C
:0C41AA004641494C000D0A004F4B00003C
:020000040030CA
:0E000000FF220F0EFF0181FF0FC00FE00F4027
:00000001FF
