:060000000000FEEF1FF0FE
:100600000050494331384634353220484434343779
:100610003830204C434420342D6269742074657353
:1006200074202020005B202020202020202020205B
:10063000202020205D005049433138463435322097
:100640007265616479005363726F6C6C206D6573C1
:10065000736167650052532052423020454E20524C
:1006600042310044342D4437205244342D52443713
:1006700000504943313846343532204C4344004C15
:1006800043442054455354204C4F4F500044697309
:10069000706C617920616C69766500484434343748
:1006A000383020342D6269740050726F6772657340
:1006B00073207465737400436F756E746572207473
:1006C000657374005374617475733A204F4B004323
:1006D0006F756E743A2000526F773000526F773129
:1006E0000000FFFF08C040F009C041F00AC03EF022
:1006F0000BC03FF00CC03CF00DC03DF00EC03AF016
:100700000FC03BF011C038F012C039F013C036F002
:1007100014C037F010C047F015C046F016C045F0C1
:1007200017C044F018C043F019C042F045C01AF099
:10073000010E1B6E1A2AA0EF03F0FFFFD8901B36A4
:10074000FFFF1A2E9DEF03F01B50FF0A1C6E3EC0E8
:10075000D9FF3FC0DAFF1C50DF1644C01AF0010E6B
:100760001B6E1A2AB7EF03F0FFFFD8901B36FFFF6E
:100770001A2EB4EF03F01B50FF0A1C6E3EC0D9FFC7
:100780003FC0DAFF1C50DF1643C01AF0010E1B6E8B
:100790001A2ACEEF03F0FFFFD8901B36FFFF1A2E68
:1007A000CBEF03F01B50FF0A1C6E3EC0D9FF3FC0C9
:1007B000DAFF1C50DF1642C01AF0010E1B6E1A2A17
:1007C000E5EF03F0FFFFD8901B36FFFF1A2EE2EF94
:1007D00003F01B50FF0A1C6E3EC0D9FF3FC0DAFF7A
:1007E0001C50DF1647C01AF0010E1B6E1A2AFCEFD0
:1007F00003F0FFFFD8901B36FFFF1A2EF9EF03F02E
:100800001B50FF0A1C6E3AC0D9FF3BC0DAFF1C50D8
:10081000DF1646C01AF0010E1B6E1A2A13EF04F001
:10082000FFFFD8901B36FFFF1A2E10EF04F01B506D
:10083000FF0A1C6E36C0D9FF37C0DAFF1C50DF1626
:100840003CC001F03DC002F047C003F0000E046E52
:100850008CEC06F038C001F039C002F046C003F05D
:10086000000E046E8CEC06F01200FFFFFFFF79EC27
:1008700008F0000E0B6E000E3EEC08F00E6AFFFF53
:10088000230E70EC08F00E2A0F0E0E644AEF04F0EF
:100890004DEF04F0FFFF3FEF04F0FFFF000E0B6E83
:1008A000010E3EEC08F00E6AFFFF2A0E70EC08F015
:1008B0000E2A0F0E0E645FEF04F062EF04F0FFFFEC
:1008C00054EF04F0FFFF040E026EB00E016E21EC37
:1008D00008F079EC08F0000E0B6E000E3EEC08F00C
:1008E0000E6AFFFF0EC001F0026A046A0A0E036E70
:1008F0004DEC06F00150300F70EC08F00E2A0F0E90
:100900000E6485EF04F088EF04F0FFFF71EF04F050
:10091000FFFF000E0B6E010E3EEC08F00E6AFFFFAB
:100920000E50410F70EC08F00E2A0F0E0E649BEF74
:1009300004F09EEF04F0FFFF8FEF04F0FFFF070EBF
:10094000026E080E016E21EC08F01200FFFFFFFF9F
:10095000356A830E086E0F0E096E950E0A6E0F0E25
:100960000B6E810E0C6E0F0E0D6E930E0E6E0F0E33
:100970000F6E000E106E810E116E0F0E126E930E22
:10098000136E0F0E146E010E156E040E166E050E0C
:10099000176E060E186E070E196E71EC03F03EEC22
:1009A00005F0FFFF04EC08F0E7EC07F0C9EC05F0F8
:1009B00036EC04F070EC07F001EC07F084EC05F085
:1009C00035500CEC06F0352A020E3564EAEF04F0DF
:1009D000EDEF04F0FFFFD1EF04F0FFFF356AD1EF38
:1009E00004F0FEEF1FF0FFFF0E6A03EF05F0FFFFBC
:1009F0000C500E240D6E0DC0F6FF0800FFFFF550E1
:100A000070EC08F00E2AFFFF0C50D8B40AEF05F086
:100A10000DEF05F0FFFF31EF05F0FFFF0C500E2446
:100A20000D6E0DC0F6FF0800FFFFF5500009D8B4A9
:100A30001CEF05F01FEF05F0FFFF31EF05F0FFFFA2
:100A40000F0E0E6426EF05F029EF05F0FFFFF7EF1C
:100A500004F0FFFF31EF05F0FFFF200E70EC08F00F
:100A60000E2AFFFF0F0E0E6438EF05F03BEF05F086
:100A7000FFFF2CEF05F0FFFF1200FFFFFFFF026AF0
:100A8000140E016E21EC08F03CC001F03DC002F0F4
:100A900047C003F0000E046E8CEC06F0030E39EC38
:100AA00007F0026A050E016E21EC08F0030E39EC26
:100AB00007F0026A960E016E5AEC08F0030E39EC4C
:100AC00007F0026A960E016E5AEC08F0020E39EC3D
:100AD00007F0026A960E016E5AEC08F0000E096EDD
:100AE000280EC8EC06F0000E096E0C0EC8EC06F0DD
:100AF000000E096E010EC8EC06F0000E096E060E1F
:100B0000C8EC06F01200FFFFFFFF010EF66E20EEAC
:100B10000FF0230E0900FFFFF5CFDEFFE806FAE233
:100B2000336AFFFF79EC08F0000E0B6E000E3EEC0E
:100B300008F0460E0C6EF3EC04F0000E0B6E010E86
:100B40003EEC08F0346AFFFF34500F0F3324D96EA7
:100B5000DA6ADF5070EC08F0342A0F0E3464B3EF19
:100B600005F0B6EF05F0FFFFA3EF05F0FFFF026A07
:100B7000FA0E016E21EC08F0332A150E3364C3EF30
:100B800005F0C6EF05F0FFFF91EF05F0FFFF120043
:100B9000FFFFFFFF79EC08F0000E0B6E000E3EEC3D
:100BA00008F0300E70EC08F00F0E0B6E000E3EECED
:100BB00008F0310E70EC08F0000E0B6E010E3EECEA
:100BC00008F0320E70EC08F00F0E0B6E010E3EECCA
:100BD00008F0330E70EC08F0050E026EDC0E016EAC
:100BE00021EC08F0010E0B6E000E3EEC08F0D70E63
:100BF0000C6E9EEC07F0010E0B6E010E3EEC08F041
:100C0000DC0E0C6E9EEC07F0050E026EDC0E016E23
:100C100021EC08F01200FFFFFFFF0F6E79EC08F0E7
:100C2000000E0B6E000E3EEC08F07F0E0C6EF3EC27
:100C300004F0000E0B6E010E3EEC08F00F50D8A42D
:100C400024EF06F027EF06F0FFFF2EEF06F0FFFF80
:100C5000C40E0C6EF3EC04F044EF06F0FFFF0F043B
:100C6000D8A435EF06F038EF06F0FFFF3FEF06F0AF
:100C7000FFFF8D0E0C6EF3EC04F044EF06F0FFFF67
:100C8000360E0C6EF3EC04F0FFFF030E026EE80E5E
:100C9000016E21EC08F01200FFFFFFFF035004106B
:100CA000D8B455EF06F058EF06F0FFFF85EF06F0D9
:100CB000FFFF010E056E62EF06F0FFFFD8900336CE
:100CC0000436052AFFFF04AE68EF06F06BEF06F06E
:100CD000FFFF5DEF06F0FFFFFFFF0350015C0450D4
:100CE0000258D8A076EF06F079EF06F0FFFF7EEF0E
:100CF00006F0FFFF0350015E0450025AFFFFD89038
:100D000004320332052E6CEF06F0FFFF01C001F044
:100D100002C002F01200FFFFFFFF0450D8B493EFAF
:100D200006F096EF06F0FFFFADEF06F0FFFF03C001
:100D300005F0010E066E052AA1EF06F0FFFFD89020
:100D40000636FFFF052E9EEF06F001C0D9FF02C058
:100D5000DAFF0650DF12C5EF06F0FFFF03C005F013
:100D6000010E066E052AB8EF06F0FFFFD890063692
:100D7000FFFF052EB5EF06F00650FF0A076E01C013
:100D8000D9FF02C0DAFF0750DF16FFFF1200FFFF96
:100D9000FFFF0A6E3CC001F03DC002F047C003F007
:100DA00009C004F08CEC06F00A380F0B39EC07F0A0
:100DB0000A500F0B39EC07F00A04D8B4E2EF06F042
:100DC000E5EF06F0FFFFF0EF06F0FFFF020E0A1856
:100DD000D8A4EDEF06F0F0EF06F0FFFFF8EF06F015
:100DE000FFFF026A020E016E21EC08F0FEEF06F032
:100DF000FFFF026A280E016E5AEC08F0FFFF120096
:100E0000FFFFFFFF79EC08F0000E0B6E000E3EECCA
:100E100008F0A90E0C6EF3EC04F0000E0B6E010E40
:100E20003EEC08F0250E0C6EF3EC04F0010E0F6E94
:100E3000FFFF0FC00BF0010E3EEC08F03D0E70EC12
:100E400008F0026A960E016E21EC08F00F2A0E0ED1
:100E50000F642DEF07F030EF07F0FFFF18EF07F0FA
:100E6000FFFF030E026E200E016E21EC08F012004F
:100E7000FFFFFFFF086E40C001F041C002F045C017
:100E800003F00850010B046E8CEC06F040C001F03A
:100E900041C002F044C003F0D8900830010B046E4A
:100EA0008CEC06F040C001F041C002F043C003F0FA
:100EB0000840E8423F0B010B046E8CEC06F040C08A
:100EC00001F041C002F042C003F00838E8461F0BB1
:100ED000010B046E8CEC06F0C6EC07F01200FFFF6D
:100EE000FFFF0F6AFFFF79EC08F0000E0B6E000E9B
:100EF0003EEC08F0B70E0C6EF3EC04F0000E0B6E37
:100F0000010E3EEC08F0CF0E0C6E9EEC07F00F5079
:100F1000300F70EC08F0010E026EF40E016E21EC41
:100F200008F00F2A090E0F6498EF07F09BEF07F007
:100F3000FFFF72EF07F0FFFF1200FFFFFFFF0C50F3
:100F4000D8A4A5EF07F0A8EF07F0FFFFB4EF07F074
:100F5000FFFFC3EF07F0FFFF0CC0F6FF0800FFFF25
:100F6000F55070EC08F00C2AFFFF0CC0F6FF0800EB
:100F7000FFFFF5500009D8A4C0EF07F0C3EF07F05A
:100F8000FFFFABEF07F0FFFF1200FFFFFFFF38C0CE
:100F900001F039C002F046C003F0010E046E8CEC83
:100FA00006F0026A020E016E5AEC08F038C001F039
:100FB00039C002F046C003F0000E046E8CEC06F05F
:100FC000026A020E016E5AEC08F01200FFFFFFFFEA
:100FD00079EC08F0000E0B6E000E3EEC08F0550E9A
:100FE0000C6EF3EC04F0000E0B6E010E3EEC08F0FC
:100FF000630E0C6EF3EC04F0070E026ED00E016E61
:1010000021EC08F01200FFFFFFFF79EC08F0000E62
:101010000B6E000E3EEC08F0710E0C6EF3EC04F05B
:10102000000E0B6E010E3EEC08F09B0E0C6EF3EC06
:1010300004F0050E026EDC0E016E21EC08F01200C9
:10104000FFFFFFFF30EF08F0FFFF030E036E6F0E90
:10105000FFFFE82EFDD7032EFBD70106D8A002061E
:10106000FFFF01500210D8A438EF08F03BEF08F062
:10107000FFFF24EF08F0FFFF1200FFFFFFFF0C6EE1
:101080000C50D8A446EF08F049EF08F0FFFF4DEFF1
:1010900008F0FFFF0D6A50EF08F0FFFF400E0D6EE5
:1010A000FFFF000E096E0D500B248009C8EC06F0FE
:1010B0001200FFFFFFFF62EF08F0FFFF00D0010604
:1010C000D8A00206FFFF01500210D8A46AEF08F072
:1010D0006DEF08F0FFFF5DEF08F0FFFF1200FFFF6C
:1010E000FFFF0B6E010E096E0B50C8EC06F01200EC
:1010F000FFFFFFFF000E096E010EC8EC06F01200A4
:10110000FFFF000EF86E060EF76E0001A7EF04F069
:02111000FFFFDF
:043FFC0081EF08F059
:020000040030CA
:0E000000FF220F0EFF0181FF0FC00FE00F4027
:00000001FF
