:060000000000FEEF1FF0FE
:100600000000FFFF74EC03F07DEC03F044EC03F01A
:10061000FFFF5DEC03F00009D8B411EF03F014EF15
:1006200003F0FFFF19EF03F0FFFF8180FFFF16EFDC
:1006300003F0FFFF6FEC03F079EC03F0026AFA0EAF
:10064000016E27EC03F008EF03F0FEEF1FF0FFFF51
:1006500036EF03F0FFFF030E036E6F0EFFFFE82E71
:10066000FDD7032EFBD70106D8A00206FFFF0150DD
:100670000210D8A43EEF03F041EF03F0FFFF2AEF92
:1006800003F0FFFF1200FFFFFFFF046AFFFF6FECA4
:1006900003F0026A960E016E27EC03F079EC03F08A
:1006A000042A050E046457EF03F05AEF03F0FFFF2E
:1006B00046EF03F0FFFF1200FFFFFFFF81B263EF81
:1006C00003F066EF03F0FFFF6AEF03F0FFFF010E98
:1006D0006CEF03F0FFFF000EFFFF1200FFFFFFFFB4
:1006E000010E811A1200FFFFFFFF9390819012000C
:1006F000FFFFFFFF04001200FFFFFFFF93821200C5
:0A070000FFFF000101EF03F0FFFF0F
:043FFC0081EF03F05E
:020000040030CA
:0E000000FF220F0EFF0181FF0FC00FE00F4027
:00000001FF
